:10000000D3C00000FFC00000FDC00000FBC0000026
:10001000F9C00000F7C00000F5C00000F3C0000008
:10002000F1C00000EFC00000EDC00000EBC0000018
:10003000E9C00000E7C00000E5C00000E3C0000028
:10004000E1C00000DFC00000DDC00000DBC0000038
:10005000D9C00000D7C00000D5C00000A5C3000073
:10006000D1C0000078C300004DC30000CBC0000029
:10007000C9C00000C7C00000C5C00000C3C0000068
:10008000C1C00000BFC00000BDC00000BBC0000078
:1000900010C30000E5C20000B5C00000B3C00000FE
:1000A000B1C00000AFC00000ADC00000ABC0000098
:1000B000A9C00000A7C00000A5C00000A3C00000A8
:1000C000A1C000009FC000009DC000009BC00000B8
:1000D00099C0000097C000009AC200006FC20000E3
:1000E00091C0000000002200250028002B002E00F7
:1000F0003100340002010000050108010B0100007D
:100100002100240027002A002D00300033000101C7
:100110000000040107010A01050505050705080897
:100120000808020202020A0A080804040404010181
:100130000101010101010303030303030303040796
:1001400007070C0C0C0C0C0C0C0C0202020206062D
:100150000606060606060B0B0B0B0B0B0B0B010220
:1001600010202008081020401020408002010201C9
:100170000804020101020408102040808040201081
:1001800008040201800402018040201008040201DA
:100190000804020101020408102040800102040842
:1001A000102040801E049D0711241FBECFEFD1E216
:1001B000DEBFCDBF00E00CBF12E0A0E0B2E0EAEB92
:1001C000FFE000E00BBF02C007900D92A231B10723
:1001D000D9F726E0A2E1B2E001C01D92A930B20732
:1001E000E1F710E0C3EDD0E000E005C02197010980
:1001F000802FFE01C5D6C23DD10780E00807B1F7C8
:100200002AD6CAC6FDCECF92DF92EF92FF920F930D
:100210001F93CF93DF93EC016A017B01E889F98991
:1002200082E080834115514E61057105A9F060E0BF
:1002300079E08DE390E0A701960180D689019A01CB
:100240000150110921093109369527951795079510
:10025000980101151041A0F0E889F989108260E841
:1002600074E88EE190E0A701960168D6DA01C90131
:100270000197A109B109B695A795979587959C0116
:10028000EC85FD853083EE85FF852083188EEC8913
:10029000FD8986E08083EA89FB8980818061808393
:1002A000EA89FB89808188608083EA89FB89808173
:1002B00080688083EA89FB8980818F7D8083DF91DC
:1002C000CF911F910F91FF90EF90DF90CF90089505
:1002D00090E0FC01E25AFE4F2491FC01E85EFE4FE3
:1002E0008491882399F090E0880F991FFC01E250D7
:1002F000FF4FA591B491FC01EC51FF4F8591949172
:100300008FB7F894EC91E22BEC938FBF0895CF92C6
:10031000DF92EF92FF920F931F93CF93DF936C01C5
:100320007A018B01C0E0D0E0CE15DF0589F0D8015D
:100330006D918D01D601ED91FC910190F081E02D40
:10034000C6011995892B11F47E0102C02196ECCFCC
:10035000C701DF91CF911F910F91FF90EF90DF9038
:10036000CF900895FC01A089B1898C91A689B789A5
:1003700082FD0FC09C91818D8F5F8F73228D8217BC
:1003800049F0218DDF01A20FB11D5D969C93818FF5
:1003900008958C910895089580E090E00895FC01FF
:1003A000538D448D252F30E0842F90E0821B930BDA
:1003B000541710F0CF96089501970895FC01918D80
:1003C000828D981761F0828DDF01A80FB11D5D96B7
:1003D0008C91928D9F5F9F73928F90E008958FEF25
:1003E0009FEF0895FC01918D828D981731F0828DD9
:1003F000E80FF11D858D90E008958FEF9FEF089530
:10040000FC01918D228D892F90E0805C9F4F821B93
:1004100091098F739927089585E593E0F1DF21E035
:10042000892B09F420E0822F089588EB92E0E8DF21
:1004300021E0892B09F420E0822F08958BE192E0DE
:10044000DFDF21E0892B09F420E0822F0895FC01F1
:10045000848DDF01A80FB11DA35ABF4F2C91848D4D
:1004600090E001968F739927848FA689B7892C9382
:10047000A089B1898C9180648C93938D848D98131D
:1004800006C00288F389E02D80818F7D80830895E6
:10049000EF92FF920F931F93CF93DF93EC0181E0D4
:1004A000888F9B8D8C8D981305C0E889F989808190
:1004B00085FD23C0F62E0B8D10E00F5F1F4F0F73CD
:1004C0001127E02E8C8DE8120BC00FB607FCFACF77
:1004D000E889F989808185FFF5CFCE01B8DFF2CFB9
:1004E0008B8DFE01E80FF11DE35AFF4FF0820B8F59
:1004F000EA89FB898081806207C0EE89FF89608379
:10050000E889F98980818064808381E090E0DF91CF
:10051000CF911F910F91FF90EF900895CF93DF93AC
:10052000EC01888D8823C1F0EA89FB89808185FDF3
:1005300005C0A889B9898C9186FD0EC00FB607FC4D
:10054000F5CF808185FFF2CFA889B9898C9185FF8D
:10055000EDCFCE017CDFE8CFDF91CF91089580E031
:1005600090E0892B19F06ADF81111BC080E090E0D8
:10057000892B19F05ADF811117C080E090E0892B98
:1005800041F080E090E0892B21F00E940000811171
:100590000EC080E090E0892B79F03EDF81110AC027
:1005A00008950E940000E2CF0E940000E6CF0E9462
:1005B0000000EFCF0C9400000895EAD41F920F9230
:1005C0000FB60F9211240BB60F922F933F934F93B8
:1005D0005F936F937F938F939F93AF93BF93EF93AB
:1005E000FF9385E593E033DFFF91EF91BF91AF91EA
:1005F0009F918F917F916F915F914F913F912F913B
:100600000F900BBE0F900FBE0F901F9018951F926A
:100610000F920FB60F9211240BB60F922F933F93A8
:100620004F935F936F937F938F939F93AF93BF93FA
:10063000EF93FF9385E593E095DEFF91EF91BF91F6
:10064000AF919F918F917F916F915F914F913F916A
:100650002F910F900BBE0F900FBE0F901F9018950B
:100660001F920F920FB60F9211240BB60F922F9379
:100670003F934F935F936F937F938F939F93AF932A
:10068000BF93EF93FF9388EB92E0E1DEFF91EF9150
:10069000BF91AF919F918F917F916F915F914F919A
:1006A0003F912F910F900BBE0F900FBE0F901F9098
:1006B00018951F920F920FB60F9211240BB60F923E
:1006C0002F933F934F935F936F937F938F939F935A
:1006D000AF93BF93EF93FF9388EB92E043DEFF91DC
:1006E000EF91BF91AF919F918F917F916F915F91AA
:1006F0004F913F912F910F900BBE0F900FBE0F9017
:100700001F9018951F920F920FB60F9211240BB6DF
:100710000F922F933F934F935F936F937F938F939A
:100720009F93AF93BF93EF93FF938BE192E08FDEA4
:10073000FF91EF91BF91AF919F918F917F916F91B9
:100740005F914F913F912F910F900BBE0F900FBE75
:100750000F901F9018951F920F920FB60F921124B1
:100760000BB60F922F933F934F935F936F937F93AB
:100770008F939F93AF93BF93EF93FF938BE192E09F
:10078000F1DDFF91EF91BF91AF919F918F917F919B
:100790006F915F914F913F912F910F900BBE0F90F2
:1007A0000FBE0F901F9018951F920F920FB60F92C9
:1007B00011242F933F938F939F93AF93BF93809177
:1007C000170290911802A0911902B0911A0230916B
:1007D000160223E0230F2D3720F40196A11DB11D31
:1007E00005C026E8230F0296A11DB11D2093160215
:1007F0008093170290931802A0931902B0931A02E3
:100800008091120290911302A0911402B0911502EE
:100810000196A11DB11D8093120290931302A09323
:100820001402B0931502BF91AF919F918F913F91A8
:100830002F910F900FBE0F901F9018950F931F933D
:10084000CF93DF93E5E5F3E01382128248EE53E0A5
:1008500060E070E0448355836683778384E092E0B0
:100860009183808325E331E03587248724E331E0D9
:100870003787268720E331E0318B208B21E331E07D
:10088000338B228B22E331E0358B248B26E331E05E
:10089000378B268B118E128E138E148EE8EBF2E0BE
:1008A0001382128244835583668377839183808386
:1008B0002DEC30E0358724872CEC30E03787268715
:1008C00028EC30E0318B208B29EC30E0338B228B0D
:1008D0002AEC30E0358B248B2EEC30E0378B268BE6
:1008E000118E128E138E148EABE1B2E013961C9211
:1008F0001E92129714964D935D936D937C93179768
:1009000011969C938E9385EC90E01D969C938E930C
:100910001C9784EC90E01F969C938E931E9780EC1E
:1009200090E051969C938E93509781EC90E0539673
:100930009C938E93529782EC90E055969C938E9365
:10094000549786EC90E057969C938E9356975996C1
:100950001C9259975A961C925A975B961C925B97D9
:100960005C961C92C2EFD3E0D0934F04C0934E0428
:1009700081E08093500440E050E066E973E44093E6
:100980005104509352046093530470935404109292
:10099000550410925604109257041092580480E0A7
:1009A00090E0ABE2B4E48093590490935A04A0938E
:1009B0005B04B0935C04D0935E04C0935D0422E0BA
:1009C00020935F0440936004509361046093620439
:1009D000709363041092640410926504109266048C
:1009E000109267048093680490936904A0936A044A
:1009F000B0936B04D0936D04C0936C0423E02093F8
:100A00006E0440936F04509370046093710470936C
:100A10007204109273041092740410927504109270
:100A200076048093770490937804A0937904B0932C
:100A30007A0422E030E030937C0420937B04D0934E
:100A40009804C093970416E01093990440939A0475
:100A500050939B0460939C0470939D0410929E0499
:100A600010929F041092A0041092A1048093A204FB
:100A70009093A304A093A404B093A504D093A704D7
:100A8000C093A60415E01093A8044093A9045093C2
:100A9000AA046093AB047093AC041092AD0410925E
:100AA000AE041092AF041092B0048093B1049093FE
:100AB000B204A093B304B093B404D093B604C0932B
:100AC000B50414E01093B7044093B8045093B904EC
:100AD0006093BA047093BB041092BC041092BD04DE
:100AE0001092BE041092BF048093C0049093C1047E
:100AF000A093C204B093C3043093C5042093C404EC
:100B0000D093E104C093E00419E01093E204409311
:100B1000E3045093E4046093E5047093E6041092B8
:100B2000E7041092E8041092E9041092EA0480931A
:100B3000EB049093EC04A093ED04B093EE04D093F7
:100B4000F004C093EF0418E01093F1044093F20412
:100B50005093F3046093F4047093F5041092F60438
:100B60001092F7041092F8041092F9048093FA049A
:100B70009093FB04A093FC04B093FD04D093FF0476
:100B8000C093FE0417E010930005409301055093B5
:100B900002056093030570930405109205051092F9
:100BA0000605109207051092080580930905909399
:100BB0000A05A0930B05B0930C0530930E05209306
:100BC0000D05D0932A05C09329051CE010932B0531
:100BD00040932C0550932D0560932E0570932F059F
:100BE00010923005109231051092320510923305A3
:100BF0008093340590933505A0933605B09337055F
:100C0000D0933905C09338051BE010933A05409303
:100C10003B0550933C0560933D0570933E05109253
:100C20003F051092400510924105109242058093B5
:100C3000430590934405A0934505B0934605D09392
:100C40004805C09347051AE01093490540934A05AB
:100C500050934B0560934C0570934D0510924E05D3
:100C600010924F0510925005109251058093520535
:100C700090935305A0935405B093550530935705B1
:100C800020935605D0937305C09372050FE000932F
:100C900074054093750550937605609377057093BE
:100CA00078051092790510927A0510927B051092C2
:100CB0007C0580937D0590937E05A0937F05B0937E
:100CC0008005D0938205C09381050EE000938305D3
:100CD000409384055093850560938605709387053E
:100CE000109288051092890510928A0510928B0542
:100CF00080938C0590938D05A0938E05B0938F05FE
:100D0000D0939105C09390050DE000939205409318
:100D100093055093940560939505709396051092F2
:100D20009705109298051092990510929A05809354
:100D30009B0590939C05A0939D05B0939E053093D1
:100D4000A00520939F05D093BC05C093BB0502E18D
:100D50000093BD054093BE055093BF056093C00549
:100D60007093C1051092C2051092C3051092C4057C
:100D70001092C5058093C6059093C705A093C8053A
:100D8000B093C905D093CB05C093CA0501E1009388
:100D9000CC054093CD055093CE056093CF0570935D
:100DA000D0051092D1051092D2051092D305109261
:100DB000D4058093D5059093D605A093D705B0931D
:100DC000D805D093DA05C093D90500E10093DB057F
:100DD0004093DC055093DD056093DE057093DF05DD
:100DE0001092E0051092E1051092E2051092E305E1
:100DF0008093E4059093E505A093E605B093E7059D
:100E00003093E9052093E805FD8FEC8F19838AE084
:100E10005FDA40E452E46FE070E08C8D9D8DF3D991
:100E20001092040610920306109206061092050610
:100E300010920806109207068DE04ADA8CE048DA34
:100E400040E855E260E070E085E593E0DF91CF9106
:100E50001F910F91D8C9789484B5826084BD84B500
:100E6000816084BD85B5826085BD85B5816085BDA5
:100E700080916E00816080936E001092810080915D
:100E800081008260809381008091810081608093E5
:100E90008100809180008160809380008091B1000A
:100EA00084608093B1008091B00081608093B00035
:100EB0008091910082608093910080919100816087
:100EC0008093910080919000816080939000809148
:100ED000A10082608093A1008091A1008160809335
:100EE000A1008091A00081608093A00080912101E9
:100EF0008260809321018091210181608093210192
:100F00008091200181608093200180917A0084602B
:100F100080937A0080917A00826080937A00809139
:100F20007A00816080937A0080917A008068809353
:100F30007A001092C10013DBFECF0895A1E21A2EB1
:100F4000AA1BBB1BFD010DC0AA1FBB1FEE1FFF1F6D
:100F5000A217B307E407F50720F0A21BB30BE40BBD
:100F6000F50B661F771F881F991F1A9469F7609504
:100F70007095809590959B01AC01BD01CF010895BE
:100F8000EE0FFF1F881F8BBF0790F691E02D19947D
:100F900081E090E0F89400C010E0C3EDD0E000E004
:100FA00005C0802FFE01ECDF2196011DC43DD10755
:0A0FB00080E00807B1F7F894FFCFC6
:100FBA000000000048028701CF018E020002DE0114
:020FCA00F20132
:00000001FF
