:100000003DC100006BC1000069C1000067C1000074
:1000100065C1000063C1000061C100005FC1000054
:100020005DC100005BC1000059C1000057C1000064
:1000300055C1000053C1000051C100004FC1000074
:100040004DC100004BC1000049C1000047C1000084
:1000500045C1000043C1000041C100008EC3000043
:100060003DC1000061C3000036C3000037C100007D
:1000700035C1000033C1000031C100002FC10000B4
:100080002DC100002BC1000029C1000027C10000C4
:10009000F9C20000CEC2000021C100001FC1000053
:1000A0001DC100001BC1000019C1000017C10000E4
:1000B00015C1000013C1000011C100000FC10000F4
:1000C0000DC100000BC1000009C1000007C1000004
:1000D00005C1000003C1000083C2000058C2000037
:1000E000FDC00000510A540A430A470A4B0A8B0A12
:1000F000580A5C0A620A660A6A0A700A740A780A6E
:100100008B0A7E0A820A860A036EDB363D9A99992B
:10011000993DABAAAA2A3E000000803F084AD73B7F
:100120003BCE016E84BCBFFDC12F3D6C74319ABDC6
:1001300056833DDA3D00C77F11BED9E4BB4C3E91EA
:100140006BAAAABE000000803F072C7AA5BA6CC536
:1001500090DA3B9365FC8BBC53F810FD3C569283C0
:100160004DBD879D3AB63DCBC9BF5BBE73DA0FC9A3
:100170003F0000002100240027002A002D0030004D
:10018000330001010000040107010A010000220000
:10019000250028002B002E00310034000201000051
:1001A000050108010B0105050505070508080808F4
:1001B000020202020A0A08080404040401010101FF
:1001C00001010101030303030303030304070707FA
:1001D0000C0C0C0C0C0C0C0C02020202060606069F
:1001E000060606060B0B0B0B0B0B0B0B010210206C
:1001F000200808102040102040800201020108045D
:1002000002010102040810204080804020100804F0
:100210000201800402018040201008040201080449
:10022000020101020408102040800102040810208D
:10023000408000000A0B02090C0D0E0807030401A0
:1002400000000000000000000000000000000000AE
:10025000000000000000000000000000000012117B
:10026000100000000000000000000000000000007E
:100270000000000000000000B708B60811241FBEEF
:10028000CFEFD1E2DEBFCDBF00E00CBF12E0A0E0B7
:10029000B2E0ECEFFEE100E00BBF02C007900D9270
:1002A000A834B107D9F725E0A8E4B2E001C01D9257
:1002B000A43BB207E1F711E0CDE3D1E000E006C0D6
:1002C00021970109802FFE010E94340ECC33D10703
:1002D00080E00807A9F77ED40C946D0F91CECF92E1
:1002E000DF92EF92FF920F931F93CF93DF936C01F6
:1002F0007A018B01C0E0D0E0CE15DF0589F0D8018E
:100300006D918D01D601ED91FC910190F081E02D70
:10031000C6011995892B11F47E0102C02196ECCFFC
:10032000C701DF91CF911F910F91FF90EF90DF9068
:10033000CF900895FC01A089B1898C91A689B789D5
:1003400082FD0FC09C91818D8F5F8F73228D8217EC
:1003500049F0218DDF01A20FB11D5D969C93818F25
:1003600008958C910895089580E090E00895FC012F
:10037000538D448D252F30E0842F90E0821B930B0A
:10038000541710F0CF96089501970895FC01918DB0
:10039000828D981761F0828DDF01A80FB11D5D96E7
:1003A0008C91928D9F5F9F73928F90E008958FEF55
:1003B0009FEF0895FC01918D828D981731F0828D09
:1003C000E80FF11D858D90E008958FEF9FEF089560
:1003D000FC01918D228D892F90E0805C9F4F821BC4
:1003E00091098F73992708958BE893E0F1DF21E05D
:1003F000892B09F420E0822F08958EEE92E0E8DF49
:1004000021E0892B09F420E0822F089581E592E014
:10041000DFDF21E0892B09F420E0822F0895FC0121
:10042000848DDF01A80FB11DA35ABF4F2C91848D7D
:1004300090E001968F739927848FA689B7892C93B2
:10044000A089B1898C9180648C93938D848D98134D
:1004500006C00288F389E02D80818F7D8083089516
:10046000EF92FF920F931F93CF93DF93EC0181E004
:10047000888F9B8D8C8D981305C0E889F9898081C0
:1004800085FD23C0F62E0B8D10E00F5F1F4F0F73FD
:100490001127E02E8C8DE8120BC00FB607FCFACFA7
:1004A000E889F989808185FFF5CFCE01B8DFF2CFE9
:1004B0008B8DFE01E80FF11DE35AFF4FF0820B8F89
:1004C000EA89FB898081806207C0EE89FF896083A9
:1004D000E889F98980818064808381E090E0DF9100
:1004E000CF911F910F91FF90EF900895CF93DF93DD
:1004F000EC01888D8823C1F0EA89FB89808185FD24
:1005000005C0A889B9898C9186FD0EC00FB607FC7D
:10051000F5CF808185FFF2CFA889B9898C9185FFBD
:10052000EDCFCE017CDFE8CFDF91CF91089580E061
:1005300090E0892B19F06ADF81111BC080E090E008
:10054000892B19F05ADF811117C080E090E0892BC8
:1005500041F080E090E0892B21F00E9400008111A1
:100560000EC080E090E0892B79F03EDF81110AC057
:1005700008950E940000E2CF0E940000E6CF0E9492
:100580000000EFCF0C94000008950E94690F1F92A5
:100590000F920FB60F9211240BB60F922F933F9329
:1005A0004F935F936F937F938F939F93AF93BF937B
:1005B000EF93FF938BE893E032DFFF91EF91BF91D0
:1005C000AF919F918F917F916F915F914F913F91EB
:1005D0002F910F900BBE0F900FBE0F901F9018958C
:1005E0001F920F920FB60F9211240BB60F922F93FA
:1005F0003F934F935F936F937F938F939F93AF93AB
:10060000BF93EF93FF938BE893E094DEFF91EF911C
:10061000BF91AF919F918F917F916F915F914F911A
:100620003F912F910F900BBE0F900FBE0F901F9018
:1006300018951F920F920FB60F9211240BB60F92BE
:100640002F933F934F935F936F937F938F939F93DA
:10065000AF93BF93EF93FF938EEE92E0E0DEFF91B6
:10066000EF91BF91AF919F918F917F916F915F912A
:100670004F913F912F910F900BBE0F900FBE0F9097
:100680001F9018951F920F920FB60F9211240BB660
:100690000F922F933F934F935F936F937F938F931B
:1006A0009F93AF93BF93EF93FF938EEE92E042DE62
:1006B000FF91EF91BF91AF919F918F917F916F913A
:1006C0005F914F913F912F910F900BBE0F900FBEF6
:1006D0000F901F9018951F920F920FB60F92112432
:1006E0000BB60F922F933F934F935F936F937F932C
:1006F0008F939F93AF93BF93EF93FF9381E592E026
:100700008EDEFF91EF91BF91AF919F918F917F917D
:100710006F915F914F913F912F910F900BBE0F9072
:100720000FBE0F901F9018951F920F920FB60F9249
:1007300011240BB60F922F933F934F935F936F93B8
:100740007F938F939F93AF93BF93EF93FF9381E535
:1007500092E0F0DDFF91EF91BF91AF919F918F916A
:100760007F916F915F914F913F912F910F900BBEB1
:100770000F900FBE0F901F9018951F920F920FB6FB
:100780000F9211242F933F938F939F93AF93BF9317
:1007900080914D0290914E02A0914F02B091500273
:1007A00030914C0223E0230F2D3720F40196A11D38
:1007B000B11D05C026E8230F0296A11DB11D20938F
:1007C0004C0280934D0290934E02A0934F02B0933F
:1007D00050028091480290914902A0914A02B09142
:1007E0004B020196A11DB11D8093480290934902CE
:1007F000A0934A02B0934B02BF91AF919F918F910A
:100800003F912F910F900FBE0F901F9018950F934F
:10081000CF93DF93FC01EB0173836283448340E059
:1008200050E066E973E445835683678370871186D9
:1008300012861386148680E090E0ABE2B4E48587EC
:100840009687A787B08BD28BC18B238B448B558B1C
:10085000668B778B108E118E128E138E848F958FF0
:10086000A68FB78FD1A3C0A302A343A354A365A3AC
:1008700076A317A210A611A612A683A794A7A5A7D0
:10088000B6A7DF91CF910F91089590E0FC01E4515C
:10089000FE4F2491FC01EA55FE4F8491882399F084
:1008A00090E0880F991FFC01EE58FE4FA591B4917E
:1008B000FC01E457FE4F859194918FB7F894EC9129
:1008C000E22BEC938FBF0895CF92DF92EF92FF92CD
:1008D0000F931F93CF93DF93EC016A017B01E889AB
:1008E000F98982E080834115514E61057105B1F0AF
:1008F00060E079E08DE390E0A70196010E94120E7E
:1009000089019A010150110921093109369527956C
:1009100017950795980101151041A8F0E889F98904
:10092000108260E874E88EE190E0A70196010E94D1
:10093000120EDA01C9010197A109B109B695A7956F
:10094000979587959C01EC85FD853083EE85FF8525
:100950002083188EEC89FD8986E08083EA89FB89F3
:10096000808180618083EA89FB89808188608083BF
:10097000EA89FB89808180688083EA89FB8980819C
:100980008F7D8083DF91CF911F910F91FF90EF902A
:10099000DF90CF900895009761F0FC010190002056
:1009A000E9F73197AF01481B590BBC0181E592E093
:1009B00096CC80E090E00895EECFE0915102F09166
:1009C00052020190F081E02D682F81E592E01994A8
:1009D0008F929F92AF92BF920F931F93CF93DF930B
:1009E000CDB7DEB7A1970FB6F894DEBF0FBECDBF6F
:1009F00019A2423008F44AE08E010F5D1F4F842E89
:100A0000912CA12CB12CA50194010E94120EE62F6D
:100A1000B901CA0101501109EA3014F4E05D01C0C6
:100A2000E95CD801EC93232B242B252B61F7C8011B
:100A3000B2DFA1960FB6F894DEBF0FBECDBFDF9137
:100A4000CF911F910F91BF90AF909F908F9008957D
:100A50004F925F926F927F928F929F92AF92BF92CE
:100A6000CF92DF92EF92FF926B017C01B42E9B013B
:100A7000AC010E94F90D882319F08CE392E025C0A7
:100A800026013701E89477F82FEF3FEF4FE75FE754
:100A9000C301B2010E94F90D81110CC02FEF3FEF8D
:100AA0004FE75FE7C301B20156D618161CF480E485
:100AB00092E00BC02FEF3FEF4FE75FE4C701B601B5
:100AC000E5D718167CF484E492E0FF90EF90DF9075
:100AD000CF90BF90AF909F908F907F906F905F90DE
:100AE0004F9059CF2FEF3FEF4FE75FECC701B601B3
:100AF00032D687FDE8CF20E030E0A901C701B6017A
:100B00002AD687FF08C08DE258DF4C01F7FAF0942F
:100B1000F7F8F09402C0812C912CA12C60E070E0D9
:100B200080E09FE3AB1439F020E030E040E251E494
:100B300016D6A394F7CF9B01AC01C701B6012ED501
:100B40002B013C0174D66B017C019DD69B01AC014D
:100B5000C301B20122D52B013C014AE0C701B60115
:100B600037DF7C01E80CF91CBB2021F08EE225DF89
:100B7000E80EF91EDB2CDD20F9F020E030E040E249
:100B800051E4C301B2018DD72B013C0150D64B017A
:100B9000A12CB12C4AE0C501B4011ADFE80EF91E00
:100BA000C501B40170D69B01AC01C301B201F5D4FB
:100BB0002B013C01DA94DFCFC701FF90EF90DF906B
:100BC000CF90BF90AF909F908F907F906F905F90ED
:100BD0004F900895CF93DF93CDB7DEB7A0970FB6B0
:100BE000F894DEBF0FBECDBF789484B5826084BD1B
:100BF00084B5816084BD85B5826085BD85B5816021
:100C000085BD80916E00816080936E00109281009E
:100C10008091810082608093810080918100816059
:100C2000809381008091800081608093800080911A
:100C3000B10084608093B1008091B00081608093A6
:100C4000B00080919100826080939100809191002A
:100C500081608093910080919000816080939000EA
:100C60008091A10082608093A1008091A1008160A9
:100C70008093A1008091A00081608093A00080916A
:100C80002101826080932101809121018160809304
:100C900021018091200181608093200180917A0060
:100CA000846080937A0080917A00826080937A00D9
:100CB00080917A00816080937A0080917A008068C8
:100CC00080937A001092C10040E855E260E070E045
:100CD00081E592E0F9DD8CE390E0CED79C838B83B5
:100CE0008CE390E0C9D79E838D838CE390E0C4D7DA
:100CF0009C878B878CE390E0BFD79A8389838CE3B2
:100D000090E0BAD78C018CE390E0B6D71C0118A212
:100D10001F8E1A8A198A29893A89B901330F880BDB
:100D2000990BB3D52EE63BED46EB5FE3BAD66B01EC
:100D30007C0123EF34E045E35FEBB3D64B015C016C
:100D400020E030E0A9012AD46D877E878F87988BB9
:100D50002DEC3CEC4DE153E4C501B4011FD46B8B89
:100D60007C8B8D8B9E8B20E030E0A901C701B60102
:100D700098D620E030E0A90111D46F8B788F898F4D
:100D80009A8F2DEC3CEC4DE153E46B897C898D8985
:100D90009E8904D46F83788789879A872D853E85BD
:100DA0004F855889CA01B9017CD66B017C012F811E
:100DB000388549855A85CA01B90173D69B01AC01B2
:100DC000C701B601EBD3D4D66B017C0124EA30EB2A
:100DD0004FEE52E46F89788D898D9A8DDFD34B0168
:100DE0005C0120E030E04FE352E4C701B601D5D307
:100DF0006B017C01A5019401C501B40152D62B0100
:100E00003C01A7019601C701B6014BD69B01AC017D
:100E1000C301B201C3D3ACD66B017C019B01AC0111
:100E200040D62B013C01A7019601C501B40197D41E
:100E300019D46B8F7C8F8D8F9E8F2D853E854F852E
:100E400058896F81788589859A8532D46F837887B0
:100E500089879A8720E931E646EB55E4C301B20160
:100E60009DD320EC36E143E257E497D34B015C017C
:100E70002DE33AEC48E153E4C701B60112D69B01D9
:100E8000AC01C501B4016BD47AD36B017C0120E9BC
:100E900031E646EB55E4C301B2017FD320EC36E1E5
:100EA00043E257E47AD329E237EE43EF56E457D4CE
:100EB00066D34B015C018B819C81892B09F466C050
:100EC000AD81BE81AB2B09F461C02BED3FE049E45D
:100ED00050E46F81788589859A8541D420E030E09F
:100EE00044E353E4DED56B807C80EF8DF8A16E0E79
:100EF0007F1E20E030E040E752E450D3D3016D93F1
:100F00007D938D939C9313972B8D3C8D4D8D5E8D92
:100F1000C701B60142D32BED3FE049E450E41FD4B2
:100F200020E030E044E353E4BCD59B01AC01ED800C
:100F3000FE80EF8DF8A1EE0EFF1E60E070E086E10E
:100F400093E42BD3D7016D937D938D939C9313974B
:100F5000C501B40190582BED3FE049E450E4FFD3C4
:100F600020E030E044E353E49CD5EB84FC84EF8D37
:100F7000F8A1EE0EFF1E2DEC3CE44AE353E40ED341
:100F8000D7016D937D938D939C931397E981FA819B
:100F9000309741F10115110529F12114310411F1A6
:100FA0002F8D38A1E20FF31F8D859E85AF85B889FF
:100FB00080839183A283B383F901E00FF11F8B89B2
:100FC0009C89AD89BE8980839183A283B383F90113
:100FD000E20DF31D8F89988DA98DBA8D8083918341
:100FE000A283B383A989BA891196BA8BA98BEF8D95
:100FF000F8A13496F8A3EF8F1F9709F08CCEEB8001
:10100000FC80AD80BE80CB84DC84412C512C32012D
:10101000812C912C88E192E0CFDC4AE0C301B2013F
:10102000D7DC8BE192E0C8DC8EE192E0C5DCD70131
:101030006D917D918D919D917D0142E009DD8BE166
:1010400092E0BADC83E292E0B7DCF5016191719144
:10105000819191915F0142E0FBDC8BE192E0ACDC9D
:1010600088E292E0A9DCD6016D917D918D919D91F0
:101070006D0142E0EDDC8BE192E09EDC8DE292E0DE
:101080009BDCE981FA81309739F0E80DF91D608128
:1010900071818281938103C060E070E0CB0142E006
:1010A000D7DC8BE192E088DC81E392E085DC0115FE
:1010B000110541F0F801E80DF91D6081718182810F
:1010C000938103C060E070E0CB0142E0C1DC8BE1C2
:1010D00092E072DC85E392E06FDC2114310441F090
:1010E000F101E80DF91D608171818281938103C056
:1010F00060E070E0CB0142E0ABDC8BE192E05CDCD5
:1011000089E392E048DCF4E08F0E911C2FEF421A45
:10111000520A620A720A3FE04316510461047104E4
:1011200009F078CF8B819C81009709F03AD6AD8188
:10113000BE81109711F0CD0134D6EB85FC85309738
:1011400011F0CF012ED629813A81232B19F0898104
:101150009A8127D60115110511F0C80122D6211454
:10116000310411F0C1011DD6E2D9AECD08954F92E0
:101170005F926F927F928F929F92AF92BF92CF9227
:10118000DF92EF92FF920F931F9310928E031092B3
:101190008D0348EE53E060E070E040938F0350937E
:1011A000900360939103709392038AE092E090938E
:1011B0008C0380938B0325E331E0309398032093D5
:1011C000970324E331E030939A032093990320E3BB
:1011D00031E030939C0320939B0321E331E0309373
:1011E0009E0320939D0322E331E03093A0032093DC
:1011F0009F0326E331E03093A2032093A1031092D2
:10120000A4031092A5031092A6031092A7031092B4
:10121000F1021092F0024093F2025093F3026093B5
:10122000F4027093F5029093EF028093EE022DEC9E
:1012300030E03093FB022093FA022CEC30E0309344
:10124000FD022093FC0228EC30E03093FF02209353
:10125000FE0229EC30E030930103209300032AECD6
:1012600030E030930303209302032EEC30E0309300
:1012700005032093040310920703109208031092B1
:10128000090310920A0310925402109253024093E1
:1012900055025093560260935702709358029093F0
:1012A00052028093510285EC90E090935E0280930D
:1012B0005D0284EC90E09093600280935F0280EC8A
:1012C00090E0909362028093610281EC90E09093B1
:1012D00064028093630282EC90E0909366028093B4
:1012E000650286EC90E0909368028093670210920A
:1012F0006A0210926B0210926C0210926D0206E06C
:1013000025E044E068E274E082E894E080DA03E0FB
:1013100022E041E068E274E081EB94E078DA0CE0EE
:101320002BE04AE068E274E080EE94E070DA0FE0CF
:101330002EE04DE068E274E08FE095E068DA02E1CB
:1013400021E140E168E274E08EE395E060DA09E0D3
:1013500028E047E068E274E08DE695E058DA109204
:10136000A80582E894E090939D0580939C0581EB0D
:1013700094E090939F0580939E0580EE94E0909377
:10138000A1058093A0058FE095E09093A30580933D
:10139000A2058EE395E09093A5058093A4058DE6C4
:1013A00095E09093A7058093A6058EEE92E090932A
:1013B0004504809344048AE08093290466DA40E47B
:1013C00052E46FE070E080914404909145047CDA2F
:1013D000ACE9B5E0412C512C96E6692E93E4792EC8
:1013E000812C912C20E7A22E23E4B22EC12CD12CEB
:1013F00037E8E32E33E4F32E00E010E020EA32E495
:10140000ED91FD914582568267827086848A958A25
:10141000A68AB78AC3A2D4A2E5A2F6A20187128740
:101420002387348740E050E060E772E4408F518FBB
:10143000628F738F40E050E060EF71E447A350A7E4
:1014400061A772A755E0A83AB507D1F68CE01DDA7E
:10145000EEE3F2E04491E8EFF1E02491E2EBF1E019
:101460009491992309F466C0442309F454C050E0D0
:10147000FA013197E231F10508F04DC08827EE58A6
:10148000FF4F8F4FF1C3809180008F7707C080910D
:1014900080008F7D03C080918000877F80938000D3
:1014A0003AC084B58F7702C084B58F7D84BD33C0C8
:1014B0008091B0008F7703C08091B0008F7D8093C2
:1014C000B00029C0809190008F7707C08091900074
:1014D0008F7D03C080919000877F809390001BC018
:1014E0008091A0008F7707C08091A0008F7D03C0FE
:1014F0008091A000877F8093A0000DC08091200183
:101500008F7707C0809120018F7D03C080912001DB
:10151000877F80932001E92FF0E0EE0FFF1FE45753
:10152000FE4FA591B4918FB7F894EC9120952E239E
:101530002C938FBF1092AB051092AA051092AD05A7
:101540001092AC051092AF051092AE058DE09DD9BA
:101550008CE09BD940E855E260E070E08BE893E0D6
:101560001F910F91FF90EF90DF90CF90BF90AF90C1
:101570009F908F907F906F905F904F90A5C99F93A1
:101580009F77BED10F9000203AF49058A2EA2AED3E
:101590003FE049E450E413D03FC25058BB27AA278C
:1015A0000ED03AC22BD230F030D220F031F49F3F2F
:1015B00011F41EF4EAC10EF4E095E7FBE0C1E92F57
:1015C0003CD280F3BA17620773078407950718F0B7
:1015D00071F49EF554C20EF4E0950B2EBA2FA02D97
:1015E0000B01B90190010C01CA01A0011124FF27D0
:1015F000591B99F0593F50F4503E68F11A16F040CB
:10160000A22F232F342F4427585FF3CF46953795C9
:101610002795A795F0405395C9F77EF41F16BA0B8E
:10162000620B730B840BBAF09150A1F0FF0FBB1F3C
:10163000661F771F881FC2F70EC0BA0F621F731F85
:10164000841F48F4879577956795B795F7959E3FE2
:1016500008F0B3CF9395880F08F09927EE0F979570
:10166000879508959F939F77EEE389379E0720F42F
:10167000E8E0F1E0B2D109C043D19058A2EA2AEDE6
:101680003FE049EC5FE39BDFC7D10F9007FC905828
:101690000895B4D158F080E891E009F49EEFB5D1F7
:1016A00028F040E851E059F45EEF09C06EC1E7C18F
:1016B000E92FE078C2D168F3092E052AC1F3261775
:1016C00037074807590738F00E2E07F8E02569F06C
:1016D000E025E0640AC0EF6307F8009407FADB0135
:1016E000B9019D01DC01CA01AD01EF9347D094D14E
:1016F0000AD05F91552331F02BED3FE049E450FDD6
:1017000049EC4CCF0895DF93DD27B92FBF7740E830
:101710005FE31616170648075B0710F4D92FBAD1F6
:101720009F938F937F936F9361D2ECE1F1E030D17F
:1017300073D12F913F914F915F91BFD1DD2349F03C
:101740009058A2EA2AED3FE049EC5FE3D0785D27AC
:1017500036DFDF9161C1EFD008F481E008950CD04D
:101760005BC153D140F04AD130F021F45F3F19F012
:1017700006C1511185C109C160D198F39923C9F3FC
:101780005523B1F3951B550BBB27AA276217730787
:10179000840738F09F5F5F4F220F331F441FAA1F3B
:1017A000A9F333D00E2E3AF0E0E830D091505040FB
:1017B000E695001CCAF729D0FE2F27D0660F771FA9
:1017C000881FBB1F261737074807AB07B0E809F08B
:1017D000BB0B802DBF01FF2793585F4F2AF09E3F20
:1017E000510568F0CCC04CC15F3FECF3983EDCF390
:1017F000869577956795B795F7959F5FC9F7880F99
:10180000911D9695879597F90895E1E0660F771FEA
:10181000881FBB1F621773078407BA0720F0621B7B
:10182000730B840BBA0BEE1F88F7E09508950DD16A
:1018300088F09F5790F0B92F9927B751A0F0D1F0B9
:10184000660F771F881F991F1AF0BA95C9F712C043
:10185000B13081F014D1B1E0089511C1672F782F14
:101860008827B85F39F0B93FCCF3869577956795AF
:10187000B395D9F73EF490958095709561957F4F1B
:101880008F4F9F4F0895E89409C097FB3EF49095C1
:101890008095709561957F4F8F4F9F4F9923A9F049
:1018A000F92F96E9BB279395F695879577956795D8
:1018B000B795F111F8CFFAF4BB0F11F460FF1BC01C
:1018C0006F5F7F4F8F4F9F4F16C0882311F096E9AF
:1018D00011C0772321F09EE8872F762F05C066235D
:1018E00071F096E8862F70E060E02AF09A95660F16
:1018F000771F881FDAF7880F9695879597F90895CF
:10190000DF93CF931F930F938B01EC01E9E4F1E098
:101910003FD082D09801AE018B01EC0160E070E015
:1019200080E89FE33ADE24D19801AE010F911F9128
:10193000CF91DF91C2C0990F0008550FAA0BE0E8C4
:10194000FEEF16161706E807F907C0F01216130681
:10195000E407F50798F0621B730B840B950B39F4C1
:101960000A2661F0232B242B252B21F408950A2627
:1019700009F4A140A6958FEF811D811D089597F967
:101980009F6780E870E060E008959FEF80EC089525
:10199000DF93CF931F930F93FF92EF92DF927B0120
:1019A0008C01689405C0DA2EEF0187D0FE01E8941F
:1019B000A5912591359145915591AEF3EF01FFDD4C
:1019C000FE019701A801DA9479F7DF90EF90FF907C
:1019D0000F911F91CF91DF9108959F938F937F93E4
:1019E0006F93FF93EF939B01AC015BD0EF91FF915D
:1019F000CFDF2F913F914F915F9153C000240A9404
:101A00001616170618060906089500240A941216D9
:101A10001306140605060895092E0394000C11F40C
:101A2000882352F0BB0F40F4BF2B11F460FF04C0B9
:101A30006F5F7F4F8F4F9F4F089557FD9058440F12
:101A4000551F59F05F3F71F04795880F97FB991F1D
:101A500061F09F3F79F087950895121613061406DA
:101A6000551FF2CF4695F1DF08C016161706180667
:101A7000991FF1CF86957105610508940895E89442
:101A8000BB2766277727CB0197F9089554DF08F421
:101A90008FEF08959B01AC0160E070E080E89FE368
:101AA0005ECE0BD0B9CFAADF28F0AFDF18F09523B8
:101AB00009F065CF6ACF1124E3CFBFDFA0F3959F74
:101AC000D1F3950F50E0551F629FF001729FBB2725
:101AD000F00DB11D639FAA27F00DB11DAA1F649FD1
:101AE0006627B00DA11D661F829F2227B00DA11D84
:101AF000621F739FB00DA11D621F839FA00D611D0A
:101B0000221F749F3327A00D611D231F849F600D2A
:101B1000211D822F762F6A2F11249F5750408AF063
:101B2000E1F088234AF0EE0FFF1FBB1F661F771FEF
:101B3000881F91505040A9F79E3F510570F01FCF6C
:101B40009FCF5F3FECF3983EDCF3869577956795E2
:101B5000B795F795E7959F5FC1F7FE2B880F911D0D
:101B60009695879597F9089511F40EF40ECF45C018
:101B70006CDFD0F39923D9F3CEF39F57550B87FF32
:101B80004AD00024A0E640EA9001805856959795E7
:101B900028F4805C660F771F881F20F02617370710
:101BA000480730F4621B730B840B202931294A2B20
:101BB000A69517940794202531254A2758F7660FD4
:101BC000771F881F20F026173707480730F4620B6D
:101BD000730B840B200D311D411DA09581F7B901B8
:101BE000842F9158880F9695879508959B01AC0195
:101BF00058CFA1DE880B990B08959F3F31F091508B
:101C000020F4879577956795B795880F911D9695E0
:101C1000879597F9089591505040660F771F881F58
:101C2000D2F70895A1E21A2EAA1BBB1BFD010DC01D
:101C3000AA1FBB1FEE1FFF1FA217B307E407F5077C
:101C400020F0A21BB30BE40BF50B661F771F881F58
:101C5000991F1A9469F760957095809590959B01EE
:101C6000AC01BD01CF010895EE0FFF1F881F8BBF90
:101C70000790F691E02D1994CF93DF938230910570
:101C800010F482E090E0E091B205F091B30520E01D
:101C900030E0C0E0D0E0309711F140815181481729
:101CA0005907C0F04817590761F482819381209742
:101CB00019F09B838A832BC09093B3058093B20560
:101CC00026C02115310519F04217530718F49A015F
:101CD000BE01DF01EF010280F381E02DDCCF211591
:101CE000310509F1281B390B2430310590F4129687
:101CF0008D919C9113976115710521F0FB019383E0
:101D0000828304C09093B3058093B205FD0132969F
:101D100044C0FD01E20FF31F8193919322503109DA
:101D20002D933C933AC02091B0053091B105232BFF
:101D300041F420910202309103023093B1052093C7
:101D4000B00520910002309101022115310541F4C6
:101D50002DB73EB74091040250910502241B350B6C
:101D6000E091B005F091B105E217F307A0F42E1B46
:101D70003F0B2817390778F0AC014E5F5F4F2417EF
:101D8000350748F04E0F5F1F5093B1054093B005E3
:101D90008193919302C0E0E0F0E0CF01DF91CF9119
:101DA00008950F931F93CF93DF93009709F48CC08E
:101DB000FC013297138212820091B2051091B30593
:101DC0000115110581F420813181820F931F20912B
:101DD000B0053091B1052817390779F5F093B105B1
:101DE000E093B00571C0D80140E050E0AE17BF07E6
:101DF00050F412962D913C911397AD0121153105A8
:101E000009F1D901F3CF9D01DA0133832283608187
:101E10007181860F971F8217930769F4EC0128815F
:101E20003981260F371F2E5F3F4F318320838A81F0
:101E30009B8193838283452B29F4F093B305E09330
:101E4000B20542C01396FC93EE931297ED014991AF
:101E500059919E01240F351FE217F30771F4808119
:101E60009181840F951F029611969C938E93828187
:101E7000938113969C938E931297E0E0F0E0D80143
:101E800012968D919C911397009719F0F8018C018F
:101E9000F6CF8D919C9198012E5F3F4F820F931F3B
:101EA0002091B0053091B1052817390769F43097B2
:101EB00029F41092B3051092B20502C01382128267
:101EC0001093B1050093B005DF91CF911F910F9151
:101ED000089581E090E0F89400C011E0CDE3D1E0F6
:101EE00000E005C0802FFE01BFDE2196011DCE332C
:0C1EF000D10780E00807B1F7F894FFCF9D
:101EFC000000B40580000000000030026F01B70143
:101F0C007602E801C601DA01693A003B3B00513127
:101F1C003A200051323A200051333A2000583A20EE
:101F2C0000593A20005A3A20000D0A006E616E00EA
:081F3C00696E66006F76660015
:020000023000CC
:10E000000D9489F10D94B2F10D94B2F10D94B2F129
:10E010000D94B2F10D94B2F10D94B2F10D94B2F1F0
:10E020000D94B2F10D94B2F10D94B2F10D94B2F1E0
:10E030000D94B2F10D94B2F10D94B2F10D94B2F1D0
:10E040000D94B2F10D94B2F10D94B2F10D94B2F1C0
:10E050000D94B2F10D94B2F10D94B2F10D94B2F1B0
:10E060000D94B2F10D94B2F10D94B2F10D94B2F1A0
:10E070000D94B2F10D94B2F10D94B2F10D94B2F190
:10E080000D94B2F10D94B2F10D94B2F10D94B2F180
:10E090000D94B2F10D94B2F10D94B2F10D94B2F170
:10E0A0000D94B2F10D94B2F10D94B2F10D94B2F160
:10E0B0000D94B2F10D94B2F10D94B2F10D94B2F150
:10E0C0000D94B2F10D94B2F10D94B2F10D94B2F140
:10E0D0000D94B2F10D94B2F10D94B2F10D94B2F130
:10E0E0000D94B2F141546D656761323536300041AF
:10E0F000726475696E6F206578706C6F72657220DE
:10E1000073746B3530305632206279204D4C530099
:10E11000426F6F746C6F616465723E004875683F52
:10E1200000436F6D70696C6564206F6E203D200048
:10E130004350552054797065202020203D20005FF9
:10E140005F4156525F415243485F5F3D2000415658
:10E1500052204C696243205665723D20004743437C
:10E160002056657273696F6E203D20004350552024
:10E1700049442020202020203D20004C6F7720663D
:10E18000757365202020203D20004869676820665F
:10E190007573652020203D200045787420667573D6
:10E1A00065202020203D20004C6F636B2066757336
:10E1B000652020203D20004D617220203720323024
:10E1C000313300312E362E3800342E332E350056A2
:10E1D00023202020414444522020206F7020636F70
:10E1E00064652020202020696E73747275637469E1
:10E1F0006F6E2061646472202020496E74657272B3
:10E20000757074006E6F20766563746F7200726A49
:10E210006D702020006A6D70200057686174207056
:10E220006F72743A00506F7274206E6F7420737541
:10E2300070706F72746564004D7573742062652030
:10E2400061206C6574746572002000577269747483
:10E25000696E672045450052656164696E672045B7
:10E26000450045452065727220636E743D00504F35
:10E27000525400303D5A65726F2061646472003FF1
:10E280003D43505520737461747300403D454550C3
:10E29000524F4D207465737400423D426C696E6B41
:10E2A000204C454400453D44756D70204545505215
:10E2B0004F4D00463D44756D7020464C415348001B
:10E2C000483D48656C70004C3D4C69737420492F83
:10E2D0004F20506F72747300513D51756974005234
:10E2E0003D44756D702052414D00563D73686F7707
:10E2F00020696E7465727275707420566563746FF0
:10E30000727300593D506F727420626C696E6B00BD
:10E310002A0011241FBECFEFD1E2DEBFCDBF01E046
:10E320000CBF12E0A0E0B2E0EEE1FDEF03E00BBFB6
:10E3300002C007900D92A030B107D9F712E0A0E01B
:10E34000B2E001C01D92AE30B107E1F70F9460F367
:10E350000D948DFE01E20EBF0FEF0DBF11241FBE05
:10E360000D9460F30D9400F020E030E040ED57E0B4
:10E3700005C0FA013197F1F72F5F3F4F2817390792
:10E38000C0F308959C01260F311DC901A0E0B0E043
:10E390002F5F3F4FABBFFC018791882361F08093D3
:10E3A000C6008091C00086FFFCCF8091C0008064D1
:10E3B0008093C000EACF08958DE08093C6008091DD
:10E3C000C00086FFFCCF8091C00080648093C000B5
:10E3D0008AE08093C6008091C00086FFFCCF8091C8
:10E3E000C00080648093C00008950F94C2F10F9420
:10E3F000DCF10895FC019081992359F09093C600B7
:10E400008091C00086FFFCCF8091C0008064809323
:10E41000C0003196992379F70895282F982F929567
:10E420009F70892F805D8A3308F0895F8093C600D2
:10E430008091C00086FFFCCF8091C00080648093F3
:10E44000C000822F8F70982F905D9A3308F0995FEB
:10E450009093C6008091C00086FFFCCF8091C000E1
:10E4600080648093C00008959C01FB01853691056E
:10E470001CF46330710594F0C90164E670E00F94F8
:10E480002EFE605D7F4F6093C6008091C00086FFC6
:10E49000FCCF8091C00080648093C0002B30310598
:10E4A00014F43297B4F0C90164E670E00F942EFEC4
:10E4B0006AE070E00F942EFE605D7F4F6093C600AF
:10E4C0008091C00086FFFCCF8091C0008064809363
:10E4D000C000C9016AE070E00F942EFEC0968093E0
:10E4E000C6008091C00086FFFCCF8091C000806490
:10E4F0008093C00008951F93182F8EE692EE60E07F
:10E500000F94C2F11093C6008091C00086FFFCCF2B
:10E510008091C00080648093C0000F94DCF11F9153
:10E5200008952F923F924F925F926F927F928F92B7
:10E530009F92AF92BF92CF92DF92EF92FF920F9392
:10E540001F93DF93CF93CDB7DEB762970FB6F894E2
:10E55000DEBF0FBECDBF382E622ECA01DB015C01CB
:10E560006D01772420E2222E2E010894411C511CBB
:10E570008BC081E0A81680E0B80681E0C80680E084
:10E58000D80628F0C601AA27BB270F940DF2BB2797
:10E59000AD2D9C2D8B2D0F940DF28A2D0F940DF225
:10E5A0002092C6008091C00086FFFCCF8091C00001
:10E5B00080648093C0009DE29093C6008091C0006B
:10E5C00086FFFCCF8091C00080648093C0002092C1
:10E5D000C6008091C00086FFFCCF8091C00080649F
:10E5E0008093C00019828601750188249924A1E0D6
:10E5F0003A1651F03A1620F0B2E03B1661F409C029
:10E600000BBFF701779007C0C7010F9477FE782EF4
:10E6100002C0F7017080872D0F940DF22092C60082
:10E620008091C00086FFFCCF8091C0008064809301
:10E63000C000872D8052F401EF70F0708F3520F408
:10E64000E40DF51D708204C0E40DF51D8EE280839B
:10E650000894E11CF11C011D111D0894811C911CE2
:10E6600090E18916910409F0C2CF80E190E0A0E02A
:10E67000B0E0A80EB91ECA1EDB1E198AC2010F9493
:10E68000FAF10F94DCF16A94662009F072CF629679
:10E690000FB6F894DEBF0FBECDBFCF91DF911F91B3
:10E6A0000F91FF90EF90DF90CF90BF90AF909F9031
:10E6B0008F907F906F905F904F903F902F90089534
:10E6C0002F923F924F925F926F927F928F929F9282
:10E6D000AF92BF92CF92DF92EF92FF920F931F9370
:10E6E000DF93CF93CDB7DEB7CD53D1400FB6F894BB
:10E6F000DEBF0FBECDBF01E20EBF0FEF0DBF94B75F
:10E70000F894A89514BE80916000886180936000A1
:10E7100010926000789493FF05C0E0910002F091A0
:10E7200001021995279A2F9A8091C00082608093E8
:10E73000C00080E18093C40088E18093C1000000A4
:10E74000EE24FF24870144E0A42EB12CCC24DD2448
:10E7500024C0C5010197F1F70894E11CF11C011DCB
:10E76000111D21E2E2162EE4F20620E0020720E06D
:10E77000120718F031E0C32ED12CC801B70127ECE5
:10E780003BE140E050E00F9441FE611571058105C9
:10E79000910519F485B1805885B98091C00087FD35
:10E7A00003C0C114D104A9F2A6014F5F5F4FC25E3E
:10E7B000DE4F59834883CE51D140C25EDE4F8881FF
:10E7C0009981CE51D140019711F00D9410FEC05D9A
:10E7D000DE4F19821882C053D14060E0C15DDE4F28
:10E7E0001882CF52D14088249924C35DDE4F19820C
:10E7F0001882CD52D140C05EDE4F188219821A8233
:10E800001B82C052D140CE5CDE4F188219821A8220
:10E810001B82C253D140EE24FF2487010BBFF701B6
:10E8200007911691C45CDE4F19830883CC53D14005
:10E830000D940BFEC25EDE4F28813981CE51D1404E
:10E840002130310509F52091C600C25EDE4F1982E4
:10E850001882CE51D14022C02F5F3F4F4F4F5F4FA4
:10E86000213082E138078AE7480780E0580780F0C6
:10E87000C45CDE4FE881F981CC53D140EF5FFF4F9C
:10E8800019F0EE27FF27099420E030E040E050E047
:10E890008091C00087FFE0CF2091C600C35DDE4FAE
:10E8A00048815981CD52D1404F5F5F4FC35DDE4FEC
:10E8B00059834883CD52D140213209F063C64A3092
:10E8C000510508F05FC60894811C911C53E0851621
:10E8D000910409F059C600E010E018C081E280936D
:10E8E000C6008091C00086FFFCCF8091C00080648C
:10E8F0008093C0002F5F3F4F2931310579F70F9486
:10E90000DCF10F5F1F4F0530110519F020E030E0FA
:10E91000E5CF10920A0210920B0210920C02109294
:10E920000D02109206021092070210920802109235
:10E930000902109202021092030210920402109235
:10E9400005028FEE90EE60E00F94F5F180E191EE1C
:10E9500060E00F94C2F18091C00087FFFCCF9091DE
:10E96000C600903608F09F759032B8F09093C600BC
:10E970008091C00086FFFCCF8091C00080648093AE
:10E98000C000A0E2A093C6008091C00086FFFCCF2B
:10E990008091C00080648093C000983409F4D7C18E
:10E9A0009934B8F4923409F459C1933458F490333B
:10E9B00019F1903308F4E3C59F33A1F1903409F0C5
:10E9C000DEC5BDC0953409F470C1963409F0D7C5D1
:10E9D00098C1923509F42BC2933538F49C3409F46C
:10E9E000F5C1913509F0CBC518C2963509F445C279
:10E9F000993509F0C4C567C483E792EE62E00F94CD
:10EA0000F5F110920602109207021092080210927D
:10EA1000090210920A0210920B0210920C0210923C
:10EA20000D0213C18FE792EE62E00F94F5F18FEEC5
:10EA300090EE60E00F94F5F181E291EE60E00F94CA
:10EA4000C2F187EB91EE60E00F94F5F180E391EE77
:10EA500060E00F94C2F184EE90EE60E00F94F5F167
:10EA60008FE391EE60E00F94C2F186E090E061E008
:10EA700070E00F9434F20F94DCF18DE591EE60E0DC
:10EA80000F94C2F189EC91EE60E00F94F5F18EE401
:10EA900091EE60E00F94C2F183EC91EE60E00F9490
:10EAA000F5F18CE691EE60E00F94C2F18EE10F94E7
:10EAB0000DF288E90F940DF281E00F940DF20F949E
:10EAC000DCF18BE791EE60E00F94C2F119E0E0E039
:10EAD000F0E010935700E4918E2F0F940DF20F94F5
:10EAE000DCF18AE891EE60E00F94C2F1E3E0F0E03F
:10EAF00010935700E4918E2F0F940DF20F94DCF1D8
:10EB000089E991EE60E00F94C2F1E2E0F0E0109349
:10EB10005700E4918E2F0F940DF20F94DCF188EAE8
:10EB200091EE60E00F94C2F1E1E0F0E01093570045
:10EB30001491812F0F940DF20F94DCF107CF8BE825
:10EB400092EE62E00F94F5F18BE492EE60E00F94A8
:10EB5000F5F10F94DCF100E010E019C0C8016F2D51
:10EB60000F947FFEFF2031F489E492EE60E00F9471
:10EB7000C2F10BC0F092C6008091C00086FFFCCFAE
:10EB80008091C00080648093C0000F5F1F4FC80158
:10EB900081519F41A0E0B0E0ABBFFC01F790BAE229
:10EBA000FB1621F0E2E000301E07C1F60F94DCF105
:10EBB0000F94DCF187E592EE60E00F94F5F10F948D
:10EBC000DCF1CC24DD2400E010E01EC0C8010F946D
:10EBD00077FEF82E882331F489E492EE60E00F94FA
:10EBE000C2F10BC08093C6008091C00086FFFCCFAD
:10EBF0008091C00080648093C000FE1419F00894D6
:10EC0000C11CD11C0F5F1F4FC80181519F41A0E063
:10EC1000B0E0ABBFFC01E790FAE2EF1621F022E092
:10EC20000030120799F60F94DCF10F94DCF182E6C4
:10EC300092EE60E00F94C2F1C60161E070E00F94C3
:10EC400034F20F94DCF10F94DCF110920202109276
:10EC50000302109204021092050278CE89E992EE26
:10EC600062E00F94F5F1279A2F9A16C02F9880E052
:10EC700090E0E0EDF7E03197F1F7019684369105E9
:10EC8000C1F72F9A80E090E0E0EDF7E03197F1F7DF
:10EC9000019684369105C1F78091C00087FFE6CFC9
:10ECA0008091C00087FFFCCF64C485EA92EE62E0E9
:10ECB0000F94F5F140910202509103026091040219
:10ECC0007091050281E020E10F9491F2809102029F
:10ECD00090910302A0910402B091050280509F4FD1
:10ECE000AF4FBF4F8093020290930302A0930402A0
:10ECF000B093050280509041A040B04008F426CE69
:10ED0000A4CF83EB92EE62E00F94F5F140910602FE
:10ED100050910702609108027091090280E020E1A1
:10ED20000F9491F28091060290910702A09108023F
:10ED3000B091090280509F4FAF4FBF4F80930602A2
:10ED400090930702A0930802B0930902FFCD80ECD4
:10ED500092EE62E00F94F5F183E792EE60E00F949B
:10ED6000F5F18FE792EE60E00F94F5F18BE892EE0B
:10ED700060E00F94F5F189E992EE60E00F94F5F10F
:10ED800085EA92EE60E00F94F5F183EB92EE60E09D
:10ED90000F94F5F180EC92EE60E00F94F5F187ECC2
:10EDA00092EE60E00F94F5F188ED92EE60E00F9442
:10EDB000F5F18FED92EE60E00F94F5F18AEE92EEB0
:10EDC00060E00F94F5F183E093EEBDCD87EC92EE19
:10EDD00062E00F94F5F181E40F947BF282E40F94EA
:10EDE0007BF283E40F947BF284E40F947BF285E45E
:10EDF0000F947BF286E40F947BF287E40F947BF20E
:10EE000088E40F947BF28AE40F947BF28BE40F94F6
:10EE10007BF28CE40F947BF299CD88ED92EE62E068
:10EE20000F94F5F1772473948824992409C48FED05
:10EE300092EE62E00F94F5F140910A0250910B02BC
:10EE400060910C0270910D0282E020E10F9491F22A
:10EE500080910A0290910B02A0910C02B0910D02D8
:10EE600080509F4FAF4FBF4F80930A0290930B0289
:10EE7000A0930C02B0930D0269CD8AEE92EE62E08F
:10EE80000F94F5F184EE90EE60E00F94F5F18FECC5
:10EE900091EE60E00F94F5F1662477244301CC5D98
:10EEA000DE4F19821882C452D140D401C301B695F5
:10EEB000A79597958795CA5DDE4F88839983AA8326
:10EEC000BB83C652D140CC5DDE4FA881B981C4520C
:10EED000D1401196CC5DDE4FB983A883C452D14096
:10EEE000CD0162E070E00F9434F2B0E2B093C6005E
:10EEF0008091C00086FFFCCF8091C0008064809329
:10EF0000C000EDE2E093C6008091C00086FFFCCF18
:10EF10008091C00080648093C000F0E2F093C6004E
:10EF20008091C00086FFFCCF8091C00080648093F8
:10EF3000C000CA5DDE4FE880F9800A811B81C6529D
:10EF4000D140BB27A12F902F8F2D0F940DF2CA5DBA
:10EF5000DE4F8881C652D1400F940DF2B0E2FB2EF5
:10EF6000F092C6008091C00086FFFCCF8091C00067
:10EF700080648093C0000DE30093C6008091C000C0
:10EF800086FFFCCF8091C00080648093C00010E2B7
:10EF90001093C6008091C00086FFFCCF8091C00016
:10EFA00080648093C0008BBEF3012791C65DDE4F65
:10EFB0002883CA52D140A22EBB24CC24DD2408943D
:10EFC000611C711C811C911C8BBEF3018791282E42
:10EFD0003324442455240894611C711C811C911C09
:10EFE0008BBEF3013791C55DDE4F3883CB52D140E4
:10EFF0000894611C711C811C911C8BBEF30147910C
:10F00000C45DDE4F4883CC52D140ADEFEA2EAFEF66
:10F01000FA2EAFEF0A2FAFEF1A2F6E0C7F1C801E57
:10F02000911E142D032DF22CEE24EA0CFB1C0C1D5A
:10F030001D1D0F940DF220E22093C6008091C000A8
:10F0400086FFFCCF8091C00080648093C000C65DC5
:10F05000DE4F8881CA52D1400F940DF230E23093D6
:10F06000C6008091C00086FFFCCF8091C000806404
:10F070008093C000C45DDE4F8881CC52D1400F9494
:10F080000DF240E24093C6008091C00086FFFCCFA5
:10F090008091C00080648093C000C55DDE4F888190
:10F0A000CB52D1400F940DF250E25093C6008091A4
:10F0B000C00086FFFCCF8091C00080648093C000B8
:10F0C0008FEFE8168FEFF80680E0080780E018075A
:10F0D00031F484E092EE60E00F94C2F1DFC0D80119
:10F0E000C7018070907CA070B0708050904CA040A0
:10F0F000B040D1F52FEF3FE340E050E0E222F322B1
:10F1000004231523CA5DDE4FA880B980CA80DB8046
:10F11000C652D140AE0CBF1CC01ED11EAA0CBB1CD7
:10F12000CC1CDD1C8EE092EE60E00F94C2F1BB2798
:10F13000A12F902F8F2D0F940DF28E2D0F940DF285
:10F1400030E23093C6008091C00086FFFCCF8091F2
:10F15000C00080648093C0004EE34093C60080915D
:10F16000C00086FFFCCF87C08EE09EEFA0E0B0E03D
:10F17000E822F9220A231B239CE0E91694E9F90608
:10F1800090E0090790E0190709F088C0C45DDE4FE0
:10F19000A881CC52D140EA2EFF2400E010E0102FCD
:10F1A0000F2DFE2CEE24C55DDE4FB881CB52D14031
:10F1B000EB0EF11C011D111DD601C501817090706F
:10F1C000A070B070DC0199278827E80EF91E0A1F8D
:10F1D0001B1F20EF30E040E050E0A222B322C42207
:10F1E000D52241E1AA0CBB1CCC1CDD1C4A95D1F7F1
:10F1F000EA0CFB1C0C1D1D1D81E090E0A0E0B0E0BE
:10F20000282239224A225B2235E1220C331C441C7D
:10F21000551C3A95D1F7E20CF31C041D151D57013E
:10F220006801AA0CBB1CCC1CDD1C85E192EE60E0E1
:10F230000F94C2F1C801AA27BB270F940DF2BB2778
:10F24000A12F902F8F2D0F940DF28E2D0F940DF274
:10F2500090E29093C6008091C00086FFFCCF809121
:10F26000C00080648093C000AEE3A093C60080918C
:10F27000C00086FFFCCF8091C00080648093C000F6
:10F28000C601AA27BB270F940DF2BB27AD2D9C2DDD
:10F290008B2D0F940DF28A2D0F940DF20F94DCF14B
:10F2A000CC5DDE4FE881F981C452D140F99709F471
:10F2B0004DCBF4E0EF2EF12C012D112D6E0C7F1CA7
:10F2C000801E911EF2CD83E093EE62E00F94F5F183
:10F2D0008AE192EE60E00F94C2F18091C00087FF56
:10F2E000FCCF1091C6001F751093C6008091C0001E
:10F2F00086FFFCCF8091C00080648093C0000F9493
:10F30000DCF1812F81548A3108F036C1163409F4BA
:10F3100095C0173490F4133409F44EC0143430F40B
:10F320001134F1F0123409F01DC130C0143409F465
:10F3300059C0153409F016C16BC01A3409F4C4C0A1
:10F340001B3438F4173409F48FC0183409F00AC19B
:10F35000A1C01B3409F4D2C01C3409F003C1E8C0B9
:10F360008FEF81B90DC082B1809582B980E090E0C5
:10F37000E0EDF7E03197F1F70196883C9105C1F790
:10F380008091C00087FFEFCF12B8EFC08FEF84B934
:10F390000DC085B1809585B980E090E0E0EDF7E0A3
:10F3A0003197F1F70196883C9105C1F78091C00033
:10F3B00087FFEFCF15B8D9C08FEF87B90DC088B1DF
:10F3C000809588B980E090E0E0EDF7E03197F1F7C3
:10F3D0000196883C9105C1F78091C00087FFEFCF6F
:10F3E00018B8C3C08FEF8AB90DC08BB180958BB9A7
:10F3F00080E090E0E0EDF7E03197F1F70196883C8E
:10F400009105C1F78091C00087FFEFCF1BB8ADC059
:10F410008FEF8DB90DC08EB180958EB980E090E0F0
:10F42000E0EDF7E03197F1F70196883C9105C1F7DF
:10F430008091C00087FFEFCF1EB897C08FEF80BBD1
:10F440000DC081B3809581BB80E090E0E0EDF7E0F6
:10F450003197F1F70196883C9105C1F78091C00082
:10F4600087FFEFCF11BA81C08FEF83BB0DC084B38C
:10F47000809584BB80E090E0E0EDF7E03197F1F714
:10F480000196883C9105C1F78091C00087FFEFCFBE
:10F4900014BA6BC08FEF809301010FC080910201FD
:10F4A00080958093020180E090E0E0EDF7E03197F5
:10F4B000F1F70196883C9105C1F78091C00087FF64
:10F4C000EDCF1092020151C08FEF809304010FC065
:10F4D0008091050180958093050180E090E0E0ED4A
:10F4E000F7E03197F1F70196883C9105C1F78091DB
:10F4F000C00087FFEDCF1092050137C08FEF8093DA
:10F5000007010FC08091080180958093080180E079
:10F5100090E0E0EDF7E03197F1F70196883C910536
:10F52000C1F78091C00087FFEDCF109208011DC088
:10F530008FEF80930A010FC080910B01809580931B
:10F540000B0180E090E0E0EDF7E03197F1F70196F4
:10F55000883C9105C1F78091C00087FFEDCF1092E4
:10F560000B0103C085E292EEEEC98091C00087FFD7
:10F57000FCCF8091C600EAC988E392EEE4C98CE131
:10F5800091EEE1C988249924933011F1943028F444
:10F59000913089F09230B8F408C0953061F195301F
:10F5A000F0F0963009F048C043C02B3109F042C951
:10F5B00091E06BE13FC96227C15DDE4F2883CF52E6
:10F5C000D14092E037C9B22FA0E0622793E032C960
:10F5D000822F90E0A82BB92B622794E02BC92E3004
:10F5E00009F039C3622795E0C05DDE4F19821882A9
:10F5F000C053D1401FC9E1E0F0E0EC0FFD1FC05D3A
:10F60000DE4F08811981C053D140E00FF11F2083E4
:10F610000F5F1F4FC05DDE4F19830883C053D14079
:10F6200062270A171B0709F005C9D80196E002C92D
:10F63000261709F010C303C0973009F0FBC87724E0
:10F640009981933109F412C19431C8F4963009F4C8
:10F65000D8C0973050F4923009F406C1933009F4C1
:10F660006DC0913009F059C253C0913109F477C08F
:10F67000923108F0BBC0903109F04FC2F5C098310B
:10F6800009F487C0993150F4953109F4EFC09531F0
:10F6900008F4C6C1963109F040C2C2C19A3109F4DA
:10F6A0006CC09A3108F491C09B3109F45BC09D3164
:10F6B00009F033C29D81903359F48F81882311F46E
:10F6C0009EE11CC0813011F091E018C098E916C08D
:10F6D000892F807591F0903539F4E0E0F0E089E011
:10F6E0008093570094910AC0983539F4E3E0F0E034
:10F6F00089E080935700949101C090E01A821B82A8
:10F700008D818C831D829E831F8227E030E009C299
:10F710001A8288E08B8381E48C8386E58D8382E581
:10F720008E8389E48F8383E5888780E589878FE5E9
:10F730008A8782E38B872BE030E0F3C18A818139AD
:10F7400041F0823941F0803911F48FE005C080E04A
:10F7500003C082E001C08AE01A828B8344C0772410
:10F76000739482C08D81882311F48EE12CC0813086
:10F7700011F081E028C088E926C01A82E1E0F0E0BB
:10F7800089E08093570084918B831C8224E030E0D1
:10F79000C8C18B81803589F48C81883039F4E2E0EE
:10F7A000F0E089E08093570084910DC0E0E0F0E044
:10F7B00089E080935700849106C0E3E0F0E089E09F
:10F7C0008093570084911A82DFCF8D81836C99E0FA
:10F7D000E1E0F0E0082E90935700E89507B600FCB2
:10F7E000FDCF1A821B8223E030E09BC180EC8A832C
:10F7F000CE5CDE4F188219821A821B82C253D1401E
:10F800008EC18A8190E0A0E0B0E0582F44273327D2
:10F8100022278B8190E0A0E0B0E0DC0199278827C7
:10F82000282B392B4A2B5B2B8D8190E0A0E0B0E098
:10F83000282B392B4A2B5B2B8C8190E0A0E0B0E089
:10F84000BA2FA92F982F8827282B392B4A2B5B2BCF
:10F85000220F331F441F551FC05EDE4F288339839C
:10F860004A835B83C052D1401A8259C13A81C95C34
:10F87000DE4F3883C753D140CA5CDE4F1882C6536F
:10F88000D1408B81C82EDD24CA5CDE4F488159816E
:10F89000C653D140C42AD52A933109F082C0CE5C28
:10F8A000DE4F88819981AA81BB81C253D1408050AB
:10F8B000904CA340B04030F583E0CE5CDE4FE88052
:10F8C000F9800A811B81C253D140F70100935B008C
:10F8D00080935700E89507B600FCFDCFCE5CDE4F65
:10F8E000088119812A813B81C253D14000501F4FAA
:10F8F0002F4F3F4FCE5CDE4F088319832A833B8313
:10F90000C253D140C05EDE4F488159816A817B81FC
:10F91000C052D140DE011B9631E08C9111962C91A2
:10F9200011971296C75CDE4F2883C953D140C85C3B
:10F93000DE4F1882C853D14090E0C85CDE4FE881AA
:10F94000F981C853D1408E2B9F2B0C01FA01609393
:10F950005B0030935700E89511244E5F5F4F6F4F67
:10F960007F4F0EEFE02E0FEFF02ECE0CDF1CC114F8
:10F97000D10499F685E0C05EDE4F088119812A81A5
:10F980003B81C052D140F80120935B008093570027
:10F99000E89507B600FCFDCF81E180935700E8951C
:10F9A00035C0C05EDE4F88819981AA81BB81C0527B
:10F9B000D140B695A795979587957C018601ABE0D8
:10F9C000AA2EB12CAC0EBD1E0BC0D5016D915D01F0
:10F9D000C7010F947FFE0894E11CF11C01501040F8
:10F9E0000115110591F7A60160E070E0440F551F65
:10F9F000661F771FC05EDE4FE880F9800A811B8199
:10FA0000C052D1404E0D5F1D601F711F1A82C05E33
:10FA1000DE4F488359836A837B83C052D1407FC0C5
:10FA2000FA80C55CDE4FF882CB53D140C65CDE4F16
:10FA30001882CA53D1408B81C82EDD24C65CDE4FAC
:10FA400008811981CA53D140C02AD12A1A828981DA
:10FA5000BE016D5F7F4F843121F59601C05EDE4FA0
:10FA6000E880F9800A811B81C052D1400BBFF701A9
:10FA700087919691DB018C9311969C936E5F7F4FDB
:10FA8000D801C7010296A11DB11DC05EDE4F88835B
:10FA90009983AA83BB83C052D14022503040F1F6F3
:10FAA00036C0C05EDE4F288139814A815B81C052F9
:10FAB000D1400894C108D108760100E010E0089414
:10FAC000C11CD11C0894E11CF11C011D111DE20E8A
:10FAD000F31E041F151F21BDBB27A52F942F832FB5
:10FAE00082BD2F5F3F4F4F4F5F4FF89A80B5DB01CC
:10FAF0008D93BD012E153F054007510761F7C05E8C
:10FB0000DE4F288339834A835B83C052D1409601FC
:10FB10002D5F3F4FFB01108204C080EC8A8322E0FE
:10FB200030E08BE18093C6008091C00086FFFCCF5F
:10FB30008091C00080648093C000C15DDE4FF88179
:10FB4000CF52D140F093C6008091C00086FFFCCF19
:10FB50008091C00080648093C000432F3093C60022
:10FB60008091C00086FFFCCF8091C00080648093AC
:10FB7000C000922F2093C6008091C00086FFFCCF6A
:10FB80008091C00080648093C0008EE08093C600A6
:10FB90008091C00086FFFCCF8091C000806480937C
:10FBA000C00065E1C15DDE4FE880CF52D1406E25D7
:10FBB00069276427FE01319610C090819093C6009A
:10FBC0008091C00086FFFCCF31968091C000806498
:10FBD0008093C0006927215030402115310569F715
:10FBE0006093C6008091C00086FFFCCF8091C0006A
:10FBF00080648093C00085B1805885B9772081F4F6
:10FC0000C15DDE4F0881CF52D1400F5FC15DDE4F35
:10FC10000883CF52D14090E0A0E0B0E00D941AF4F8
:10FC200027982F9880E090E020ED37E0F901319798
:10FC3000F1F7019684369105C9F700008091C00064
:10FC40008D7F8093C00081E180935700E895EE2777
:10FC5000FF270994FFCF90E00D941AF497FB092E2B
:10FC600007260AD077FD04D02ED006D000201AF443
:10FC7000709561957F4F0895F6F7909581959F4F08
:10FC80000895A1E21A2EAA1BBB1BFD010DC0AA1FDD
:10FC9000BB1FEE1FFF1FA217B307E407F50720F0F5
:10FCA000A21BB30BE40BF50B661F771F881F991F70
:10FCB0001A9469F760957095809590959B01AC01B9
:10FCC000BD01CF010895AA1BBB1B51E107C0AA1FAC
:10FCD000BB1FA617B70710F0A61BB70B881F991FED
:10FCE0005A95A9F780959095BC01CD010895F99991
:10FCF000FECF92BD81BDF89A992780B50895262F31
:10FD0000F999FECF1FBA92BD81BD20BD0FB6F89400
:0EFD1000FA9AF99A0FBE01960895F894FFCF63
:040000033000E000E9
:00000001FF