:100000003DC100006BC1000069C1000067C1000074
:1000100065C1000063C1000061C100005FC1000054
:100020005DC100005BC1000059C1000057C1000064
:1000300055C1000053C1000051C100004FC1000074
:100040004DC100004BC1000049C1000047C1000084
:1000500045C1000043C1000041C100008EC3000043
:100060003DC1000061C3000036C3000037C100007D
:1000700035C1000033C1000031C100002FC10000B4
:100080002DC100002BC1000029C1000027C10000C4
:10009000F9C20000CEC2000021C100001FC1000053
:1000A0001DC100001BC1000019C1000017C10000E4
:1000B00015C1000013C1000011C100000FC10000F4
:1000C0000DC100000BC1000009C1000007C1000004
:1000D00005C1000003C1000083C2000058C2000037
:1000E000FDC00000510A540A430A470A4B0A8B0A12
:1000F000580A5C0A620A660A6A0A700A740A780A6E
:100100008B0A7E0A820A860A036EDB363D9A99992B
:10011000993DABAAAA2A3E000000803F084AD73B7F
:100120003BCE016E84BCBFFDC12F3D6C74319ABDC6
:1001300056833DDA3D00C77F11BED9E4BB4C3E91EA
:100140006BAAAABE000000803F072C7AA5BA6CC536
:1001500090DA3B9365FC8BBC53F810FD3C569283C0
:100160004DBD879D3AB63DCBC9BF5BBE73DA0FC9A3
:100170003F0000002100240027002A002D0030004D
:10018000330001010000040107010A010000220000
:10019000250028002B002E00310034000201000051
:1001A000050108010B0105050505070508080808F4
:1001B000020202020A0A08080404040401010101FF
:1001C00001010101030303030303030304070707FA
:1001D0000C0C0C0C0C0C0C0C02020202060606069F
:1001E000060606060B0B0B0B0B0B0B0B010210206C
:1001F000200808102040102040800201020108045D
:1002000002010102040810204080804020100804F0
:100210000201800402018040201008040201080449
:10022000020101020408102040800102040810208D
:10023000408000000A0B02090C0D0E0807030401A0
:1002400000000000000000000000000000000000AE
:10025000000000000000000000000000000012117B
:10026000100000000000000000000000000000007E
:100270000000000000000000B708B60811241FBEEF
:10028000CFEFD1E2DEBFCDBF00E00CBF12E0A0E0B7
:10029000B2E0ECEFFEE100E00BBF02C007900D9270
:1002A000A834B107D9F725E0A8E4B2E001C01D9257
:1002B000A43BB207E1F711E0CDE3D1E000E006C0D6
:1002C00021970109802FFE010E94340ECC33D10703
:1002D00080E00807A9F77ED40C946D0F91CECF92E1
:1002E000DF92EF92FF920F931F93CF93DF936C01F6
:1002F0007A018B01C0E0D0E0CE15DF0589F0D8018E
:100300006D918D01D601ED91FC910190F081E02D70
:10031000C6011995892B11F47E0102C02196ECCFFC
:10032000C701DF91CF911F910F91FF90EF90DF9068
:10033000CF900895FC01A089B1898C91A689B789D5
:1003400082FD0FC09C91818D8F5F8F73228D8217EC
:1003500049F0218DDF01A20FB11D5D969C93818F25
:1003600008958C910895089580E090E00895FC012F
:10037000538D448D252F30E0842F90E0821B930B0A
:10038000541710F0CF96089501970895FC01918DB0
:10039000828D981761F0828DDF01A80FB11D5D96E7
:1003A0008C91928D9F5F9F73928F90E008958FEF55
:1003B0009FEF0895FC01918D828D981731F0828D09
:1003C000E80FF11D858D90E008958FEF9FEF089560
:1003D000FC01918D228D892F90E0805C9F4F821BC4
:1003E00091098F73992708958BE893E0F1DF21E05D
:1003F000892B09F420E0822F08958EEE92E0E8DF49
:1004000021E0892B09F420E0822F089581E592E014
:10041000DFDF21E0892B09F420E0822F0895FC0121
:10042000848DDF01A80FB11DA35ABF4F2C91848D7D
:1004300090E001968F739927848FA689B7892C93B2
:10044000A089B1898C9180648C93938D848D98134D
:1004500006C00288F389E02D80818F7D8083089516
:10046000EF92FF920F931F93CF93DF93EC0181E004
:10047000888F9B8D8C8D981305C0E889F9898081C0
:1004800085FD23C0F62E0B8D10E00F5F1F4F0F73FD
:100490001127E02E8C8DE8120BC00FB607FCFACFA7
:1004A000E889F989808185FFF5CFCE01B8DFF2CFE9
:1004B0008B8DFE01E80FF11DE35AFF4FF0820B8F89
:1004C000EA89FB898081806207C0EE89FF896083A9
:1004D000E889F98980818064808381E090E0DF9100
:1004E000CF911F910F91FF90EF900895CF93DF93DD
:1004F000EC01888D8823C1F0EA89FB89808185FD24
:1005000005C0A889B9898C9186FD0EC00FB607FC7D
:10051000F5CF808185FFF2CFA889B9898C9185FFBD
:10052000EDCFCE017CDFE8CFDF91CF91089580E061
:1005300090E0892B19F06ADF81111BC080E090E008
:10054000892B19F05ADF811117C080E090E0892BC8
:1005500041F080E090E0892B21F00E9400008111A1
:100560000EC080E090E0892B79F03EDF81110AC057
:1005700008950E940000E2CF0E940000E6CF0E9492
:100580000000EFCF0C94000008950E94690F1F92A5
:100590000F920FB60F9211240BB60F922F933F9329
:1005A0004F935F936F937F938F939F93AF93BF937B
:1005B000EF93FF938BE893E032DFFF91EF91BF91D0
:1005C000AF919F918F917F916F915F914F913F91EB
:1005D0002F910F900BBE0F900FBE0F901F9018958C
:1005E0001F920F920FB60F9211240BB60F922F93FA
:1005F0003F934F935F936F937F938F939F93AF93AB
:10060000BF93EF93FF938BE893E094DEFF91EF911C
:10061000BF91AF919F918F917F916F915F914F911A
:100620003F912F910F900BBE0F900FBE0F901F9018
:1006300018951F920F920FB60F9211240BB60F92BE
:100640002F933F934F935F936F937F938F939F93DA
:10065000AF93BF93EF93FF938EEE92E0E0DEFF91B6
:10066000EF91BF91AF919F918F917F916F915F912A
:100670004F913F912F910F900BBE0F900FBE0F9097
:100680001F9018951F920F920FB60F9211240BB660
:100690000F922F933F934F935F936F937F938F931B
:1006A0009F93AF93BF93EF93FF938EEE92E042DE62
:1006B000FF91EF91BF91AF919F918F917F916F913A
:1006C0005F914F913F912F910F900BBE0F900FBEF6
:1006D0000F901F9018951F920F920FB60F92112432
:1006E0000BB60F922F933F934F935F936F937F932C
:1006F0008F939F93AF93BF93EF93FF9381E592E026
:100700008EDEFF91EF91BF91AF919F918F917F917D
:100710006F915F914F913F912F910F900BBE0F9072
:100720000FBE0F901F9018951F920F920FB60F9249
:1007300011240BB60F922F933F934F935F936F93B8
:100740007F938F939F93AF93BF93EF93FF9381E535
:1007500092E0F0DDFF91EF91BF91AF919F918F916A
:100760007F916F915F914F913F912F910F900BBEB1
:100770000F900FBE0F901F9018951F920F920FB6FB
:100780000F9211242F933F938F939F93AF93BF9317
:1007900080914D0290914E02A0914F02B091500273
:1007A00030914C0223E0230F2D3720F40196A11D38
:1007B000B11D05C026E8230F0296A11DB11D20938F
:1007C0004C0280934D0290934E02A0934F02B0933F
:1007D00050028091480290914902A0914A02B09142
:1007E0004B020196A11DB11D8093480290934902CE
:1007F000A0934A02B0934B02BF91AF919F918F910A
:100800003F912F910F900FBE0F901F9018950F934F
:10081000CF93DF93FC01EB0173836283448340E059
:1008200050E066E973E445835683678370871186D9
:1008300012861386148680E090E0ABE2B4E48587EC
:100840009687A787B08BD28BC18B238B448B558B1C
:10085000668B778B108E118E128E138E848F958FF0
:10086000A68FB78FD1A3C0A302A343A354A365A3AC
:1008700076A317A210A611A612A683A794A7A5A7D0
:10088000B6A7DF91CF910F91089590E0FC01E4515C
:10089000FE4F2491FC01EA55FE4F8491882399F084
:1008A00090E0880F991FFC01EE58FE4FA591B4917E
:1008B000FC01E457FE4F859194918FB7F894EC9129
:1008C000E22BEC938FBF0895CF92DF92EF92FF92CD
:1008D0000F931F93CF93DF93EC016A017B01E889AB
:1008E000F98982E080834115514E61057105B1F0AF
:1008F00060E079E08DE390E0A70196010E94120E7E
:1009000089019A010150110921093109369527956C
:1009100017950795980101151041A8F0E889F98904
:10092000108260E874E88EE190E0A70196010E94D1
:10093000120EDA01C9010197A109B109B695A7956F
:10094000979587959C01EC85FD853083EE85FF8525
:100950002083188EEC89FD8986E08083EA89FB89F3
:10096000808180618083EA89FB89808188608083BF
:10097000EA89FB89808180688083EA89FB8980819C
:100980008F7D8083DF91CF911F910F91FF90EF902A
:10099000DF90CF900895009761F0FC010190002056
:1009A000E9F73197AF01481B590BBC0181E592E093
:1009B00096CC80E090E00895EECFE0915102F09166
:1009C00052020190F081E02D682F81E592E01994A8
:1009D0008F929F92AF92BF920F931F93CF93DF930B
:1009E000CDB7DEB7A1970FB6F894DEBF0FBECDBF6F
:1009F00019A2423008F44AE08E010F5D1F4F842E89
:100A0000912CA12CB12CA50194010E94120EE62F6D
:100A1000B901CA0101501109EA3014F4E05D01C0C6
:100A2000E95CD801EC93232B242B252B61F7C8011B
:100A3000B2DFA1960FB6F894DEBF0FBECDBFDF9137
:100A4000CF911F910F91BF90AF909F908F9008957D
:100A50004F925F926F927F928F929F92AF92BF92CE
:100A6000CF92DF92EF92FF926B017C01B42E9B013B
:100A7000AC010E94F90D882319F08CE392E025C0A7
:100A800026013701E89477F82FEF3FEF4FE75FE754
:100A9000C301B2010E94F90D81110CC02FEF3FEF8D
:100AA0004FE75FE7C301B20156D618161CF480E485
:100AB00092E00BC02FEF3FEF4FE75FE4C701B601B5
:100AC000E5D718167CF484E492E0FF90EF90DF9075
:100AD000CF90BF90AF909F908F907F906F905F90DE
:100AE0004F9059CF2FEF3FEF4FE75FECC701B601B3
:100AF00032D687FDE8CF20E030E0A901C701B6017A
:100B00002AD687FF08C08DE258DF4C01F7FAF0942F
:100B1000F7F8F09402C0812C912CA12C60E070E0D9
:100B200080E09FE3AB1439F020E030E040E251E494
:100B300016D6A394F7CF9B01AC01C701B6012ED501
:100B40002B013C0174D66B017C019DD69B01AC014D
:100B5000C301B20122D52B013C014AE0C701B60115
:100B600037DF7C01E80CF91CBB2021F08EE225DF89
:100B7000E80EF91EDB2CDD20F9F020E030E040E249
:100B800051E4C301B2018DD72B013C0150D64B017A
:100B9000A12CB12C4AE0C501B4011ADFE80EF91E00
:100BA000C501B40170D69B01AC01C301B201F5D4FB
:100BB0002B013C01DA94DFCFC701FF90EF90DF906B
:100BC000CF90BF90AF909F908F907F906F905F90ED
:100BD0004F900895CF93DF93CDB7DEB7A0970FB6B0
:100BE000F894DEBF0FBECDBF789484B5826084BD1B
:100BF00084B5816084BD85B5826085BD85B5816021
:100C000085BD80916E00816080936E00109281009E
:100C10008091810082608093810080918100816059
:100C2000809381008091800081608093800080911A
:100C3000B10084608093B1008091B00081608093A6
:100C4000B00080919100826080939100809191002A
:100C500081608093910080919000816080939000EA
:100C60008091A10082608093A1008091A1008160A9
:100C70008093A1008091A00081608093A00080916A
:100C80002101826080932101809121018160809304
:100C900021018091200181608093200180917A0060
:100CA000846080937A0080917A00826080937A00D9
:100CB00080917A00816080937A0080917A008068C8
:100CC00080937A001092C10040E855E260E070E045
:100CD00081E592E0F9DD8CE390E0CED79C838B83B5
:100CE0008CE390E0C9D79E838D838CE390E0C4D7DA
:100CF0009C878B878CE390E0BFD79A8389838CE3B2
:100D000090E0BAD78C018CE390E0B6D71C0118A212
:100D10001F8E1A8A198A29893A89B901330F880BDB
:100D2000990BB3D52EE63BED46EB5FE3BAD66B01EC
:100D30007C0123EF34E045E35FEBB3D64B015C016C
:100D400020E030E0A9012AD46D877E878F87988BB9
:100D50002DEC3CEC4DE153E4C501B4011FD46B8B89
:100D60007C8B8D8B9E8B20E030E0A901C701B60102
:100D700098D620E030E0A90111D46F8B788F898F4D
:100D80009A8F2DEC3CEC4DE153E46B897C898D8985
:100D90009E8904D46F83788789879A872D853E85BD
:100DA0004F855889CA01B9017CD66B017C012F811E
:100DB000388549855A85CA01B90173D69B01AC01B2
:100DC000C701B601EBD3D4D66B017C0124EA30EB2A
:100DD0004FEE52E46F89788D898D9A8DDFD34B0168
:100DE0005C0120E030E04FE352E4C701B601D5D307
:100DF0006B017C01A5019401C501B40152D62B0100
:100E00003C01A7019601C701B6014BD69B01AC017D
:100E1000C301B201C3D3ACD66B017C019B01AC0111
:100E200040D62B013C01A7019601C501B40197D41E
:100E300019D46B8F7C8F8D8F9E8F2D853E854F852E
:100E400058896F81788589859A8532D46F837887B0
:100E500089879A8720E931E646EB55E4C301B20160
:100E60009DD320EC36E143E257E497D34B015C017C
:100E70002DE33AEC48E153E4C701B60112D69B01D9
:100E8000AC01C501B4016BD47AD36B017C0120E9BC
:100E900031E646EB55E4C301B2017FD320EC36E1E5
:100EA00043E257E47AD329E237EE43EF56E457D4CE
:100EB00066D34B015C018B819C81892B09F466C050
:100EC000AD81BE81AB2B09F461C02BED3FE049E45D
:100ED00050E46F81788589859A8541D420E030E09F
:100EE00044E353E4DED56B807C80EF8DF8A16E0E79
:100EF0007F1E20E030E040E752E450D3D3016D93F1
:100F00007D938D939C9313972B8D3C8D4D8D5E8D92
:100F1000C701B60142D32BED3FE049E450E41FD4B2
:100F200020E030E044E353E4BCD59B01AC01ED800C
:100F3000FE80EF8DF8A1EE0EFF1E60E070E086E10E
:100F400093E42BD3D7016D937D938D939C9313974B
:100F5000C501B40190582BED3FE049E450E4FFD3C4
:100F600020E030E044E353E49CD5EB84FC84EF8D37
:100F7000F8A1EE0EFF1E2DEC3CE44AE353E40ED341
:100F8000D7016D937D938D939C931397E981FA819B
:100F9000309741F10115110529F12114310411F1A6
:100FA0002F8D38A1E20FF31F8D859E85AF85B889FF
:100FB00080839183A283B383F901E00FF11F8B89B2
:100FC0009C89AD89BE8980839183A283B383F90113
:100FD000E20DF31D8F89988DA98DBA8D8083918341
:100FE000A283B383A989BA891196BA8BA98BEF8D95
:100FF000F8A13496F8A3EF8F1F9709F08CCEEB8001
:10100000FC80AD80BE80CB84DC84412C512C32012D
:10101000812C912C88E192E0CFDC4AE0C301B2013F
:10102000D7DC8BE192E0C8DC8EE192E0C5DCD70131
:101030006D917D918D919D917D0142E009DD8BE166
:1010400092E0BADC83E292E0B7DCF5016191719144
:10105000819191915F0142E0FBDC8BE192E0ACDC9D
:1010600088E292E0A9DCD6016D917D918D919D91F0
:101070006D0142E0EDDC8BE192E09EDC8DE292E0DE
:101080009BDCE981FA81309739F0E80DF91D608128
:1010900071818281938103C060E070E0CB0142E006
:1010A000D7DC8BE192E088DC81E392E085DC0115FE
:1010B000110541F0F801E80DF91D6081718182810F
:1010C000938103C060E070E0CB0142E0C1DC8BE1C2
:1010D00092E072DC85E392E06FDC2114310441F090
:1010E000F101E80DF91D608171818281938103C056
:1010F00060E070E0CB0142E0ABDC8BE192E05CDCD5
:1011000089E392E048DCF4E08F0E911C2FEF421A45
:10111000520A620A720A3FE04316510461047104E4
:1011200009F078CF8B819C81009709F03AD6AD8188
:10113000BE81109711F0CD0134D6EB85FC85309738
:1011400011F0CF012ED629813A81232B19F0898104
:101150009A8127D60115110511F0C80122D6211454
:10116000310411F0C1011DD6E2D9AECD08954F92E0
:101170005F926F927F928F929F92AF92BF92CF9227
:10118000DF92EF92FF920F931F9310928E031092B3
:101190008D0348EE53E060E070E040938F0350937E
:1011A000900360939103709392038AE092E090938E
:1011B0008C0380938B0325E331E0309398032093D5
:1011C000970324E331E030939A032093990320E3BB
:1011D00031E030939C0320939B0321E331E0309373
:1011E0009E0320939D0322E331E03093A0032093DC
:1011F0009F0326E331E03093A2032093A1031092D2
:10120000A4031092A5031092A6031092A7031092B4
:10121000F1021092F0024093F2025093F3026093B5
:10122000F4027093F5029093EF028093EE022DEC9E
:1012300030E03093FB022093FA022CEC30E0309344
:10124000FD022093FC0228EC30E03093FF02209353
:10125000FE0229EC30E030930103209300032AECD6
:1012600030E030930303209302032EEC30E0309300
:1012700005032093040310920703109208031092B1
:10128000090310920A0310925402109253024093E1
:1012900055025093560260935702709358029093F0
:1012A00052028093510285EC90E090935E0280930D
:1012B0005D0284EC90E09093600280935F0280EC8A
:1012C00090E0909362028093610281EC90E09093B1
:1012D00064028093630282EC90E0909366028093B4
:1012E000650286EC90E0909368028093670210920A
:1012F0006A0210926B0210926C0210926D0206E06C
:1013000025E044E068E274E082E894E080DA03E0FB
:1013100022E041E068E274E081EB94E078DA0CE0EE
:101320002BE04AE068E274E080EE94E070DA0FE0CF
:101330002EE04DE068E274E08FE095E068DA02E1CB
:1013400021E140E168E274E08EE395E060DA09E0D3
:1013500028E047E068E274E08DE695E058DA109204
:10136000A80582E894E090939D0580939C0581EB0D
:1013700094E090939F0580939E0580EE94E0909377
:10138000A1058093A0058FE095E09093A30580933D
:10139000A2058EE395E09093A5058093A4058DE6C4
:1013A00095E09093A7058093A6058EEE92E090932A
:1013B0004504809344048AE08093290466DA40E47B
:1013C00052E46FE070E080914404909145047CDA2F
:1013D000ACE9B5E0412C512C96E6692E93E4792EC8
:1013E000812C912C20E7A22E23E4B22EC12CD12CEB
:1013F00037E8E32E33E4F32E00E010E020EA32E495
:10140000ED91FD914582568267827086848A958A25
:10141000A68AB78AC3A2D4A2E5A2F6A20187128740
:101420002387348740E050E060E772E4408F518FBB
:10143000628F738F40E050E060EF71E447A350A7E4
:1014400061A772A755E0A83AB507D1F68CE01DDA7E
:10145000EEE3F2E04491E8EFF1E02491E2EBF1E019
:101460009491992309F466C0442309F454C050E0D0
:10147000FA013197E231F10508F04DC08827EE58A6
:10148000FF4F8F4FF1C3809180008F7707C080910D
:1014900080008F7D03C080918000877F80938000D3
:1014A0003AC084B58F7702C084B58F7D84BD33C0C8
:1014B0008091B0008F7703C08091B0008F7D8093C2
:1014C000B00029C0809190008F7707C08091900074
:1014D0008F7D03C080919000877F809390001BC018
:1014E0008091A0008F7707C08091A0008F7D03C0FE
:1014F0008091A000877F8093A0000DC08091200183
:101500008F7707C0809120018F7D03C080912001DB
:10151000877F80932001E92FF0E0EE0FFF1FE45753
:10152000FE4FA591B4918FB7F894EC9120952E239E
:101530002C938FBF1092AB051092AA051092AD05A7
:101540001092AC051092AF051092AE058DE09DD9BA
:101550008CE09BD940E855E260E070E08BE893E0D6
:101560001F910F91FF90EF90DF90CF90BF90AF90C1
:101570009F908F907F906F905F904F90A5C99F93A1
:101580009F77BED10F9000203AF49058A2EA2AED3E
:101590003FE049E450E413D03FC25058BB27AA278C
:1015A0000ED03AC22BD230F030D220F031F49F3F2F
:1015B00011F41EF4EAC10EF4E095E7FBE0C1E92F57
:1015C0003CD280F3BA17620773078407950718F0B7
:1015D00071F49EF554C20EF4E0950B2EBA2FA02D97
:1015E0000B01B90190010C01CA01A0011124FF27D0
:1015F000591B99F0593F50F4503E68F11A16F040CB
:10160000A22F232F342F4427585FF3CF46953795C9
:101610002795A795F0405395C9F77EF41F16BA0B8E
:10162000620B730B840BBAF09150A1F0FF0FBB1F3C
:10163000661F771F881FC2F70EC0BA0F621F731F85
:10164000841F48F4879577956795B795F7959E3FE2
:1016500008F0B3CF9395880F08F09927EE0F979570
:10166000879508959F939F77EEE389379E0720F42F
:10167000E8E0F1E0B2D109C043D19058A2EA2AEDE6
:101680003FE049EC5FE39BDFC7D10F9007FC905828
:101690000895B4D158F080E891E009F49EEFB5D1F7
:1016A00028F040E851E059F45EEF09C06EC1E7C18F
:1016B000E92FE078C2D168F3092E052AC1F3261775
:1016C00037074807590738F00E2E07F8E02569F06C
:1016D000E025E0640AC0EF6307F8009407FADB0135
:1016E000B9019D01DC01CA01AD01EF9347D094D14E
:1016F0000AD05F91552331F02BED3FE049E450FDD6
:1017000049EC4CCF0895DF93DD27B92FBF7740E830
:101710005FE31616170648075B0710F4D92FBAD1F6
:101720009F938F937F936F9361D2ECE1F1E030D17F
:1017300073D12F913F914F915F91BFD1DD2349F03C
:101740009058A2EA2AED3FE049EC5FE3D0785D27AC
:1017500036DFDF9161C1EFD008F481E008950CD04D
:101760005BC153D140F04AD130F021F45F3F19F012
:1017700006C1511185C109C160D198F39923C9F3FC
:101780005523B1F3951B550BBB27AA276217730787
:10179000840738F09F5F5F4F220F331F441FAA1F3B
:1017A000A9F333D00E2E3AF0E0E830D091505040FB
:1017B000E695001CCAF729D0FE2F27D0660F771FA9
:1017C000881FBB1F261737074807AB07B0E809F08B
:1017D000BB0B802DBF01FF2793585F4F2AF09E3F20
:1017E000510568F0CCC04CC15F3FECF3983EDCF390
:1017F000869577956795B795F7959F5FC9F7880F99
:10180000911D9695879597F90895E1E0660F771FEA
:10181000881FBB1F621773078407BA0720F0621B7B
:10182000730B840BBA0BEE1F88F7E09508950DD16A
:1018300088F09F5790F0B92F9927B751A0F0D1F0B9
:10184000660F771F881F991F1AF0BA95C9F712C043
:10185000B13081F014D1B1E0089511C1672F782F14
:101860008827B85F39F0B93FCCF3869577956795AF
:10187000B395D9F73EF490958095709561957F4F1B
:101880008F4F9F4F0895E89409C097FB3EF49095C1
:101890008095709561957F4F8F4F9F4F9923A9F049
:1018A000F92F96E9BB279395F695879577956795D8
:1018B000B795F111F8CFFAF4BB0F11F460FF1BC01C
:1018C0006F5F7F4F8F4F9F4F16C0882311F096E9AF
:1018D00011C0772321F09EE8872F762F05C066235D
:1018E00071F096E8862F70E060E02AF09A95660F16
:1018F000771F881FDAF7880F9695879597F90895CF
:10190000DF93CF931F930F938B01EC01E9E4F1E098
:101910003FD082D09801AE018B01EC0160E070E015
:1019200080E89FE33ADE24D19801AE010F911F9128
:10193000CF91DF91C2C0990F0008550FAA0BE0E8C4
:10194000FEEF16161706E807F907C0F01216130681
:10195000E407F50798F0621B730B840B950B39F4C1
:101960000A2661F0232B242B252B21F408950A2627
:1019700009F4A140A6958FEF811D811D089597F967
:101980009F6780E870E060E008959FEF80EC089525
:10199000DF93CF931F930F93FF92EF92DF927B0120
:1019A0008C01689405C0DA2EEF0187D0FE01E8941F
:1019B000A5912591359145915591AEF3EF01FFDD4C
:1019C000FE019701A801DA9479F7DF90EF90FF907C
:1019D0000F911F91CF91DF9108959F938F937F93E4
:1019E0006F93FF93EF939B01AC015BD0EF91FF915D
:1019F000CFDF2F913F914F915F9153C000240A9404
:101A00001616170618060906089500240A941216D9
:101A10001306140605060895092E0394000C11F40C
:101A2000882352F0BB0F40F4BF2B11F460FF04C0B9
:101A30006F5F7F4F8F4F9F4F089557FD9058440F12
:101A4000551F59F05F3F71F04795880F97FB991F1D
:101A500061F09F3F79F087950895121613061406DA
:101A6000551FF2CF4695F1DF08C016161706180667
:101A7000991FF1CF86957105610508940895E89442
:101A8000BB2766277727CB0197F9089554DF08F421
:101A90008FEF08959B01AC0160E070E080E89FE368
:101AA0005ECE0BD0B9CFAADF28F0AFDF18F09523B8
:101AB00009F065CF6ACF1124E3CFBFDFA0F3959F74
:101AC000D1F3950F50E0551F629FF001729FBB2725
:101AD000F00DB11D639FAA27F00DB11DAA1F649FD1
:101AE0006627B00DA11D661F829F2227B00DA11D84
:101AF000621F739FB00DA11D621F839FA00D611D0A
:101B0000221F749F3327A00D611D231F849F600D2A
:101B1000211D822F762F6A2F11249F5750408AF063
:101B2000E1F088234AF0EE0FFF1FBB1F661F771FEF
:101B3000881F91505040A9F79E3F510570F01FCF6C
:101B40009FCF5F3FECF3983EDCF3869577956795E2
:101B5000B795F795E7959F5FC1F7FE2B880F911D0D
:101B60009695879597F9089511F40EF40ECF45C018
:101B70006CDFD0F39923D9F3CEF39F57550B87FF32
:101B80004AD00024A0E640EA9001805856959795E7
:101B900028F4805C660F771F881F20F02617370710
:101BA000480730F4621B730B840B202931294A2B20
:101BB000A69517940794202531254A2758F7660FD4
:101BC000771F881F20F026173707480730F4620B6D
:101BD000730B840B200D311D411DA09581F7B901B8
:101BE000842F9158880F9695879508959B01AC0195
:101BF00058CFA1DE880B990B08959F3F31F091508B
:101C000020F4879577956795B795880F911D9695E0
:101C1000879597F9089591505040660F771F881F58
:101C2000D2F70895A1E21A2EAA1BBB1BFD010DC01D
:101C3000AA1FBB1FEE1FFF1FA217B307E407F5077C
:101C400020F0A21BB30BE40BF50B661F771F881F58
:101C5000991F1A9469F760957095809590959B01EE
:101C6000AC01BD01CF010895EE0FFF1F881F8BBF90
:101C70000790F691E02D1994CF93DF938230910570
:101C800010F482E090E0E091B205F091B30520E01D
:101C900030E0C0E0D0E0309711F140815181481729
:101CA0005907C0F04817590761F482819381209742
:101CB00019F09B838A832BC09093B3058093B20560
:101CC00026C02115310519F04217530718F49A015F
:101CD000BE01DF01EF010280F381E02DDCCF211591
:101CE000310509F1281B390B2430310590F4129687
:101CF0008D919C9113976115710521F0FB019383E0
:101D0000828304C09093B3058093B205FD0132969F
:101D100044C0FD01E20FF31F8193919322503109DA
:101D20002D933C933AC02091B0053091B105232BFF
:101D300041F420910202309103023093B1052093C7
:101D4000B00520910002309101022115310541F4C6
:101D50002DB73EB74091040250910502241B350B6C
:101D6000E091B005F091B105E217F307A0F42E1B46
:101D70003F0B2817390778F0AC014E5F5F4F2417EF
:101D8000350748F04E0F5F1F5093B1054093B005E3
:101D90008193919302C0E0E0F0E0CF01DF91CF9119
:101DA00008950F931F93CF93DF93009709F48CC08E
:101DB000FC013297138212820091B2051091B30593
:101DC0000115110581F420813181820F931F20912B
:101DD000B0053091B1052817390779F5F093B105B1
:101DE000E093B00571C0D80140E050E0AE17BF07E6
:101DF00050F412962D913C911397AD0121153105A8
:101E000009F1D901F3CF9D01DA0133832283608187
:101E10007181860F971F8217930769F4EC0128815F
:101E20003981260F371F2E5F3F4F318320838A81F0
:101E30009B8193838283452B29F4F093B305E09330
:101E4000B20542C01396FC93EE931297ED014991AF
:101E500059919E01240F351FE217F30771F4808119
:101E60009181840F951F029611969C938E93828187
:101E7000938113969C938E931297E0E0F0E0D80143
:101E800012968D919C911397009719F0F8018C018F
:101E9000F6CF8D919C9198012E5F3F4F820F931F3B
:101EA0002091B0053091B1052817390769F43097B2
:101EB00029F41092B3051092B20502C01382128267
:101EC0001093B1050093B005DF91CF911F910F9151
:101ED000089581E090E0F89400C011E0CDE3D1E0F6
:101EE00000E005C0802FFE01BFDE2196011DCE332C
:0C1EF000D10780E00807B1F7F894FFCF9D
:101EFC000000B40580000000000030026F01B70143
:101F0C007602E801C601DA01693A003B3B00513127
:101F1C003A200051323A200051333A2000583A20EE
:101F2C0000593A20005A3A20000D0A006E616E00EA
:081F3C00696E66006F76660015
:00000001FF
