:1000000008C1000036C1000034C1000032C1000048
:1000100030C100002EC100002CC100002AC1000028
:1000200028C1000026C1000024C1000022C1000038
:1000300020C100001EC100001CC100001AC1000048
:1000400018C1000016C1000014C1000012C1000058
:1000500010C100000EC100000CC1000030C400003F
:1000600008C100007AC300004FC3000002C10000B5
:1000700000C10000FEC00000FCC00000FAC000008B
:10008000F8C00000F6C00000F4C00000F2C000009C
:1000900012C30000E7C20000ECC00000EAC000008C
:1000A000E8C00000E6C00000E4C00000E2C00000BC
:1000B000E0C00000DEC00000DCC00000DAC00000CC
:1000C000D8C00000D6C00000D4C00000A2C200000A
:1000D00077C20000CEC000004AC200001FC200006C
:1000E000C8C0000005040804F703FB03FF033F0436
:1000F0000C04100416041A041E04240428042C04FE
:100100003F04320436043A0400000A0B02090C0DC5
:100110000E080703040100000000000000000000BA
:1001200000000000000000000000000000000000CF
:10013000000000001211100000000000000000008C
:1001400000000000000000000000000000000000AF
:100150002200250028002B002E003100340002016F
:100160000000050108010B01000021002400270008
:100170002A002D00300033000101000004010701B6
:100180000A0105050505070508080808020202021C
:100190000A0A080804040404010101010101010123
:1001A0000303030303030303040707070C0C0C0CEE
:1001B0000C0C0C0C020202020606060606060606D7
:1001C0000B0B0B0B0B0B0B0B010210202008081064
:1001D00020401020408002010201080402010102B7
:1001E0000408102040808040201008040201800490
:1001F00002018040201008040201080402010102EB
:1002000004081020408001020408102040802909C1
:10021000280911241FBECFEFD1E2DEBFCDBF00E021
:100220000CBF26E0A8E3B2E001C01D92AB33B207D9
:10023000E1F712E0A0E0B2E0E2E8F8E100E00BBF95
:1002400002C007900D92A833B107D9F711E0C8E0BA
:10025000D1E000E006C021970109802FFE010E9435
:10026000240CC730D10780E00807A9F773D50C9498
:10027000300CC6CEFC01A089B1898C91A689B789C2
:1002800082FD0FC09C91818D8F5F8F73228D8217AD
:1002900049F0218DDF01A20FB11D5D969C93818FE6
:1002A00008958C910895089580E090E00895FC01F0
:1002B000538D448D252F30E0842F90E0821B930BCB
:1002C000541710F0CF96089501970895FC01918D71
:1002D000828D981761F0828DDF01A80FB11D5D96A8
:1002E0008C91928D9F5F9F73928F90E008958FEF16
:1002F0009FEF0895FC01918D828D981731F0828DCA
:10030000E80FF11D858D90E008958FEF9FEF089520
:10031000FC01918D228D892F90E0805C9F4F821B84
:1003200091098F739927089588E694E0F1DF21E021
:10033000892B09F420E0822F08958EE293E0E8DF14
:1003400021E0892B09F420E0822F08958BEC93E0C3
:10035000DFDF21E0892B09F420E0822F089589E472
:1003600092E0D6DF21E0892B09F420E0822F089566
:10037000FC01848DDF01A80FB11DA35ABF4F2C9142
:10038000848D90E001968F739927848FA689B78911
:100390002C93A089B1898C9180648C93938D848DEA
:1003A000981306C00288F389E02D80818F7D8083B9
:1003B0000895EF92FF920F931F93CF93DF93EC0179
:1003C00081E0888F9B8D8C8D981305C0E889F98911
:1003D000808185FD23C0F62E0B8D10E00F5F1F4F2F
:1003E0000F731127E02E8C8DE8120BC00FB607FC9F
:1003F000FACFE889F989808185FFF5CFCE01B8DF92
:10040000F2CF8B8DFE01E80FF11DE35AFF4FF08212
:100410000B8FEA89FB898081806207C0EE89FF89A2
:100420006083E889F98980818064808381E090E03D
:10043000DF91CF911F910F91FF90EF900895CF938F
:10044000DF93EC01888D8823C1F0EA89FB898081E4
:1004500085FD05C0A889B9898C9186FD0EC00FB6AF
:1004600007FCF5CF808185FFF2CFA889B9898C91EF
:1004700085FFEDCFCE017CDFE8CFDF91CF910895EE
:1004800080E090E0892B19F06ADF811116C080E0CE
:1004900090E0892B19F05ADF811112C080E090E0C2
:1004A000892B19F04ADF81110EC080E090E0892B82
:1004B00079F03ADF81110AC008950E940000E7CF69
:1004C0000E940000EBCF0E940000EFCF0C940000D0
:1004D00008953FB7F89480913D0290913E02A0911B
:1004E0003F02B091400226B5A89B05C02F3F19F0EE
:1004F0000196A11DB11D3FBFBA2FA92F982F8827A4
:10050000820F911DA11DB11DBC01CD0142E0660FFE
:10051000771F881F991F4A95D1F708951F920F9250
:100520000FB60F9211240BB60F922F933F934F9358
:100530005F936F937F938F939F93AF93BF93EF934B
:10054000FF9388E694E014DFFF91EF91BF91AF91A4
:100550009F918F917F916F915F914F913F912F91DB
:100560000F900BBE0F900FBE0F901F9018951F920B
:100570000F920FB60F9211240BB60F922F933F9349
:100580004F935F936F937F938F939F93AF93BF939B
:10059000EF93FF9388E694E06DDEFF91EF91BF91BA
:1005A000AF919F918F917F916F915F914F913F910B
:1005B0002F910F900BBE0F900FBE0F901F901895AC
:1005C0001F920F920FB60F9211240BB60F922F931A
:1005D0003F934F935F936F937F938F939F93AF93CB
:1005E000BF93EF93FF938EE293E0C2DEFF91EF9112
:1005F000BF91AF919F918F917F916F915F914F913B
:100600003F912F910F900BBE0F900FBE0F901F9038
:1006100018951F920F920FB60F9211240BB60F92DE
:100620002F933F934F935F936F937F938F939F93FA
:10063000AF93BF93EF93FF938EE293E01BDEFF91A6
:10064000EF91BF91AF919F918F917F916F915F914A
:100650004F913F912F910F900BBE0F900FBE0F90B7
:100660001F9018951F920F920FB60F9211240BB680
:100670000F922F933F934F935F936F937F938F933B
:100680009F93AF93BF93EF93FF938BEC93E070DE58
:10069000FF91EF91BF91AF919F918F917F916F915A
:1006A0005F914F913F912F910F900BBE0F900FBE16
:1006B0000F901F9018951F920F920FB60F92112452
:1006C0000BB60F922F933F934F935F936F937F934C
:1006D0008F939F93AF93BF93EF93FF938BEC93E034
:1006E000C9DDFF91EF91BF91AF919F918F917F9164
:1006F0006F915F914F913F912F910F900BBE0F9093
:100700000FBE0F901F9018951F920F920FB60F9269
:1007100011240BB60F922F933F934F935F936F93D8
:100720007F938F939F93AF93BF93EF93FF9389E44E
:1007300092E01EDEFF91EF91BF91AF919F918F915B
:100740007F916F915F914F913F912F910F900BBED1
:100750000F900FBE0F901F9018951F920F920FB61B
:100760000F9211240BB60F922F933F934F935F93E9
:100770006F937F938F939F93AF93BF93EF93FF9369
:1007800089E492E077DDFF91EF91BF91AF919F9166
:100790008F917F916F915F914F913F912F910F902A
:1007A0000BBE0F900FBE0F901F901895362F90E044
:1007B000FC01E85FFE4F4491FC01E853FE4F249199
:1007C000FC01EE57FE4F9491992309F46BC044232A
:1007D00009F455C050E0FA013197E231F10508F013
:1007E0004EC08827EE58FF4F8F4F0C94240C8091F9
:1007F00080008F7707C0809180008F7D03C080913B
:100800008000877F809380003AC084B58F7702C0D4
:1008100084B58F7D84BD33C08091B0008F7703C0D5
:100820008091B0008F7D8093B00029C080919000AE
:100830008F7707C0809190008F7D03C080919000DA
:10084000877F809390001BC08091A0008F7707C0A6
:100850008091A0008F7D03C08091A000877F80934E
:10086000A0000DC0809120018F7707C080912001EA
:100870008F7D03C080912001877F80932001E92F25
:10088000F0E0EE0FFF1FE25BFE4FA591B4918FB732
:10089000F894EC91311103C020952E2301C02E2B2A
:1008A0002C938FBF08952FB7F894609139027091FF
:1008B0003A0280913B0290913C022FBF08951F9213
:1008C0000F920FB60F9211242F933F938F939F9304
:1008D000AF93BF938091390290913A02A0913B026D
:1008E000B0913C023091380223E0230F2D3720F4E1
:1008F0000196A11DB11D05C026E8230F0296A11D7A
:10090000B11D209338028093390290933A02A0934C
:100910003B02B0933C0280913D0290913E02A09137
:100920003F02B09140020196A11DB11D80933D028E
:1009300090933E02A0933F02B0934002BF91AF91CB
:100940009F918F913F912F910F900FBE0F901F900D
:10095000189590E0FC01E853FE4F2491FC01EE57FE
:10096000FE4F8491882399F090E0880F991FFC0135
:10097000E859FE4FA591B491FC01E25BFE4F8591D1
:1009800094918FB7F894EC91E22BEC938FBF08957C
:10099000CF92DF92EF92FF920F931F93CF93DF934B
:1009A0006C017A018B01C0E0D0E0CE15DF0589F043
:1009B000D8016D918D01D601ED91FC910190F081EE
:1009C000E02DC6011995892B11F47E0102C02196F4
:1009D000ECCFC701DF91CF911F910F91FF90EF9066
:1009E000DF90CF90089538D7CF92DF92EF92FF92A9
:1009F0000F931F93CF93DF93EC016A017B01E8898A
:100A0000F98982E080834115514E61057105A9F095
:100A100060E079E08DE390E0A70196015AD6890164
:100A20009A01015011092109310936952795179529
:100A30000795980101151041A0F0E889F989108205
:100A400060E874E88EE190E0A701960142D6DA01F1
:100A5000C9010197A109B109B695A7959795879501
:100A60009C01EC85FD853083EE85FF852083188E03
:100A7000EC89FD8986E08083EA89FB898081806139
:100A80008083EA89FB89808188608083EA89FB8989
:100A9000808180688083EA89FB8980818F7D808363
:100AA000DF91CF911F910F91FF90EF90DF90CF904A
:100AB00008958F929F92AF92BF92CF92DF92EF9262
:100AC000FF926B017C01EFDE4B015C01C60ED71E6D
:100AD000E81EF91EE8DE681579058A059B0528F0F1
:100AE000C616D706E806F906A8F7FF90EF90DF9044
:100AF000CF90BF90AF909F908F900895EF92FF920C
:100B00000F931F93CF93DF93CDB7DEB72B970FB61D
:100B1000F894DEBF0FBECDBF8C018EEB860F840F25
:100B2000850F8095D8018C939FEF99839A836B836F
:100B300097E09C8393E09D839EE19E834F8358873B
:100B400096E999871A868B8761E011968C912EDE43
:100B5000F801848D958DDC01ED91FC910280F3818B
:100B6000E02D4BE050E0BE016F5F7F4F1995F8011B
:100B7000848D958DDC01ED91FC910680F781E02D4F
:100B8000199560E0F801818111DED80112961C925E
:100B90008BE9E82E8FE0F82ED8015C968D919C9120
:100BA0005D97DC01ED91FC910084F185E02D1995B4
:100BB000F8012281059724F52A3010F52F5FF801FE
:100BC0002283C7010197F1F7E7CFD8015C968D9199
:100BD0009C915D97DC01ED91FC910284F385E02D01
:100BE0001995F82EF8018383848D958DDC01ED91A4
:100BF000FC910484F585E02D1995BFEFFB1681F07B
:100C0000D8015C968D919C915D97DC01ED91FC91F2
:100C10000084F185E02D199518161906B4F22FC03D
:100C20008F3F910569F7F801848D958DDC01ED9179
:100C3000FC910284F385E02D1995F801848D958D42
:100C4000DC01ED91FC910284F385E02D1995F8010A
:100C5000848D958DDC01ED91FC910284F385E02D6E
:100C60001995F801848D958DDC01ED91FC9102843C
:100C7000F385E02D1995F801918F808F02C08FEFD9
:100C80009FEF2B960FB6F894DEBF0FBECDBFDF915E
:100C9000CF911F910F91FF90EF900895611571050D
:100CA00079F0FB0101900020E9F73197AF01461B75
:100CB000570BDC01ED91FC910280F381E02D19943A
:100CC00080E090E008954F925F926F927F92EF9252
:100CD000FF920F931F93CF93DF93CDB7DEB7A1970A
:100CE0000FB6F894DEBF0FBECDBF7C01FA01CB0179
:100CF00019A2223008F42AE08E010F5D1F4F422E08
:100D0000512C612C712CBF01A3019201E2D4F90195
:100D1000CA01015011096A3014F4605D01C0695CB8
:100D2000D8016C93232B242B252B69F7B801C7011D
:100D3000B5DFA1960FB6F894DEBF0FBECDBFDF9131
:100D4000CF911F910F91FF90EF907F906F905F90E8
:100D50004F900895CF93DF93CDB7DEB727970FB6A7
:100D6000F894DEBF0FBECDBF789484B5826084BD99
:100D700084B5816084BD85B5826085BD85B581609F
:100D800085BD80916E00816080936E00109281001D
:100D900080918100826080938100809181008160D8
:100DA0008093810080918000816080938000809199
:100DB000B10084608093B1008091B0008160809325
:100DC000B0008091910082608093910080919100A9
:100DD0008160809391008091900081608093900069
:100DE0008091A10082608093A1008091A100816028
:100DF0008093A1008091A00081608093A0008091E9
:100E00002101826080932101809121018160809382
:100E100021018091200181608093200180917A00DE
:100E2000846080937A0080917A00826080937A0057
:100E300080917A00816080937A0080917A00806846
:100E400080937A001092C10010922A0310922B0313
:100E500010922C0310922D031092E8021092E902D6
:100E60001092EA021092EB0268EB7BE080E090E0E7
:100E700020DE89E492E0909329038093280340E0E8
:100E800052EC61E070E0B0DD0EDD6093E80270933B
:100E9000E9028093EA029093EB0262E172E08091B2
:100EA000280390912903FADE6AE070E080E090E088
:100EB00000DE81E08093FC02F6DC672B682B692B57
:100EC00039F4F1DC623071058105910508F4FBC04D
:100ED000EADC609345027093460280934702909348
:100EE0004802009141021091420220914302309148
:100EF0004402601771078207930740F46093410230
:100F00007093420280934302909344020091410205
:100F10001091420220914302309144026B017C0106
:100F2000C01AD10AE20AF30A970186010A3F1105A5
:100F30002105310508F4C7C0609341027093420255
:100F4000809343029093440284EF91E0A0E0B0E0EC
:100F50008093F4029093F502A093F602B093F70207
:100F60001092F8021092F9021092FA021092FB020B
:100F70008091EC029091ED02A091EE02B091EF020F
:100F80008093F0029093F102A093F202B093F302E7
:100F90008ADC6093EC027093ED028093EE029093F2
:100FA000EF0281DC6093E8027093E9028093EA0229
:100FB0009093EB0278DC6B017C0164E272E080913B
:100FC0002803909129036ADE2AE041E050E060E0C6
:100FD00070E0809128039091290375DE6BE272E046
:100FE000809128039091290359DE2AE0B701A601D8
:100FF000809128039091290366DE6DE272E0809172
:101000002803909129034ADE8091EC029091ED0231
:10101000A091EE02B091EF02B701A601481B590B57
:101020006A0B7B0B2AE080912803909129034BDE09
:101030006DE272E080912803909129032FDE4091A8
:10104000EC025091ED026091EE027091EF028091FE
:10105000F0029091F102A091F202B091F302481BCC
:10106000590B6A0B7B0B2AE080912803909129038E
:101070002ADE6FE272E080912803909129030EDE50
:1010800012DCAB01BC012AE0809128039091290376
:101090001ADE009128031091290361E372E0C80170
:1010A000FDDD61E272E0C801F9DD65E070E080E03D
:1010B00090E0FFDCF8DB6093EC027093ED0280932C
:1010C000EE029093EF0240E855E260E070E089E4C0
:1010D00092E08ADC8E01085F1F4F9CE0B92E88E603
:1010E00094E016D9181619063CF5CE0101967C013C
:1010F00088E694E0EBD8F70181937F01E017F107D0
:10110000B9F78A81082E000C990BC097909333068B
:10111000809332068C81082E000C990BC097909317
:101120003506809334068E81082E000C990BC097EB
:101130009093370680933606CCD92B013C0188EC7E
:10114000C82ED12CE12CF12CC4D9DC01CB0184199F
:101150009509A609B709883E9340A105B10558F045
:10116000F1E0CF1AD108E108F10828EE420E23E0A1
:10117000521E611C711CC114D104E104F10421F759
:1011800080913206909133068B30910558F1809111
:101190003406909135068B30910508F43EC080915D
:1011A0003606909137068B30910508F098CFB89E9F
:1011B000B001B99E700D1124665A7F4F072E000CA6
:1011C000880B990BFAD121EE3AE744E95EE3A3D20A
:1011D0000AD3AB01609179058091770590917805EC
:1011E0008DDC7DCFB89EB001B99E700D1124665A7A
:1011F0007F4F072E000C880B990BDFD121EE3AE7C9
:1012000044E95EE388D2EFD2AB016091630580913F
:1012100061059091620572DCBACFB89EB001B99EAB
:10122000700D1124665A7F4F072E000C880B990B06
:10123000C4D121EE3AE744E95EE36DD2D4D2AB01EA
:1012400060916E0580916C0590916D0557DCA7CF7C
:101250000895DF92EF92FF920F931F93CF93DF9346
:10126000C8E6D4E01B821A8248EE53E060E070E0EA
:101270004C835D836E837F8384E092E099838883CF
:1012800025E331E03D872C8724E331E03F872E873B
:1012900020E331E0398B288B21E331E03B8B2A8B33
:1012A00022E331E03D8B2C8B26E331E03F8B2E8B0C
:1012B000198E1A8E1B8E1C8E0EE213E0D801139627
:1012C0001C921E921297F80144835583668377839C
:1012D0009183808325ED30E03587248724ED30E04D
:1012E0003787268720ED30E0318B208B21ED30E0F1
:1012F000338B228B22ED30E0358B248B26ED30E0D2
:10130000378B268B118E128E138E148EEBECF3E03E
:10131000138212824483558366837783918380830B
:101320002DEC30E0358724872CEC30E0378726879A
:1013300028EC30E0318B208B29EC30E0338B228B92
:101340002AEC30E0358B248B2EEC30E0378B268B6B
:10135000118E128E138E148EA9E4B2E013961C9295
:101360001E92129714964D935D936D937C931797ED
:1013700011969C938E9385EC90E01D969C938E9392
:101380001C9784EC90E01F969C938E931E9780ECA4
:1013900090E051969C938E93509781EC90E05396F9
:1013A0009C938E93529782EC90E055969C938E93EB
:1013B000549786EC90E057969C938E935697599647
:1013C0001C9259975A961C925A975B961C925B975F
:1013D0005C961C92A6EEB2E016961D921D921D928E
:1013E0001C9219971A961D921D921D921C921D9780
:1013F0001E961D921D921D921C92519752961D92FF
:101400001D921D921C92559785E0E82E85E0F82EDE
:10141000F0926205E092610583E080936305F092AB
:101420006D05E0926C0582E080936E05F092780580
:10143000E092770581E080937905F0928505E0924E
:10144000840586E080938605F0929005E0928F05F2
:1014500085E080939105F0929B05E0929A0584E0E7
:1014600080939C0583E295E09093A8058093A7055F
:1014700029E02093A9059093B3058093B20528E055
:101480002093B4059093BE058093BD0527E020937B
:10149000BF059093CB058093CA052CE02093CC0523
:1014A0009093D6058093D5052BE02093D705909394
:1014B000E1058093E0059AE0D92ED092E20581E41F
:1014C00095E09093EE058093ED052FE02093EF05D6
:1014D0009093F9058093F8052EE02093FA059093F8
:1014E0000406809303062DE02093050690931106D1
:1014F0008093100622E12093120690931C0680939D
:101500001B0621E120931D06909327068093260653
:1015100080E180932806D7015D96FC93EE935C975B
:101520001196DC928AE015DA40E452E46FE070E054
:10153000F701848D958D58DAD701DB961C930E93B5
:10154000DA975F96DC928AE004DA40E452E46FE0D6
:1015500070E0F70182AD93AD47DA0DE515E0D801F3
:10156000CD93DC93D09242058AE0F3D940E452E473
:101570006FE070E0F8018081918136DA10923306D5
:1015800010923206109235061092340610923706E9
:10159000109236068DE0DDD98CE0DBD940E855E2CB
:1015A00060E070E0CE01DF91CF911F910F91FF902D
:1015B000EF90DF9019CAE89409C097FB3EF490952C
:1015C0008095709561957F4F8F4F9F4F9923A9F01C
:1015D000F92F96E9BB279395F695879577956795AB
:1015E000B795F111F8CFFAF4BB0F11F460FF1BC0EF
:1015F0006F5F7F4F8F4F9F4F16C0882311F096E982
:1016000011C0772321F09EE8872F762F05C066232F
:1016100071F096E8862F70E060E02AF09A95660FE8
:10162000771F881FDAF7880F9695879597F90895A1
:1016300097F99F6780E870E060E008959FEF80EC85
:10164000089500240A941616170618060906089528
:1016500000240A9412161306140605060895092E8E
:101660000394000C11F4882352F0BB0F40F4BF2BFD
:1016700011F460FF04C06F5F7F4F8F4F9F4F08953D
:1016800057FD9058440F551F59F05F3F71F0479533
:10169000880F97FB991F61F09F3F79F08795089518
:1016A000121613061406551FF2CF4695F1DF08C037
:1016B000161617061806991FF1CF86957105610554
:1016C00008940895E894BB2766277727CB0197F9FC
:1016D0000895A1E21A2EAA1BBB1BFD010DC0AA1F73
:1016E000BB1FEE1FFF1FA217B307E407F50720F08B
:1016F000A21BB30BE40BF50B661F771F881F991F06
:101700001A9469F760957095809590959B01AC014E
:10171000BD01CF0108950CD0A2CF9ADF40F091DF38
:1017200030F021F45F3F19F083CF5111CCCF86CF39
:10173000A7DF98F39923C9F35523B1F3951B550BF4
:10174000BB27AA2762177307840738F09F5F5F4F94
:10175000220F331F441FAA1FA9F333D00E2E3AF0D5
:10176000E0E830D091505040E695001CCAF729D0EF
:10177000FE2F27D0660F771F881FBB1F261737073E
:101780004807AB07B0E809F0BB0B802DBF01FF276E
:1017900093585F4F2AF09E3F510568F049CF93CF91
:1017A0005F3FECF3983EDCF3869577956795B795A8
:1017B000F7959F5FC9F7880F911D9695879597F9C3
:1017C0000895E1E0660F771F881FBB1F621773073C
:1017D0008407BA0720F0621B730B840BBA0BEE1F51
:1017E00088F7E095089504D06894B1116CCF0895FE
:1017F0004FDF88F09F5790F0B92F9927B751A0F08D
:10180000D1F0660F771F881F991F1AF0BA95C9F794
:1018100012C0B13081F056DFB1E0089553CF672F89
:10182000782F8827B85F39F0B93FCCF38695779544
:101830006795B395D9F73EF490958095709561952D
:101840007F4F8F4F9F4F0895EE0FFF1F881F8BBF55
:101850000790F691E02D199481E090E0F89400C093
:1018600011E0C8E0D1E000E005C0802FFE01ECDF10
:101870002196011DC930D10780E00807B1F7F8941F
:02188000FFCF98
:1018820000000000D901C80457011F028801660147
:101892007A01564D4450565F317C315F564D44506B
:1018A200560D0A00564D4450455F003A323A007CCC
:0818B200005F564D4450450053
:00000001FF
