:1000000072C00000A0C000009EC000009CC00000A4
:100010009AC0000098C0000096C0000094C0000084
:1000200092C0000090C000008EC000008CC0000094
:100030008AC0000088C0000086C0000084C00000A4
:1000400082C0000080C000007EC000007CC00000B4
:100050007AC0000078C0000076C0000056C40000DE
:1000600072C000001CC40000F1C300006CC000009E
:100070006AC0000068C0000066C0000064C00000E4
:1000800062C0000060C000005EC000005CC00000F4
:100090005AC0000058C0000056C0000054C0000004
:1000A00052C0000050C000004EC000004CC0000014
:1000B0004AC0000048C0000046C0000044C0000024
:1000C00042C0000040C000003EC000003CC0000034
:1000D0003AC0000038C0000036C0000034C0000044
:1000E00032C00000CF0411241FBECFEFD1E2DEBF2B
:1000F000CDBF00E00CBF12E0A0E0B2E0E2E5F4E129
:1001000000E00BBF02C007900D92AC3FB107D9F7DA
:1001100023E0ACEFB2E001C01D92A63CB207E1F7CC
:1001200010E0C3E7D0E000E006C021970109802F6E
:10013000FE010E941B0AC237D10780E00807A9F719
:100140005BD40C94270A5CCFCF92DF92EF92FF92A0
:100150000F931F93CF93DF936C017A018B01C0E063
:10016000D0E0CE15DF0589F0D8016D918D01D60163
:10017000ED91FC910190F081E02DC6011995892B3C
:1001800011F47E0102C02196ECCFC701DF91CF911F
:100190001F910F91FF90EF90DF90CF9008950895F9
:1001A00080E090E00895FC01538D448D252F30E0D0
:1001B000842F90E0821B930B541710F0CF96089574
:1001C00001970895FC01918D828D981761F0828DC1
:1001D000DF01A80FB11D5D968C91928D9F5F9F737B
:1001E000928F90E008958FEF9FEF0895FC01918D1D
:1001F000828D981731F0828DE80FF11D858D90E08A
:1002000008958FEF9FEF0895FC01918D228D892F26
:1002100090E0805C9F4F821B91098F73992708950E
:1002200089E293E0F1DF21E0892B09F420E0822FBD
:100230000895FC01848DDF01A80FB11DA35ABF4FA3
:100240002C91848D90E001968F739927848FA689D5
:10025000B7892C93A089B1898C9180648C93938DFC
:10026000848D981306C00288F389E02D80818F7DEC
:1002700080830895EF92FF920F931F93CF93DF93A4
:10028000EC0181E0888F9B8D8C8D981305C0E889E7
:10029000F989808185FD23C0F62E0B8D10E00F5F5C
:1002A0001F4F0F731127E02E8C8DE8120BC00FB675
:1002B00007FCFACFE889F989808185FFF5CFCE0167
:1002C000B8DFF2CF8B8DFE01E80FF11DE35AFF4F2F
:1002D000F0820B8FEA89FB898081806207C0EE89FA
:1002E000FF896083E889F98980818064808381E067
:1002F00090E0DF91CF911F910F91FF90EF900895C3
:10030000CF93DF93EC01888D8823C1F0EA89FB89C4
:10031000808185FD05C0A889B9898C9186FD0EC0B4
:100320000FB607FCF5CF808185FFF2CFA889B98988
:100330008C9185FFEDCFCE017CDFE8CFDF91CF91AF
:10034000089580E090E0892B19F06ADF811125C0C3
:1003500080E090E0892B41F080E090E0892B21F053
:100360000E94000081111CC080E090E0892B41F0C8
:1003700080E090E0892B21F00E940000811113C0E1
:1003800080E090E0892BA1F080E090E0892B81F063
:100390000E94000081110AC008950E940000D8CF79
:1003A0000E940000E1CF0E940000EACF0C94000000
:1003B00008952FB7F8946091010370910203809122
:1003C0000303909104032FBF0895009761F0FC018F
:1003D00001900020E9F73197AF01481B590BBC0190
:1003E00089E293E0B1CE80E090E008958F929F92F1
:1003F000AF92BF920F931F93CF93DF93CDB7DEB72A
:10040000A1970FB6F894DEBF0FBECDBF19A2423040
:1004100008F44AE08E010F5D1F4F842E912CA12C11
:10042000B12CA5019401E5D7E62FB901CA0101500D
:100430001109EA3014F4E05D01C0E95CD801EC93E5
:10044000232B242B252B69F7C801BFDFA1960FB6FC
:10045000F894DEBF0FBECDBFDF91CF911F910F91FA
:10046000BF90AF909F908F900895AFCF8F929F9243
:10047000AF92BF92CF92DF92EF92FF92CF93DF9332
:100480006B017C019B01AC019BD7882319F082E1B1
:1004900092E024C046015701E894B7F82FEF3FEFF0
:1004A0004FE75FE7C501B4018BD781110CC02FEF77
:1004B0003FEF4FE75FE7C501B4018FD518161CF475
:1004C00086E192E00BC02FEF3FEF4FE75FE4C701FB
:1004D000B601CDD618166CF48AE192E0DF91CF9187
:1004E000FF90EF90DF90CF90BF90AF909F908F9054
:1004F0006CCF2FEF3FEF4FE75FECC701B6016DD533
:1005000087FDEACF20E030E0A901C701B60165D53B
:1005100087FF11C0E0912903F0912A030190F08137
:10052000E02D6DE289E293E01995EC01F7FAF09481
:10053000F7F8F09402C0C0E0D0E02AE037ED43EADB
:100540005BE3C701B601E5D44B015C01B2D56B0199
:100550007C01DBD59B01AC01C501B401D9D44B01B1
:100560005C014AE0C701B60141DFC80FD91FE09125
:100570002903F0912A030190F081E02D6EE289E2D7
:1005800093E01995C80FD91F20E030E040E251E414
:10059000C501B40170D64B015C018BD56B01E12C18
:1005A000F12C4AE0C701B60121DFC80FD91FC701EE
:1005B000B601ABD59B01AC01C501B401A9D420E0C3
:1005C00030E040E251E457D674D580E090E04AE054
:1005D0000DDF8C0F9D1FDF91CF91FF90EF90DF908B
:1005E000CF90BF90AF909F908F9008952F923F92A1
:1005F0004F925F926F927F928F929F92AF92BF9233
:10060000CF92DF92EF92FF920F931F93CF93DF93DE
:10061000CDB7DEB766970FB6F894DEBF0FBECDBF7D
:100620002B013C015A013A8B298B20E030E0A901D3
:10063000D4D487FD04C088248394912C03C08824DB
:100640008A94982CE89477F820E030E04FE053E467
:10065000C301B20110D676D66B017C0120E030E0F8
:1006600040EA50E4BAD487FD06C0C12CD12C80EA00
:10067000E82E80E4F82E20E030E04FE053E4C7019C
:10068000B601AFD469837A838B839C83A7019601DB
:10069000C301B201A6D429813A814B815C8139D44E
:1006A0002B013C0129813A814B815C8131D46987DE
:1006B0007A878B879C8720E030E040E151E4C301DA
:1006C000B2018FD46D877E878F87988B8501212C0F
:1006D000312CC401990CAA0BBB0B8D839E83AF8375
:1006E000B887B101032C000C880B990B10D59B0126
:1006F000AC016D857E858F859889BDD54B015C01E8
:1007000029813A814B815C8168D418165CF0A5017F
:100710009401C501B401AFD520E030E04FE852E4C8
:10072000AAD557C029853A854B855C85C501B4019A
:1007300054D4A501940118165CF1C701B6019BD5EC
:100740004B015C01A7019601C701B60194D520E0D9
:1007500030E04FE053E445D420E030E040E05FE398
:100760008AD59B01AC01C501B401D2D34B015C0118
:100770006D817E818F819885CAD49B01AC01C501B2
:10078000B40179D5F801608371838283938333C088
:10079000C301B201BDD34B015C0129853A854B856C
:1007A0005C85C701B60167D56B8B7C8B8D8B9E8B6F
:1007B000A5019401C501B4015ED520E030E04EE80A
:1007C00052E459D59B01AC016B897C898D899E8946
:1007D0009FD34B015C016D817E818F81988597D479
:1007E0009B01AC01C501B40146D5D8016D937D9341
:1007F0008D939C931397BFEF2B1A3B0A0C5F1F4FEF
:10080000EAE02E16310409F06CCFA989BA89CD929D
:10081000DD92ED92FC92139766960FB6F894DEBFC8
:100820000FBECDBFDF91CF911F910F91FF90EF9041
:10083000DF90CF90BF90AF909F908F907F906F9000
:100840005F904F903F902F900895FDD51F920F928B
:100850000FB60F9211240BB60F922F933F934F9325
:100860005F936F937F938F939F93AF93BF93EF9318
:10087000FF9389E293E0DDDCFF91EF91BF91AF91AF
:100880009F918F917F916F915F914F913F912F91A8
:100890000F900BBE0F900FBE0F901F9018951F92D8
:1008A0000F920FB60F9211240BB60F922F938F93C6
:1008B0009F93EF93FF93E0913903F0913A03808186
:1008C000E0913F03F091400382FD12C0908180913E
:1008D00042038F5F8F7320914303821751F0E091A1
:1008E0004203F0E0E75DFC4F958F8093420301C027
:1008F0008081FF91EF919F918F912F910F900BBE6F
:100900000F900FBE0F901F9018951F920F920FB669
:100910000F9211242F933F938F939F93AF93BF9385
:100920008091010390910203A0910303B09104030D
:100930003091000323E0230F2D3720F40196A11DF1
:10094000B11D05C026E8230F0296A11DB11D2093FD
:1009500000038093010390930203A0930303B093D9
:1009600004038091FC029091FD02A091FE02B091DF
:10097000FF020196A11DB11D8093FC029093FD0220
:10098000A093FE02B093FF02BF91AF919F918F9110
:100990003F912F910F900FBE0F901F901895E9E295
:1009A000F3E01382128288EE93E0A0E0B0E084834B
:1009B0009583A683B78384E092E09183808385EC5E
:1009C00090E09587848784EC90E09787868780EC19
:1009D00090E0918B808B81EC90E0938B828B82EC0A
:1009E00090E0958B848B86EC90E0978B868B118EB4
:1009F000128E138E148E0895CF93DF93CDB7DEB78A
:100A0000CE58D1090FB6F894DEBF0FBECDBF789493
:100A100084B5826084BD84B5816084BD85B5826003
:100A200085BD85B5816085BD80916E0081608093B4
:100A30006E0010928100809181008260809381001D
:100A4000809181008160809381008091800081602D
:100A5000809380008091B10084608093B100809188
:100A6000B00081608093B00080919100826080939B
:100A7000910080919100816080939100809190001D
:100A80008160809390008091A10082608093A1009A
:100A90008091A10081608093A1008091A00081607D
:100AA0008093A00080912101826080932101809138
:100AB00021018160809321018091200181608093D8
:100AC000200180917A00846080937A0080917A007E
:100AD000826080937A0080917A00816080937A00AE
:100AE00080917A00806880937A001092C100E09132
:100AF0003903F0913A0382E08083E0913503F0916D
:100B000036031082E0913703F09138038FEC808335
:100B100010924103E0913D03F0913E0386E0808313
:100B2000E0913B03F0913C03808180618083E09100
:100B30003B03F0913C03808188608083E0913B031C
:100B4000F0913C03808180688083E0913B03F091C9
:100B50003C0380818F7D808310920D0310920E03E1
:100B600010920F03109210031092090310920A03BF
:100B700010920B0310920C031092050310920603BF
:100B8000109207031092080314DCBFD26093250370
:100B900070932603809327039093280386E0282EE2
:100BA000312C9FE1C92E9BE0D92E94ECE92E9FEBCE
:100BB000F92E28E6822E29EE922E2FE0A22E2EE389
:100BC000B22E3BED432E3FE0532E39E4632E3FE33C
:100BD000732E89E790E08C0F9D1F0496CB57DF4F53
:100BE00099838883C558D0408E01075D1F4FE9E780
:100BF000F0E0EC0FFD1F3896C957DF4FF983E8830B
:100C0000C758D04081E590E08C0F9D1F8896C7574C
:100C1000DF4F99838883C958D040F097C557DF4F7D
:100C2000F983E883CB58D040C0921903D0921A03BD
:100C3000E0921B03F0921C0380921D0390921E030E
:100C4000A0921F03B09220034092210350922203EE
:100C500060922303709224039E0127583F4FAE01F8
:100C60004F5A5F4F6BED7FE089E49FE3BFDC6091FB
:100C70001D0370911E0380911F0390912003CB5799
:100C8000DF4F28813981C558D040A801AFDC609181
:100C9000190370911A0380911B0390911C03C9578B
:100CA000DF4F28813981C758D040AE014F5F5F4F79
:100CB0009DDC7FDB2AD2609315037093160380932B
:100CC0001703909318038EE192E0CFDB84E292E069
:100CD000CCDB8EE292E0C9DB6091210370912203AC
:100CE0008091230390912403C1DB84E592E0BDDB76
:100CF00083E392E0BADB60911D0370911E03809143
:100D00001F0390912003B2DB84E592E0AEDB88E321
:100D100092E0ABDB6091190370911A0380911B0381
:100D200090911C03A3DB84E592E09FDB8DE392E0CE
:100D30009CDBED966CAD7DAD8EAD9FADED9796DBFA
:100D400084E592E092DB86E592E08FDB9E012F5AEC
:100D50003F4FF90161917191819191919F01C35729
:100D6000DF4FE883CD58D040C257DF4F3883CE588D
:100D7000D0407CDB84E592E078DBC357DF4F2881ED
:100D8000CD58D040C257DF4F3881CE58D040C757DA
:100D9000DF4F88819981C958D04028173907C9F693
:100DA00089E692E062DBC358DF4F688179818A81EE
:100DB0009B81CD57D0405ADB84E592E056DB82E838
:100DC00092E053DB9801F9016191719181919191C8
:100DD0009F01C357DF4FE883CD58D040C257DF4F44
:100DE0003883CE58D04042DB84E592E03EDBC357E7
:100DF000DF4F2881CD58D040C257DF4F3881CE58C1
:100E0000D040C557DF4F88819981CB58D0402817F3
:100E10003907C9F685E992E028DBCF57DF4F6881B3
:100E200079818A819B81C158D04020DB84E592E0A2
:100E30001CDB8EEA92E019DB9E012F5F3F4FF90128
:100E400061917191819191919F01C357DF4FE88327
:100E5000CD58D040C257DF4F3883CE58D04006DB44
:100E600084E592E002DBC357DF4F2881CD58D040A4
:100E7000C257DF4F3881CE58D04020173107F9F6DE
:100E800098DA43D12091150330911603409117034E
:100E9000509118033DD09B01AC01609125037091E6
:100EA0002603809127039091280333D06093250374
:100EB000709326038093270390932803F1E02F1A61
:100EC000310809F0B1CE75DA20D160931103709327
:100ED0001203809313039093140381EC92E0C5DA1C
:100EE0002091250330912603409127035091280338
:100EF0006091110370911203809113039091140378
:100F000007D020E030E04AE754E46BD0AFDAFFCFFF
:100F10005058BB27AA270ED070C161D130F066D1DE
:100F200020F031F49F3F11F41EF456C10EF4E09509
:100F3000E7FB4CC1E92F72D180F3BA176207730740
:100F40008407950718F071F49EF58AC10EF4E095B8
:100F50000B2EBA2FA02D0B01B90190010C01CA0173
:100F6000A0011124FF27591B99F0593F50F4503E1E
:100F700068F11A16F040A22F232F342F4427585F10
:100F8000F3CF469537952795A795F0405395C9F728
:100F90007EF41F16BA0B620B730B840BBAF09150E0
:100FA000A1F0FF0FBB1F661F771F881FC2F70EC07F
:100FB000BA0F621F731F841F48F487957795679552
:100FC000B795F7959E3F08F0B3CF9395880F08F03B
:100FD0009927EE0F979587950895D4D008F481E06E
:100FE00008950CD00AC102D140F0F9D030F021F4BC
:100FF0005F3F19F0EBC0511134C1EEC00FD198F32F
:101000009923C9F35523B1F3951B550BBB27AA2789
:1010100062177307840738F09F5F5F4F220F331FFB
:10102000441FAA1FA9F333D00E2E3AF0E0E830D0C7
:1010300091505040E695001CCAF729D0FE2F27D0CA
:10104000660F771F881FBB1F261737074807AB0798
:10105000B0E809F0BB0B802DBF01FF2793585F4F0D
:101060002AF09E3F510568F0B1C0FBC05F3FECF332
:10107000983EDCF3869577956795B795F7959F5FD2
:10108000C9F7880F911D9695879597F90895E1E026
:10109000660F771F881FBB1F621773078407BA0785
:1010A00020F0621B730B840BBA0BEE1F88F7E095E0
:1010B0000895BCD088F09F5790F0B92F9927B75169
:1010C000A0F0D1F0660F771F881F991F1AF0BA950C
:1010D000C9F712C0B13081F0C3D0B1E00895C0C0EB
:1010E000672F782F8827B85F39F0B93FCCF3869502
:1010F00077956795B395D9F73EF49095809570955F
:1011000061957F4F8F4F9F4F0895E89409C097FBDB
:101110003EF490958095709561957F4F8F4F9F4FCE
:101120009923A9F0F92F96E9BB279395F695879512
:1011300077956795B795F111F8CFFAF4BB0F11F4D5
:1011400060FF1BC06F5F7F4F8F4F9F4F16C088237C
:1011500011F096E911C0772321F09EE8872F762FB2
:1011600005C0662371F096E8862F70E060E02AF0F3
:101170009A95660F771F881FDAF7880F96958795DF
:1011800097F90895990F0008550FAA0BE0E8FEEFB4
:1011900016161706E807F907C0F012161306E4073B
:1011A000F50798F0621B730B840B950B39F40A2634
:1011B00061F0232B242B252B21F408950A2609F412
:1011C000A140A6958FEF811D811D089597F99F6716
:1011D00080E870E060E008959FEF80EC08950024BF
:1011E0000A941616170618060906089500240A948C
:1011F00012161306140605060895092E0394000C12
:1012000011F4882352F0BB0F40F4BF2B11F460FFA0
:1012100004C06F5F7F4F8F4F9F4F089557FD9058C9
:10122000440F551F59F05F3F71F04795880F97FBAA
:10123000991F61F09F3F79F0879508951216130664
:101240001406551FF2CF4695F1DF08C01616170693
:101250001806991FF1CF86957105610508940895C8
:10126000E894BB2766277727CB0197F908958ADF93
:1012700008F48FEF08950BD0C0CFB1DF28F0B6DFB0
:1012800018F0952309F0A2CFA7CF1124EACFC6DF2B
:10129000A0F3959FD1F3950F50E0551F629FF00189
:1012A000729FBB27F00DB11D639FAA27F00DB11DE2
:1012B000AA1F649F6627B00DA11D661F829F22276B
:1012C000B00DA11D621F739FB00DA11D621F839FF2
:1012D000A00D611D221F749F3327A00D611D231FC8
:1012E000849F600D211D822F762F6A2F11249F5716
:1012F00050408AF0E1F088234AF0EE0FFF1FBB1F39
:10130000661F771F881F91505040A9F79E3F5105D7
:1013100070F05CCFA6CF5F3FECF3983EDCF3869590
:1013200077956795B795F795E7959F5FC1F7FE2B82
:10133000880F911D9695879597F9089511F40EF4ED
:101340004BCF42C073DFD0F39923D9F3CEF39F572D
:10135000550B87FF47D00024A0E640EA9001805853
:101360005695979528F4805C660F771F881F20F0AC
:1013700026173707480730F4621B730B840B2029AC
:1013800031294A2BA69517940794202531254A2701
:1013900058F7660F771F881F20F026173707480772
:1013A00030F4620B730B840B200D311D411DA09591
:1013B00081F7B901842F9158880F969587950895E4
:1013C000E1DE880B990B08959F3F31F0915020F496
:1013D000879577956795B795880F911D9695879511
:1013E00097F9089591505040660F771F881FD2F7E4
:1013F0000895A1E21A2EAA1BBB1BFD010DC0AA1F56
:10140000BB1FEE1FFF1FA217B307E407F50720F06D
:10141000A21BB30BE40BF50B661F771F881F991FE8
:101420001A9469F760957095809590959B01AC0131
:10143000BD01CF010895EE0FFF1F881F8BBF0790DE
:10144000F691E02D199481E090E0F89400C0F894B2
:02145000FFCFCC
:10145200000000003A01A400D30080010401E20070
:10146200F6006E616E00696E66006F766600446F0C
:101472006E650A00416E676C65733A200A0071312D
:101482003A200071323A200071333A2000537065DD
:101492006564206F6620536572766F203120287153
:1014A20031293A200A00496E746572706F6C61745A
:1014B20065642071313A200A005370656564206FBB
:1014C2006620536572766F203220287132293A20C5
:1014D2000A00496E746572706F6C61746564207184
:1014E200323A200A005370656564206F66205365A6
:1014F20072766F203320287133293A200A00496E10
:10150200746572706F6C617465642071333A200A7D
:101512000054696D6520636F6E73756D7074696FC9
:101522006E20666F722063616C63756C6174696EA4
:101532006720616C6C206E65636365737361727999
:0C1542002076616C7565733A200A000089
:00000001FF
