:100000003DC100006CC100006AC1000068C1000071
:1000100066C1000064C1000062C1000060C1000050
:100020005EC100005CC100005AC1000058C1000060
:1000300056C1000054C1000052C1000050C1000070
:100040004EC100004CC100004AC1000048C1000080
:1000500046C1000044C1000042C1000076C5000056
:100060003EC10000C0C4000095C4000038C10000BB
:1000700036C1000034C1000032C1000030C10000B0
:100080002EC100002CC100002AC1000028C10000C0
:1000900058C400002DC4000022C1000020C100008F
:1000A0001EC100001CC100001AC1000018C10000E0
:1000B00016C1000014C1000012C1000010C10000F0
:1000C0000EC100000CC100000AC1000008C1000000
:1000D00006C1000004C10000E2C30000B7C3000075
:1000E000FEC000004B054E053D0541054505850553
:1000F000520556055C05600564056A056E057205C6
:10010000850578057C058005036EDB363D9A999957
:10011000993DABAAAA2A3E000000803F084AD73B7F
:100120003BCE016E84BCBFFDC12F3D6C74319ABDC6
:1001300056833DDA3D00C77F11BED9E4BB4C3E91EA
:100140006BAAAABE000000803F072C7AA5BA6CC536
:1001500090DA3B9365FC8BBC53F810FD3C569283C0
:100160004DBD879D3AB63DCBC9BF5BBE73DA0FC9A3
:100170003F0000000A0B02090C0D0E0807030401E2
:10018000000000000000000000000000000000006F
:10019000000000000000000000000000000012113C
:1001A000100000000000000000000000000000003F
:1001B00000000000000000000000220025002800D0
:1001C0002B002E003100340002010000050108015F
:1001D0000B0100002100240027002A002D00300020
:1001E000330001010000040107010A0105050505AE
:1001F000070508080808020202020A0A080804049F
:1002000004040101010101010101030303030303CC
:100210000303040707070C0C0C0C0C0C0C0C02025B
:10022000020206060606060606060B0B0B0B0B0B58
:100230000B0B0102102020080810204010204080E5
:10024000020102010804020101020408102040809A
:100250008040201008040201800402018040201028
:100260000804020108040201010204081020408071
:100270000102040810204080E014DF1411241FBE86
:10028000CFEFD1E2DEBFCDBF00E00CBF26E0AEE78E
:10029000B2E001C01D92A53CB207E1F712E0A0E078
:1002A000B2E0E2E6F7E300E00BBF02C007900D9278
:1002B000AE37B107D9F711E0CDE3D1E000E006C0D9
:1002C00021970109802FFE010E94941BCC33D10796
:1002D00080E00807A9F70E9443120C94A01B90CE5F
:1002E000CF92DF92EF92FF920F931F93CF93DF9302
:1002F0006C017A018B01C0E0D0E0CE15DF0589F0FA
:10030000D8016D918D01D601ED91FC910190F081A4
:10031000E02DC6011995892B11F47E0102C02196AA
:10032000ECCFC701DF91CF911F910F91FF90EF901C
:10033000DF90CF900895FC01A089B1898C91A689A6
:10034000B78982FD0FC09C91818D8F5F8F73228D45
:10035000821749F0218DDF01A20FB11D5D969C939C
:10036000818F08958C910895089580E090E008951C
:10037000FC01538D448D252F30E0842F90E0821BAB
:10038000930B541710F0CF96089501970895FC0130
:10039000918D828D981761F0828DDF01A80FB11DBC
:1003A0005D968C91928D9F5F9F73928F90E00895E0
:1003B0008FEF9FEF0895FC01918D828D981731F09A
:1003C000828DE80FF11D858D90E008958FEF9FEFEE
:1003D0000895FC01918D228D892F90E0805C9F4FC4
:1003E000821B91098F739927089581E194E0F1DFD1
:1003F00021E0892B09F420E0822F089584E793E01F
:10040000E8DF21E0892B09F420E0822F08958FE8AE
:1004100092E0DFDF21E0892B09F420E0822F0895AC
:10042000FC01848DDF01A80FB11DA35ABF4F2C9191
:10043000848D90E001968F739927848FA689B78960
:100440002C93A089B1898C9180648C93938D848D39
:10045000981306C00288F389E02D80818F7D808308
:100460000895EF92FF920F931F93CF93DF93EC01C8
:1004700081E0888F9B8D8C8D981305C0E889F98960
:10048000808185FD23C0F62E0B8D10E00F5F1F4F7E
:100490000F731127E02E8C8DE8120BC00FB607FCEE
:1004A000FACFE889F989808185FFF5CFCE01B8DFE1
:1004B000F2CF8B8DFE01E80FF11DE35AFF4FF08262
:1004C0000B8FEA89FB898081806207C0EE89FF89F2
:1004D0006083E889F98980818064808381E090E08D
:1004E000DF91CF911F910F91FF90EF900895CF93DF
:1004F000DF93EC01888D8823C1F0EA89FB89808134
:1005000085FD05C0A889B9898C9186FD0EC00FB6FE
:1005100007FCF5CF808185FFF2CFA889B9898C913E
:1005200085FFEDCFCE017CDFE8CFDF91CF9108953D
:1005300080E090E0892B19F06ADF81111BC080E018
:1005400090E0892B19F05ADF811117C080E090E00C
:10055000892B41F080E090E0892B21F00E9400007F
:1005600081110EC080E090E0892B79F03EDF81118F
:100570000AC008950E940000E2CF0E940000E6CF6A
:100580000E940000EFCF0C94000008953FB7F8944C
:100590008091830290918402A0918502B09186029D
:1005A00026B5A89B05C02F3F19F00196A11DB11DCE
:1005B0003FBFBA2FA92F982F8827820F911DA11D09
:1005C000B11DBC01CD0142E0660F771F881F991F46
:1005D0004A95D1F708958F929F92AF92BF92CF9292
:1005E000DF92EF92FF926B017C01D0DF4B015C0147
:1005F000C114D104E104F104E9F0C8DFDC01CB014E
:1006000088199909AA09BB09883E9340A105B1053B
:1006100078F321E0C21AD108E108F10888EE880ECB
:1006200083E0981EA11CB11CC114D104E104F104A3
:1006300021F7DECFFF90EF90DF90CF90BF90AF908B
:100640009F908F9008950E949C1B6115710579F011
:10065000FB0101900020E9F73197AF01461B570BD2
:10066000DC01ED91FC910280F381E02D199480E092
:1006700090E008954F925F926F927F92EF92FF9277
:100680000F931F93CF93DF93CDB7DEB7A1970FB62C
:10069000F894DEBF0FBECDBF7C01FA01CB0119A2D9
:1006A000223008F42AE08E010F5D1F4F422E512C9C
:1006B000612C712CBF01A30192010E943319F90131
:1006C000CA01015011096A3014F4605D01C0695C0F
:1006D000D8016C93232B242B252B61F7B801C7017C
:1006E000B4DFA1960FB6F894DEBF0FBECDBFDF9189
:1006F000CF911F910F91FF90EF907F906F905F903F
:100700004F9008950F931F93CF93DF9300D000D0A5
:10071000CDB7DEB78C01FC01208131819FEF998339
:100720009A838EEF8B8382E08C8385E08D838AEFC2
:100730008E8346E050E0BE016F5F7F4FC9010E948B
:10074000450DC801CD96FC014081518162817381C4
:10075000F80141AB52AB63AB74ABD801AF5BBF4F99
:100760004D915D916D917C91139745AB56AB67AB05
:1007700070AF98012B5B3F4FF9014081518162813D
:100780007381F80141AF52AF63AF74AFFC011082C7
:100790001182128213821D921D921D921C92139738
:1007A000F901108211821282138226960FB6F894F4
:1007B000DEBF0FBECDBFDF91CF911F910F91089586
:1007C000CF93DF93EC014AE959E969EA72E4419673
:1007D0000E94F70D46E656E666E572E4CE01809685
:1007E0000E94F70D19AE1AAE1BAE1CAEDF91CF9171
:1007F0000895CF93DF93EC0140E050E066E173E4AD
:1008000002960E94F70D4AE959E969EA72E4CE01BD
:1008100041960E94F70D46E656E666E572E4CE0183
:1008200080960E94F70D19AA1AAA1BAA1CAA1DAA33
:100830001EAA1FAA18AE19AE1AAE1BAE1CAE81E0DE
:1008400090E098AB8FA7DF91CF9108951F920F9200
:100850000FB60F9211240BB60F922F933F934F9325
:100860005F936F937F938F939F93AF93BF93EF9318
:10087000FF9381E194E0D4DDFF91EF91BF91AF91BF
:100880009F918F917F916F915F914F913F912F91A8
:100890000F900BBE0F900FBE0F901F9018951F92D8
:1008A0000F920FB60F9211240BB60F922F933F9316
:1008B0004F935F936F937F938F939F93AF93BF9368
:1008C000EF93FF9381E194E036DDFF91EF91BF91CB
:1008D000AF919F918F917F916F915F914F913F91D8
:1008E0002F910F900BBE0F900FBE0F901F90189579
:1008F0001F920F920FB60F9211240BB60F922F93E7
:100900003F934F935F936F937F938F939F93AF9397
:10091000BF93EF93FF9384E793E082DDFF91EF9124
:10092000BF91AF919F918F917F916F915F914F9107
:100930003F912F910F900BBE0F900FBE0F901F9005
:1009400018951F920F920FB60F9211240BB60F92AB
:100950002F933F934F935F936F937F938F939F93C7
:10096000AF93BF93EF93FF9384E793E0E4DCFF91B1
:10097000EF91BF91AF919F918F917F916F915F9117
:100980004F913F912F910F900BBE0F900FBE0F9084
:100990001F9018951F920F920FB60F9211240BB64D
:1009A0000F922F933F934F935F936F937F938F9308
:1009B0009F93AF93BF93EF93FF938FE892E030DD67
:1009C000FF91EF91BF91AF919F918F917F916F9127
:1009D0005F914F913F912F910F900BBE0F900FBEE3
:1009E0000F901F9018951F920F920FB60F9211241F
:1009F0000BB60F922F933F934F935F936F937F9319
:100A00008F939F93AF93BF93EF93FF938FE892E001
:100A100092DCFF91EF91BF91AF919F918F917F9168
:100A20006F915F914F913F912F910F900BBE0F905F
:100A30000FBE0F901F901895362F90E0FC01EE58D6
:100A4000FE4F4491FC01EE5CFD4F2491FC01E4510A
:100A5000FE4F9491992309F46BC0442309F455C0C7
:100A600050E0FA013197E231F10508F04EC08827D5
:100A7000EE58FF4F8F4F0C94941B809180008F771E
:100A800007C0809180008F7D03C080918000877FA8
:100A9000809380003AC084B58F7702C084B58F7D83
:100AA00084BD33C08091B0008F7703C08091B000C7
:100AB0008F7D8093B00029C0809190008F7707C010
:100AC000809190008F7D03C080919000877F8093FC
:100AD00090001BC08091A0008F7707C08091A0007C
:100AE0008F7D03C08091A000877F8093A0000DC000
:100AF000809120018F7707C0809120018F7D03C0F6
:100B000080912001877F80932001E92FF0E0EE0F94
:100B1000FF1FE854FE4FA591B4918FB7F894EC9164
:100B2000311103C020952E2301C02E2B2C938FBF93
:100B300008952FB7F89460917F02709180028091A0
:100B40008102909182022FBF08951F920F920FB6DB
:100B50000F9211242F933F938F939F93AF93BF9343
:100B600080917F0290918002A0918102B0918202D7
:100B700030917E0223E0230F2D3720F40196A11D32
:100B8000B11D05C026E8230F0296A11DB11D2093BB
:100B90007E0280937F0290938002A0938102B093A3
:100BA00082028091830290918402A0918502B0918B
:100BB00086020196A11DB11D809383029093840249
:100BC000A0938502B0938602BF91AF919F918F91C0
:100BD0003F912F910F900FBE0F901F901895CF93BC
:100BE000DF93CDB7DEB72B970FB6F894DEBF0FBEFD
:100BF000CDBFFC0198E2960F920F940F930F950FC3
:100C0000909590838FEF89838A836B8387E08C83B1
:100C100083E08D838EE18E834F83588729873A87BF
:100C20009B874BE050E0BE016F5F7F4FCF012DD718
:100C30002B960FB6F894DEBF0FBECDBFDF91CF91DC
:100C40000895CF92DF92EF92FF92CF93DF93EC0162
:100C50006A017B012F81388549855A85C701B60114
:100C60000E942B1B87FD1DC02B813C814D815E8125
:100C7000C701B6010E941A1818169CF021EE3AE737
:100C800044E95EE3C701B6010E94411A0E94A91A15
:100C900024E630E0AB016A8188819981A0DF81E0A0
:100CA00001C080E0DF91CF91FF90EF90DF90CF9077
:100CB00008954F925F926F927F928F929F92AF9220
:100CC000BF92CF92DF92EF92FF920F931F93CF9339
:100CD000DF9300D01F92CDB7DEB7DC019F96ED9178
:100CE000FC91D097319709F05FC089829A82AB82DC
:100CF000BC82280139014A015B018C0120E030E00F
:100D000040E85FEBC501B4010E941A188823A9F0DE
:100D1000B501A401C801029694DF20E030E040E86C
:100D20005FEBC301B2010E941A18811110C0B70114
:100D3000A601C801809685DF19C020E030E040E8B8
:100D40005FEBC301B2010E941A18882379F0B30146
:100D5000A201C801419675DF20E030E040E85FEB7A
:100D6000C501B4010E941A188111E1CFF801FD9666
:100D700089819A81AB81BC8180839183A283B38373
:100D80003496888D998DAA8DBB8D80839183A283A3
:100D9000B38334968C8D9D8DAE8DBF8D8083918372
:100DA000A283B38381E001C080E00F900F900F9089
:100DB0000F90DF91CF911F910F91FF90EF90DF90F7
:100DC000CF90BF90AF909F908F907F906F905F90EB
:100DD0004F9008952F923F924F925F926F927F9221
:100DE0008F929F92AF92BF92CF92DF92EF92FF923B
:100DF0000F931F93CF93DF93CDB7DEB7C651DB417F
:100E00000FB6F894DEBF0FBECDBF3E018FE1681A6A
:100E100086EE780AB30181E30E94F00F6E019FE332
:100E2000C91A97EED90AB60182E30E94F00F7E013B
:100E3000EFE5EE1AE8EEFE0AB70183E30E94F00F39
:100E40008E010F57194EB80184E30E941C111E0138
:100E5000FFE92F1AFAEE3F0AB10185E30E941C1147
:100E6000BE016F5B7B4E86E30E941C115E018FED1D
:100E7000A81A8CEEB80AB50181E30E941C11BE01CC
:100E80006F5F7D4E82E30E941C11BE016F517F4E49
:100E900083E30E941C11BE016F53704F84E30E94D4
:100EA000F00FBE016F55714F85E30E94F00F2E01C8
:100EB0009FE7491A92EF590AB20186E30E94F00FA8
:100EC00080E090E0C75FD44EA882C950DB41C65F86
:100ED000D44EB882CA50DB41C55FD44EC882CB50D5
:100EE000DB41C45FD44ED882CC50DB41C35FD44ECB
:100EF000E882CD50DB41C25FD44EF882CE50DB4158
:100F0000C15FD44E0883CF50DB41C05FD44E1883FD
:100F1000C051DB41CF5ED44E2882C151DB41CE5E51
:100F2000D44E3882C251DB41CD5ED44E4882C3518B
:100F3000DB41CC5ED44E5882C451DB41CB5ED44EF3
:100F40006882C551DB41CA5ED44E7882C651DB410E
:100F50008530910509F4D4C48230910509F46AC240
:100F60000CF081C0009709F497C08130910581F79A
:100F700080E291E0CB5ED44EE881C551DB41CA5E90
:100F8000D44EF881C651DB41DE01AF59B34F019019
:100F90000D920197E1F780E291E0FE01EF5FFD4ED7
:100FA000DE01AF5BB44F01900D920197E1F780E253
:100FB00091E0FE01EF51FF4EDE01AF5DB54F0190B4
:100FC0000D920197E1F780E291E0FE01EF53F04FBF
:100FD000DE01AF5FB64F01900D920197E1F780E21D
:100FE00091E0FE01EF55F14FDE01AF51B84F019096
:100FF0000D920197E1F780E291E0FE01EF5BFB4E7D
:10100000DE01AF53B94F01900D920197E1F7FE0158
:10101000EF59F34F2F01CE018F5B944F3C01E05409
:10102000F2401F0180549240CB5FD44E9983888355
:10103000C550DB41E054F240CF5FD44EF983E883E2
:10104000C150DB4180549240CD5FD44E9983888358
:10105000C350DB41ECE0F0E0C95FD44EF983E88394
:10106000C750DB4133C08330910509F4F4C18430AB
:10107000910509F06DCF81E595E0A2DB8AE995E065
:101080009FDB85E796E09CDB6CE070E080E090E021
:10109000A2DA85E090E05CCF88E095E0AADB81E50C
:1010A00095E0A7DB8AE995E0A4DB83EE95E0A1DB80
:1010B0008CE296E09EDB85E796E09BDB60ED77E0D7
:1010C00080E090E088DA81E090E042CFF201E057E2
:1010D000FF4F80809180A280B380F097C080D18044
:1010E000E280F380F20100A911A922A933A940816D
:1010F000518162817381E051FF4F83818F9382819F
:101100008F9381818F9380818F93F09783818F93C9
:1011100082818F9381818F9380818F9388E095E086
:10112000C8DDF301E057FF4F80809180A280B3803B
:10113000F097C080D180E280F380F30100A911A96B
:1011400022A933A94081518162817381E051FF4F0F
:1011500083818F9382818F9381818F9380818F93FD
:10116000F09783818F9382818F9381818F93808188
:101170008F9381E595E09DDDF101E057FF4F808081
:101180009180A280B380F097C080D180E280F3800C
:10119000F10100A911A922A933A9408151816281DD
:1011A0007381E051FF4F83818F9382818F9381817F
:1011B0008F9380818F93F09783818F9382818F9318
:1011C00081818F9380818F938AE995E072DDCB5F77
:1011D000D44EE881F981C550DB41E057FF4F808054
:1011E0009180A280B380CB5FD44EE881F981C55055
:1011F000DB41E05AFF4FC080D180E280F380CB5FBB
:10120000D44EE881F981C550DB4100A911A922A97A
:1012100033A94081518162817381E051FF4F838105
:101220008F9382818F9381818F9380818F93CB5F06
:10123000D44EE881F981C550DB41E054FF4F8381F2
:101240008F9382818F9381818F9380818F9383EE9F
:1012500095E02FDD0FB6F894DEBF0FBECDBFCF5F98
:10126000D44EE881F981C150DB41E057FF4F8080C7
:101270009180A280B380CF5FD44EE881F981C150C4
:10128000DB41E05AFF4FC080D180E280F380CF5F26
:10129000D44EE881F981C150DB4100A911A922A9EE
:1012A00033A94081518162817381E051FF4F838175
:1012B0008F9382818F9381818F9380818F93CF5F72
:1012C000D44EE881F981C150DB41E054FF4F838166
:1012D0008F9382818F9381818F9380818F938CE212
:1012E00096E0E7DCCD5FD44EE881F981C350DB4165
:1012F000E057FF4F80809180A280B380CD5FD44EB5
:10130000E881F981C350DB41E05AFF4FC080D180B2
:10131000E280F380CD5FD44EE881F981C350DB4198
:1013200000A911A922A933A9408151816281738149
:10133000E051FF4F83818F9382818F9381818F93BF
:1013400080818F93CD5FD44EE881F981C350DB411A
:10135000E054FF4F83818F9382818F9381818F939C
:1013600080818F9385E796E0A4DC88E095E0CAD978
:1013700081E595E0C7D98AE995E0C4D983EE95E087
:10138000C1D98CE296E0BED985E796E0BBD96CE086
:1013900070E080E090E01FD9C95FD44E88819981C8
:1013A000C750DB410197C95FD44E99838883C750EA
:1013B000DB4194E0490E511CE4E06E0E711CF4E038
:1013C0002F0E311CCB5FD44E88819981C550DB41F3
:1013D0000496CB5FD44E99838883C550DB41CF5FA1
:1013E000D44EE881F981C150DB413496CF5FD44EB1
:1013F000F983E883C150DB41CD5FD44E8881998168
:10140000C350DB410496CD5FD44E99838883C3508B
:10141000DB410FB6F894DEBF0FBECDBFC95FD44E1F
:1014200088819981C750DB41892B09F04FCE82E03A
:1014300090E08ECD88E095E0C3D983EE95E0C0D9E9
:101440008CE296E0BDD96CE070E080E090E0C3D81B
:1014500083E090E07DCD80E291E0C75FD44EE881EB
:10146000C950DB41C65FD44EF881CA50DB41DE0172
:10147000AF55BA4F01900D920197E1F780E291E0EC
:10148000C55FD44EE881CB50DB41C45FD44EF881B8
:10149000CC50DB41DE01AF57BB4F01900D9201975D
:1014A000E1F780E291E0C35FD44EE881CD50DB41AB
:1014B000C25FD44EF881CE50DB41DE01AF59BC4F44
:1014C00001900D920197E1F780E291E0C15FD44E67
:1014D000E881CF50DB41C05FD44EF881C051DB4181
:1014E000DE01AF5BBD4F01900D920197E1F780E205
:1014F00091E0CF5ED44EE881C151DB41CE5ED44E47
:10150000F881C251DB41DE01AF5DBE4F01900D920B
:101510000197E1F780E291E0CD5ED44EE881C351BE
:10152000DB41CC5ED44EF881C451DB41DE01119623
:1015300001900D920197E1F7FE01EF55FA4F2F014F
:10154000CE018F579B4F3C01E054F2401F01805465
:101550009240CF5FD44E99838883C150DB41E054E1
:10156000F240CD5FD44EF983E883C350DB41805411
:101570009240CB5FD44E99838883C550DB41C95FCD
:10158000D44E19821882C750DB41F201E057FF4F59
:1015900080809180A280B380F097C080D180E2806B
:1015A000F380F20100A911A922A933A94081518138
:1015B00062817381E051FF4F83818F9382818F938A
:1015C00081818F9380818F93F09783818F93828124
:1015D0008F9381818F9380818F9388E095E069DB81
:1015E000F301E057FF4F80809180A280B380F09795
:1015F000C080D180E280F380F30100A911A922A963
:1016000033A94081518162817381E051FF4F838111
:101610008F9382818F9381818F9380818F93F097B5
:1016200083818F9382818F9381818F9380818F9328
:1016300081E595E03EDBF101E057FF4F808091802E
:10164000A280B380F097C080D180E280F380F10166
:1016500000A911A922A933A9408151816281738116
:10166000E051FF4F83818F9382818F9381818F938C
:1016700080818F93F09783818F9382818F93818173
:101680008F9380818F938AE995E013DBCF5FD44EEF
:10169000E881F981C150DB41E057FF4F80809180A4
:1016A000A280B380CF5FD44EE881F981C150DB4185
:1016B000E05AFF4FC080D180E280F380CF5FD44EEC
:1016C000E881F981C150DB4100A911A922A933A900
:1016D0004081518162817381E051FF4F83818F93FB
:1016E00082818F9381818F9380818F93CF5FD44E3E
:1016F000E881F981C150DB41E054FF4F83818F9332
:1017000082818F9381818F9380818F9383EE95E087
:10171000D0DA0FB6F894DEBF0FBECDBFCD5FD44E8A
:10172000E881F981C350DB41E057FF4F8080918011
:10173000A280B380CD5FD44EE881F981C350DB41F4
:10174000E05AFF4FC080D180E280F380CD5FD44E5D
:10175000E881F981C350DB4100A911A922A933A96D
:101760004081518162817381E051FF4F83818F936A
:1017700082818F9381818F9380818F93CD5FD44EAF
:10178000E881F981C350DB41E054FF4F83818F939F
:1017900082818F9381818F9380818F938CE296E0F9
:1017A00088DACB5FD44EE881F981C550DB41E05740
:1017B000FF4F80809180A280B380CB5FD44EE881C0
:1017C000F981C550DB41E05AFF4FC080D180E280F3
:1017D000F380CB5FD44EE881F981C550DB4100A98D
:1017E00011A922A933A94081518162817381E051FD
:1017F000FF4F83818F9382818F9381818F9380812B
:101800008F93CB5FD44EE881F981C550DB41E05422
:10181000FF4F83818F9382818F9381818F9380810A
:101820008F9385E796E045DA88E095E00E94820391
:1018300081E595E00E9482038AE995E00E94820397
:1018400083EE95E00E9482038CE296E00E94820380
:1018500085E796E00E9482036CE070E080E090E013
:101860000E94EB02C95FD44E88819981C750DB4149
:101870000196C95FD44E99838883C750DB4194E0B9
:10188000490E511CE4E06E0E711CF4E02F0E311C69
:10189000CF5FD44E88819981C150DB410496CF5FE0
:1018A000D44E99838883C150DB41CD5FD44EE8810B
:1018B000F981C350DB413496CD5FD44EF983E88380
:1018C000C350DB41CB5FD44E88819981C550DB4149
:1018D0000496CB5FD44E99838883C550DB410FB605
:1018E000F894DEBF0FBECDBFC95FD44E8881998109
:1018F000C750DB410C9709F048CE84E090E028CB3C
:10190000CA5ED44E0FB6F894DEBF0FBECDBFDF91D6
:10191000CF911F910F91FF90EF90DF90CF90BF90EC
:10192000AF909F908F907F906F905F904F903F907F
:101930002F90089590E0FC01EE5CFD4F2491FC0196
:10194000E451FE4F8491882399F090E0880F991F0D
:10195000FC01EE52FE4FA591B491FC01E854FE4FFC
:10196000859194918FB7F894EC91E22BEC938FBF13
:101970000895CF92DF92EF92FF920F931F93CF9330
:10198000DF93EC016A017B01E889F98982E08083B9
:101990004115514E61057105B1F060E079E08DE3CC
:1019A00090E0A70196010E94331989019A01015024
:1019B0001109210931093695279517950795980141
:1019C00001151041A8F0E889F989108260E874E8EF
:1019D0008EE190E0A70196010E943319DA01C90156
:1019E0000197A109B109B695A795979587959C018F
:1019F000EC85FD853083EE85FF852083188EEC898C
:101A0000FD8986E08083EA89FB898081806180830B
:101A1000EA89FB89808188608083EA89FB898081EB
:101A200080688083EA89FB8980818F7D8083DF9154
:101A3000CF911F910F91FF90EF90DF90CF9008957D
:101A40008F929F92AF92BF92CF92DF92EF92FF92CE
:101A50006B017C016ED84B015C01C60ED71EE81EDF
:101A6000F91E67D8681579058A059B0528F0C61602
:101A7000D706E806F906A8F7FF90EF90DF90CF9021
:101A8000BF90AF909F908F900895EF92FF920F9329
:101A90001F93CF93DF931F921F92CDB7DEB77C01C8
:101AA0008B0161E0DC0111968C9149835A830E947D
:101AB0001C05F701848D958DDC01ED91FC91028070
:101AC000F381E02D49815A81B8011995F701848D80
:101AD000958DDC01ED91FC910680F781E02D199543
:101AE00060E0F70181810E941C05D70112961C92CB
:101AF0000BE91FE0D7015C968D919C915D97DC010D
:101B0000ED91FC910084F185E02D1995F70122817A
:101B100005971CF52A3008F52F5FF7012283C801CD
:101B20000197F1F7E7CFD7015C968D919C915D9776
:101B3000DC01ED91FC910284F385E02D1995182FBD
:101B4000F7018383848D958DDC01ED91FC910484F4
:101B5000F585E02D19951F3F81F0D7015C968D9199
:101B60009C915D97DC01ED91FC910084F185E02D65
:101B7000199518161906BCF22FC08F3F910569F709
:101B8000F701848D958DDC01ED91FC910284F38544
:101B9000E02D1995F701848D958DDC01ED91FC9177
:101BA0000284F385E02D1995F701848D958DDC0174
:101BB000ED91FC910284F385E02D1995F701848D58
:101BC000958DDC01ED91FC910284F385E02D199552
:101BD000F701918F808F02C08FEF9FEF0F900F90D2
:101BE000DF91CF911F910F91FF90EF900895CF92C9
:101BF000DF92EF92FF92CF93DF93EC016A017B01BA
:101C00002F81388549855A85C701B6010E942B1B53
:101C100087FD2AC02B813C814D815E81C701B601C1
:101C20000E941A18181604F120E030E048EC52E443
:101C30006B857C858D859E850E942B1B87FD14C03E
:101C400021EE3AE744E95EE3C701B6010E94411A7A
:101C50000E94A91A26E930E0AB016A818881998146
:101C60000E94EF0581E001C080E0DF91CF91FF90FD
:101C7000EF90DF90CF9008952F923F924F925F9216
:101C80006F927F928F929F92AF92BF92CF92DF928C
:101C9000EF92FF920F931F93CF93DF93CDB7DEB7F1
:101CA0002E970FB6F894DEBF0FBECDBF6B837C833B
:101CB0008D839E832F83388749875A872701380170
:101CC000860115019A8289829B01AC010E947F18CE
:101CD0006B017C012F81388549855A85CA01B9017C
:101CE0000E947F189B01AC01C701B6010E946419D4
:101CF0000E943A1B6B017C0124EA30EB4FEE52E468
:101D0000C301B2010E9464194B015C0120E030E084
:101D10004FE352E4C701B6010E9463196B017C01D5
:101D2000A5019401C501B4010E947F182B013C015B
:101D3000A7019601C701B6010E947F189B01AC0163
:101D4000C301B2010E9464190E943A1B6B017C011D
:101D50009B01AC010E947F182B013C01A701960159
:101D6000C501B4010E94411A0E94C8196B877C8783
:101D70008D879E872B813C814D815E816F81788527
:101D800089859A850E94EE19F801608371838283A8
:101D9000938320E931E646EB55E4C301B2010E948A
:101DA000641920EC36E143E257E40E9463194B01C9
:101DB0005C012DE33AEC48E153E4C701B6010E940F
:101DC0007F189B01AC01C501B4010E94411A0E9419
:101DD00055192B853C854D855E850E946319F1015F
:101DE000608371838283938320E931E646EB55E477
:101DF000C301B2010E94631920EC36E143E257E4CB
:101E00000E94631929E237EE43EF56E40E94411A1B
:101E10000E945519DC01CB01B058E981FA81808319
:101E20009183A283B3832BED3FE049E450E4F801B2
:101E300060817181828193810E94411A20E030E0AB
:101E400044E353E40E947F18F80160837183828326
:101E500093832BED3FE049E450E4F101608171810F
:101E6000828193810E94411A20E030E044E353E4F0
:101E70000E947F18F10160837183828393832BED2D
:101E80003FE049E450E4E981FA8160817181828117
:101E900093810E94411A20E030E044E353E40E9421
:101EA0007F18E981FA81608371838283938320E0C4
:101EB00030E040E752E4F8016081718182819381D2
:101EC0000E946419F8016083718382839383F10116
:101ED000208131814281538160E070E086E193E4AA
:101EE0000E946319F10160837183828393832DECD7
:101EF0003CE44AE353E4E981FA81608171818281A3
:101F000093810E9464196B017C01E981FA816083ED
:101F1000718382839383F80180809180A280B38053
:101F200020E030E048E452E4C501B4010E941A18F0
:101F300087FD3CC020E030E042E053E4C501B4013D
:101F40000E942B1B181694F1F10180809180A280D1
:101F5000B38020E030E040EA51E4C501B4010E94C2
:101F60001A1887FD23C020E030E048EC52E4C50198
:101F7000B4010E942B1B1816CCF020E030E040E8A2
:101F800051ECC701B6010E941A1887FD0FC011E07D
:101F900020E030E040EA52ECC701B6010E942B1B62
:101FA00018160CF010E081E0812701C080E02E9629
:101FB0000FB6F894DEBF0FBECDBFDF91CF911F915A
:101FC0000F91FF90EF90DF90CF90BF90AF909F90D8
:101FD0008F907F906F905F904F903F902F900895DB
:101FE0002F923F924F925F926F927F928F929F9229
:101FF000AF92BF92CF92DF92EF92FF920F931F9317
:10200000CF93DF93CDB7DEB7A6970FB6F894DEBFB8
:102010000FBECDBF8B01813379F08333E1F4C12C46
:10202000D12C88E4E82E82ECF82E812C912C98E4B7
:10203000A92E92E4B92E0FC0C12C29E6D22E22E996
:10204000E22E21ECF22E30E4832E3AE9932E38E88A
:10205000A32E32E4B32EA5019401C501B4010E9460
:102060007F182B013C01A7019601C701B6010E9410
:102070007F189B01AC01C301B2010E94641920E0EA
:1020800030E249E954E40E9464190E943A1B2B0192
:102090003C0120E030E040E451E40E94411A6F8BA3
:1020A000788F898F9A8FA3019201C501B4010E9494
:1020B000411A6B8F7C8F8D8F9E8FA3019201C70178
:1020C000B6010E94411A6F8F78A389A39AA3A30136
:1020D000920160E070E08CE092EC0E94411A6BA3E8
:1020E0007CA38DA39EA318011E861D862D853E858B
:1020F000B901330F880B990BA3D72F89388D498DE0
:102100005A8DFDD76B017C012B8D3C8D4D8D5E8DE5
:10211000F6D720E030E0A9010E9464196F87788B20
:10212000898B9A8B2F8D38A149A15AA1C701B6017D
:10213000E6D720E030E0A9010E9464196B8B7C8B0C
:102140008D8B9E8B2BA13CA14DA15EA1C701B60139
:10215000D6D720E030E0A9010E9464192B013C0190
:10216000CE0101964C01DE0115965D01FE01399606
:102170006F01830172012B893C894D895E896F85CE
:10218000788989899A8978DD89859A85AB85BC8526
:10219000F10180839183A283B3838D819E81AF817E
:1021A000B88580AB91ABA2ABB3ABE05AFF4F89814E
:1021B0009A81AB81BC8180839183A283B383F096A3
:1021C0008F859889A989BA8980839183A283B383F3
:1021D000F0968B899C89AD89BE8980839183A28387
:1021E000B383F0964082518262827382AD85BE8550
:1021F0001196BE87AD87B4E02B0E311CED85FE85B0
:102200003C9709F073CFA6960FB6F894DEBF0FBEC9
:10221000CDBFDF91CF911F910F91FF90EF90DF9095
:10222000CF90BF90AF909F908F907F906F905F9076
:102230004F903F902F9008952F923F924F925F9230
:102240006F927F928F929F92AF92BF92CF92DF92C6
:10225000EF92FF920F931F93CF93DF93CDB7DEB72B
:10226000A6970FB6F894DEBF0FBECDBF8B018133AA
:1022700079F08333E1F4412C512C88E4682E82EC10
:10228000782EC12CD12C98E4E92E92E4F92E0FC0BF
:10229000412C29E6522E22E9622E21EC722E30E4E6
:1022A000C32E3AE9D32E38E8E32E32E4F32EA70109
:1022B0009601C701B60123D74B015C01A30192012E
:1022C000C301B2011CD79B01AC01C501B401FCD70D
:1022D00020E030E44CE155E4F7D70E943A1B4B0173
:1022E0005C0120E030E040E451E40E94411A6F8B31
:1022F000788F898F9A8FC701B6019058A5019401F4
:102300000E94411A6B8F7C8F8D8F9E8FC301B2010B
:102310009058A50194010E94411A6F8F78A389A358
:102320009AA3A501940160E070E088E492E40E9421
:10233000411A6BA37CA38DA39EA318011E861D8644
:102340002D853E85B901330F880B990B79D62F89DE
:10235000388D498D5A8DD3D66B017C012B8D3C8DE8
:102360004D8D5E8DCCD620E030E0A901ADD76F87D2
:10237000788B898B9A8B2F8D38A149A15AA1C701DF
:10238000B601BDD620E030E0A9019ED76B8B7C8BD7
:102390008D8B9E8B2BA13CA14DA15EA1C701B601E7
:1023A000AED620E030E0A9018FD72B013C01CE0151
:1023B00001964C01DE0115965D01FE0139966F0113
:1023C000830172012B893C894D895E896F857889EB
:1023D00089899A8951DC89859A85AB85BC85F1010B
:1023E00080839183A283B3838D819E81AF81B885E1
:1023F00080AB91ABA2ABB3ABE05AFF4F89819A811E
:10240000AB81BC8180839183A283B383F0968F8557
:102410009889A989BA8980839183A283B383F0962E
:102420008B899C89AD89BE8980839183A283B38384
:10243000F0964082518262827382AD85BE8511968C
:10244000BE87AD87B4E02B0E311CED85FE853C9731
:1024500009F076CFA6960FB6F894DEBF0FBECDBFBB
:10246000DF91CF911F910F91FF90EF90DF90CF9070
:10247000BF90AF909F908F907F906F905F904F90A4
:102480003F902F900895789484B5826084BD84B580
:10249000816084BD85B5826085BD85B5816085BD5F
:1024A00080916E00816080936E0010928100809117
:1024B000810082608093810080918100816080939F
:1024C0008100809180008160809380008091B100C4
:1024D00084608093B1008091B00081608093B000EF
:1024E0008091910082608093910080919100816041
:1024F0008093910080919000816080939000809102
:10250000A10082608093A1008091A10081608093EE
:10251000A1008091A00081608093A00080912101A2
:10252000826080932101809121018160809321014B
:102530008091200181608093200180917A008460E5
:1025400080937A0080917A00826080937A008091F3
:102550007A00816080937A0080917A00806880930D
:102560007A001092C10010927003109271031092C1
:1025700072031092730310922E0310922F03109285
:1025800030031092310368EB7BE080E090E058DA92
:102590008FE892E090936F0380936E0340E052ECDB
:1025A00061E070E0E6D90E94990560932E03709374
:1025B0002F03809330039093310362E172E08091A6
:1025C0006E0390916F030E9425036AE070E080E043
:1025D00090E036DA81E08093420340E855E260E023
:1025E00070E08FE892E0C5D90E9499054B015C012B
:1025F0000E94EA060E9499056B017C0164E272E088
:102600008FE892E00E942503C701B60117D56B0140
:102610007C01C501B40112D59B01AC01C701B60113
:1026200052D620E030E04AE754E42BD76B017C011E
:102630004B015C019B01AC010E947B1B882319F0BC
:102640006EE572E025C026013701E89477F82FEF98
:102650003FEF4FE75FE7C301B2010E947B1B81118F
:102660000CC02FEF3FEF4FE75FE7C301B201E2D4A9
:1026700018161CF462E672E00BC02FEF3FEF4FE735
:102680005FE4C701B601E7D718166CF466E672E09E
:102690008FE892E00E94250384EF882E992493947A
:1026A000A12CB12C7CC02FEF3FEF4FE75FECC701AF
:1026B000B601C0D487FDEACF20E030E0A901C70110
:1026C000B601B8D487FF11C0E0918F02F09190025B
:1026D0000190F081E02D6DE28FE892E019954601BE
:1026E0005701B7FAB094B7F8B0942AE037ED43EA4F
:1026F0005BE3C501B401E8D54B015C012FD76B0149
:102700007C019CD49B01AC01C501B401DCD54B011B
:102710005C012AE0B701A6018FE892E00E943A032B
:10272000E0918F02F09190020190F081E02D6EE235
:102730008FE892E0199520E030E040E251E4C501D5
:10274000B401DDD44B015C0109D76B01E12CF12C04
:102750002AE0B701A6018FE892E00E943A03C70180
:10276000B6016CD49B01AC01C501B401ACD520E02D
:1027700030E040E251E4C3D4F1D6AB0160E070E058
:102780002AE08FE892E00E943A0386CF0E949905E2
:10279000623071058105910540F40E9498020E9403
:1027A0009905672B682B692B89F30E949905609323
:1027B0008B0270938C0280938D0290938E02C09056
:1027C0008702D0908802E0908902F0908A026C150E
:1027D0007D058E059F0540F4609387027093880203
:1027E0008093890290938A02C0908702D0908802D9
:1027F000E0908902F0908A029B01AC012C193D09FE
:102800004E095F0969017A013AEFC316D104E10468
:10281000F10418F260938702709388028093890212
:1028200090938A0280923A0390923B03A0923C03D9
:10283000B0923D0310923E0310923F03109240036A
:10284000109241038091320390913303A09134039D
:10285000B09135038093360390933703A0933803E8
:10286000B09339030E949905609332037093330348
:1028700080933403909335030E94990560932E034F
:1028800070932F0380933003909331030E94990536
:102890006B017C016AE672E080916E0390916F0398
:1028A0000E9425032AE041E050E060E070E0809162
:1028B0006E0390916F030E943A0361E772E080918A
:1028C0006E0390916F030E9425032AE0B701A601D1
:1028D00080916E0390916F030E943A0363E772E068
:1028E00080916E0390916F030E94250380913203C3
:1028F00090913303A0913403B0913503B701A60141
:10290000481B590B6A0B7B0B2AE080916E03909158
:102910006F030E943A0363E772E080916E03909127
:102920006F030E942503409132035091330360915D
:102930003403709135038091360390913703A09151
:102940003803B0913903481B590B6A0B7B0B2AE003
:1029500080916E0390916F030E943A0365E772E0E5
:1029600080916E0390916F030E9425030E94990548
:10297000AB01BC012AE080916E0390916F030E942D
:102980003A03E0906E03F0906F0367E772E0C701CF
:102990000E94250361E272E0C7010E94250365E001
:1029A00070E080E090E04CD80E949905609332037B
:1029B000709333038093340390933503EECE0895E0
:1029C000CF92DF92EF92FF920F931F93CF93DF93FB
:1029D000E1E1F4E01382128248EE53E060E070E03F
:1029E000448355836683778384E092E09183808378
:1029F00025E331E03587248724E331E037872687D4
:102A000020E331E0318B208B21E331E0338B228BCB
:102A100022E331E0358B248B26E331E0378B268BA4
:102A2000118E128E138E148EE4E7F3E0138212825D
:102A30004483558366837783918380832DEC30E0D4
:102A4000358724872CEC30E03787268728EC30E068
:102A5000318B208B29EC30E0338B228B2AEC30E059
:102A6000358B248B2EEC30E0378B268B118E128E1B
:102A7000138E148EAFE8B2E013961C921E9212973A
:102A800014964D935D936D937C93179711969C9339
:102A90008E9385EC90E01D969C938E931C9784EC0E
:102AA00090E01F969C938E931E9780EC90E0519639
:102AB0009C938E93509781EC90E053969C938E93C9
:102AC000529782EC90E055969C938E93549786ECA7
:102AD00090E057969C938E93569759961C925997CF
:102AE0005A961C925A975B961C925B975C961C9226
:102AF000ACE2B3E016961D921D921D921C9219979E
:102B00001A961D921D921D921C921D971E961D9243
:102B10001D921D921C92519752961D921D921D92CC
:102B20001C925597CEEAD4E0D0930B05C0930A05CA
:102B300081E080930C05C12CD12C88E4E82E83E43D
:102B4000F82EC0920D05D0920E05E0920F05F0927E
:102B5000100540E050E068EC72E44093110550939A
:102B60001205609313057093140580E090E0ABE2CA
:102B7000B4E48093150590931605A0931705B093C0
:102B80001805D0931A05C093190522E020931B0560
:102B9000C0921C05D0921D05E0921E05F0921F0503
:102BA00040932005509321056093220570932305DF
:102BB0008093240590932505A0932605B0932705BF
:102BC000D0932905C093280523E020932A05C092BD
:102BD0002B05D0922C05E0922D05F0922E05409306
:102BE0002F05509330056093310570933205809323
:102BF000330590933405A0933505B093360522E054
:102C000030E03093380520933705D0935405C093B6
:102C1000530516E010935505C0925605D0925705FE
:102C2000E0925805F092590540935A0550935B0580
:102C300060935C0570935D0580935E0590935F05DE
:102C4000A0936005B0936105D0936305C0936205BE
:102C500015E010936405C0926505D0926605E09278
:102C60006705F09268054093690550936A05609383
:102C70006B0570936C0580936D0590936E05A09322
:102C80006F05B0937005D0937205C093710514E081
:102C900010937305C0927405D0927505E092760585
:102CA000F0927705409378055093790560937A0503
:102CB00070937B0580937C0590937D05A0937E05A2
:102CC000B0937F053093810520938005D0939D05B7
:102CD000C0939C0519E010939E05C0929F05D09269
:102CE000A005E092A105F092A2054093A3055093A0
:102CF000A4056093A5057093A6058093A7059093FE
:102D0000A805A093A905B093AA05D093AC05C093DC
:102D1000AB0518E01093AD05C092AE05D092AF059B
:102D2000E092B005F092B1054093B2055093B3051F
:102D30006093B4057093B5058093B6059093B7057D
:102D4000A093B805B093B905D093BB05C093BA055D
:102D500017E01093BC05C092BD05D092BE05E0926D
:102D6000BF05F092C0054093C1055093C205609322
:102D7000C3057093C4058093C5059093C605A093C1
:102D8000C705B093C8053093CA052093C905D093F1
:102D9000E605C093E5051CE01093E705C092E80541
:102DA000D092E905E092EA05F092EB054093EC053C
:102DB0005093ED056093EE057093EF058093F00559
:102DC0009093F105A093F205B093F305D093F50528
:102DD000C093F4051BE01093F605C092F705D0925E
:102DE000F805E092F905F092FA054093FB0550933F
:102DF000FC056093FD057093FE058093FF0590939D
:102E00000006A0930106B0930206D0930406C09377
:102E100003061AE010930506C0920606D092070634
:102E2000E0920806F092090640930A0650930B06BA
:102E300060930C0670930D0680930E0690930F0618
:102E4000A0931006B0931106309313062093120638
:102E5000D0932F06C0932E060FE000933006C09249
:102E60003106D0923206E0923306F0923406409357
:102E70003506509336066093370670933806809374
:102E8000390690933A06A0933B06B0933C06D09344
:102E90003E06C0933D060EE000933F06C0924006FA
:102EA000D0924106E0924206F092430640934406D7
:102EB00050934506609346067093470680934806F4
:102EC00090934906A0934A06B0934B06D0934D06C3
:102ED000C0934C060DE000934E06C0924F06D09270
:102EE0005006E0925106F0925206409353065093DA
:102EF0005406609355067093560680935706909338
:102F00005806A0935906B0935A0630935C06209356
:102F10005B06D0937806C093770602E100937906AA
:102F2000C0927A06D0927B06E0927C06F0927D06F3
:102F300040937E0650937F066093800670938106CF
:102F40008093820690938306A0938406B0938506AF
:102F5000D0938706C093860601E100938806C0924D
:102F60008906D0928A06E0928B06F0928C064093F6
:102F70008D0650938E0660938F0670939006809313
:102F8000910690939206A0939306B0939406D093E3
:102F90009606C093950600E100939706C0929806A6
:102FA000D0929906E0929A06F0929B0640939C0676
:102FB00050939D0660939E0670939F068093A00693
:102FC0009093A106A093A206B093A3063093A50602
:102FD0002093A406FD8FEC8F19838AE00E949A0C3F
:102FE00040E452E46FE070E08C8D9D8D0E94B90C3E
:102FF0001092C0061092BF061092C2061092C1062F
:103000001092C4061092C3068DE00E949A0C8CE0C8
:103010000E949A0C40E855E260E070E081E194E0A3
:10302000DF91CF911F910F91FF90EF90DF90CF90A4
:103030000C94B90C40D008F481E00895E89409C0DC
:1030400097FB3EF490958095709561957F4F8F4FDB
:103050009F4F9923A9F0F92F96E9BB279395F695F1
:10306000879577956795B795F111F8CFFAF4BB0F6F
:1030700011F460FF1BC06F5F7F4F8F4F9F4F16C0D3
:10308000882311F096E911C0772321F09EE8872F5D
:10309000762F05C0662371F096E8862F70E060E019
:1030A0002AF09A95660F771F881FDAF7880F969592
:1030B000879597F90895990F0008550FAA0BE0E836
:1030C000FEEF16161706E807F907C0F012161306EA
:1030D000E407F50798F0621B730B840B950B39F42A
:1030E0000A2661F0232B242B252B21F408950A2690
:1030F00009F4A140A6958FEF811D811D08950BD085
:1031000078C069D028F06ED018F0952309F05AC025
:103110005FC01124A2C07ED0A0F3959FD1F3950F7C
:1031200050E0551F629FF001729FBB27F00DB11D4B
:10313000639FAA27F00DB11DAA1F649F6627B00DDB
:10314000A11D661F829F2227B00DA11D621F739FC4
:10315000B00DA11D621F839FA00D611D221F749FD2
:103160003327A00D611D231F849F600D211D822F19
:10317000762F6A2F11249F5750408AF0E1F0882360
:103180004AF0EE0FFF1FBB1F661F771F881F91506D
:103190005040A9F79E3F510570F014C05EC05F3FDC
:1031A000ECF3983EDCF3869577956795B795F795A0
:1031B000E7959F5FC1F7FE2B880F911D9695879528
:1031C00097F9089597F99F6780E870E060E00895A7
:1031D0009FEF80EC089500240A941616170618062F
:1031E0000906089500240A9412161306140605060B
:1031F0000895092E0394000C11F4882352F0BB0F9C
:1032000040F4BF2B11F460FF04C06F5F7F4F8F4FFE
:103210009F4F089557FD9058440F551F59F05F3F39
:1032200071F04795880F97FB991F61F09F3F79F0E8
:1032300087950895121613061406551FF2CF46956A
:10324000F1DF08C0161617061806991FF1CF8695EC
:103250007105610508940895E894BB2766277727D0
:10326000CB0197F90895A1E21A2EAA1BBB1BFD0101
:103270000DC0AA1FBB1FEE1FFF1FA217B307E40755
:10328000F50720F0A21BB30BE40BF50B661F771FAD
:10329000881F991F1A9469F760957095809590958D
:1032A0009B01AC01BD01CF0108959F939F7782D10F
:1032B0000F9000203AF49058A2EA2AED3FE049E44A
:1032C00050E413D096CF5058BB27AA270ED091CFE9
:1032D00082DF30F087DF20F031F49F3F11F41EF4DD
:1032E00077CF0EF4E095E7FB6DCFE92F93DF80F306
:1032F000BA17620773078407950718F071F49EF5F3
:10330000ABCF0EF4E0950B2EBA2FA02D0B01B90117
:1033100090010C01CA01A0011124FF27591B99F04B
:10332000593F50F4503E68F11A16F040A22F232F57
:10333000342F4427585FF3CF469537952795A795A7
:10334000F0405395C9F77EF41F16BA0B620B730B4E
:10335000840BBAF09150A1F0FF0FBB1F661F771FBF
:10336000881FC2F70EC0BA0F621F731F841F48F474
:10337000879577956795B795F7959E3F08F0B3CFFA
:103380009395880F08F09927EE0F979587950895E4
:103390009F939F77EEE389379E0720F4E8E0F1E002
:1033A00049D109C007D19058A2EA2AED3FE049EC83
:1033B0005FE39BDF1EDF0F9007FC905808950BDF43
:1033C00058F080E891E009F49EEF0CDF28F040E827
:1033D00051E059F45EEF09C0FBCE3ECFE92FE07813
:1033E00019DF68F3092E052AC1F3261737074807A6
:1033F000590738F00E2E07F8E02569F0E025E06463
:103400000AC0EF6307F8009407FADB01B9019D01D8
:10341000DC01CA01AD01EF9343D0EBDE0AD05F912E
:10342000552331F02BED3FE049E450FD49EC4CCF02
:103430000895DF93DD27B92FBF7740E85FE31616C5
:10344000170648075B0710F4D92F09D19F938F9374
:103450007F936F934DD1ECE1F1E0C7D0CADE2F919D
:103460003F914F915F9157DEDD2349F09058A2EADA
:103470002AED3FE049EC5FE3D0785D2736DFDF914E
:10348000B8CE0CD0B6CEAEDE40F0A5DE30F021F4E2
:103490005F3F19F097CE5111E0CE9ACEBBDE98F384
:1034A0009923C9F35523B1F3951B550BBB27AA27C5
:1034B00062177307840738F09F5F5F4F220F331F37
:1034C000441FAA1FA9F333D00E2E3AF0E0E830D003
:1034D00091505040E695001CCAF729D0FE2F27D006
:1034E000660F771F881FBB1F261737074807AB07D4
:1034F000B0E809F0BB0B802DBF01FF2793585F4F49
:103500002AF09E3F510568F05DCEA7CE5F3FECF3F9
:10351000983EDCF3869577956795B795F7959F5F0D
:10352000C9F7880F911D9695879597F90895E1E061
:10353000660F771F881FBB1F621773078407BA07C0
:1035400020F0621B730B840BBA0BEE1F88F7E0951B
:10355000089504D06894B11180CE089563DE88F098
:103560009F5790F0B92F9927B751A0F0D1F0660F6F
:10357000771F881F991F1AF0BA95C9F712C0B1308A
:1035800081F06ADEB1E0089567CE672F782F882733
:10359000B85F39F0B93FCCF3869577956795B395C9
:1035A000D9F73EF490958095709561957F4F8F4F38
:1035B0009F4F0895DF93CF931F930F938B01EC01DF
:1035C000E9E4F1E012D015DE9801AE018B01EC01C7
:1035D00060E070E080E89FE376DE4CD09801AE01B9
:1035E0000F911F91CF91DF9196CDDF93CF931F93D2
:1035F0000F93FF92EF92DF927B018C01689405C0DC
:10360000DA2EEF0188DDFE01E894A5912591359130
:1036100045915591AEF3EF0168DEFE019701A801D7
:10362000DA9479F7DF90EF90FF900F911F91CF918F
:10363000DF9108959F938F937F936F93FF93EF9301
:103640009B01AC015CDDEF91FF91CFDF2F913F91AA
:103650004F915F9154CD2FDD08F48FEF08959B01BA
:10366000AC0160E070E080E89FE30BCF11F40EF452
:10367000AFCD45C0D7DDD0F39923D9F3CEF39F5713
:10368000550B87FF4AD00024A0E640EA90018058FD
:103690005695979528F4805C660F771F881F20F059
:1036A00026173707480730F4621B730B840B202959
:1036B00031294A2BA69517940794202531254A27AE
:1036C00058F7660F771F881F20F02617370748071F
:1036D00030F4620B730B840B200D311D411DA0953E
:1036E00081F7B901842F9158880F96958795089591
:1036F0009B01AC0104CDDFDC880B990B08959F3F43
:1037000031F0915020F4879577956795B795880F9C
:10371000911D9695879597F9089591505040660FA1
:10372000771F881FD2F70895EE0FFF1F881F8BBFEA
:103730000790F691E02D199481E090E0F89400C094
:1037400011E0CDE3D1E000E005C0802FFE01ECDF09
:103750002196011DCE33D10780E00807B1F7F89418
:02376000FFCF99
:103762000000000031027001B8017702E901C701CF
:10377200DB01564D4450565F317C315F564D44500B
:10378200560D0A0054696D6520636F6E73756D7016
:1037920074696F6E20666F722063616C63756C6111
:1037A20074696E6720616C6C206E65636365737308
:1037B2006172792076616C7565733A200A006E61D8
:1037C2006E00696E66006F766600564D4450455F26
:0E37D200003A323A007C005F564D44504500EC
:020000023000CC
:10E000000D9489F10D94B2F10D94B2F10D94B2F129
:10E010000D94B2F10D94B2F10D94B2F10D94B2F1F0
:10E020000D94B2F10D94B2F10D94B2F10D94B2F1E0
:10E030000D94B2F10D94B2F10D94B2F10D94B2F1D0
:10E040000D94B2F10D94B2F10D94B2F10D94B2F1C0
:10E050000D94B2F10D94B2F10D94B2F10D94B2F1B0
:10E060000D94B2F10D94B2F10D94B2F10D94B2F1A0
:10E070000D94B2F10D94B2F10D94B2F10D94B2F190
:10E080000D94B2F10D94B2F10D94B2F10D94B2F180
:10E090000D94B2F10D94B2F10D94B2F10D94B2F170
:10E0A0000D94B2F10D94B2F10D94B2F10D94B2F160
:10E0B0000D94B2F10D94B2F10D94B2F10D94B2F150
:10E0C0000D94B2F10D94B2F10D94B2F10D94B2F140
:10E0D0000D94B2F10D94B2F10D94B2F10D94B2F130
:10E0E0000D94B2F141546D656761323536300041AF
:10E0F000726475696E6F206578706C6F72657220DE
:10E1000073746B3530305632206279204D4C530099
:10E11000426F6F746C6F616465723E004875683F52
:10E1200000436F6D70696C6564206F6E203D200048
:10E130004350552054797065202020203D20005FF9
:10E140005F4156525F415243485F5F3D2000415658
:10E1500052204C696243205665723D20004743437C
:10E160002056657273696F6E203D20004350552024
:10E1700049442020202020203D20004C6F7720663D
:10E18000757365202020203D20004869676820665F
:10E190007573652020203D200045787420667573D6
:10E1A00065202020203D20004C6F636B2066757336
:10E1B000652020203D20004D617220203720323024
:10E1C000313300312E362E3800342E332E350056A2
:10E1D00023202020414444522020206F7020636F70
:10E1E00064652020202020696E73747275637469E1
:10E1F0006F6E2061646472202020496E74657272B3
:10E20000757074006E6F20766563746F7200726A49
:10E210006D702020006A6D70200057686174207056
:10E220006F72743A00506F7274206E6F7420737541
:10E2300070706F72746564004D7573742062652030
:10E2400061206C6574746572002000577269747483
:10E25000696E672045450052656164696E672045B7
:10E26000450045452065727220636E743D00504F35
:10E27000525400303D5A65726F2061646472003FF1
:10E280003D43505520737461747300403D454550C3
:10E29000524F4D207465737400423D426C696E6B41
:10E2A000204C454400453D44756D70204545505215
:10E2B0004F4D00463D44756D7020464C415348001B
:10E2C000483D48656C70004C3D4C69737420492F83
:10E2D0004F20506F72747300513D51756974005234
:10E2E0003D44756D702052414D00563D73686F7707
:10E2F00020696E7465727275707420566563746FF0
:10E30000727300593D506F727420626C696E6B00BD
:10E310002A0011241FBECFEFD1E2DEBFCDBF01E046
:10E320000CBF12E0A0E0B2E0EEE1FDEF03E00BBFB6
:10E3300002C007900D92A030B107D9F712E0A0E01B
:10E34000B2E001C01D92AE30B107E1F70F9460F367
:10E350000D948DFE01E20EBF0FEF0DBF11241FBE05
:10E360000D9460F30D9400F020E030E040ED57E0B4
:10E3700005C0FA013197F1F72F5F3F4F2817390792
:10E38000C0F308959C01260F311DC901A0E0B0E043
:10E390002F5F3F4FABBFFC018791882361F08093D3
:10E3A000C6008091C00086FFFCCF8091C0008064D1
:10E3B0008093C000EACF08958DE08093C6008091DD
:10E3C000C00086FFFCCF8091C00080648093C000B5
:10E3D0008AE08093C6008091C00086FFFCCF8091C8
:10E3E000C00080648093C00008950F94C2F10F9420
:10E3F000DCF10895FC019081992359F09093C600B7
:10E400008091C00086FFFCCF8091C0008064809323
:10E41000C0003196992379F70895282F982F929567
:10E420009F70892F805D8A3308F0895F8093C600D2
:10E430008091C00086FFFCCF8091C00080648093F3
:10E44000C000822F8F70982F905D9A3308F0995FEB
:10E450009093C6008091C00086FFFCCF8091C000E1
:10E4600080648093C00008959C01FB01853691056E
:10E470001CF46330710594F0C90164E670E00F94F8
:10E480002EFE605D7F4F6093C6008091C00086FFC6
:10E49000FCCF8091C00080648093C0002B30310598
:10E4A00014F43297B4F0C90164E670E00F942EFEC4
:10E4B0006AE070E00F942EFE605D7F4F6093C600AF
:10E4C0008091C00086FFFCCF8091C0008064809363
:10E4D000C000C9016AE070E00F942EFEC0968093E0
:10E4E000C6008091C00086FFFCCF8091C000806490
:10E4F0008093C00008951F93182F8EE692EE60E07F
:10E500000F94C2F11093C6008091C00086FFFCCF2B
:10E510008091C00080648093C0000F94DCF11F9153
:10E5200008952F923F924F925F926F927F928F92B7
:10E530009F92AF92BF92CF92DF92EF92FF920F9392
:10E540001F93DF93CF93CDB7DEB762970FB6F894E2
:10E55000DEBF0FBECDBF382E622ECA01DB015C01CB
:10E560006D01772420E2222E2E010894411C511CBB
:10E570008BC081E0A81680E0B80681E0C80680E084
:10E58000D80628F0C601AA27BB270F940DF2BB2797
:10E59000AD2D9C2D8B2D0F940DF28A2D0F940DF225
:10E5A0002092C6008091C00086FFFCCF8091C00001
:10E5B00080648093C0009DE29093C6008091C0006B
:10E5C00086FFFCCF8091C00080648093C0002092C1
:10E5D000C6008091C00086FFFCCF8091C00080649F
:10E5E0008093C00019828601750188249924A1E0D6
:10E5F0003A1651F03A1620F0B2E03B1661F409C029
:10E600000BBFF701779007C0C7010F9477FE782EF4
:10E6100002C0F7017080872D0F940DF22092C60082
:10E620008091C00086FFFCCF8091C0008064809301
:10E63000C000872D8052F401EF70F0708F3520F408
:10E64000E40DF51D708204C0E40DF51D8EE280839B
:10E650000894E11CF11C011D111D0894811C911CE2
:10E6600090E18916910409F0C2CF80E190E0A0E02A
:10E67000B0E0A80EB91ECA1EDB1E198AC2010F9493
:10E68000FAF10F94DCF16A94662009F072CF629679
:10E690000FB6F894DEBF0FBECDBFCF91DF911F91B3
:10E6A0000F91FF90EF90DF90CF90BF90AF909F9031
:10E6B0008F907F906F905F904F903F902F90089534
:10E6C0002F923F924F925F926F927F928F929F9282
:10E6D000AF92BF92CF92DF92EF92FF920F931F9370
:10E6E000DF93CF93CDB7DEB7CD53D1400FB6F894BB
:10E6F000DEBF0FBECDBF01E20EBF0FEF0DBF94B75F
:10E70000F894A89514BE80916000886180936000A1
:10E7100010926000789493FF05C0E0910002F091A0
:10E7200001021995279A2F9A8091C00082608093E8
:10E73000C00080E18093C40088E18093C1000000A4
:10E74000EE24FF24870144E0A42EB12CCC24DD2448
:10E7500024C0C5010197F1F70894E11CF11C011DCB
:10E76000111D21E2E2162EE4F20620E0020720E06D
:10E77000120718F031E0C32ED12CC801B70127ECE5
:10E780003BE140E050E00F9441FE611571058105C9
:10E79000910519F485B1805885B98091C00087FD35
:10E7A00003C0C114D104A9F2A6014F5F5F4FC25E3E
:10E7B000DE4F59834883CE51D140C25EDE4F8881FF
:10E7C0009981CE51D140019711F00D9410FEC05D9A
:10E7D000DE4F19821882C053D14060E0C15DDE4F28
:10E7E0001882CF52D14088249924C35DDE4F19820C
:10E7F0001882CD52D140C05EDE4F188219821A8233
:10E800001B82C052D140CE5CDE4F188219821A8220
:10E810001B82C253D140EE24FF2487010BBFF701B6
:10E8200007911691C45CDE4F19830883CC53D14005
:10E830000D940BFEC25EDE4F28813981CE51D1404E
:10E840002130310509F52091C600C25EDE4F1982E4
:10E850001882CE51D14022C02F5F3F4F4F4F5F4FA4
:10E86000213082E138078AE7480780E0580780F0C6
:10E87000C45CDE4FE881F981CC53D140EF5FFF4F9C
:10E8800019F0EE27FF27099420E030E040E050E047
:10E890008091C00087FFE0CF2091C600C35DDE4FAE
:10E8A00048815981CD52D1404F5F5F4FC35DDE4FEC
:10E8B00059834883CD52D140213209F063C64A3092
:10E8C000510508F05FC60894811C911C53E0851621
:10E8D000910409F059C600E010E018C081E280936D
:10E8E000C6008091C00086FFFCCF8091C00080648C
:10E8F0008093C0002F5F3F4F2931310579F70F9486
:10E90000DCF10F5F1F4F0530110519F020E030E0FA
:10E91000E5CF10920A0210920B0210920C02109294
:10E920000D02109206021092070210920802109235
:10E930000902109202021092030210920402109235
:10E9400005028FEE90EE60E00F94F5F180E191EE1C
:10E9500060E00F94C2F18091C00087FFFCCF9091DE
:10E96000C600903608F09F759032B8F09093C600BC
:10E970008091C00086FFFCCF8091C00080648093AE
:10E98000C000A0E2A093C6008091C00086FFFCCF2B
:10E990008091C00080648093C000983409F4D7C18E
:10E9A0009934B8F4923409F459C1933458F490333B
:10E9B00019F1903308F4E3C59F33A1F1903409F0C5
:10E9C000DEC5BDC0953409F470C1963409F0D7C5D1
:10E9D00098C1923509F42BC2933538F49C3409F46C
:10E9E000F5C1913509F0CBC518C2963509F445C279
:10E9F000993509F0C4C567C483E792EE62E00F94CD
:10EA0000F5F110920602109207021092080210927D
:10EA1000090210920A0210920B0210920C0210923C
:10EA20000D0213C18FE792EE62E00F94F5F18FEEC5
:10EA300090EE60E00F94F5F181E291EE60E00F94CA
:10EA4000C2F187EB91EE60E00F94F5F180E391EE77
:10EA500060E00F94C2F184EE90EE60E00F94F5F167
:10EA60008FE391EE60E00F94C2F186E090E061E008
:10EA700070E00F9434F20F94DCF18DE591EE60E0DC
:10EA80000F94C2F189EC91EE60E00F94F5F18EE401
:10EA900091EE60E00F94C2F183EC91EE60E00F9490
:10EAA000F5F18CE691EE60E00F94C2F18EE10F94E7
:10EAB0000DF288E90F940DF281E00F940DF20F949E
:10EAC000DCF18BE791EE60E00F94C2F119E0E0E039
:10EAD000F0E010935700E4918E2F0F940DF20F94F5
:10EAE000DCF18AE891EE60E00F94C2F1E3E0F0E03F
:10EAF00010935700E4918E2F0F940DF20F94DCF1D8
:10EB000089E991EE60E00F94C2F1E2E0F0E0109349
:10EB10005700E4918E2F0F940DF20F94DCF188EAE8
:10EB200091EE60E00F94C2F1E1E0F0E01093570045
:10EB30001491812F0F940DF20F94DCF107CF8BE825
:10EB400092EE62E00F94F5F18BE492EE60E00F94A8
:10EB5000F5F10F94DCF100E010E019C0C8016F2D51
:10EB60000F947FFEFF2031F489E492EE60E00F9471
:10EB7000C2F10BC0F092C6008091C00086FFFCCFAE
:10EB80008091C00080648093C0000F5F1F4FC80158
:10EB900081519F41A0E0B0E0ABBFFC01F790BAE229
:10EBA000FB1621F0E2E000301E07C1F60F94DCF105
:10EBB0000F94DCF187E592EE60E00F94F5F10F948D
:10EBC000DCF1CC24DD2400E010E01EC0C8010F946D
:10EBD00077FEF82E882331F489E492EE60E00F94FA
:10EBE000C2F10BC08093C6008091C00086FFFCCFAD
:10EBF0008091C00080648093C000FE1419F00894D6
:10EC0000C11CD11C0F5F1F4FC80181519F41A0E063
:10EC1000B0E0ABBFFC01E790FAE2EF1621F022E092
:10EC20000030120799F60F94DCF10F94DCF182E6C4
:10EC300092EE60E00F94C2F1C60161E070E00F94C3
:10EC400034F20F94DCF10F94DCF110920202109276
:10EC50000302109204021092050278CE89E992EE26
:10EC600062E00F94F5F1279A2F9A16C02F9880E052
:10EC700090E0E0EDF7E03197F1F7019684369105E9
:10EC8000C1F72F9A80E090E0E0EDF7E03197F1F7DF
:10EC9000019684369105C1F78091C00087FFE6CFC9
:10ECA0008091C00087FFFCCF64C485EA92EE62E0E9
:10ECB0000F94F5F140910202509103026091040219
:10ECC0007091050281E020E10F9491F2809102029F
:10ECD00090910302A0910402B091050280509F4FD1
:10ECE000AF4FBF4F8093020290930302A0930402A0
:10ECF000B093050280509041A040B04008F426CE69
:10ED0000A4CF83EB92EE62E00F94F5F140910602FE
:10ED100050910702609108027091090280E020E1A1
:10ED20000F9491F28091060290910702A09108023F
:10ED3000B091090280509F4FAF4FBF4F80930602A2
:10ED400090930702A0930802B0930902FFCD80ECD4
:10ED500092EE62E00F94F5F183E792EE60E00F949B
:10ED6000F5F18FE792EE60E00F94F5F18BE892EE0B
:10ED700060E00F94F5F189E992EE60E00F94F5F10F
:10ED800085EA92EE60E00F94F5F183EB92EE60E09D
:10ED90000F94F5F180EC92EE60E00F94F5F187ECC2
:10EDA00092EE60E00F94F5F188ED92EE60E00F9442
:10EDB000F5F18FED92EE60E00F94F5F18AEE92EEB0
:10EDC00060E00F94F5F183E093EEBDCD87EC92EE19
:10EDD00062E00F94F5F181E40F947BF282E40F94EA
:10EDE0007BF283E40F947BF284E40F947BF285E45E
:10EDF0000F947BF286E40F947BF287E40F947BF20E
:10EE000088E40F947BF28AE40F947BF28BE40F94F6
:10EE10007BF28CE40F947BF299CD88ED92EE62E068
:10EE20000F94F5F1772473948824992409C48FED05
:10EE300092EE62E00F94F5F140910A0250910B02BC
:10EE400060910C0270910D0282E020E10F9491F22A
:10EE500080910A0290910B02A0910C02B0910D02D8
:10EE600080509F4FAF4FBF4F80930A0290930B0289
:10EE7000A0930C02B0930D0269CD8AEE92EE62E08F
:10EE80000F94F5F184EE90EE60E00F94F5F18FECC5
:10EE900091EE60E00F94F5F1662477244301CC5D98
:10EEA000DE4F19821882C452D140D401C301B695F5
:10EEB000A79597958795CA5DDE4F88839983AA8326
:10EEC000BB83C652D140CC5DDE4FA881B981C4520C
:10EED000D1401196CC5DDE4FB983A883C452D14096
:10EEE000CD0162E070E00F9434F2B0E2B093C6005E
:10EEF0008091C00086FFFCCF8091C0008064809329
:10EF0000C000EDE2E093C6008091C00086FFFCCF18
:10EF10008091C00080648093C000F0E2F093C6004E
:10EF20008091C00086FFFCCF8091C00080648093F8
:10EF3000C000CA5DDE4FE880F9800A811B81C6529D
:10EF4000D140BB27A12F902F8F2D0F940DF2CA5DBA
:10EF5000DE4F8881C652D1400F940DF2B0E2FB2EF5
:10EF6000F092C6008091C00086FFFCCF8091C00067
:10EF700080648093C0000DE30093C6008091C000C0
:10EF800086FFFCCF8091C00080648093C00010E2B7
:10EF90001093C6008091C00086FFFCCF8091C00016
:10EFA00080648093C0008BBEF3012791C65DDE4F65
:10EFB0002883CA52D140A22EBB24CC24DD2408943D
:10EFC000611C711C811C911C8BBEF3018791282E42
:10EFD0003324442455240894611C711C811C911C09
:10EFE0008BBEF3013791C55DDE4F3883CB52D140E4
:10EFF0000894611C711C811C911C8BBEF30147910C
:10F00000C45DDE4F4883CC52D140ADEFEA2EAFEF66
:10F01000FA2EAFEF0A2FAFEF1A2F6E0C7F1C801E57
:10F02000911E142D032DF22CEE24EA0CFB1C0C1D5A
:10F030001D1D0F940DF220E22093C6008091C000A8
:10F0400086FFFCCF8091C00080648093C000C65DC5
:10F05000DE4F8881CA52D1400F940DF230E23093D6
:10F06000C6008091C00086FFFCCF8091C000806404
:10F070008093C000C45DDE4F8881CC52D1400F9494
:10F080000DF240E24093C6008091C00086FFFCCFA5
:10F090008091C00080648093C000C55DDE4F888190
:10F0A000CB52D1400F940DF250E25093C6008091A4
:10F0B000C00086FFFCCF8091C00080648093C000B8
:10F0C0008FEFE8168FEFF80680E0080780E018075A
:10F0D00031F484E092EE60E00F94C2F1DFC0D80119
:10F0E000C7018070907CA070B0708050904CA040A0
:10F0F000B040D1F52FEF3FE340E050E0E222F322B1
:10F1000004231523CA5DDE4FA880B980CA80DB8046
:10F11000C652D140AE0CBF1CC01ED11EAA0CBB1CD7
:10F12000CC1CDD1C8EE092EE60E00F94C2F1BB2798
:10F13000A12F902F8F2D0F940DF28E2D0F940DF285
:10F1400030E23093C6008091C00086FFFCCF8091F2
:10F15000C00080648093C0004EE34093C60080915D
:10F16000C00086FFFCCF87C08EE09EEFA0E0B0E03D
:10F17000E822F9220A231B239CE0E91694E9F90608
:10F1800090E0090790E0190709F088C0C45DDE4FE0
:10F19000A881CC52D140EA2EFF2400E010E0102FCD
:10F1A0000F2DFE2CEE24C55DDE4FB881CB52D14031
:10F1B000EB0EF11C011D111DD601C501817090706F
:10F1C000A070B070DC0199278827E80EF91E0A1F8D
:10F1D0001B1F20EF30E040E050E0A222B322C42207
:10F1E000D52241E1AA0CBB1CCC1CDD1C4A95D1F7F1
:10F1F000EA0CFB1C0C1D1D1D81E090E0A0E0B0E0BE
:10F20000282239224A225B2235E1220C331C441C7D
:10F21000551C3A95D1F7E20CF31C041D151D57013E
:10F220006801AA0CBB1CCC1CDD1C85E192EE60E0E1
:10F230000F94C2F1C801AA27BB270F940DF2BB2778
:10F24000A12F902F8F2D0F940DF28E2D0F940DF274
:10F2500090E29093C6008091C00086FFFCCF809121
:10F26000C00080648093C000AEE3A093C60080918C
:10F27000C00086FFFCCF8091C00080648093C000F6
:10F28000C601AA27BB270F940DF2BB27AD2D9C2DDD
:10F290008B2D0F940DF28A2D0F940DF20F94DCF14B
:10F2A000CC5DDE4FE881F981C452D140F99709F471
:10F2B0004DCBF4E0EF2EF12C012D112D6E0C7F1CA7
:10F2C000801E911EF2CD83E093EE62E00F94F5F183
:10F2D0008AE192EE60E00F94C2F18091C00087FF56
:10F2E000FCCF1091C6001F751093C6008091C0001E
:10F2F00086FFFCCF8091C00080648093C0000F9493
:10F30000DCF1812F81548A3108F036C1163409F4BA
:10F3100095C0173490F4133409F44EC0143430F40B
:10F320001134F1F0123409F01DC130C0143409F465
:10F3300059C0153409F016C16BC01A3409F4C4C0A1
:10F340001B3438F4173409F48FC0183409F00AC19B
:10F35000A1C01B3409F4D2C01C3409F003C1E8C0B9
:10F360008FEF81B90DC082B1809582B980E090E0C5
:10F37000E0EDF7E03197F1F70196883C9105C1F790
:10F380008091C00087FFEFCF12B8EFC08FEF84B934
:10F390000DC085B1809585B980E090E0E0EDF7E0A3
:10F3A0003197F1F70196883C9105C1F78091C00033
:10F3B00087FFEFCF15B8D9C08FEF87B90DC088B1DF
:10F3C000809588B980E090E0E0EDF7E03197F1F7C3
:10F3D0000196883C9105C1F78091C00087FFEFCF6F
:10F3E00018B8C3C08FEF8AB90DC08BB180958BB9A7
:10F3F00080E090E0E0EDF7E03197F1F70196883C8E
:10F400009105C1F78091C00087FFEFCF1BB8ADC059
:10F410008FEF8DB90DC08EB180958EB980E090E0F0
:10F42000E0EDF7E03197F1F70196883C9105C1F7DF
:10F430008091C00087FFEFCF1EB897C08FEF80BBD1
:10F440000DC081B3809581BB80E090E0E0EDF7E0F6
:10F450003197F1F70196883C9105C1F78091C00082
:10F4600087FFEFCF11BA81C08FEF83BB0DC084B38C
:10F47000809584BB80E090E0E0EDF7E03197F1F714
:10F480000196883C9105C1F78091C00087FFEFCFBE
:10F4900014BA6BC08FEF809301010FC080910201FD
:10F4A00080958093020180E090E0E0EDF7E03197F5
:10F4B000F1F70196883C9105C1F78091C00087FF64
:10F4C000EDCF1092020151C08FEF809304010FC065
:10F4D0008091050180958093050180E090E0E0ED4A
:10F4E000F7E03197F1F70196883C9105C1F78091DB
:10F4F000C00087FFEDCF1092050137C08FEF8093DA
:10F5000007010FC08091080180958093080180E079
:10F5100090E0E0EDF7E03197F1F70196883C910536
:10F52000C1F78091C00087FFEDCF109208011DC088
:10F530008FEF80930A010FC080910B01809580931B
:10F540000B0180E090E0E0EDF7E03197F1F70196F4
:10F55000883C9105C1F78091C00087FFEDCF1092E4
:10F560000B0103C085E292EEEEC98091C00087FFD7
:10F57000FCCF8091C600EAC988E392EEE4C98CE131
:10F5800091EEE1C988249924933011F1943028F444
:10F59000913089F09230B8F408C0953061F195301F
:10F5A000F0F0963009F048C043C02B3109F042C951
:10F5B00091E06BE13FC96227C15DDE4F2883CF52E6
:10F5C000D14092E037C9B22FA0E0622793E032C960
:10F5D000822F90E0A82BB92B622794E02BC92E3004
:10F5E00009F039C3622795E0C05DDE4F19821882A9
:10F5F000C053D1401FC9E1E0F0E0EC0FFD1FC05D3A
:10F60000DE4F08811981C053D140E00FF11F2083E4
:10F610000F5F1F4FC05DDE4F19830883C053D14079
:10F6200062270A171B0709F005C9D80196E002C92D
:10F63000261709F010C303C0973009F0FBC87724E0
:10F640009981933109F412C19431C8F4963009F4C8
:10F65000D8C0973050F4923009F406C1933009F4C1
:10F660006DC0913009F059C253C0913109F477C08F
:10F67000923108F0BBC0903109F04FC2F5C098310B
:10F6800009F487C0993150F4953109F4EFC09531F0
:10F6900008F4C6C1963109F040C2C2C19A3109F4DA
:10F6A0006CC09A3108F491C09B3109F45BC09D3164
:10F6B00009F033C29D81903359F48F81882311F46E
:10F6C0009EE11CC0813011F091E018C098E916C08D
:10F6D000892F807591F0903539F4E0E0F0E089E011
:10F6E0008093570094910AC0983539F4E3E0F0E034
:10F6F00089E080935700949101C090E01A821B82A8
:10F700008D818C831D829E831F8227E030E009C299
:10F710001A8288E08B8381E48C8386E58D8382E581
:10F720008E8389E48F8383E5888780E589878FE5E9
:10F730008A8782E38B872BE030E0F3C18A818139AD
:10F7400041F0823941F0803911F48FE005C080E04A
:10F7500003C082E001C08AE01A828B8344C0772410
:10F76000739482C08D81882311F48EE12CC0813086
:10F7700011F081E028C088E926C01A82E1E0F0E0BB
:10F7800089E08093570084918B831C8224E030E0D1
:10F79000C8C18B81803589F48C81883039F4E2E0EE
:10F7A000F0E089E08093570084910DC0E0E0F0E044
:10F7B00089E080935700849106C0E3E0F0E089E09F
:10F7C0008093570084911A82DFCF8D81836C99E0FA
:10F7D000E1E0F0E0082E90935700E89507B600FCB2
:10F7E000FDCF1A821B8223E030E09BC180EC8A832C
:10F7F000CE5CDE4F188219821A821B82C253D1401E
:10F800008EC18A8190E0A0E0B0E0582F44273327D2
:10F8100022278B8190E0A0E0B0E0DC0199278827C7
:10F82000282B392B4A2B5B2B8D8190E0A0E0B0E098
:10F83000282B392B4A2B5B2B8C8190E0A0E0B0E089
:10F84000BA2FA92F982F8827282B392B4A2B5B2BCF
:10F85000220F331F441F551FC05EDE4F288339839C
:10F860004A835B83C052D1401A8259C13A81C95C34
:10F87000DE4F3883C753D140CA5CDE4F1882C6536F
:10F88000D1408B81C82EDD24CA5CDE4F488159816E
:10F89000C653D140C42AD52A933109F082C0CE5C28
:10F8A000DE4F88819981AA81BB81C253D1408050AB
:10F8B000904CA340B04030F583E0CE5CDE4FE88052
:10F8C000F9800A811B81C253D140F70100935B008C
:10F8D00080935700E89507B600FCFDCFCE5CDE4F65
:10F8E000088119812A813B81C253D14000501F4FAA
:10F8F0002F4F3F4FCE5CDE4F088319832A833B8313
:10F90000C253D140C05EDE4F488159816A817B81FC
:10F91000C052D140DE011B9631E08C9111962C91A2
:10F9200011971296C75CDE4F2883C953D140C85C3B
:10F93000DE4F1882C853D14090E0C85CDE4FE881AA
:10F94000F981C853D1408E2B9F2B0C01FA01609393
:10F950005B0030935700E89511244E5F5F4F6F4F67
:10F960007F4F0EEFE02E0FEFF02ECE0CDF1CC114F8
:10F97000D10499F685E0C05EDE4F088119812A81A5
:10F980003B81C052D140F80120935B008093570027
:10F99000E89507B600FCFDCF81E180935700E8951C
:10F9A00035C0C05EDE4F88819981AA81BB81C0527B
:10F9B000D140B695A795979587957C018601ABE0D8
:10F9C000AA2EB12CAC0EBD1E0BC0D5016D915D01F0
:10F9D000C7010F947FFE0894E11CF11C01501040F8
:10F9E0000115110591F7A60160E070E0440F551F65
:10F9F000661F771FC05EDE4FE880F9800A811B8199
:10FA0000C052D1404E0D5F1D601F711F1A82C05E33
:10FA1000DE4F488359836A837B83C052D1407FC0C5
:10FA2000FA80C55CDE4FF882CB53D140C65CDE4F16
:10FA30001882CA53D1408B81C82EDD24C65CDE4FAC
:10FA400008811981CA53D140C02AD12A1A828981DA
:10FA5000BE016D5F7F4F843121F59601C05EDE4FA0
:10FA6000E880F9800A811B81C052D1400BBFF701A9
:10FA700087919691DB018C9311969C936E5F7F4FDB
:10FA8000D801C7010296A11DB11DC05EDE4F88835B
:10FA90009983AA83BB83C052D14022503040F1F6F3
:10FAA00036C0C05EDE4F288139814A815B81C052F9
:10FAB000D1400894C108D108760100E010E0089414
:10FAC000C11CD11C0894E11CF11C011D111DE20E8A
:10FAD000F31E041F151F21BDBB27A52F942F832FB5
:10FAE00082BD2F5F3F4F4F4F5F4FF89A80B5DB01CC
:10FAF0008D93BD012E153F054007510761F7C05E8C
:10FB0000DE4F288339834A835B83C052D1409601FC
:10FB10002D5F3F4FFB01108204C080EC8A8322E0FE
:10FB200030E08BE18093C6008091C00086FFFCCF5F
:10FB30008091C00080648093C000C15DDE4FF88179
:10FB4000CF52D140F093C6008091C00086FFFCCF19
:10FB50008091C00080648093C000432F3093C60022
:10FB60008091C00086FFFCCF8091C00080648093AC
:10FB7000C000922F2093C6008091C00086FFFCCF6A
:10FB80008091C00080648093C0008EE08093C600A6
:10FB90008091C00086FFFCCF8091C000806480937C
:10FBA000C00065E1C15DDE4FE880CF52D1406E25D7
:10FBB00069276427FE01319610C090819093C6009A
:10FBC0008091C00086FFFCCF31968091C000806498
:10FBD0008093C0006927215030402115310569F715
:10FBE0006093C6008091C00086FFFCCF8091C0006A
:10FBF00080648093C00085B1805885B9772081F4F6
:10FC0000C15DDE4F0881CF52D1400F5FC15DDE4F35
:10FC10000883CF52D14090E0A0E0B0E00D941AF4F8
:10FC200027982F9880E090E020ED37E0F901319798
:10FC3000F1F7019684369105C9F700008091C00064
:10FC40008D7F8093C00081E180935700E895EE2777
:10FC5000FF270994FFCF90E00D941AF497FB092E2B
:10FC600007260AD077FD04D02ED006D000201AF443
:10FC7000709561957F4F0895F6F7909581959F4F08
:10FC80000895A1E21A2EAA1BBB1BFD010DC0AA1FDD
:10FC9000BB1FEE1FFF1FA217B307E407F50720F0F5
:10FCA000A21BB30BE40BF50B661F771F881F991F70
:10FCB0001A9469F760957095809590959B01AC01B9
:10FCC000BD01CF010895AA1BBB1B51E107C0AA1FAC
:10FCD000BB1FA617B70710F0A61BB70B881F991FED
:10FCE0005A95A9F780959095BC01CD010895F99991
:10FCF000FECF92BD81BDF89A992780B50895262F31
:10FD0000F999FECF1FBA92BD81BD20BD0FB6F89400
:0EFD1000FA9AF99A0FBE01960895F894FFCF63
:040000033000E000E9
:00000001FF