:100000003DC100006CC100006AC1000068C1000071
:1000100066C1000064C1000062C1000060C1000050
:100020005EC100005CC100005AC1000058C1000060
:1000300056C1000054C1000052C1000050C1000070
:100040004EC100004CC100004AC1000048C1000080
:1000500046C1000044C1000042C100000C94940C51
:100060003EC100008DC5000062C5000038C100001F
:1000700036C1000034C1000032C1000030C10000B0
:100080002EC100002CC100002AC1000028C10000C0
:1000900025C50000FAC4000022C1000020C10000F4
:1000A0001EC100001CC100001AC1000018C10000E0
:1000B00016C1000014C1000012C1000010C10000F0
:1000C0000EC100000CC100000AC1000008C1000000
:1000D00006C1000004C10000AFC4000084C40000D9
:1000E000FEC0000018061B060A060E06120652067F
:1000F0001F06230629062D06310637063B063F0656
:100100005206450649064D06036EDB363D9A99991F
:10011000993DABAAAA2A3E000000803F084AD73B7F
:100120003BCE016E84BCBFFDC12F3D6C74319ABDC6
:1001300056833DDA3D00C77F11BED9E4BB4C3E91EA
:100140006BAAAABE000000803F072C7AA5BA6CC536
:1001500090DA3B9365FC8BBC53F810FD3C569283C0
:100160004DBD879D3AB63DCBC9BF5BBE73DA0FC9A3
:100170003F0000002100240027002A002D0030004D
:10018000330001010000040107010A010000220000
:10019000250028002B002E00310034000201000051
:1001A000050108010B0105050505070508080808F4
:1001B000020202020A0A08080404040401010101FF
:1001C00001010101030303030303030304070707FA
:1001D0000C0C0C0C0C0C0C0C02020202060606069F
:1001E000060606060B0B0B0B0B0B0B0B010210206C
:1001F000200808102040102040800201020108045D
:1002000002010102040810204080804020100804F0
:100210000201800402018040201008040201080449
:10022000020101020408102040800102040810208D
:10023000408000000A0B02090C0D0E0807030401A0
:1002400000000000000000000000000000000000AE
:10025000000000000000000000000000000012117B
:10026000100000000000000000000000000000007E
:1002700000000000000000005B1D5A1D11241FBE7D
:10028000CFEFD1E2DEBFCDBF00E00CBF12E0A0E0B7
:10029000B2E0E2E5F8E400E00BBF02C007900D9287
:1002A000A831B107D9F726E0A8E1B2E001C01D925C
:1002B000A332B207E1F711E0CDE3D1E000E006C0E0
:1002C00021970109802FFE010E94DF22CC33D10744
:1002D00080E00807A9F70E94A81C0C94182490CE6F
:1002E000CF92DF92EF92FF920F931F93CF93DF9302
:1002F0006C017A018B01C0E0D0E0CE15DF0589F0FA
:10030000D8016D918D01D601ED91FC910190F081A4
:10031000E02DC6011995892B11F47E0102C02196AA
:10032000ECCFC701DF91CF911F910F91FF90EF901C
:10033000DF90CF900895FC01A089B1898C91A689A6
:10034000B78982FD0FC09C91818D8F5F8F73228D45
:10035000821749F0218DDF01A20FB11D5D969C939C
:10036000818F08958C910895089580E090E008951C
:10037000FC01538D448D252F30E0842F90E0821BAB
:10038000930B541710F0CF96089501970895FC0130
:10039000918D828D981761F0828DDF01A80FB11DBC
:1003A0005D968C91928D9F5F9F73928F90E00895E0
:1003B0008FEF9FEF0895FC01918D828D981731F09A
:1003C000828DE80FF11D858D90E008958FEF9FEFEE
:1003D0000895FC01918D228D892F90E0805C9F4FC4
:1003E000821B91098F73992708958BE593E0F1DFC4
:1003F00021E0892B09F420E0822F08958EEB92E012
:10040000E8DF21E0892B09F420E0822F089581E2C2
:1004100092E0DFDF21E0892B09F420E0822F0895AC
:10042000FC01848DDF01A80FB11DA35ABF4F2C9191
:10043000848D90E001968F739927848FA689B78960
:100440002C93A089B1898C9180648C93938D848D39
:10045000981306C00288F389E02D80818F7D808308
:100460000895EF92FF920F931F93CF93DF93EC01C8
:1004700081E0888F9B8D8C8D981305C0E889F98960
:10048000808185FD23C0F62E0B8D10E00F5F1F4F7E
:100490000F731127E02E8C8DE8120BC00FB607FCEE
:1004A000FACFE889F989808185FFF5CFCE01B8DFE1
:1004B000F2CF8B8DFE01E80FF11DE35AFF4FF08262
:1004C0000B8FEA89FB898081806207C0EE89FF89F2
:1004D0006083E889F98980818064808381E090E08D
:1004E000DF91CF911F910F91FF90EF900895CF93DF
:1004F000DF93EC01888D8823C1F0EA89FB89808134
:1005000085FD05C0A889B9898C9186FD0EC00FB6FE
:1005100007FCF5CF808185FFF2CFA889B9898C913E
:1005200085FFEDCFCE017CDFE8CFDF91CF9108953D
:1005300080E090E0892B19F06ADF81111BC080E018
:1005400090E0892B19F05ADF811117C080E090E00C
:10055000892B41F080E090E0892B21F00E9400007F
:1005600081110EC080E090E0892B79F03EDF81118F
:100570000AC008950E940000E2CF0E940000E6CF6A
:100580000E940000EFCF0C94000008953FB7F8944C
:1005900080911D0290911E02A0911F02B091200235
:1005A00026B5A89B05C02F3F19F00196A11DB11DCE
:1005B0003FBFBA2FA92F982F8827820F911DA11D09
:1005C000B11DBC01CD0142E0660F771F881F991F46
:1005D0004A95D1F708950E9414244F925F926F922A
:1005E0007F928F929F92AF92BF92EF92FF920F9362
:1005F0001F93CF93DF93CDB7DEB72B970FB6F89449
:10060000DEBF0FBECDBF7C014A015B01280139016D
:10061000DC0117962D913D914D915C911A97C50182
:10062000B4010E94032287FD5BC0F701238134815E
:1006300045815681C501B4010E94F11F18160CF4C2
:100640004FC0D7011B962D913D914D915C911E9706
:10065000C301B2010E94F11F18160CF441C02EE72D
:100660003AEA4AE25EE3C301B2010E940E2228EF99
:1006700033E543EE5DE30E94F51F0E945D208B0190
:1006800021EE3AE744E95EE3C501B4010E94F51F9B
:100690000E945D20F70182810190F081E02D99E2B6
:1006A000980F960F900F970F910F909590832FEFC3
:1006B00029832A838B8387E08C8384E08D838EE17A
:1006C0008E836F83788709871A879B874BE050E07A
:1006D000BE016F5F7F4FCF010E946D1C81E001C0A2
:1006E00080E02B960FB6F894DEBF0FBECDBFDF9132
:1006F000CF911F910F91FF90EF90BF90AF909F907F
:100700008F907F906F905F904F900895CF93DF937D
:10071000EC018A819B81009711F00E947C238C81DF
:100720009D81009711F00E947C238E819F8100970C
:1007300011F00E947C2388859985009749F48A8569
:100740009B85892B39F48C859D85892B19F40EC0E6
:100750000E947C238A859B85009711F00E947C2350
:100760008C859D85009711F00E947C238E859F8546
:10077000009749F488899989892B39F48A899B895A
:10078000892B19F410C00E947C23888999890097CD
:1007900011F00E947C238A899B89009721F0DF91C8
:1007A000CF910C947C23DF91CF9108958F929F92EB
:1007B000AF92BF92CF92DF92EF92FF920F931F936F
:1007C000CF93DF93EC018B016A0179017983688310
:1007D000613C8FE1780730F4CB01880F991F880FB7
:1007E000991F02C08FEF9FEF0E94E7224C018A837E
:1007F0009B82013CEFE11E0730F4C801880F991F6E
:10080000880F991F02C08FEF9FEF0E94E7225C01C3
:100810008C83BD82013CFFE11F0730F4C801880FC3
:10082000991F880F991F02C08FEF9FEF0E94E72248
:100830008E839F83A401D5019C0180E090E0801706
:10084000910794F4FA011192119211921192AF0151
:100850001D921D921D921D92F901119211921192F9
:1008600011929F010196EBCFCA94CD2809F050C098
:10087000013C8FE1180730F4C801880F991F880FD9
:10088000991F02C08FEF9FEF0E94E7225C018887CB
:10089000B986013CEFE11E0730F4C801880F991FAB
:1008A000880F991F02C08FEF9FEF0E94E7226C0113
:1008B0008A87DB86013CFFE11F0730F4C801880FFF
:1008C000991F880F991F02C08FEF9FEF0E94E722A8
:1008D000382F8C879D8781E08C8BB501D601432F03
:1008E000592F80E090E080179107CCF4FB01119222
:1008F000119211921192BF011D921D921D921D9293
:10090000FA011192119211921192AF010196EBCF5F
:10091000198618861B861A861D861C861C8AEA94F0
:10092000EF2809F04CC0013C8FE1180730F4C801F2
:10093000880F991F880F991F02C08FEF9FEF0E94A9
:10094000E7226C018E87DF86013CEFE11E0730F461
:10095000C801880F991F880F991F02C08FEF9FEF62
:100960000E94E7227C01888BF98A013CFFE11F0786
:1009700030F4C801880F991F880F991F02C08FEFAC
:100980009FEF0E94E722382F8A8B9B8B81E08D8B13
:10099000D601F701C32FD92F80E090E0801791078F
:1009A000ACF41D921D921D921D9211921192119202
:1009B000119219921992199219920196EFCF1F86EE
:1009C0001E86198A188A1B8A1A8A1D8ADF91CF917E
:1009D0001F910F91FF90EF90DF90CF90BF90AF905D
:1009E0009F908F9008951F920F920FB60F9211242F
:1009F0000BB60F922F933F934F935F936F937F9319
:100A00008F939F93AF93BF93EF93FF938BE593E007
:100A100007DDFF91EF91BF91AF919F918F917F91F2
:100A20006F915F914F913F912F910F900BBE0F905F
:100A30000FBE0F901F9018951F920F920FB60F9236
:100A400011240BB60F922F933F934F935F936F93A5
:100A50007F938F939F93AF93BF93EF93FF938BE518
:100A600093E069DCFF91EF91BF91AF919F918F91DE
:100A70007F916F915F914F913F912F910F900BBE9E
:100A80000F900FBE0F901F9018951F920F920FB6E8
:100A90000F9211240BB60F922F933F934F935F93B6
:100AA0006F937F938F939F93AF93BF93EF93FF9336
:100AB0008EEB92E0B5DCFF91EF91BF91AF919F91EA
:100AC0008F917F916F915F914F913F912F910F90F7
:100AD0000BBE0F900FBE0F901F9018951F920F9294
:100AE0000FB60F9211240BB60F922F933F934F9393
:100AF0005F936F937F938F939F93AF93BF93EF9386
:100B0000FF938EEB92E017DCFF91EF91BF91AF91D5
:100B10009F918F917F916F915F914F913F912F9115
:100B20000F900BBE0F900FBE0F901F9018951F9245
:100B30000F920FB60F9211240BB60F922F933F9383
:100B40004F935F936F937F938F939F93AF93BF93D5
:100B5000EF93FF9381E292E063DCFF91EF91BF910D
:100B6000AF919F918F917F916F915F914F913F9145
:100B70002F910F900BBE0F900FBE0F901F901895E6
:100B80001F920F920FB60F9211240BB60F922F9354
:100B90003F934F935F936F937F938F939F93AF9305
:100BA000BF93EF93FF9381E292E0C5DBFF91EF915A
:100BB000BF91AF919F918F917F916F915F914F9175
:100BC0003F912F910F900BBE0F900FBE0F901F9073
:100BD0001895362F90E0FC01EE5CFD4F4491FC012E
:100BE000E451FE4F2491FC01EA55FE4F9491992364
:100BF00009F46BC0442309F455C050E0FA01319761
:100C0000E231F10508F04EC08827EE58FF4F8F4FB4
:100C10000C94DF22809180008F7707C08091800044
:100C20008F7D03C080918000877F809380003AC0D1
:100C300084B58F7702C084B58F7D84BD33C0809129
:100C4000B0008F7703C08091B0008F7D8093B0009B
:100C500029C0809190008F7707C0809190008F7D90
:100C600003C080919000877F809390001BC080918B
:100C7000A0008F7707C08091A0008F7D03C0809176
:100C8000A000877F8093A0000DC0809120018F7706
:100C900007C0809120018F7D03C080912001877F54
:100CA00080932001E92FF0E0EE0FFF1FE457FE4F85
:100CB000A591B4918FB7F894EC91311103C02095B0
:100CC0002E2301C02E2B2C938FBF0895CF93DF933B
:100CD000EC0160E08CE07DDF40E050E066E173E431
:100CE000CE0102960E9476164EED52EC6FEE72E443
:100CF000CE0141960E94761647EC5BE86EEA72E4FC
:100D0000CE0180960E947616C95BDF4F81E090E0AD
:100D100099838883DF91CF910895CF93DF9390E0FB
:100D2000FC01E451FE4F2491FC01EA55FE4F8491F1
:100D3000882361F190E0880F991FFC01EE58FE4F67
:100D4000C591D491FC01E457FE4FA591B491611176
:100D500009C09FB7F8948881209582238883EC91FD
:100D60002E230BC0623061F49FB7F8943881822F34
:100D7000809583238883EC912E2B2C939FBF06C0F4
:100D80008FB7F894E8812E2B28838FBFDF91CF9106
:100D900008958F929F92AF92BF92CF92DF92EF927F
:100DA000FF926B017C01F2DB4B015C01C114D104A9
:100DB000E104F104E9F0EADBDC01CB0188199909CF
:100DC000AA09BB09883E9340A105B10578F321E04B
:100DD000C21AD108E108F10888EE880E83E0981E57
:100DE000A11CB11CC114D104E104F10421F7DECF30
:100DF000FF90EF90DF90CF90BF90AF909F908F903B
:100E000008952F923F924F925F926F927F928F92AE
:100E10009F92AF92BF92CF92DF92EF92FF920F9389
:100E20001F93CF93DF93CDB7DEB7CE59D1090FB65D
:100E3000F894DEBF0FBECDBFC756DF4F68837983FE
:100E40008A839B83C959D040322E232EC356DF4F4D
:100E50004883CD59D040C256DF4F5883CE59D04039
:100E60005E018FE6A80EB11C21E030E041E050E0C9
:100E700068E070E0C5019ADC2E0199E5490E511C2D
:100E800021E030E041E050E068E070E0C2018EDC3B
:100E900021E030E041E050E068E070E0CE018D5BA1
:100EA0009F4F84DC4E01ADE28A0E911C21E030E0C0
:100EB00041E050E068E070E0C40178DC3E01B7E159
:100EC0006B0E711C21E030E041E050E068E070E022
:100ED000C3016CDC21E030E041E050E068E070E00C
:100EE000CE01019663DCCB57DF4FB982A882C5588B
:100EF000D040C957DF4F99828882C758D040C75722
:100F0000DF4F79826882C958D040C557DF4F598278
:100F10004882CB58D04083E490E08C0F9D1FC3578C
:100F2000DF4F99838883CD58D040A1E0B0E0AC0F6B
:100F3000BD1FC157DF4FB983A883CF58D0408091E0
:100F40001406909115068A30910509F4A4C08B30DF
:100F5000910509F4A7C2099709F0B1C482E594E0AC
:100F6000B5DE8BE994E0B2DE84EE94E0AFDE8DE294
:100F700095E0ACDE86E795E0A9DE8FEB95E0A6DE96
:100F80006AEF70E080E090E004DFC12CD12C7601A4
:100F900097018601B701A60181E30E94A3125201C5
:100FA00097018601B701A60184E30E94A312CE0136
:100FB0008D5B9F4F5C0197018601B701A60185E318
:100FC0000E94A3129F928F92C256DF4F9881CE59F2
:100FD000D0409F93C356DF4FA881CD59D040AF93E7
:100FE0002F923F92C756DF4F88809980AA80BB809E
:100FF000C959D04097018601B701A60182E37BD78A
:101000007F926F92C256DF4FB881CE59D040BF93C6
:10101000C356DF4F8881CD59D0408F932F923F9296
:10102000C756DF4F88809980AA80BB80C959D040BD
:1010300097018601B701A60183E35DD7A1E0B0E087
:10104000AC0FBD1FBF93AF93C256DF4FB881CE59CF
:10105000D040BF93C356DF4F8881CD59D0408F9386
:101060002F923F92C756DF4F88809980AA80BB801D
:10107000C959D04097018601B701A60186E33BD745
:10108000CE018B579F4F0E94F0160FB6F894DEBF2B
:101090000FBECDBF14C48091E2049091E304019788
:1010A00049F58091CA049091CB04A091CC04B091F1
:1010B000CD04CF56DF4F88839983AA83BB83C15960
:1010C000D0408091CE049091CF04A091D004B091F3
:1010D000D104CB56DF4F88839983AA83BB83C5593C
:1010E000D0404090D2045090D3046090D4047090CB
:1010F000D50413C0412C512C3201CB56DF4F48820E
:1011000059826A827B82C559D040CF56DF4F4882D0
:1011100059826A827B82C159D040540173016201B5
:10112000CB56DF4F088119812A813B81C559D040B8
:10113000CF56DF4F488159816A817B81C159D040A8
:1011400082E30E94A31280912B0590912C050197B8
:1011500041F58091130590911405A0911505B0916A
:101160001605CF56DF4F88839983AA83BB83C15965
:10117000D0408091170590911805A0911905B09164
:101180001A05CB56DF4F88839983AA83BB83C55941
:10119000D04040901B0550901C0560901D0570903C
:1011A0001E05DE0157965D0173016201CB56DF4FCC
:1011B000088119812A813B81C559D040CF56DF4F24
:1011C000488159816A817B81C159D04083E30E9463
:1011D000A3128091060690910706019741F5809130
:1011E000EE059091EF05A091F005B091F105CF5675
:1011F000DF4F88839983AA83BB83C159D0408091F4
:10120000F2059091F305A091F405B091F505CB5648
:10121000DF4F88839983AA83BB83C559D040409010
:10122000F6055090F7056090F8057090F905DE011D
:1012300011965D0173016201CB56DF4F0881198160
:101240002A813B81C559D040CF56DF4F4881598113
:101250006A817B81C159D04086E30E94A3128091AC
:10126000990490919A04019741F58091810490919D
:101270008204A0918304B0918404CF56DF4F888309
:101280009983AA83BB83C159D040809185049091F2
:101290008604A0918704B0918804CB56DF4F8883E1
:1012A0009983AA83BB83C559D0404090890450904C
:1012B0008A0460908B0470908C04CE0181599F4FFA
:1012C0009F938F93C256DF4F9881CE59D0409F9302
:1012D000C356DF4FA881CD59D040AF932F923F9294
:1012E000C756DF4F88809980AA80BB80C959D040FB
:1012F00073016201CB56DF4F088119812A813B813E
:10130000C559D040CF56DF4F488159816A817B81D2
:10131000C159D04081E3EFD50F900F900F900F90FF
:101320000F900F908091740590917505019741F58C
:1013300080915C0590915D05A0915E05B0915F057F
:10134000CF56DF4F88839983AA83BB83C159D0408E
:101350008091600590916105A0916205B09163054F
:10136000CB56DF4F88839983AA83BB83C559D0406E
:101370004090640550906505609066057090670523
:10138000CE01875A9F4F9F938F93C256DF4F98810C
:10139000CE59D0409F93C356DF4FA881CD59D0403E
:1013A000AF932F923F92C756DF4F88809980AA80D3
:1013B000BB80C959D04073016201CB56DF4F088111
:1013C00019812A813B81C559D040CF56DF4F4881D2
:1013D00059816A817B81C159D04084E38CD50F90BB
:1013E0000F900F900F900F900F908091BD059091EE
:1013F000BE05019741F58091A5059091A605A091A4
:10140000A705B091A805CF56DF4F88839983AA839B
:10141000BB83C159D0408091A9059091AA05A091A4
:10142000AB05B091AC05CB56DF4F88839983AA8377
:10143000BB83C559D0404090AD055090AE0560903B
:10144000AF057090B005CE018D5B9F4F9F938F933A
:10145000C256DF4F9881CE59D0409F93C356DF4F7D
:10146000A881CD59D040AF932F923F92C756DF4FFE
:1014700088809980AA80BB80C959D04073016201DD
:10148000CB56DF4F088119812A813B81C559D04055
:10149000CF56DF4F488159816A817B81C159D04045
:1014A00085E301C28091990490919A04019749F5CE
:1014B0008091810490918204A0918304B09184046E
:1014C000CB56DF4F88839983AA83BB83C559D0400D
:1014D0008091850490918604A0918704B09188043E
:1014E000CF56DF4F88839983AA83BB83C159D040ED
:1014F0004090890450908A0460908B0470908C0412
:1015000013C0412C512C3201CF56DF4F48825982F3
:101510006A827B82C159D040CB56DF4F48825982C4
:101520006A827B82C559D04073016201CF56DF4F7A
:10153000088119812A813B81C159D040CB56DF4FA8
:10154000488159816A817B81C559D04081E3FBD7AD
:101550008091740590917505019741F580915C0526
:1015600090915D05A0915E05B0915F05CB56DF4F70
:1015700088839983AA83BB83C559D0408091600535
:1015800090916105A0916205B0916305CF56DF4F40
:1015900088839983AA83BB83C159D0404090640556
:1015A000509065056090660570906705DE01A75A4A
:1015B000BF4F5D0173016201CF56DF4F0881198172
:1015C0002A813B81C159D040CB56DF4F4881598198
:1015D0006A817B81C559D04084E3B5D78091BD0530
:1015E0009091BE05019741F58091A5059091A605C2
:1015F000A091A705B091A805CB56DF4F88839983AA
:10160000AA83BB83C559D0408091A9059091AA05B2
:10161000A091AB05B091AC05CF56DF4F888399837D
:10162000AA83BB83C159D0404090AD055090AE0510
:101630006090AF057090B005DE01AD5BBF4F5D01FE
:1016400073016201CF56DF4F088119812A813B81E6
:10165000C159D040CB56DF4F488159816A817B8187
:10166000C559D04085E36FD78091E2049091E3049F
:10167000019741F58091CA049091CB04A091CC04CC
:10168000B091CD04CB56DF4F88839983AA83BB8367
:10169000C559D0408091CE049091CF04A091D00440
:1016A000B091D104CF56DF4F88839983AA83BB833F
:1016B000C159D0404090D2045090D3046090D404DB
:1016C0007090D504CE018D969F938F93C256DF4FB5
:1016D0009881CE59D0409F93C356DF4FA881CD59F2
:1016E000D040AF932F923F92C756DF4F88809980AA
:1016F000AA80BB80C959D04073016201CF56DF4F29
:10170000088119812A813B81C159D040CB56DF4FD6
:10171000488159816A817B81C559D04082E3EBD3EE
:101720000F900F900F900F900F900F9080912B05BE
:1017300090912C05019741F5809113059091140526
:10174000A0911505B0911605CB56DF4F888399837C
:10175000AA83BB83C559D040809117059091180585
:10176000A0911905B0911A05CF56DF4F8883998350
:10177000AA83BB83C159D04040901B0550901C05E3
:1017800060901D0570901E05CE0147969F938F9324
:10179000C256DF4F9881CE59D0409F93C356DF4F3A
:1017A000A881CD59D040AF932F923F92C756DF4FBB
:1017B00088809980AA80BB80C959D040730162019A
:1017C000CF56DF4F088119812A813B81C159D04012
:1017D000CB56DF4F488159816A817B81C559D04002
:1017E00083E389D30F900F900F900F900F900F907D
:1017F0008091060690910706019741F58091EE05CC
:101800009091EF05A091F005B091F105CB56DF4F17
:1018100088839983AA83BB83C559D0408091F20500
:101820009091F305A091F405B091F505CF56DF4FE7
:1018300088839983AA83BB83C159D0404090F60521
:101840005090F7056090F8057090F905CE0101966B
:101850009F938F93C256DF4F9881CE59D0409F936C
:10186000C356DF4FA881CD59D040AF932F923F92FE
:10187000C756DF4F88809980AA80BB80C959D04065
:1018800073016201CF56DF4F088119812A813B81A4
:10189000C159D040CB56DF4F488159816A817B8145
:1018A000C559D04086E327D3CE018B579F4F0E9466
:1018B000F0160F900F900F900F900F900F90CE0199
:1018C00001960E948603CE0147960E948603CE01B0
:1018D0008D960E948603CE018D5B9F4F0E948603EA
:1018E000CE01875A9F4F0E948603CE0181599F4F98
:1018F0000E948603C256DF4F0FB6F894DEBF0FBEBC
:10190000CDBFDF91CF911F910F91FF90EF90DF90AE
:10191000CF90BF90AF909F908F907F906F905F908F
:101920004F903F902F9008951F920F920FB60F92F5
:1019300011242F933F938F939F93AF93BF938091E5
:10194000190290911A02A0911B02B0911C023091D1
:10195000180223E0230F2D3720F40196A11DB11D9D
:1019600005C026E8230F0296A11DB11D2093180281
:101970008093190290931A02A0931B02B0931C0249
:1019800080911D0290911E02A0911F02B091200231
:101990000196A11DB11D80931D0290931E02A0937C
:1019A0001F02B0932002BF91AF919F918F913F9101
:1019B0002F910F900FBE0F901F901895AF92BF926E
:1019C000CF92DF92EF92FF920F931F93FC018081E1
:1019D00091816817790734F5A281B381109711F1CD
:1019E000848195810097F1F0660F771F660F771F4E
:1019F000A60FB71F2D933D934D935C931397DC0176
:101A0000A60FB71FED92FD920D931C93139786813D
:101A10009781FC01E60FF71FA082B182C282D382B8
:101A200081E001C080E01F910F91FF90EF90DF9067
:101A3000CF90BF90AF900895DC012D913C9111970C
:101A4000621773077CF4660F771F660F771F169671
:101A5000ED91FC911797E60FF71F608171818281EC
:101A60009381089560E070E080E89FEB0895DC01C9
:101A70002D913C911197621773077CF4660F771FC5
:101A8000660F771F1496ED91FC911597E60FF71FDF
:101A90006081718182819381089560E070E080E8C7
:101AA0009FEB0895DC012D913C911197621773070C
:101AB0007CF4660F771F660F771F1296ED91FC91ED
:101AC0001397E60FF71F60817181828193810895DA
:101AD00060E070E080E89FEB08956F927F92AF9294
:101AE000BF92CF92DF92EF92FF920F931F93DC0190
:101AF0008D919C911197681779076CF51E96ED9161
:101B0000FC911F97309739F150966D907C905197CA
:101B10006114710401F152968D919C915397009735
:101B2000D1F0660F771F660F771FE60FF71F208330
:101B3000318342835383F301E60FF71FE082F18282
:101B400002831383FC01E60FF71FA082B182C282D9
:101B5000D38281E001C080E01F910F91FF90EF9050
:101B6000DF90CF90BF90AF907F906F9008956F926D
:101B70007F92AF92BF92CF92DF92EF92FF920F933C
:101B80001F93DC018D919C911197681779076CF573
:101B90001896ED91FC911997309739F11A966D903E
:101BA0007C901B976114710401F11C968D919C919E
:101BB0001D970097D1F0660F771F660F771FE60F0E
:101BC000F71F2083318342835383F301E60FF71F0E
:101BD000E082F18202831383FC01E60FF71FA082EB
:101BE000B182C282D38281E001C080E01F910F9157
:101BF000FF90EF90DF90CF90BF90AF907F906F906D
:101C000008950F931F93CF93DF9300D000D0CDB7EB
:101C1000DEB78C01FC01228133819FEF99839A8387
:101C20008EEF8B8382E08C8385E08D838AEF8E83B9
:101C300046E050E0BE016F5F7F4FC9010E946D1CFE
:101C4000F801E95BFF4F808191810297F1F0F80183
:101C500083AD94ADA5ADB6AD87A790ABA1ABB2AB4C
:101C6000FF9680819181A281B381F80183AB94AB0F
:101C7000A5ABB6ABED5BFF4F80819181A281B381B3
:101C8000F80187AB90AFA1AFB2AF26960FB6F8942C
:101C9000DEBF0FBECDBFDF91CF911F910F91089591
:101CA0002F923F924F925F926F927F928F929F926C
:101CB000AF92BF92CF92DF92EF92FF920F931F935A
:101CC000CF93DF9300D01F92CDB7DEB71C012A015E
:101CD0003B0109831A832B833C8320E030E040E8FA
:101CE0005FEBC301B2010E94F11F882309F47CC09D
:101CF00095018401B301A201C10102960E94ED0287
:101D0000811108C061E08CE00E94E90582E0A82E04
:101D1000B12C02C0A12CB12C20E030E040E85FEBF8
:101D200069817A818B819C810E94F11F8823F9F05F
:101D30000A8D1B8D2C8D3D8D49815A816B817C8153
:101D4000C10141960E94ED02811107C061E08CE063
:101D50000E94E90584E0A80EB11C20E030E040E8D4
:101D60005FEBC301B2010E94F11F8823A1F00E8D29
:101D70001F8D28A139A1B701A601C10180960E943B
:101D8000ED02811108C061E08CE00E94E905E8E005
:101D9000AE0EB11C20C0A114B104E9F48AA19BA12C
:101DA000ACA1BDA1F10183AF94AFA5AFB6AFFF96D3
:101DB0008EA19FA1A8A5B9A580839183A283B38397
:101DC00034968AA59BA5ACA5BDA580839183A283EB
:101DD000B38381E018C0F101E95BFF4F82E090E03E
:101DE000918380838A2D0FC020E030E040E85FEBD4
:101DF00069817A818B819C810E94F11F882371F215
:101E0000A12CB12C95CF0F900F900F900F90DF91D8
:101E1000CF911F910F91FF90EF90DF90CF90BF90E7
:101E2000AF909F908F907F906F905F904F903F907A
:101E30002F9008950F93CF93DF93FC01EB017383F1
:101E40006283448340E050E066E973E4458356834F
:101E500067837087118612861386148680E090E06F
:101E6000ABE2B4E485879687A787B08BD28BC18B12
:101E7000238B448B558B668B778B108E118E128E35
:101E8000138E848F958FA68FB78FD1A3C0A302A383
:101E900043A354A365A376A317A210A611A612A666
:101EA00083A794A7A5A7B6A717A610AA11AA12AA36
:101EB00013AA14AA15AA16AA17AA10AE11AE12AE2A
:101EC00013AE14AE15AE16AEDF01DF961D921D9255
:101ED0001D921C92139714961D921D921D921C9296
:101EE0001397E95BFF4F82E090E091838083DF915D
:101EF000CF910F9108952F923F924F925F926F92E0
:101F00007F928F929F92AF92BF92CF92DF92EF9289
:101F1000FF920F931F93CF93DF93CDB7DEB7C954D2
:101F2000D1090FB6F894DEBF0FBECDBF89A34AA377
:101F30005BA36CA37DA30EA31FA328A739A7CAA6E2
:101F4000DBA6ECA6FDA6A596AEADBFADA5970D91FF
:101F50001C9101501109A396CCACDDACEEACFFACEA
:101F6000A397F7FAF094F7F8F094D501C401B058AC
:101F70008EA79FA7A8ABB9AB99A1933309F48EC0E4
:101F800078F5913309F45FC0923309F001C123EF72
:101F900034E045E35FE3C701B6010E940E226B0106
:101FA0007C0123EF34E045E35FE3C501B4010E9407
:101FB0000E22A70196010E94141F2AA13BA14CA149
:101FC0005DA10E94141F6D8F7E8F8F8F98A323EFCA
:101FD00034E045E35FE36EA57FA588A999A9BDC05C
:101FE000A9A1A53309F48AC008F46FC0A63309F08B
:101FF000CFC023EF34E045E35FE3C701B6010E94A1
:102000000E226B017C0123EF34E045E35FE36EA514
:102010007FA588A999A90E940E229058A701960130
:102020000E94131F2AA13BA14CA15DA10E94141F75
:102030006D8F7E8F8F8F98A323EF34E045E35FE3AE
:10204000C501B4018AC023EF34E045E35FE36EA528
:102050007FA588A999A90E940E224B015C0123EF5C
:1020600034E045E35FE3C701B6010E940E226B0135
:102070007C019B01AC01C501B4010E94141F2AA17F
:102080003BA14CA15DA10E94141F6D8F7E8F8F8F8D
:1020900098A3A7019601C501B4015CC0A5019401F4
:1020A0006AA17BA18CA19DA10E94131F6D8F7E8FC1
:1020B0008F8F98A3A3962CAD3DAD4EAD5FADA3978A
:1020C0006EA17FA188A599A552C0A50194016AA11E
:1020D0007BA18CA19DA10E94141F6D8F7E8F8F8F7D
:1020E00098A3A3962CAD3DAD4EAD5FADA3976EA169
:1020F0007FA188A599A50E94131F3BC023EF34E060
:1021000045E35FE3C701B6010E940E226B017C012B
:1021100023EF34E045E35FE36EA57FA588A999A985
:102120000E940E22A70196010E94131F2AA13BA123
:102130004CA15DA10E94141F6D8F7E8F8F8F98A37D
:1021400023EF34E045E35FE3C501B4010E940E22B2
:10215000A70196010E94131F06C00E940E22A7012C
:1021600096010E94141F2EA13FA148A559A50E94C7
:10217000141F698F7A8F8B8F9C8F20E030E0A9012C
:102180006AA57BA58CA59DA50E94141F2B013C016F
:102190002AA13BA14CA15DA16D8D7E8D8F8D98A153
:1021A0000E94131F4B015C012EA13FA148A559A518
:1021B000698D7A8D8B8D9C8D0E94131F6B017C0124
:1021C0002AA53BA54CA55DA5C301B2010E94131F22
:1021D000698F7A8F8B8F9C8FA5019401C501B40103
:1021E0000E940E222B013C01A7019601C701B601F6
:1021F0000E940E229B01AC01C301B2010E94141F78
:102200002B013C01298D3A8D4B8D5C8DCA01B901A2
:102210000E940E229B01AC01C301B2010E94141F57
:102220000E9475222B013C01B801110F880B990BFC
:102230000E9490209B01AC01C301B2010E94F51FD6
:102240006AAF7BAF8CAF9DAFA3019201C501B40112
:102250000E94F51F22966CAF7DAF8EAF9FAF229785
:10226000A3019201C701B6010E94F51F26966CAF2B
:102270007DAF8EAF9FAF2697A3019201698D7A8DB6
:102280008B8D9C8D0E94F51F2A966CAF7DAF8EAF13
:102290009FAF2A97212C312CA596EEADFFADA597C7
:1022A00080819181281639060CF032C1B101032CCE
:1022B000000C880B990B0E9490202AAD3BAD4CADD1
:1022C0005DAD0E940E226B017C0122962CAD3DADCE
:1022D0004EAD5FAD22970E940E229B01AC016AA118
:1022E0007BA18CA19DA10E94141F6EA77FA788AB24
:1022F00099AB26962CAD3DAD4EAD5FAD2697C7018F
:10230000B6010E940E229B01AC016EA17FA188A59F
:1023100099A50E94141F6AAB7BAB8CAB9DAB2A9630
:102320002CAD3DAD4EAD5FAD2A97C701B6010E9401
:102330000E229B01AC016AA57BA58CA59DA50E94E0
:10234000141F6EAB7FAB88AF99AFFE013D964F0176
:10235000CE0141965C01DE0155966D01EEA8FFA805
:1023600008AD19AD2AA93BA94CA95DA96EA57FA509
:1023700088A999A90E949A1A9401A501B60189A178
:102380000E94481AAD84BE84CF84D888E988FA8830
:102390000B891C892D893E894F89588DB101A596DD
:1023A0008EAD9FADA5970ADBA596EEADFFADA597C7
:1023B0008489882309F490C02114310459F4A12C94
:1023C000B12C650186017501A601950160E070E000
:1023D000CF0181C0810101501109B801A5968EADD0
:1023E0009FADA59729DB2D853E854F8558890E9495
:1023F000131F698F7A8F8B8F9C8F20E030E0A901AB
:102400000E94032218164CF0898D9A8DAB8DBC8DDD
:10241000B058898F9A8FAB8FBC8FB801A5968EADBF
:102420009FADA59724DB29893A894B895C890E9455
:10243000131F6D8F7E8F8F8F98A320E030E0A9014E
:102440000E94032218164CF08D8D9E8DAF8DB8A181
:10245000B0588D8F9E8FAF8FB8A3B801A5968EAD63
:102460009FADA5971FDB2D893E894F89588D0E940E
:10247000131F2B013C0120E030E0A9010E94032240
:10248000181624F077FA709477F87094DE0111969C
:102490004D01FE0135965F01CE0109966C01E98C74
:1024A000FA8C0B8D1C8D2D8D3E8D4F8D58A1C30147
:1024B000B20129D7A980BA80CB80DC80ED80FE8074
:1024C0000F81188529853A854B855C85B101A596D4
:1024D0008EAD9FADA5974BDBA596AEADBFADA597D5
:1024E00055968C915597882379F0AEA8BFA8C8ACB3
:1024F000D9ACEAA8FBA80CA91DA92EA53FA548A9FF
:1025000059A9B101CD01E9DABFEF2B1A3B0AC4CEBC
:1025100081E0C75BDF4F0FB6F894DEBF0FBECDBFC3
:10252000DF91CF911F910F91FF90EF90DF90CF90AF
:10253000BF90AF909F908F907F906F905F904F90E3
:102540003F902F9008952F923F924F925F926F92FB
:102550007F928F929F92AF92BF92CF92DF92EF9233
:10256000FF920F931F93CF93DF93CDB7DEB7CF5476
:10257000D1090FB6F894DEBF0FBECDBFD5012D90A7
:102580003C90B3E02B1631040CF495C3BE8EAD8E97
:10259000CBA6DCA6EDA6FEA60BAB1CAB2DAB3EABD3
:1025A0004FA758AB69AB7AAB2C968FAF2C978101B4
:1025B000015011099A01AB0160E070E0CB010E946B
:1025C000131F6B017C012BA93CA94DA95EA960E0FA
:1025D00070E0CB010E94131F6BA37CA38DA39EA36D
:1025E0002BA53CA54DA55EA560E070E0CB010E9447
:1025F000131F698F7A8F8B8F9C8FA7019601C7015C
:10260000B6010E940E224B015C012BA13CA14DA101
:102610005EA1CA01B9010E940E229B01AC01C50155
:10262000B4010E94141F4B015C01298D3A8D4B8D22
:102630005C8DCA01B9010E940E229B01AC01C5014B
:10264000B4010E94141F0E9475222B013C0120E05E
:1026500030E0A9010E94F11F811108C02DEB422E2C
:1026600027E3522E26E8622E25E3722EB801110FC1
:10267000880B990B0E9490209B01AC01C301B20111
:102680000E94F51F6BAF7CAF8DAF9EAFB10175950A
:102690006795072E000C880B990B0E9490204B0128
:1026A0005C0120E030E040E05FE30E94141F0E94E4
:1026B0005D200E9490209B01AC0160E070E080E210
:1026C00091E40E94F51F6FA378A789A79AA7A30199
:1026D0009201C701B6010E94F51F23966CAF7DAF32
:1026E0008EAF9FAF2397A30192016BA17CA18DA117
:1026F0009EA10E94F51F27966CAF7DAF8EAF9FAF56
:102700002797A3019201698D7A8D8B8D9C8D0E94F4
:10271000F51F2B966CAF7DAF8EAF9FAF2B97C5018A
:10272000B4010E94CB200E945D206BA37CA38DA3EB
:102730009EA3EBA1FCA1F8AFEFAB212C312C8FA90C
:1027400098AD821593050CF432C1B101032C000C35
:10275000880B990B0E9490204B015C012BAD3CAD86
:102760004DAD5EAD0E940E226B017C0123962CAD17
:102770003DAD4EAD5FAD23970E940E229B01AC0193
:102780006FA578A989A99AA90E94141F698F7A8FC9
:102790008B8F9C8F27962CAD3DAD4EAD5FAD2797AF
:1027A000C701B6010E940E229B01AC016BA97CA956
:1027B0008DA99EA90E94141F6F8F78A389A39AA345
:1027C00020E030E040E252E46BA57CA58DA59EA5FB
:1027D0002114310411F10E94131F2B013C012B968F
:1027E0002CAD3DAD4EAD5FAD2B97C701B6010E943C
:1027F0000E229B01AC01C301B2010E94141F6B01A8
:102800007C012FA138A549A55AA5C501B4010E9494
:102810000E229B01AC01C701B6010E94131F2B01C0
:102820003C019E01235F3F4F4901CE0141965C016F
:10283000DE0155966D01830172012F8D38A149A1EA
:102840005AA1698D7A8D8B8D9C8D74D69401A501CA
:10285000B6012C968FAD2C971BD6AD84BE84CF8449
:10286000D888E988FA880B891C892D893E894F8987
:10287000588DB1018D8D9E8DA1D863015201EF8CD1
:10288000F8A009A11AA1298D3A8D4B8D5C8DB1015B
:102890008D8D9E8D22D92114310451F4A12CB12C9F
:1028A000650186017501A601950160E070E078C0C0
:1028B000810101501109B8018D8D9E8DBDD82D85E6
:1028C0003E854F8558890E94131F698F7A8F8B8FA1
:1028D0009C8F20E030E0A9010E94032218164CF0E2
:1028E000898D9A8DAB8DBC8DB058898F9A8FAB8FA7
:1028F000BC8FB8018D8D9E8DBAD829893A894B89B4
:102900005C890E94131F6F8F78A389A39AA320E08C
:1029100030E0A9010E94032218164CF08F8D98A177
:10292000A9A1BAA1B0588F8F98A3A9A3BAA3B8013F
:102930008D8D9E8DB7D82D893E894F89588D0E94E7
:10294000131F2B013C0120E030E0A9010E9403226B
:10295000181624F077FA709477F87094DE011196C7
:102960004D01FE0135965F019E01275F3F4F6901D2
:10297000E98CFA8C0B8D1C8D2F8D38A149A15AA1A1
:10298000C301B201C0D4A980BA80CB80DC80ED80C5
:10299000FE800F81188529853A854B855C85B101BC
:1029A0008D8D9E8DE4D83FEF231A330AC8CEAD8DAE
:1029B000BE8D0D911C91B80117FF02C06F5F7F4F54
:1029C00075956795072E000C880B990B0E94902037
:1029D0000E94CB209B01AC01B801110F880B990B11
:1029E0002D962FAF2D972E963FAF2E972F964FAF48
:1029F0002F9760965FAF60970E9490202D962FAD25
:102A00002D972E963FAD2E972F964FAD2F97609610
:102A10005FAD60970E94131F9B01AC0160E070E006
:102A200088E492EC0E94F51F6FAB78AF89AF9AAF44
:102A300022E030E038A72FA32BA03CA09FEF291A5B
:102A4000390AAD8DBE8D8D919C91281639060CF0FA
:102A500030C1B101032C000C880B990B0E9490200F
:102A60002BAD3CAD4DAD5EAD0E940E226B017C01E5
:102A700023962CAD3DAD4EAD5FAD23970E940E2247
:102A80009B01AC016FA578A989A99AA90E94141F7E
:102A9000698F7A8F8B8F9C8F27962CAD3DAD4EAD75
:102AA0005FAD2797C701B6010E940E229B01AC01C2
:102AB0006BA97CA98DA99EA90E94141F6F8F78A372
:102AC00089A39AA320E030E048E452E46BA57CA5FA
:102AD0008DA59EA50E94131F4B015C012B962CAD6A
:102AE0003DAD4EAD5FAD2B97C701B6010E940E22E2
:102AF0009B01AC01C501B4010E94141F6B017C0154
:102B0000AFA1B8A5BD01BB0F880B990B0E94902007
:102B10002FA938AD49AD5AAD0E940E229B01AC01E0
:102B2000C701B6010E94131F2B013C01FE013D9617
:102B30004F019E012F5E3F4F5901CE0145966C011A
:102B4000830172012F8D38A149A15AA1698D7A8D17
:102B50008B8D9C8DEFD49401A501B6012C968FAD81
:102B60002C9796D4AD84BE84CF84D888E988FA881F
:102B70000B891C892D893E894F89588DB1018D8D16
:102B80009E8D0E94DE0C63015201EF8CF8A009A11A
:102B90001AA1298D3A8D4B8D5C8DB1018D8D9E8D45
:102BA0000E946D0D6BA17CA18D8D9E8D0E941C0DD0
:102BB0002D853E854F8558890E94131F698F7A8F16
:102BC0008B8F9C8F20E030E0A9010E940322181611
:102BD0004CF0898D9A8DAB8DBC8DB058898F9A8FB2
:102BE000AB8FBC8F6BA17CA18D8D9E8D0E94370D0C
:102BF00029893A894B895C890E94131F6F8F78A3BA
:102C000089A39AA320E030E0A9010E9403221816AC
:102C10004CF08F8D98A1A9A1BAA1B0588F8F98A31D
:102C2000A9A3BAA36BA17CA18D8D9E8D0E94520D8C
:102C30002D893E894F89588D0E94131F2B013C011D
:102C400020E030E0A9010E940322181624F077FA50
:102C5000709477F87094DE0111964D01FE0135965F
:102C60005F019E01275F3F4F6901E98CFA8C0B8D54
:102C70001C8D2F8D38A149A15AA1C301B20143D3A4
:102C8000A980BA80CB80DC80ED80FE800F81188522
:102C900029853A854B855C85B1018D8D9E8D0E947D
:102CA000B70D8FA198A5019698A78FA33CA22BA240
:102CB000C3CE81E001C080E0C15BDF4F0FB6F89466
:102CC000DEBF0FBECDBFDF91CF911F910F91FF905F
:102CD000EF90DF90CF90BF90AF909F908F907F90BC
:102CE0006F905F904F903F902F900895CF92DF921A
:102CF000EF92FF920F931F93CF93DF93CDB7DEB781
:102D00002B970FB6F894DEBF0FBECDBF8C016A01C2
:102D10007B01DC0117962D913D914D915C911A97A5
:102D2000C701B6010E94032287FD4AC0F801238132
:102D3000348145815681C701B6010E94F11F1816E2
:102D40000CF43EC020E030E04AE753E4D8011B9683
:102D50006D917D918D919C911E970E94032287FD1C
:102D60002FC021EE3AE744E95EE3C701B6010E94B5
:102D7000F51F0E945D20F80182810190F081E02D15
:102D800090EA980F960F970F909590832FEF2983D5
:102D90002A838B8387E08C8383E08D838EE18E830F
:102DA0006F83788787E7898781E08A879B874BE0F5
:102DB00050E0BE016F5F7F4FCF018FD581E001C032
:102DC00080E02B960FB6F894DEBF0FBECDBFDF912B
:102DD000CF911F910F91FF90EF90DF90CF900895CA
:102DE0002F923F924F925F926F927F928F929F921B
:102DF000AF92BF92CF92DF92EF92FF920F931F9309
:102E0000CF93DF93CDB7DEB76E970FB6F894DEBFE2
:102E10000FBECDBFFC01A081B1818D919C91A2819B
:102E2000B3812D913C9182179307F1F0A481B58174
:102E30002D913C9182179307B9F0A681B7812D910E
:102E40003C918217930781F0A085B1852D913C912B
:102E50008217930749F0A285B3852D913C91821783
:102E6000930711F080E036C288E096E00097D1F336
:102E7000FA8BE98B3C96FC8BEB8B988B8F8729899F
:102E80003A893A832983A981BA812D913D91BA83E8
:102E9000A9833E8B2D8BD9018D919C91119718168A
:102EA000190674F45296ED91FC915397309709F4FA
:102EB00048C1108121812B83028133813C8345C12C
:102EC0001B861C861D861E861F82188619861A86FA
:102ED00040E050E030E020E01D821E82312C212CA9
:102EE00010E01B8200E01C82812C912C540160E0D8
:102EF00070E08D899E892C8F3B8F498F5A8F0E945D
:102F00001C0D6B017C0160E070E08D899E890E9440
:102F1000370D2B013C0160E070E08D899E890E9495
:102F2000520DEC81EF930F93FB81FF931F932F9230
:102F30003F92AE81AF93BD81BF932C8D2F933B8D7C
:102F40003F935A8D5F93498D4F932A852F933985EF
:102F50003F9328852F933F813F932E852F933D8567
:102F60003F932C852F933B853F9393018201AB01C7
:102F7000BC01AF85B8898D919D91B88BAF870E94B8
:102F8000500E0FB6F894DEBF0FBECDBF29813A8137
:102F90008B899C892817390709F075CF08E016E05E
:102FA000D8018D919D918D010E94010EB6E00431F2
:102FB0001B07B1F784E0482E512C66246394712CD2
:102FC000A989BA89ED91FC91808191816816790671
:102FD0000CF0AFC0E8E0F6E0F88BEF8729893A897A
:102FE0003A832983A981BA812D913D91BA83A9831E
:102FF0003E8F2D8FD9018D919C911197681679067E
:1030000084F45296ED91FC915397309709F4F9C0EE
:10301000E40DF51D20812A8731813B873280238092
:10302000F4C01E821F8230E010E040E01B821C8250
:103030001D821C861D861E8650E020E0188600E05A
:1030400019861A861B86312C212C812C912C540137
:10305000B3018D8D9E8D2C8F3B8F498F5A8F0E948F
:103060001C0D6B017C01B3018D8D9E8D0E94370D6F
:103070006D8B7E8B8F8B988FB3018D8D9E8D0E9473
:10308000520D2F923F92AB85AF93BA85BF93E985DE
:10309000EF930F93F885FF932C8D2F935A8D5F93A9
:1030A0002E852F932D852F932C852F932D812F9354
:1030B0002C812F932B812F93498D4F931F933B8D01
:1030C0003F933F813F932E812F930D891E892F8936
:1030D000388DAB01BC01AF85B8898D919D91B88BBE
:1030E000AF870E94500E0FB6F894DEBF0FBECDBF63
:1030F00029813A818B899C892817390709F072CF79
:1031000008E016E0D8018D919D918D010E94010E7D
:10311000B6E004311B07B1F768E270E080E090E0B0
:103120000E94C906EFEF6E1A7E0AF4E04F0E511CA2
:1031300047CF62E370E080E090E00E94C90681E042
:10314000C9C010E01B8200E01C82AD89BE89509688
:10315000ED91FC915197309739F020812D83318189
:103160003E833280238004C01D821E82312C212C9C
:10317000AD89BE891E96ED91FC911F97309729F07D
:10318000408151813281238104C040E050E030E031
:1031900020E0AD89BE891C96ED91FC911D9730977A
:1031A00049F080818F8391819887A281A987B3811B
:1031B000BA8704C01F82188619861A86AD89BE890F
:1031C0001A96ED91FC911B97309749F080818B877F
:1031D00091819C87A281AD87B381BE8704C01B8685
:1031E0001C861D861E86AD89BE891896ED91FC91C0
:1031F0001997309709F478CE80809180A280B380AF
:1032000076CE1A861B86312C212CAD8DBE8D509624
:10321000ED91FC915197309749F0E40DF51D208117
:103220003181388702813381398704C020E01886D4
:1032300000E01986AD8DBE8D1E96ED91FC911F9715
:10324000309751F0E40DF51D30813C8731813D8789
:1032500032813E87538104C01C861D861E8650E045
:10326000AD8DBE8D1C96ED91FC911D97309751F060
:10327000E40DF51D408131813B8332813C833381F4
:103280003D8304C040E01B821C821D82AD8DBE8D3B
:103290001A96ED91FC911B97309749F0E40DF51DBE
:1032A00030813E8331813F833281138104C01E828D
:1032B0001F8230E010E0ED8DFE8D808591850097B6
:1032C00009F4C3CEFC01E40DF51D80809180A2803D
:1032D000B380BECE6E960FB6F894DEBF0FBECDBFE4
:1032E000DF91CF911F910F91FF90EF90DF90CF90E2
:1032F000BF90AF909F908F907F906F905F904F9016
:103300003F902F9008954F925F926F927F928F928D
:103310009F92AF92BF92CF92DF92EF92FF920F9364
:103320001F93CF93DF93CDB7DEB728970FB6F894EE
:10333000DEBF0FBECDBF2B013C0129833A834B83F7
:103340005C83ED82FE820F8318878501740120E083
:1033500030E0A9016D817E818F8198850E940322D2
:103360008D809E80AF80B884181624F0B7FAB09490
:10337000B7F8B09420E030E0A90169817A818B81AF
:103380009C810E940322181634F069817A818B8116
:103390009C81905804C069817A818B819C81A501B0
:1033A00094010CD74B015C0120E030E0A901C3017E
:1033B000B2010E940322181624F0C301B2019058F2
:1033C00002C0C301B201A5019401F8D64B015C0112
:1033D00020E030E0A90105D6811110C0F60110826D
:1033E000118212821382F8011082118212821382DA
:1033F000F701108211821282138232C0A50194015A
:10340000C301B201F2D520E030E04AE753E40E9464
:103410000E22F6016083718382839383A501940158
:1034200069817A818B819C81E0D520E030E04AE798
:1034300053E4F4D7F8016083718382839383A501F9
:1034400094016D817E818F819885CFD520E030E019
:103450004AE753E4E3D7F701608371838283938360
:1034600081E028960FB6F894DEBF0FBECDBFDF9186
:10347000CF911F910F91FF90EF90DF90CF90BF9071
:10348000AF909F908F907F906F905F904F90089536
:10349000EF92FF920F931F93CF93DF937B018A01EB
:1034A000E901833359F028F4813341F0823331F05C
:1034B00039C0853319F010F08633A1F520E030E0F3
:1034C00040E752E4F7016081718182819381ACD43D
:1034D0009B01AC0160E070E086E993E4A4D4F701BD
:1034E0006083718382839383F801208131814281DB
:1034F000538160E070E086E193E495D4F801608345
:103500007183828393832DEC3CE44AE353E4688126
:1035100079818A819B8188D4688379838A839B831C
:1035200081E001C080E0DF91CF911F910F91FF906A
:10353000EF9008952F923F924F925F926F927F92F9
:103540008F929F92AF92BF92CF92DF92EF92FF92B3
:103550000F931F93CF93DF93CDB7DEB72A970FB6A4
:10356000F894DEBF0FBECDBF6D837E838F839887B7
:10357000CA01B90127013801860115019A86898699
:1035800020E030E04EE353E44FD44B015C012D8149
:103590003E814F815885CA01B90140D76B017C013A
:1035A000A5019401C501B40139D79B01AC01C70144
:1035B000B6013AD49AD76B017C0120E030E040EFAD
:1035C00051E4C301B20130D424EA30EB4FEE52E4AF
:1035D0002BD42B013C0120E030E04FE352E4C70143
:1035E000B60121D46B017C01A3019201C301B20198
:1035F00015D769837A838B839C83A7019601C701C2
:10360000B6010CD79B01AC0169817A818B819C81C9
:103610000BD46BD76B017C019B01AC01FFD6698396
:103620007A838B839C83A7019601C301B201DDD409
:103630005FD42B013C012D813E814F815885C5010E
:10364000B4017CD4F801608371838283938320E981
:1036500031E646EB55E469817A818B819C81E4D324
:1036600020EC36E143E257E4DED34B015C012DE36D
:103670003AEC48E153E4C701B601D0D69B01AC0156
:10368000C501B401B2D4C1D3A3019201CCD3F101DD
:10369000608371838283938320E931E646EB55E4AE
:1036A00069817A818B819C81BED320EC36E143E233
:1036B00057E4B9D329E237EE43EF56E496D4A5D3C5
:1036C000DC01CB01B058E985FA8580839183A28320
:1036D000B3832BED3FE049E450E4F8016081718150
:1036E0008281938182D420E030E044E353E496D693
:1036F000F80160837183828393832BED3FE049E47B
:1037000050E4F10160817181828193816ED420E067
:1037100030E044E353E482D6F10160837183828315
:1037200093832BED3FE049E450E4E985FA8560811D
:1037300071818281938159D420E030E044E353E4E5
:103740006DD66B017C01E985FA8560837183828384
:103750009383F80180809180A280B38020E030E0E4
:1037600048E452E4C501B4013CD487FD37C020E0F1
:1037700030E042E053E4C501B40145D6181674F1B7
:10378000F10180809180A280B38020E030E040EAA7
:1037900051E4C501B40125D487FD20C020E030E00C
:1037A00048EC52E4C501B4012ED61816BCF020E056
:1037B00030E040E851ECC701B60113D487FD0EC0DC
:1037C00011E020E030E040EA52ECC701B6011BD620
:1037D00018160CF010E081E0812701C080E02A96E5
:1037E0000FB6F894DEBF0FBECDBFDF91CF911F9112
:1037F0000F91FF90EF90DF90CF90BF90AF909F9090
:103800008F907F906F905F904F903F902F90089592
:10381000CF92DF92EF92FF920F931F93CF93DF939C
:10382000EC016A017B01E889F98982E08083411516
:10383000514E61057105A9F060E079E08DE390E0FB
:10384000A70196019AD689019A010150110921090F
:10385000310936952795179507959801011510415F
:10386000A0F0E889F989108260E874E88EE190E0C0
:10387000A701960182D6DA01C9010197A109B10910
:10388000B695A795979587959C01EC85FD85308326
:10389000EE85FF852083188EEC89FD8986E0808384
:1038A000EA89FB89808180618083EA89FB89808144
:1038B00088608083EA89FB89808180688083EA89C7
:1038C000FB8980818F7D8083DF91CF911F910F9144
:1038D000FF90EF90DF90CF900895EF92FF920F93BB
:1038E0001F93CF93DF931F921F92CDB7DEB77C015A
:1038F0008B0161E0DC0111968C9149835A830E940F
:10390000E905F701848D958DDC01ED91FC91028034
:10391000F381E02D49815A81B8011995F701848D11
:10392000958DDC01ED91FC910680F781E02D1995D4
:1039300060E0F70181810E94E90581E090E00F904D
:103940000F90DF91CF911F910F91FF90EF9008950D
:10395000789484B5826084BD84B5816084BD85B56A
:10396000826085BD85B5816085BD80916E00816076
:1039700080936E001092810080918100826080931C
:10398000810080918100816080938100809180001E
:103990008160809380008091B10084608093B10049
:1039A0008091B00081608093B0008091910082602E
:1039B000809391008091910081608093910080912B
:1039C00090008160809390008091A100826080933C
:1039D000A1008091A10081608093A1008091A0004E
:1039E00081608093A00080912101826080932101F9
:1039F000809121018160809321018091200181606B
:103A00008093200180917A00846080937A00809175
:103A10007A00826080937A0080917A00816080933E
:103A20007A0080917A00806880937A001092C100B9
:103A300060E083E00E948D0660E083E00E94E9057B
:103A400040E855E260E070E081E292E0E1DE89E08A
:103A500090E0909315068093140620E030E0A901D1
:103A600060E070E088E492E40E9401070AE010E060
:103A70008BE0E82EF12CC4E0D0E010931506009303
:103A8000140620E030E048E452E460E070E0CB014E
:103A90000E940107F0921506E092140620E030E043
:103AA00048E452E460E070E0CB010E9401072197F6
:103AB00021F7E1CF08954F925F926F927F928F929C
:103AC0009F92AF92BF92CF92DF92EF92FF920F93AD
:103AD0001F9310925E0310925D0348EE53E060E086
:103AE00070E040935F0350936003609361037093B1
:103AF00062038AE092E090935C0380935B0325E38A
:103B000031E0309368032093670324E331E030937E
:103B10006A032093690320E331E030936C03209320
:103B20006B0321E331E030936E0320936D0322E3B6
:103B300031E03093700320936F0326E331E030933C
:103B40007203209371031092740310927503109204
:103B50007603109277031092C1021092C002409334
:103B6000C2025093C3026093C4027093C502909343
:103B7000BF028093BE022DEC30E03093CB02209345
:103B8000CA022CEC30E03093CD022093CC0228EC1A
:103B900030E03093CF022093CE0229EC30E0309316
:103BA000D1022093D0022AEC30E03093D30220934C
:103BB000D2022EEC30E03093D5022093D402109242
:103BC000D7021092D8021092D9021092DA02109203
:103BD0002402109223024093250250932602609300
:103BE000270270932802909322028093210285EC91
:103BF00090E090932E0280932D0284EC90E09093BD
:103C0000300280932F0280EC90E0909332028093F8
:103C1000310281EC90E0909334028093330282EC85
:103C200090E0909336028093350286EC90E090937A
:103C300038028093370210923A0210923B0210929F
:103C40003C0210923D0206E025E044E068EF73E09C
:103C500082E594E00E941A0F02E023E041E068EF61
:103C600073E08BE994E00E941A0F0CE02BE04AE02D
:103C700068EF73E084EE94E00E941A0F0FE02EE0EC
:103C80004DE068EF73E08DE295E00E941A0F02E1CB
:103C900021E140E168EF73E086E795E00E941A0FAA
:103CA00009E028E047E068EF73E08FEB95E00E94C1
:103CB0001A0F1092160682E594E0909309068093FD
:103CC00008068BE994E090930B0680930A0684EE35
:103CD00094E090930D0680930C068DE295E090930E
:103CE0000F0680930E0686E795E090931106809369
:103CF00010068FEB95E090931306809312061092B6
:103D000017068EEB92E090931504809314048AE0DA
:103D10008093F90361E00E948D0640E452E46FE075
:103D200070E0809114049091150472DDA8E0B6E073
:103D3000412C512C86E6682E83E4782E812C912C20
:103D400090E7A92E93E4B92EC12CD12C27E8E22EBE
:103D500023E4F22E00E010E020EA32E4ED91FD9140
:103D60004582568267827086848A958AA68AB78A37
:103D7000C3A2D4A2E5A2F6A20187128723873487C3
:103D800040E050E060E772E4408F518F628F738FA4
:103D900040E050E060EF71E447A350A761A772A72D
:103DA00056E0A431B507D1F661E08CE00E948D06A3
:103DB00060E08CE00E94E90510921A061092190644
:103DC00010921C0610921B0610921E0610921D06E1
:103DD00061E08DE00E948D0661E08CE00E948D061E
:103DE00040E855E260E070E08BE593E01F910F91B1
:103DF000FF90EF90DF90CF90BF90AF909F908F900B
:103E00007F906F905F904F9003CD9F939F77F5D1F8
:103E10000F9000203AF49058A2EA2AED3FE049E4DE
:103E200050E413D09FC25058BB27AA270ED09AC285
:103E30008BD230F090D220F031F49F3F11F41EF479
:103E40004AC20EF4E095E7FB17C2E92F9CD280F33B
:103E5000BA17620773078407950718F071F49EF587
:103E6000CBC20EF4E0950B2EBA2FA02D0B01B90199
:103E700090010C01CA01A0011124FF27591B99F0E0
:103E8000593F50F4503E68F11A16F040A22F232FEC
:103E9000342F4427585FF3CF469537952795A7953C
:103EA000F0405395C9F77EF41F16BA0B620B730BE3
:103EB000840BBAF09150A1F0FF0FBB1F661F771F54
:103EC000881FC2F70EC0BA0F621F731F841F48F409
:103ED000879577956795B795F7959E3F08F0B3CF8F
:103EE0009395880F08F09927EE0F97958795089579
:103EF0009F939F77EEE389379E0720F4E8E0F1E097
:103F000012D209C07AD19058A2EA2AED3FE049ECDA
:103F10005FE39BDF27D20F9007FC9058089514D2DF
:103F200058F080E891E009F49EEF15D228F040E8BF
:103F300051E059F45EEF09C0CEC15EC2E92FE078CE
:103F400022D268F3092E052AC1F32617370748073E
:103F5000590738F00E2E07F8E02569F0E025E064F7
:103F60000AC0EF6307F8009407FADB01B9019D016D
:103F7000DC01CA01AD01EF9347D0F4D10AD05F91C3
:103F8000552331F02BED3FE049E450FD49EC4CCF97
:103F90000895DF93DD27B92FBF7740E85FE316165A
:103FA000170648075B0710F4D92F31D29F938F93E0
:103FB0007F936F93D8D2ECE1F1E090D1D3D12F91E0
:103FC0003F914F915F9136D2DD2349F09058A2EA9C
:103FD0002AED3FE049EC5FE3D0785D2736DFDF91E3
:103FE000C1C126D108F481E008950CD0BBC1B3D182
:103FF00040F0AAD130F021F45F3F19F03DC15111DA
:10400000FCC169C1C0D198F39923C9F35523B1F319
:10401000951B550BBB27AA2762177307840738F037
:104020009F5F5F4F220F331F441FAA1FA9F333D096
:104030000E2E3AF0E0E830D091505040E695001C4A
:10404000CAF729D0FE2F27D0660F771F881FBB1F06
:10405000261737074807AB07B0E809F0BB0B802DE0
:10406000BF01FF2793585F4F2AF09E3F510568F02C
:1040700003C1C3C15F3FECF3983EDCF386957795AF
:104080006795B795F7959F5FC9F7880F911D96952E
:10409000879597F90895E1E0660F771F881FBB1F8A
:1040A000621773078407BA0720F0621B730B840B37
:1040B000BA0BEE1F88F7E095089504D06894B1110B
:1040C0009CC1089568D188F09F5790F0B92F992727
:1040D000B751A0F0D1F0660F771F881F991F1AF013
:1040E000BA95C9F712C0B13081F086D1B1E0089518
:1040F00083C1672F782F8827B85F39F0B93FCCF399
:10410000869577956795B395D9F73EF49095809508
:10411000709561957F4F8F4F9F4F0895E89409C028
:1041200097FB3EF490958095709561957F4F8F4FEA
:104130009F4F9923A9F0F92F96E9BB279395F69500
:10414000879577956795B795F111F8CFFAF4BB0F7E
:1041500011F460FF1BC06F5F7F4F8F4F9F4F16C0E2
:10416000882311F096E911C0772321F09EE8872F6C
:10417000762F05C0662371F096E8862F70E060E028
:104180002AF09A95660F771F881FDAF7880F9695A1
:10419000879597F9089519D180F09F3740F49111D0
:1041A0000EF02BC160E070E080E89FEB089526F4EC
:1041B0001B16611D711D811D65C07FC0990FBB0B52
:1041C000550FAA0BE0E8FEEF16161706E807F907E9
:1041D00070F012161306E407F50760F0BA173CF00A
:1041E00049F46217730784079507A7951BF4B90173
:1041F000CA01BA2FB69597950895DF93CF931F9371
:104200000F938B01EC01E9E4F1E068D0ABD09801A9
:10421000AE018B01EC0160E070E080E89FE303DE1B
:1042200064D19801AE010F911F91CF91DF9102C12E
:10423000990F0008550FAA0BE0E8FEEF16161706B7
:10424000E807F907C0F012161306E407F50798F01F
:10425000621B730B840B950B39F40A2661F0232B38
:10426000242B252B21F408950A2609F4A140A695B4
:104270008FEF811D811D089597F99F6780E870E099
:1042800060E00895882371F4772321F09850872BFC
:10429000762F07C0662311F499270DC09051862B05
:1042A00070E060E02AF09A95660F771F881FDAF7B2
:1042B000880F9695879597F908959F3F31F0915013
:1042C00020F4879577956795B795880F911D9695FA
:1042D000879597F908959FEF80EC0895DF93CF932A
:1042E0001F930F93FF92EF92DF927B018C016894F2
:1042F00005C0DA2EEF019ED0FE01E894A59125912C
:10430000359145915591AEF3EF019FDDFE01970187
:10431000A801DA9479F7DF90EF90FF900F911F9149
:10432000CF91DF9108959F938F937F936F93FF9326
:10433000EF939B01AC0172D0EF91FF91CFDF2F91F2
:104340003F914F915F916AC000240A941616170698
:1043500018060906089500240A9412161306140676
:1043600005060895092E0394000C11F4882352F0D9
:10437000BB0F40F4BF2B11F460FF04C06F5F7F4F91
:104380008F4F9F4F089557FD9058440F551F59F078
:104390005F3F71F04795880F97FB991F61F09F3F32
:1043A00079F087950895121613061406551FF2CF5B
:1043B0004695F1DF08C0161617061806991FF1CFAB
:1043C00086957105610508940895E5DFA0F0BEE7C4
:1043D000B91788F4BB279F3860F41616B11D672FF4
:1043E000782F8827985FF7CF869577956795B11DC9
:1043F00093959639C8F30895E894BB2766277727E5
:10440000CB0197F9089514DF08F48FEF08959B010D
:10441000AC0160E070E080E89FE3E7CD0BD0A2CF75
:1044200093DF28F098DF18F0952309F025CF53CFBC
:104430001124E3CFA8DFA0F3959FD1F3950F50E0AF
:10444000551F629FF001729FBB27F00DB11D639F46
:10445000AA27F00DB11DAA1F649F6627B00DA11DEC
:10446000661F829F2227B00DA11D621F739FB00D92
:10447000A11D621F839FA00D611D221F749F332702
:10448000A00D611D231F849F600D211D822F762F9B
:104490006A2F11249F5750408AF0E1F088234AF098
:1044A000EE0FFF1FBB1F661F771F881F91505040E4
:1044B000A9F79E3F510570F0DFCE9FCF5F3FECF331
:1044C000983EDCF3869577956795B795F795E795D0
:1044D0009F5FC1F7FE2B880F911D9695879597F9E1
:1044E000089511F40EF4F7CEE8CE55DFD0F39923FA
:1044F000D9F3CEF39F57550B87FF38D00024A0E6A1
:1045000040EA900180585695979528F4805C660F94
:10451000771F881F20F026173707480730F4621BE3
:10452000730B840B202931294A2BA69517940794E5
:10453000202531254A2758F7660F771F881F20F05E
:1045400026173707480730F4620B730B840B200DD6
:10455000311D411DA09581F7B901842F9158880F15
:104560009695879508959B01AC0158CF9150504086
:10457000660F771F881FD2F70895A1E21A2EAA1B93
:10458000BB1BFD010DC0AA1FBB1FEE1FFF1FA21703
:10459000B307E407F50720F0A21BB30BE40BF50B00
:1045A000661F771F881F991F1A9469F76095709589
:1045B000809590959B01AC01BD01CF010895EE0F50
:1045C000FF1F881F8BBF0790F691E02D1994CF93A2
:1045D000DF938230910510F482E090E0E0912106B3
:1045E000F091220620E030E0C0E0D0E0309711F1F9
:1045F0004081518148175907C0F04817590761F4A5
:1046000082819381209719F09B838A832BC090939A
:1046100022068093210626C02115310519F0421784
:10462000530718F49A01BE01DF01EF010280F38104
:10463000E02DDCCF2115310509F1281B390B243081
:10464000310590F412968D919C9113976115710527
:1046500021F0FB019383828304C090932206809310
:104660002106FD01329644C0FD01E20FF31F819344
:104670009193225031092D933C933AC020911F060B
:1046800030912006232B41F4209102023091030245
:104690003093200620931F062091000230910102E2
:1046A0002115310541F42DB73EB7409104025091D8
:1046B0000502241B350BE0911F06F0912006E2173E
:1046C000F307A0F42E1B3F0B2817390778F0AC0135
:1046D0004E5F5F4F2417350748F04E0F5F1F509312
:1046E000200640931F068193919302C0E0E0F0E022
:1046F000CF01DF91CF9108950F931F93CF93DF9355
:10470000009709F48CC0FC01329713821282009149
:104710002106109122060115110581F420813181B5
:10472000820F931F20911F0630912006281739070A
:1047300079F5F0932006E0931F0671C0D80140E0A0
:1047400050E0AE17BF0750F412962D913C9113978D
:10475000AD012115310509F1D901F3CF9D01DA0130
:104760003383228360817181860F971F821793079D
:1047700069F4EC0128813981260F371F2E5F3F4FE6
:10478000318320838A819B8193838283452B29F403
:10479000F0932206E093210642C01396FC93EE9319
:1047A0001297ED01499159919E01240F351FE2178F
:1047B000F30771F480819181840F951F0296119601
:1047C0009C938E938281938113969C938E931297E0
:1047D000E0E0F0E0D80112968D919C91139700973C
:1047E00019F0F8018C01F6CF8D919C9198012E5F04
:1047F0003F4F820F931F20911F06309120062817EC
:10480000390769F4309729F4109222061092210694
:1048100002C0138212821093200600931F06DF91BC
:10482000CF911F910F91089581E090E0F89400C01E
:1048300011E0CDE3D1E000E005C0802FFE01BFDE36
:104840002196011DCE33D10780E00807B1F7F89417
:02485000FFCF98
:104852000000230680000000000031027001B80150
:084862007702E901C701DB0147
:020000023000CC
:10E000000D9489F10D94B2F10D94B2F10D94B2F129
:10E010000D94B2F10D94B2F10D94B2F10D94B2F1F0
:10E020000D94B2F10D94B2F10D94B2F10D94B2F1E0
:10E030000D94B2F10D94B2F10D94B2F10D94B2F1D0
:10E040000D94B2F10D94B2F10D94B2F10D94B2F1C0
:10E050000D94B2F10D94B2F10D94B2F10D94B2F1B0
:10E060000D94B2F10D94B2F10D94B2F10D94B2F1A0
:10E070000D94B2F10D94B2F10D94B2F10D94B2F190
:10E080000D94B2F10D94B2F10D94B2F10D94B2F180
:10E090000D94B2F10D94B2F10D94B2F10D94B2F170
:10E0A0000D94B2F10D94B2F10D94B2F10D94B2F160
:10E0B0000D94B2F10D94B2F10D94B2F10D94B2F150
:10E0C0000D94B2F10D94B2F10D94B2F10D94B2F140
:10E0D0000D94B2F10D94B2F10D94B2F10D94B2F130
:10E0E0000D94B2F141546D656761323536300041AF
:10E0F000726475696E6F206578706C6F72657220DE
:10E1000073746B3530305632206279204D4C530099
:10E11000426F6F746C6F616465723E004875683F52
:10E1200000436F6D70696C6564206F6E203D200048
:10E130004350552054797065202020203D20005FF9
:10E140005F4156525F415243485F5F3D2000415658
:10E1500052204C696243205665723D20004743437C
:10E160002056657273696F6E203D20004350552024
:10E1700049442020202020203D20004C6F7720663D
:10E18000757365202020203D20004869676820665F
:10E190007573652020203D200045787420667573D6
:10E1A00065202020203D20004C6F636B2066757336
:10E1B000652020203D20004D617220203720323024
:10E1C000313300312E362E3800342E332E350056A2
:10E1D00023202020414444522020206F7020636F70
:10E1E00064652020202020696E73747275637469E1
:10E1F0006F6E2061646472202020496E74657272B3
:10E20000757074006E6F20766563746F7200726A49
:10E210006D702020006A6D70200057686174207056
:10E220006F72743A00506F7274206E6F7420737541
:10E2300070706F72746564004D7573742062652030
:10E2400061206C6574746572002000577269747483
:10E25000696E672045450052656164696E672045B7
:10E26000450045452065727220636E743D00504F35
:10E27000525400303D5A65726F2061646472003FF1
:10E280003D43505520737461747300403D454550C3
:10E29000524F4D207465737400423D426C696E6B41
:10E2A000204C454400453D44756D70204545505215
:10E2B0004F4D00463D44756D7020464C415348001B
:10E2C000483D48656C70004C3D4C69737420492F83
:10E2D0004F20506F72747300513D51756974005234
:10E2E0003D44756D702052414D00563D73686F7707
:10E2F00020696E7465727275707420566563746FF0
:10E30000727300593D506F727420626C696E6B00BD
:10E310002A0011241FBECFEFD1E2DEBFCDBF01E046
:10E320000CBF12E0A0E0B2E0EEE1FDEF03E00BBFB6
:10E3300002C007900D92A030B107D9F712E0A0E01B
:10E34000B2E001C01D92AE30B107E1F70F9460F367
:10E350000D948DFE01E20EBF0FEF0DBF11241FBE05
:10E360000D9460F30D9400F020E030E040ED57E0B4
:10E3700005C0FA013197F1F72F5F3F4F2817390792
:10E38000C0F308959C01260F311DC901A0E0B0E043
:10E390002F5F3F4FABBFFC018791882361F08093D3
:10E3A000C6008091C00086FFFCCF8091C0008064D1
:10E3B0008093C000EACF08958DE08093C6008091DD
:10E3C000C00086FFFCCF8091C00080648093C000B5
:10E3D0008AE08093C6008091C00086FFFCCF8091C8
:10E3E000C00080648093C00008950F94C2F10F9420
:10E3F000DCF10895FC019081992359F09093C600B7
:10E400008091C00086FFFCCF8091C0008064809323
:10E41000C0003196992379F70895282F982F929567
:10E420009F70892F805D8A3308F0895F8093C600D2
:10E430008091C00086FFFCCF8091C00080648093F3
:10E44000C000822F8F70982F905D9A3308F0995FEB
:10E450009093C6008091C00086FFFCCF8091C000E1
:10E4600080648093C00008959C01FB01853691056E
:10E470001CF46330710594F0C90164E670E00F94F8
:10E480002EFE605D7F4F6093C6008091C00086FFC6
:10E49000FCCF8091C00080648093C0002B30310598
:10E4A00014F43297B4F0C90164E670E00F942EFEC4
:10E4B0006AE070E00F942EFE605D7F4F6093C600AF
:10E4C0008091C00086FFFCCF8091C0008064809363
:10E4D000C000C9016AE070E00F942EFEC0968093E0
:10E4E000C6008091C00086FFFCCF8091C000806490
:10E4F0008093C00008951F93182F8EE692EE60E07F
:10E500000F94C2F11093C6008091C00086FFFCCF2B
:10E510008091C00080648093C0000F94DCF11F9153
:10E5200008952F923F924F925F926F927F928F92B7
:10E530009F92AF92BF92CF92DF92EF92FF920F9392
:10E540001F93DF93CF93CDB7DEB762970FB6F894E2
:10E55000DEBF0FBECDBF382E622ECA01DB015C01CB
:10E560006D01772420E2222E2E010894411C511CBB
:10E570008BC081E0A81680E0B80681E0C80680E084
:10E58000D80628F0C601AA27BB270F940DF2BB2797
:10E59000AD2D9C2D8B2D0F940DF28A2D0F940DF225
:10E5A0002092C6008091C00086FFFCCF8091C00001
:10E5B00080648093C0009DE29093C6008091C0006B
:10E5C00086FFFCCF8091C00080648093C0002092C1
:10E5D000C6008091C00086FFFCCF8091C00080649F
:10E5E0008093C00019828601750188249924A1E0D6
:10E5F0003A1651F03A1620F0B2E03B1661F409C029
:10E600000BBFF701779007C0C7010F9477FE782EF4
:10E6100002C0F7017080872D0F940DF22092C60082
:10E620008091C00086FFFCCF8091C0008064809301
:10E63000C000872D8052F401EF70F0708F3520F408
:10E64000E40DF51D708204C0E40DF51D8EE280839B
:10E650000894E11CF11C011D111D0894811C911CE2
:10E6600090E18916910409F0C2CF80E190E0A0E02A
:10E67000B0E0A80EB91ECA1EDB1E198AC2010F9493
:10E68000FAF10F94DCF16A94662009F072CF629679
:10E690000FB6F894DEBF0FBECDBFCF91DF911F91B3
:10E6A0000F91FF90EF90DF90CF90BF90AF909F9031
:10E6B0008F907F906F905F904F903F902F90089534
:10E6C0002F923F924F925F926F927F928F929F9282
:10E6D000AF92BF92CF92DF92EF92FF920F931F9370
:10E6E000DF93CF93CDB7DEB7CD53D1400FB6F894BB
:10E6F000DEBF0FBECDBF01E20EBF0FEF0DBF94B75F
:10E70000F894A89514BE80916000886180936000A1
:10E7100010926000789493FF05C0E0910002F091A0
:10E7200001021995279A2F9A8091C00082608093E8
:10E73000C00080E18093C40088E18093C1000000A4
:10E74000EE24FF24870144E0A42EB12CCC24DD2448
:10E7500024C0C5010197F1F70894E11CF11C011DCB
:10E76000111D21E2E2162EE4F20620E0020720E06D
:10E77000120718F031E0C32ED12CC801B70127ECE5
:10E780003BE140E050E00F9441FE611571058105C9
:10E79000910519F485B1805885B98091C00087FD35
:10E7A00003C0C114D104A9F2A6014F5F5F4FC25E3E
:10E7B000DE4F59834883CE51D140C25EDE4F8881FF
:10E7C0009981CE51D140019711F00D9410FEC05D9A
:10E7D000DE4F19821882C053D14060E0C15DDE4F28
:10E7E0001882CF52D14088249924C35DDE4F19820C
:10E7F0001882CD52D140C05EDE4F188219821A8233
:10E800001B82C052D140CE5CDE4F188219821A8220
:10E810001B82C253D140EE24FF2487010BBFF701B6
:10E8200007911691C45CDE4F19830883CC53D14005
:10E830000D940BFEC25EDE4F28813981CE51D1404E
:10E840002130310509F52091C600C25EDE4F1982E4
:10E850001882CE51D14022C02F5F3F4F4F4F5F4FA4
:10E86000213082E138078AE7480780E0580780F0C6
:10E87000C45CDE4FE881F981CC53D140EF5FFF4F9C
:10E8800019F0EE27FF27099420E030E040E050E047
:10E890008091C00087FFE0CF2091C600C35DDE4FAE
:10E8A00048815981CD52D1404F5F5F4FC35DDE4FEC
:10E8B00059834883CD52D140213209F063C64A3092
:10E8C000510508F05FC60894811C911C53E0851621
:10E8D000910409F059C600E010E018C081E280936D
:10E8E000C6008091C00086FFFCCF8091C00080648C
:10E8F0008093C0002F5F3F4F2931310579F70F9486
:10E90000DCF10F5F1F4F0530110519F020E030E0FA
:10E91000E5CF10920A0210920B0210920C02109294
:10E920000D02109206021092070210920802109235
:10E930000902109202021092030210920402109235
:10E9400005028FEE90EE60E00F94F5F180E191EE1C
:10E9500060E00F94C2F18091C00087FFFCCF9091DE
:10E96000C600903608F09F759032B8F09093C600BC
:10E970008091C00086FFFCCF8091C00080648093AE
:10E98000C000A0E2A093C6008091C00086FFFCCF2B
:10E990008091C00080648093C000983409F4D7C18E
:10E9A0009934B8F4923409F459C1933458F490333B
:10E9B00019F1903308F4E3C59F33A1F1903409F0C5
:10E9C000DEC5BDC0953409F470C1963409F0D7C5D1
:10E9D00098C1923509F42BC2933538F49C3409F46C
:10E9E000F5C1913509F0CBC518C2963509F445C279
:10E9F000993509F0C4C567C483E792EE62E00F94CD
:10EA0000F5F110920602109207021092080210927D
:10EA1000090210920A0210920B0210920C0210923C
:10EA20000D0213C18FE792EE62E00F94F5F18FEEC5
:10EA300090EE60E00F94F5F181E291EE60E00F94CA
:10EA4000C2F187EB91EE60E00F94F5F180E391EE77
:10EA500060E00F94C2F184EE90EE60E00F94F5F167
:10EA60008FE391EE60E00F94C2F186E090E061E008
:10EA700070E00F9434F20F94DCF18DE591EE60E0DC
:10EA80000F94C2F189EC91EE60E00F94F5F18EE401
:10EA900091EE60E00F94C2F183EC91EE60E00F9490
:10EAA000F5F18CE691EE60E00F94C2F18EE10F94E7
:10EAB0000DF288E90F940DF281E00F940DF20F949E
:10EAC000DCF18BE791EE60E00F94C2F119E0E0E039
:10EAD000F0E010935700E4918E2F0F940DF20F94F5
:10EAE000DCF18AE891EE60E00F94C2F1E3E0F0E03F
:10EAF00010935700E4918E2F0F940DF20F94DCF1D8
:10EB000089E991EE60E00F94C2F1E2E0F0E0109349
:10EB10005700E4918E2F0F940DF20F94DCF188EAE8
:10EB200091EE60E00F94C2F1E1E0F0E01093570045
:10EB30001491812F0F940DF20F94DCF107CF8BE825
:10EB400092EE62E00F94F5F18BE492EE60E00F94A8
:10EB5000F5F10F94DCF100E010E019C0C8016F2D51
:10EB60000F947FFEFF2031F489E492EE60E00F9471
:10EB7000C2F10BC0F092C6008091C00086FFFCCFAE
:10EB80008091C00080648093C0000F5F1F4FC80158
:10EB900081519F41A0E0B0E0ABBFFC01F790BAE229
:10EBA000FB1621F0E2E000301E07C1F60F94DCF105
:10EBB0000F94DCF187E592EE60E00F94F5F10F948D
:10EBC000DCF1CC24DD2400E010E01EC0C8010F946D
:10EBD00077FEF82E882331F489E492EE60E00F94FA
:10EBE000C2F10BC08093C6008091C00086FFFCCFAD
:10EBF0008091C00080648093C000FE1419F00894D6
:10EC0000C11CD11C0F5F1F4FC80181519F41A0E063
:10EC1000B0E0ABBFFC01E790FAE2EF1621F022E092
:10EC20000030120799F60F94DCF10F94DCF182E6C4
:10EC300092EE60E00F94C2F1C60161E070E00F94C3
:10EC400034F20F94DCF10F94DCF110920202109276
:10EC50000302109204021092050278CE89E992EE26
:10EC600062E00F94F5F1279A2F9A16C02F9880E052
:10EC700090E0E0EDF7E03197F1F7019684369105E9
:10EC8000C1F72F9A80E090E0E0EDF7E03197F1F7DF
:10EC9000019684369105C1F78091C00087FFE6CFC9
:10ECA0008091C00087FFFCCF64C485EA92EE62E0E9
:10ECB0000F94F5F140910202509103026091040219
:10ECC0007091050281E020E10F9491F2809102029F
:10ECD00090910302A0910402B091050280509F4FD1
:10ECE000AF4FBF4F8093020290930302A0930402A0
:10ECF000B093050280509041A040B04008F426CE69
:10ED0000A4CF83EB92EE62E00F94F5F140910602FE
:10ED100050910702609108027091090280E020E1A1
:10ED20000F9491F28091060290910702A09108023F
:10ED3000B091090280509F4FAF4FBF4F80930602A2
:10ED400090930702A0930802B0930902FFCD80ECD4
:10ED500092EE62E00F94F5F183E792EE60E00F949B
:10ED6000F5F18FE792EE60E00F94F5F18BE892EE0B
:10ED700060E00F94F5F189E992EE60E00F94F5F10F
:10ED800085EA92EE60E00F94F5F183EB92EE60E09D
:10ED90000F94F5F180EC92EE60E00F94F5F187ECC2
:10EDA00092EE60E00F94F5F188ED92EE60E00F9442
:10EDB000F5F18FED92EE60E00F94F5F18AEE92EEB0
:10EDC00060E00F94F5F183E093EEBDCD87EC92EE19
:10EDD00062E00F94F5F181E40F947BF282E40F94EA
:10EDE0007BF283E40F947BF284E40F947BF285E45E
:10EDF0000F947BF286E40F947BF287E40F947BF20E
:10EE000088E40F947BF28AE40F947BF28BE40F94F6
:10EE10007BF28CE40F947BF299CD88ED92EE62E068
:10EE20000F94F5F1772473948824992409C48FED05
:10EE300092EE62E00F94F5F140910A0250910B02BC
:10EE400060910C0270910D0282E020E10F9491F22A
:10EE500080910A0290910B02A0910C02B0910D02D8
:10EE600080509F4FAF4FBF4F80930A0290930B0289
:10EE7000A0930C02B0930D0269CD8AEE92EE62E08F
:10EE80000F94F5F184EE90EE60E00F94F5F18FECC5
:10EE900091EE60E00F94F5F1662477244301CC5D98
:10EEA000DE4F19821882C452D140D401C301B695F5
:10EEB000A79597958795CA5DDE4F88839983AA8326
:10EEC000BB83C652D140CC5DDE4FA881B981C4520C
:10EED000D1401196CC5DDE4FB983A883C452D14096
:10EEE000CD0162E070E00F9434F2B0E2B093C6005E
:10EEF0008091C00086FFFCCF8091C0008064809329
:10EF0000C000EDE2E093C6008091C00086FFFCCF18
:10EF10008091C00080648093C000F0E2F093C6004E
:10EF20008091C00086FFFCCF8091C00080648093F8
:10EF3000C000CA5DDE4FE880F9800A811B81C6529D
:10EF4000D140BB27A12F902F8F2D0F940DF2CA5DBA
:10EF5000DE4F8881C652D1400F940DF2B0E2FB2EF5
:10EF6000F092C6008091C00086FFFCCF8091C00067
:10EF700080648093C0000DE30093C6008091C000C0
:10EF800086FFFCCF8091C00080648093C00010E2B7
:10EF90001093C6008091C00086FFFCCF8091C00016
:10EFA00080648093C0008BBEF3012791C65DDE4F65
:10EFB0002883CA52D140A22EBB24CC24DD2408943D
:10EFC000611C711C811C911C8BBEF3018791282E42
:10EFD0003324442455240894611C711C811C911C09
:10EFE0008BBEF3013791C55DDE4F3883CB52D140E4
:10EFF0000894611C711C811C911C8BBEF30147910C
:10F00000C45DDE4F4883CC52D140ADEFEA2EAFEF66
:10F01000FA2EAFEF0A2FAFEF1A2F6E0C7F1C801E57
:10F02000911E142D032DF22CEE24EA0CFB1C0C1D5A
:10F030001D1D0F940DF220E22093C6008091C000A8
:10F0400086FFFCCF8091C00080648093C000C65DC5
:10F05000DE4F8881CA52D1400F940DF230E23093D6
:10F06000C6008091C00086FFFCCF8091C000806404
:10F070008093C000C45DDE4F8881CC52D1400F9494
:10F080000DF240E24093C6008091C00086FFFCCFA5
:10F090008091C00080648093C000C55DDE4F888190
:10F0A000CB52D1400F940DF250E25093C6008091A4
:10F0B000C00086FFFCCF8091C00080648093C000B8
:10F0C0008FEFE8168FEFF80680E0080780E018075A
:10F0D00031F484E092EE60E00F94C2F1DFC0D80119
:10F0E000C7018070907CA070B0708050904CA040A0
:10F0F000B040D1F52FEF3FE340E050E0E222F322B1
:10F1000004231523CA5DDE4FA880B980CA80DB8046
:10F11000C652D140AE0CBF1CC01ED11EAA0CBB1CD7
:10F12000CC1CDD1C8EE092EE60E00F94C2F1BB2798
:10F13000A12F902F8F2D0F940DF28E2D0F940DF285
:10F1400030E23093C6008091C00086FFFCCF8091F2
:10F15000C00080648093C0004EE34093C60080915D
:10F16000C00086FFFCCF87C08EE09EEFA0E0B0E03D
:10F17000E822F9220A231B239CE0E91694E9F90608
:10F1800090E0090790E0190709F088C0C45DDE4FE0
:10F19000A881CC52D140EA2EFF2400E010E0102FCD
:10F1A0000F2DFE2CEE24C55DDE4FB881CB52D14031
:10F1B000EB0EF11C011D111DD601C501817090706F
:10F1C000A070B070DC0199278827E80EF91E0A1F8D
:10F1D0001B1F20EF30E040E050E0A222B322C42207
:10F1E000D52241E1AA0CBB1CCC1CDD1C4A95D1F7F1
:10F1F000EA0CFB1C0C1D1D1D81E090E0A0E0B0E0BE
:10F20000282239224A225B2235E1220C331C441C7D
:10F21000551C3A95D1F7E20CF31C041D151D57013E
:10F220006801AA0CBB1CCC1CDD1C85E192EE60E0E1
:10F230000F94C2F1C801AA27BB270F940DF2BB2778
:10F24000A12F902F8F2D0F940DF28E2D0F940DF274
:10F2500090E29093C6008091C00086FFFCCF809121
:10F26000C00080648093C000AEE3A093C60080918C
