:100000003DC100006CC100006AC1000068C1000071
:1000100066C1000064C1000062C1000060C1000050
:100020005EC100005CC100005AC1000058C1000060
:1000300056C1000054C1000052C1000050C1000070
:100040004EC100004CC100004AC1000048C1000080
:1000500046C1000044C1000042C100000DC50000BF
:100060003EC100001FC40000F4C3000038C10000FE
:1000700036C1000034C1000032C1000030C10000B0
:100080002EC100002CC100002AC1000028C10000C0
:10009000B7C300008CC3000022C1000020C10000D3
:1000A0001EC100001CC100001AC1000018C10000E0
:1000B00016C1000014C1000012C1000010C10000F0
:1000C0000EC100000CC100000AC1000008C1000000
:1000D00006C1000004C1000041C3000016C30000B7
:1000E000FEC00000AA04AD049C04A004A404E4041F
:1000F000B104B504BB04BF04C304C904CD04D104D6
:10010000E404D704DB04DF04036EDB363D9A9999DF
:10011000993DABAAAA2A3E000000803F084AD73B7F
:100120003BCE016E84BCBFFDC12F3D6C74319ABDC6
:1001300056833DDA3D00C77F11BED9E4BB4C3E91EA
:100140006BAAAABE000000803F072C7AA5BA6CC536
:1001500090DA3B9365FC8BBC53F810FD3C569283C0
:100160004DBD879D3AB63DCBC9BF5BBE73DA0FC9A3
:100170003F0000000A0B02090C0D0E0807030401E2
:10018000000000000000000000000000000000006F
:10019000000000000000000000000000000012113C
:1001A000100000000000000000000000000000003F
:1001B00000000000000000000000220025002800D0
:1001C0002B002E003100340002010000050108015F
:1001D0000B0100002100240027002A002D00300020
:1001E000330001010000040107010A0105050505AE
:1001F000070508080808020202020A0A080804049F
:1002000004040101010101010101030303030303CC
:100210000303040707070C0C0C0C0C0C0C0C02025B
:10022000020206060606060606060B0B0B0B0B0B58
:100230000B0B0102102020080810204010204080E5
:10024000020102010804020101020408102040809A
:100250008040201008040201800402018040201028
:100260000804020108040201010204081020408071
:100270000102040810204080F910F81011241FBE5C
:10028000CFEFD1E2DEBFCDBF00E00CBF26E0A8E398
:10029000B2E001C01D92AC38B207E1F712E0A0E075
:1002A000B2E0E4EDF0E300E00BBF02C007900D9276
:1002B000A833B107D9F711E0CDE3D1E000E006C0E3
:1002C00021970109802FFE010E944D18CC33D107E0
:1002D00080E00807A9F70E94390F0C94591890CEB6
:1002E000FC01A089B1898C91A689B78982FD0FC0D4
:1002F0009C91818D8F5F8F73228D821749F0218DA4
:10030000DF01A20FB11D5D969C93818F08958C91A2
:100310000895089580E090E00895FC01538D448D88
:10032000252F30E0842F90E0821B930B541710F0A0
:10033000CF96089501970895FC01918D828D9817AD
:1003400061F0828DDF01A80FB11D5D968C91928DB9
:100350009F5F9F73928F90E008958FEF9FEF0895B6
:10036000FC01918D828D981731F0828DE80FF11D7F
:10037000858D90E008958FEF9FEF0895FC01918D9A
:10038000228D892F90E0805C9F4F821B91098F7393
:10039000992708958BEC93E0F1DF21E0892B09F494
:1003A00020E0822F08958EE293E0E8DF21E0892BA0
:1003B00009F420E0822F089589E492E0DFDF21E054
:1003C000892B09F420E0822F0895FC01848DDF0140
:1003D000A80FB11DA35ABF4F2C91848D90E00196B8
:1003E0008F739927848FA689B7892C93A089B189A7
:1003F0008C9180648C93938D848D981306C00288B1
:10040000F389E02D80818F7D80830895EF92FF92A4
:100410000F931F93CF93DF93EC0181E0888F9B8D27
:100420008C8D981305C0E889F989808185FD23C0EA
:10043000F62E0B8D10E00F5F1F4F0F731127E02E6C
:100440008C8DE8120BC00FB607FCFACFE889F9894A
:10045000808185FFF5CFCE01B8DFF2CF8B8DFE0115
:10046000E80FF11DE35AFF4FF0820B8FEA89FB89F9
:100470008081806207C0EE89FF896083E889F989FD
:1004800080818064808381E090E0DF91CF911F9133
:100490000F91FF90EF900895CF93DF93EC01888D3B
:1004A0008823C1F0EA89FB89808185FD05C0A88980
:1004B000B9898C9186FD0EC00FB607FCF5CF8081FF
:1004C00085FFF2CFA889B9898C9185FFEDCFCE0148
:1004D0007CDFE8CFDF91CF91089580E090E0892B19
:1004E00019F06ADF81111BC080E090E0892B19F0C0
:1004F0005ADF811117C080E090E0892B41F080E045
:1005000090E0892B21F00E94000081110EC080E054
:1005100090E0892B79F03EDF81110AC008950E9496
:100520000000E2CF0E940000E6CF0E940000EFCF63
:100530000C94000008953FB7F89480913D0290918B
:100540003E02A0913F02B091400226B5A89B05C093
:100550002F3F19F00196A11DB11D3FBFBA2FA92F42
:10056000982F8827820F911DA11DB11DBC01CD01BF
:1005700042E0660F771F881F991F4A95D1F70895AB
:10058000EF92FF920F931F93CF93DF93CDB7DEB718
:1005900028970FB6F894DEBF0FBECDBF8C0185E360
:1005A000860F8095D8018C939FEF99839A836B83F4
:1005B00094E09C8392E09D839EE29E8391E09F83E2
:1005C0008887BE016F5F7F4FC8010E94CD0B8FEF00
:1005D0009FEFF8019387828712828BE9E82E8FE0E4
:1005E000F82EF801848D958DDC01ED91FC9100844D
:1005F000F185E02D1995F801228106972CF52A3016
:1006000018F52F5FD80112962C93C7010197F1F7C7
:10061000E8CFD8015C968D919C915D97DC01ED91BE
:10062000FC910284F385E02D1995F82EF80183835F
:10063000848D958DDC01ED91FC910484F585E02D90
:100640001995BFEFFB1681F0D8015C968D919C91B6
:100650005D97DC01ED91FC910084F185E02D199509
:1006600018161906B4F241C08F3F910569F7F801D9
:10067000848D958DDC01ED91FC910284F385E02D54
:100680001995F801848D958DDC01ED91FC91028422
:10069000F385E02D1995F801848D958DDC01ED91A0
:1006A000FC910284F385E02D1995F801848D958DD8
:1006B000DC01ED91FC910284F385E02D1995F801A0
:1006C000918F808F009721F091958195910910C0AD
:1006D000848D958DDC01ED91FC910284F385E02DF4
:1006E0001995F80193878287AFCFF80182859385AA
:1006F00028960FB6F894DEBF0FBECDBFDF91CF9125
:100700001F910F91FF90EF9008951F920F920FB6D7
:100710000F9211240BB60F922F933F934F935F9339
:100720006F937F938F939F93AF93BF93EF93FF93B9
:100730008BEC93E04ADEFF91EF91BF91AF919F91D7
:100740008F917F916F915F914F913F912F910F907A
:100750000BBE0F900FBE0F901F9018951F920F9217
:100760000FB60F9211240BB60F922F933F934F9316
:100770005F936F937F938F939F93AF93BF93EF9309
:10078000FF938BEC93E0ACDDFF91EF91BF91AF91C4
:100790009F918F917F916F915F914F913F912F9199
:1007A0000F900BBE0F900FBE0F901F9018951F92C9
:1007B0000F920FB60F9211240BB60F922F933F9307
:1007C0004F935F936F937F938F939F93AF93BF9359
:1007D000EF93FF938EE293E0F8DDFF91EF91BF91ED
:1007E000AF919F918F917F916F915F914F913F91C9
:1007F0002F910F900BBE0F900FBE0F901F9018956A
:100800001F920F920FB60F9211240BB60F922F93D7
:100810003F934F935F936F937F938F939F93AF9388
:10082000BF93EF93FF938EE293E05ADDFF91EF9138
:10083000BF91AF919F918F917F916F915F914F91F8
:100840003F912F910F900BBE0F900FBE0F901F90F6
:1008500018951F920F920FB60F9211240BB60F929C
:100860002F933F934F935F936F937F938F939F93B8
:10087000AF93BF93EF93FF9389E492E0A6DDFF91DE
:10088000EF91BF91AF919F918F917F916F915F9108
:100890004F913F912F910F900BBE0F900FBE0F9075
:1008A0001F9018951F920F920FB60F9211240BB63E
:1008B0000F922F933F934F935F936F937F938F93F9
:1008C0009F93AF93BF93EF93FF9389E492E008DD8A
:1008D000FF91EF91BF91AF919F918F917F916F9118
:1008E0005F914F913F912F910F900BBE0F900FBED4
:1008F0000F901F901895362F90E0FC01EE58FE4F98
:100900004491FC01EE5CFD4F2491FC01E451FE4F4B
:100910009491992309F46BC0442309F455C050E025
:10092000FA013197E231F10508F04EC08827EE5800
:10093000FF4F8F4F0C944D18809180008F7707C028
:10094000809180008F7D03C080918000877F80939D
:1009500080003AC084B58F7702C084B58F7D84BD96
:1009600033C08091B0008F7703C08091B0008F7D3D
:100970008093B00029C0809190008F7707C080914C
:1009800090008F7D03C080919000877F80939000BE
:100990001BC08091A0008F7707C08091A0008F7D41
:1009A00003C08091A000877F8093A0000DC080913C
:1009B00020018F7707C0809120018F7D03C0809137
:1009C0002001877F80932001E92FF0E0EE0FFF1FC9
:1009D000E854FE4FA591B4918FB7F894EC91311182
:1009E00003C020952E2301C02E2B2C938FBF08957A
:1009F0008F929F92AF92BF92CF92DF92EF92FF922F
:100A00006B017C0198DD4B015C01C114D104E10450
:100A1000F104E9F090DDDC01CB0188199909AA09FC
:100A2000BB09883E9340A105B10578F321E0C21AC5
:100A3000D108E108F10888EE880E83E0981EA11C19
:100A4000B11CC114D104E104F10421F7DECFFF9001
:100A5000EF90DF90CF90BF90AF909F908F900895D0
:100A60002FB7F8946091390270913A0280913B025D
:100A700090913C022FBF08951F920F920FB60F92D4
:100A800011242F933F938F939F93AF93BF938091A4
:100A9000390290913A02A0913B02B0913C02309110
:100AA000380223E0230F2D3720F40196A11DB11D3C
:100AB00005C026E8230F0296A11DB11D2093380220
:100AC0008093390290933A02A0933B02B0933C0288
:100AD00080913D0290913E02A0913F02B091400270
:100AE0000196A11DB11D80933D0290933E02A093FB
:100AF0003F02B0934002BF91AF919F918F913F9180
:100B00002F910F900FBE0F901F901895CF93DF93EA
:100B1000EC016C818A819B8133DD892B11F021E00E
:100B20000EC06B8989899A892BDD892BC1F76AA14F
:100B300088A199A125DD21E0892B09F420E0822FED
:100B4000DF91CF910895CF93DF93EC014AE959E902
:100B500069EA72E44196A9D546E656E666E572E48E
:100B6000CE018096A2D519AE1AAE1BAE1CAEDF9197
:100B7000CF9108958F929F92AF92BF92CF92DF92C2
:100B8000EF92FF920F931F93CF93DF93CDB7DEB712
:100B900028970FB6F894DEBF0FBECDBF7C016C0165
:100BA00020E2C20ED11CDC0192969C919297909605
:100BB0000D911C9191978CE2890F8095F8018083AB
:100BC0002FEF29832A839B8394E09C8392E09D836B
:100BD00024E22E839F838887BE016F5F7F4FC80109
:100BE000DCD58FEF9FEFD80153969C938E9352974D
:100BF00012961C928BE9882E8FE0982ED8015C9675
:100C00008D919C915D97DC01ED91FC910084F185C3
:100C1000E02D1995F8012281079724F52A3010F567
:100C20002F5FF8012283C4010197F1F7E7CFD801C4
:100C30005C968D919C915D97DC01ED91FC91028415
:100C4000F385E02D1995982EF8018383848D958D79
:100C5000DC01ED91FC910484F585E02D1995BFEF41
:100C60009B1681F0D8015C968D919C915D97DC017B
:100C7000ED91FC910084F185E02D19951816190667
:100C8000B4F254C08F3F910569F7F801848D958DBA
:100C9000DC01ED91FC910284F385E02D1995F801BA
:100CA000848D958DDC01ED91FC910284F385E02D1E
:100CB0001995F801848D958DDC01ED91FC910284EC
:100CC000F385E02D1995F801848D958DDC01ED916A
:100CD000FC910284F385E02D1995F801918F808FA6
:100CE000009729F066277727681B790B22C0848D2F
:100CF000958DDC01ED91FC910284F385E02D199531
:100D0000F8018583848D958DDC01ED91FC91028441
:100D1000F385E02D1995F8018483B82EA12C8581E7
:100D20009501280F311D338B228B9CCFF8016289EE
:100D30007389072E000C880B990B0E94DD1421EE9D
:100D40003AE744E95EE30E943C1520E030E040EAE7
:100D500051E40E942116AB01BC01C601A6D4882330
:100D600019F061E08CE0C7DD82E090E0D701D09619
:100D70009C938E939F9728960FB6F894DEBF0FBE74
:100D8000CDBFDF91CF911F910F91FF90EF90DF903A
:100D9000CF90BF90AF909F908F900895CF93DF93A7
:100DA000EC0160E08CE0A7DD40E050E066E173E438
:100DB000CE0102967AD44AE959E969EA72E4CE0191
:100DC000419673D446E656E666E572E4CE01809617
:100DD0006CD419AA1AAA1BAA1CAA1DAA1EAA1FAA69
:100DE00018AE19AE1AAE1BAE1CAE81E090E098AB07
:100DF0008FA7DF91CF910895CF92DF92EF92FF926C
:100E00000F931F93CF93DF936C017A018B01C0E0A6
:100E1000D0E0CE15DF0589F0D8016D918D01D601A6
:100E2000ED91FC910190F081E02DC6011995892B7F
:100E300011F47E0102C02196ECCFC701DF91CF9162
:100E40001F910F91FF90EF90DF90CF900895EF9258
:100E5000FF920F931F93CF93DF931F921F92CDB7F3
:100E6000DEB77C018B0161E0DC0111968C91498336
:100E70005A8341DDF701848D958DDC01ED91FC9164
:100E80000280F381E02D49815A81B8011995F7015B
:100E9000848D958DDC01ED91FC910680F781E02D2C
:100EA000199560E0F701818126DDD70112961C9229
:100EB0000BE91FE0D7015C968D919C915D97DC0159
:100EC000ED91FC910084F185E02D1995F7012281C7
:100ED00005971CF52A3008F52F5FF7012283C8011A
:100EE0000197F1F7E7CFD7015C968D919C915D97C3
:100EF000DC01ED91FC910284F385E02D1995182F0A
:100F0000F7018383848D958DDC01ED91FC91048440
:100F1000F585E02D19951F3F81F0D7015C968D91E5
:100F20009C915D97DC01ED91FC910084F185E02DB1
:100F3000199518161906BCF22FC08F3F910569F755
:100F4000F701848D958DDC01ED91FC910284F38590
:100F5000E02D1995F701848D958DDC01ED91FC91C3
:100F60000284F385E02D1995F701848D958DDC01C0
:100F7000ED91FC910284F385E02D1995F701848DA4
:100F8000958DDC01ED91FC910284F385E02D19959E
:100F9000F701918F808F02C08FEF9FEF0F900F901E
:100FA000DF91CF911F910F91FF90EF900895CF9215
:100FB000DF92EF92FF920F931F93CF93DF93CDB702
:100FC000DEB72B970FB6F894DEBF0FBECDBF8C01F6
:100FD0006A017B01DC0117962D913D914D915C9149
:100FE0001A97C701B6010E94E81787FD48C0F801AB
:100FF0002381348145815681C701B6010E94D714EF
:101000001816ECF120E030E046E153E4D8011B96DD
:101010006D917D918D919C911E970E94E81787FD9F
:101020002EC021EE3AE744E95EE3C701B6010E9413
:10103000FE160E946617F80182810190F081E02D72
:101040009AE0980F960F970F909590832FEF298332
:101050002A838B8387E08C8384E08D838EE18E836B
:101060006F83788781EE89871A869B874BE050E0F3
:10107000BE016F5F7F4FCF01EADE81E001C080E0FB
:101080002B960FB6F894DEBF0FBECDBFDF91CF9188
:101090001F910F91FF90EF90DF90CF900895EF9206
:1010A000FF920F931F93CF93DF931F92CDB7DEB7BD
:1010B000142FF22E882329F082EC94E069835ADD04
:1010C0006981662319F08BE095E054DD112319F056
:1010D00084E595E04FDDFF2019F08DE995E04ADDCC
:1010E000002319F086EE95E045DDEE2019F08FE241
:1010F00096E040DD1092840603E210E082EC94E07A
:1011000005DD882359F0809184068A3F00F58F5FC2
:1011100080938406C8010197F1F7F0CF8BE095E04A
:10112000F5DC8111F0CF84E595E0F0DC8111EBCFA7
:101130008DE995E0EBDC8111E6CF86EE95E0E6DC0B
:101140008111E1CF8FE296E0E1DC8111DCCF0F90DD
:10115000DF91CF911F910F91FF90EF9008952F9203
:101160003F924F925F926F927F928F929F92AF9237
:10117000BF92CF92DF92EF92FF920F931F93CF9384
:10118000DF93CDB7DEB7A4970FB6F894DEBF0FBEDE
:10119000CDBF1B01833339F170F48133D9F0823331
:1011A00009F058C0E2E88E2EE6E79E2EEAECAE2E5D
:1011B000E2E4BE2E47C08533A1F120F1863309F069
:1011C00049C099E5892E9EE5992E96E5A92E93E4CE
:1011D000B92E38C0F2E88F2EF6E79F2EFAECAF2E2C
:1011E000F2E4BF2E26C06DEC862E6CEC962E6DE1DF
:1011F000A62E63E4B62EC12CD12C70EAE72E72EC39
:10120000F72E28C04DEC842E4CEC942E4DE1A42EEC
:1012100043E4B42EC12CD12C50EAE52E52E4F52E35
:1012200019C039E5832E3EE5932E36E5A32E33E42F
:10123000B32E20E3C22E26E4D22E22E6E22E22ECAA
:10124000F22E08C080E3C82E86E4D82E82E6E82E6F
:1012500082E4F82E2DEC3CEC4DE153E4C501B401E1
:101260000E9420162B013C01A7019601C701B6017F
:101270000E943C154B015C01A3019201C301B20124
:101280000E943C159B01AC01C501B4010E942116CE
:1012900020E030E0A9010E9421160E94F7174B01BF
:1012A0005C0120E030E048EE51E40E94FE166D87BC
:1012B0007E878F87988BA5019401C701B6010E9494
:1012C000FE16698B7A8B8B8B9C8BA5019401C301D5
:1012D000B2010E94FE166D8B7E8B8F8B988FA501BD
:1012E000940160E070E0CB010E94FE16698F7A8F56
:1012F0008B8F9C8F8101212C312CB101032C000C90
:10130000880B990B0E94DD142D853E854F855889E9
:101310000E943C156B017C0129893A894B895C89C3
:101320000E943C1520E030E0A9010E94211669834B
:101330007A838B839C832D893E894F89588DC70181
:10134000B6010E943C152DEC3CEC4DE153E40E94AB
:1013500021166D837E838F839887298D3A8D4B8DDF
:101360005C8DC701B6010E943C1520E030E0A90168
:101370000E94211669877A878B879C8729813A8109
:101380004B815C81CA01B9010E943C156B017C0153
:101390002D813E814F815885CA01B9010E943C15BB
:1013A0009B01AC01C701B6010E9421160E94F717EC
:1013B0006B017C0124EA30EB4FEE52E469857A85BB
:1013C0008B859C850E9421162B013C0120E030E09A
:1013D0004FE352E4C701B6010E9420166B017C0165
:1013E000A3019201C301B2010E943C154B015C01B3
:1013F000A7019601C701B6010E943C159B01AC01F3
:10140000C501B4010E9421160E94F7176B017C01EF
:101410009B01AC010E943C154B015C01A7019601A8
:10142000C301B2010E94FE160E9485166D8F7E8F49
:101430008F8F98A329813A814B815C816D817E8158
:101440008F8198850E94AB1669A37AA38BA39CA376
:1014500020E931E646EB55E4C501B4010E942116AE
:1014600020EC36E143E257E40E9420162B013C01B8
:101470002DE33AEC48E153E4C701B6010E943C1564
:101480009B01AC01C301B2010E94FE160E9412161C
:101490006B017C0120E931E646EB55E4C501B4015E
:1014A0000E94201620EC36E143E257E40E94201609
:1014B00029E237EE43EF56E40E94FE160E94121610
:1014C0004B015C012BED3FE049E450E469A17AA1B6
:1014D0008BA19CA10E94FE1620E030E044E353E47F
:1014E0000E943C152B013C012D8D3E8D4F8D58A146
:1014F000C701B6010E9420162BED3FE049E450E4FD
:101500000E94FE1620E030E044E353E40E943C15C4
:101510006B017C01C501B40190582BED3FE049E41B
:1015200050E40E94FE1620E030E044E353E40E94C1
:101530003C154B015C0120E030E040E752E4C30180
:10154000B2010E942116D80112966D937D938D935E
:101550009C9315973801BAE76B0E711CA701960191
:1015600060E070E086E193E40E942016F30160835E
:101570007183828393837801F2EFEF0EF11C2DECDF
:101580003CE44AE353E4C501B4010E942116D701AB
:101590006D937D938D939C931397F801E659FE4FBD
:1015A00089819A81AB81BC8180839183A283B3833B
:1015B000E858FF4F8D819E81AF81B88580839183EC
:1015C000A283B383E858FF4F89859A85AB85BC8594
:1015D00080839183A283B3839FEF291A390A0C5F1A
:1015E0001F4FAEE12A16310409F087CEA4960FB63C
:1015F000F894DEBF0FBECDBFDF91CF911F910F9149
:10160000FF90EF90DF90CF90BF90AF909F908F9022
:101610007F906F905F904F903F902F9008950E9421
:10162000551890E0FC01EE5CFD4F2491FC01E45163
:10163000FE4F8491882399F090E0880F991FFC0158
:10164000EE52FE4FA591B491FC01E854FE4F8591F6
:1016500094918FB7F894EC91E22BEC938FBF08959F
:101660008F929F92AF92BF92CF92DF92EF92FF92B2
:101670006B017C01F5D94B015C01C60ED71EE81E3B
:10168000F91EEED9681579058A059B0528F0C6165E
:10169000D706E806F906A8F7FF90EF90DF90CF9005
:1016A000BF90AF909F908F900895CF92DF92EF926E
:1016B000FF920F931F93CF93DF93CDB7DEB72B9796
:1016C0000FB6F894DEBF0FBECDBF8C016A017B015F
:1016D000DC0117962D913D914D915C911A97C701B0
:1016E000B6010E94E81787FD48C0F80123813481C4
:1016F00045815681C701B6010E94D7141816ECF136
:1017000020E030E046E153E4D8011B966D917D91D5
:101710008D919C911E970E94E81787FD2EC021EEA7
:101720003AE744E95EE3C701B6010E94FE160E9453
:101730006617F80182810190F081E02D99E0980F01
:10174000960F970F909590832FEF29832A838B8391
:1017500087E08C8383E08D838EE18E836F8378872F
:1017600081EE89871A869B874BE050E0BE016F5F50
:101770007F4FCF016CDB81E001C080E02B960FB67C
:10178000F894DEBF0FBECDBFDF91CF911F910F91B7
:10179000FF90EF90DF90CF9008950F931F93CF931A
:1017A000DF93EC018B0161E08981A5D88C8D9D8D43
:1017B000DC01ED91FC910280F381E02D48E050E0E6
:1017C000B80119958C8D9D8DDC01ED91FC91068001
:1017D000F781E02D199560E08981DF91CF911F910C
:1017E0000F9189C82F923F924F925F926F927F9292
:1017F0008F929F92AF92BF92CF92DF92EF92FF9221
:101800000F931F93CF93DF93CDB7DEB7CC55DB405B
:101810000FB6F894DEBF0FBECDBF8E010958174F2B
:101820008EE190E0D8018D939C93CB55DA4F99834C
:101830008883C55AD540CD52DD4F99838883C35DD7
:10184000D240B80181E38BDCBE016B557A4F84E353
:1018500086DCBE016D527D4F85E381DC80E090E047
:10186000C55AD44F0883CB55DB40C45AD44F188394
:10187000CC55DB408830910509F41FC284309105B6
:1018800009F485C13CF5009709F43CC0813091050D
:1018900089F7EE24E39400E020E041E061E080E09D
:1018A000FEDBC55AD44FE881CB55DB40C45AD44F38
:1018B000F881CC55DB40DE01119682ED92E001907B
:1018C0000D920197E1F78E010F5F1F4F8EE1682E99
:1018D000712C2DC08530910509F475C186309105B4
:1018E00049F682EC94E02FD98DE995E02CD986EE6B
:1018F00095E029D966E970E080E090E079D888E049
:1019000090E0B8CF82EC94E049DA8BE095E046DADB
:1019100084E595E043DA8DE995E040DA86EE95E0DE
:101920003DDA8FE296E03ADA81E090E0A3CFF80169
:10193000E65AFD4F80819181A281B381C15BD44F72
:1019400088839983AA83BB83CF54DB40E857F1098E
:1019500080819181A281B381CD5AD44F88839983AC
:10196000AA83BB83C355DB40E857F109808191818D
:10197000A281B381C95AD44F88839983AA83BB8338
:10198000C755DB40E857F109208031804280538001
:10199000E857F109C080D180E280F380D801129627
:1019A0008D909D90AD90BC9015978091F104909191
:1019B000F204019709F064C020E030E040E85FEBFA
:1019C000C501B401F4D78823A1F0B501A40184ECCA
:1019D00094E0EDDA20E030E040E85FEBC701B601CB
:1019E000E6D781110FC0B201A10182EE94E0DFDAE7
:1019F00017C020E030E040E85FEBC701B601D7D761
:101A0000882371F0B701A60183ED94E0D0DA20E0DD
:101A100030E040E85FEBC501B401C9D78111E3CFE5
:101A2000C95AD44F88819981AA81BB81C755DB40AF
:101A30008093FF0490930005A0930105B0930205E5
:101A4000CD5AD44F88819981AA81BB81C355DB408F
:101A50008093030590930405A0930505B0930605B4
:101A6000C15BD44F88819981AA81BB81CF54DB406F
:101A70008093070590930805A0930905B0930A0584
:101A80008091C4049091C504AFEFC75BD44FA88385
:101A9000C954DB40C65BD44FA883CA54DB40BEEFB9
:101AA000C55BD44FB883CB54DB40E2E0C45BD44F7A
:101AB000E883CC54DB40F5E0C35BD44FF883CD54CE
:101AC000DB402AEFC25BD44F2883CE54DB4046E094
:101AD00050E0BE01675B744FBAD98091FF049091CA
:101AE0000005A0910105B09102058093F304909345
:101AF000F404A093F504B093F6048091030590914B
:101B00000405A0910505B09106058093F704909314
:101B1000F804A093F904B093FA048091070590911A
:101B20000805A0910905B0910A058093FB049093E4
:101B3000FC04A093FD04B093FE041092FF041092E5
:101B400000051092010510920205109203051092F3
:101B500004051092050510920605109207051092D3
:101B600008051092090510920A0581E0681A7108AB
:101B70000C5F1F4F6114710409F0D9CE66E970E063
:101B800080E090E00E94F80484E090E073CE8BE067
:101B900095E00E94A30584E595E00E94A3058FE2ED
:101BA00096E00E94A30566E970E080E090E00E9464
:101BB000F804E12C01E021E040E060E081E06FDA30
:101BC00085E090E057CE40E050E066E173E484ECBD
:101BD00094E06BDD1092F3041092F4041092F5047B
:101BE0001092F6041092F7041092F8041092F9047F
:101BF0001092FA0440E050E066E173E48FE995E06A
:101C000054DD1092CE051092CF051092D00510929F
:101C1000D1051092D2051092D3051092D4051092DE
:101C2000D50540E050E066E173E488EE95E03DDDE7
:101C300010921706109218061092190610921A06A2
:101C400010921B0610921C0610921D0610921E0682
:101C50001092840682EC94E00E948605882361F04D
:101C6000809184068A3F30F58F5F8093840683E2FB
:101C700090E00197F1F7EECF8BE095E00E948605AA
:101C80008111EECF84E595E00E9486058111E8CFB1
:101C90008DE995E00E9486058111E2CF86EE95E000
:101CA0000E9486058111DCCF8FE296E00E948605B6
:101CB0008111D6CF86E090E0DDCD80E0C45AD44FCC
:101CC0000FB6F894DEBF0FBECDBFDF91CF911F914D
:101CD0000F91FF90EF90DF90CF90BF90AF909F90CB
:101CE0008F907F906F905F904F903F902F900895CE
:101CF0006115710579F0FB0101900020E9F731973A
:101D0000AF01461B570BDC01ED91FC910280F38182
:101D1000E02D199480E090E008954F925F926F92C9
:101D20007F92EF92FF920F931F93CF93DF93CDB7E4
:101D3000DEB7A1970FB6F894DEBF0FBECDBF7C0112
:101D4000FA01CB0119A2223008F42AE08E010F5DBE
:101D50001F4F422E512C612C712CBF01A301920107
:101D60003FD7F901CA01015011096A3014F4605DCE
:101D700001C0695CD8016C93232B242B252B69F7B8
:101D8000B801C701B5DFA1960FB6F894DEBF0FBE4C
:101D9000CDBFDF91CF911F910F91FF90EF907F907A
:101DA0006F905F904F900895CF92DF92EF92FF92E5
:101DB0000F931F93CF93DF93EC016A017B01E889B6
:101DC000F98982E080834115514E61057105A9F0C2
:101DD00060E079E08DE390E0A701960101D78901E9
:101DE0009A01015011092109310936952795179556
:101DF0000795980101151041A0F0E889F989108232
:101E000060E874E88EE190E0A7019601E9D6DA0176
:101E1000C9010197A109B109B695A795979587952D
:101E20009C01EC85FD853083EE85FF852083188E2F
:101E3000EC89FD8986E08083EA89FB898081806165
:101E40008083EA89FB89808188608083EA89FB89B5
:101E5000808180688083EA89FB8980818F7D80838F
:101E6000DF91CF911F910F91FF90EF90DF90CF9076
:101E70000895789484B5826084BD84B5816084BD02
:101E800085B5826085BD85B5816085BD80916E0018
:101E9000816080936E001092810080918100826049
:101EA0008093810080918100816080938100809186
:101EB00080008160809380008091B1008460809375
:101EC000B1008091B00081608093B000809191005A
:101ED0008260809391008091910081608093910055
:101EE000809190008160809390008091A100826039
:101EF0008093A1008091A10081608093A1008091D6
:101F0000A00081608093A000809121018260809375
:101F10002101809121018160809321018091200124
:101F200081608093200180917A00846080937A00A0
:101F300080917A00826080937A0080917A0081603B
:101F400080937A0080917A00806880937A00109262
:101F5000C10010922A0310922B0310922C031092AE
:101F60002D031092E8021092E9021092EA021092F8
:101F7000EB0268EB7BE080E090E072DB89E492E0CA
:101F8000909329038093280340E052EC61E070E0D5
:101F90000BDF0E9430056093E8027093E9028093A2
:101FA000EA029093EB0262E172E080912803909143
:101FB00029039EDE6AE070E080E090E051DB81E082
:101FC0008093FC0284EF882E99249394A12CB12C49
:101FD0000E943005672B682B692B41F40E94300565
:101FE000623071058105910508F4FEC00E9430053C
:101FF0006093450270934602809347029093480293
:10200000C0904102D0904202E0904302F09044021E
:102010006C157D058E059F0540F460934102709319
:1020200042028093430290934402C0904102D090B8
:102030004202E0904302F09044029B01AC012C1953
:102040003D094E095F0969017A013AEFC316D104CF
:10205000E104F10408F4C8C06093410270934202A5
:1020600080934302909344028092F4029092F5028E
:10207000A092F602B092F7021092F8021092F902C2
:102080001092FA021092FB028091EC029091ED0204
:10209000A091EE02B091EF028093F0029093F102D2
:1020A000A093F202B093F3020E9430056093EC0219
:1020B0007093ED028093EE029093EF020E94300540
:1020C0006093E8027093E9028093EA029093EB0236
:1020D0000E9430056B017C0164E272E0809128036C
:1020E0009091290305DE2AE041E050E060E070E0D5
:1020F000809128039091290310DE6BE272E08091B9
:10210000280390912903F4DD2AE0B701A60180910C
:1021100028039091290301DE6DE272E0809128038B
:1021200090912903E5DD8091EC029091ED02A09160
:10213000EE02B091EF02B701A601481B590B6A0BE2
:102140007B0B2AE08091280390912903E6DD6DE264
:1021500072E08091280390912903CADD4091EC023E
:102160005091ED026091EE027091EF028091F002C9
:102170009091F102A091F202B091F302481B590B29
:102180006A0B7B0B2AE08091280390912903C5DD1F
:102190006FE272E08091280390912903A9DD0E94EB
:1021A0003005AB01BC012AE08091280390912903FE
:1021B000B4DDE0902803F090290361E372E0C701E9
:1021C00097DD61E272E0C70193DD65E070E080E0D9
:1021D00090E046DA0E9430056093EC027093ED02C5
:1021E0008093EE029093EF02FDDA0E946D02F0CE32
:1021F00008954F925F926F927F928F929F92AF92CB
:10220000BF92CF92DF92EF92FF920F931F931092A3
:10221000CE031092CD0348EE53E060E070E04093AF
:10222000CF035093D0036093D1037093D20384E023
:1022300092E09093CC038093CB0325E331E030937D
:10224000D8032093D70324E331E03093DA032093BB
:10225000D90320E331E03093DC032093DB0321E357
:1022600031E03093DE032093DD0322E331E030934D
:10227000E0032093DF0326E331E03093E203209371
:10228000E1031092E4031092E5031092E60310922A
:10229000E7031092310310923003409332035093BE
:1022A0003303609334037093350390932F0380932B
:1022B0002E032DEC30E030933B0320933A032CECBB
:1022C00030E030933D0320933C0328EC30E0309322
:1022D0003F0320933E0329EC30E0309341032093E9
:1022E00040032AEC30E030934303209342032EEC6A
:1022F00030E030934503209344031092470310923B
:1023000048031092490310924A0310924C02109213
:102310004B0240934D0250934E0260934F027093D4
:10232000500290934A028093490285EC90E090938A
:1023300056028093550284EC90E09093580280936B
:10234000570280EC90E090935A028093590281ECFE
:1023500090E090935C0280935B0282EC90E090931B
:102360005E0280935D0286EC90E090936002809321
:102370005F02109262021092630210926402109245
:1023800065021092EC021092ED021092EE02109291
:10239000EF021092F0021092F1021092F2021092EB
:1023A000F3021092F4021092F5021092F6021092CB
:1023B000F7021092F8021092F9021092FA021092AB
:1023C000FB0228E634E03093C5042093C40481E086
:1023D0008093C60440E050E066E973E44093C7048C
:1023E0005093C8046093C9047093CA041092CB043C
:1023F0001092CC041092CD041092CE0480E090E0B4
:10240000ABE2B4E48093CF049093D004A093D104C2
:10241000B093D2043093D4042093D304E2E0E09349
:10242000D5044093D6045093D7046093D804709396
:10243000D9041092DA041092DB041092DC0410929A
:10244000DD048093DE049093DF04A093E004B09356
:10245000E1043093E3042093E204E3E0E093E40436
:102460004093E5045093E6046093E7047093E80416
:102470001092E9041092EA041092EB041092EC041A
:102480008093ED049093EE04A093EF04B093F004D6
:10249000E2E0F0E0F093F204E093F10430930E05F3
:1024A00020930D0514E010930F05409310055093F1
:1024B0001105609312057093130510921405109284
:1024C0001505109216051092170580931805909324
:1024D0001905A0931A05B0931B0530931D05209391
:1024E0001C0515E010931E0540931F055093200511
:1024F0006093210570932205109223051092240504
:1025000010922505109226058093270590932805A3
:10251000A0932905B0932A0530932C0520932B0511
:1025200016E010932D0540932E0550932F056093D0
:1025300030057093310510923205109233051092D8
:102540003405109235058093360590933705A09396
:102550003805B0933905F0933B05E0933A05309385
:1025600057052093560517E01093580540935905D9
:1025700050935A0560935B0570935C0510925D055E
:1025800010925E0510925F051092600580936105C0
:1025900090936205A0936305B0936405309366053C
:1025A0002093650518E010936705409368055093E4
:1025B000690560936A0570936B0510926C05109223
:1025C0006D0510926E0510926F05809370059093C3
:1025D0007105A0937205B093730530937505209330
:1025E000740519E0109376054093770550937805AC
:1025F0006093790570937A0510927B0510927C05A3
:1026000010927D0510927E0580937F059093800542
:10261000A0938105B0938205F0938405E093830530
:102620003093A00520939F051AE01093A1054093D5
:10263000A2055093A3056093A4057093A50510927D
:10264000A6051092A7051092A8051092A9058093DF
:10265000AA059093AB05A093AC05B093AD0530935C
:10266000AF052093AE050BE00093B0054093B10594
:102670005093B2056093B3057093B4051092B505FD
:102680001092B6051092B7051092B8058093B9055F
:102690009093BA05A093BB05B093BC053093BE05DB
:1026A0002093BD050CE00093BF054093C0055093F7
:1026B000C1056093C2057093C3051092C4051092C2
:1026C000C5051092C6051092C7058093C805909362
:1026D000C905A093CA05B093CB05F093CD05E0934F
:1026E000CC053093E9052093E8050DE00093EA0559
:1026F0004093EB055093EC056093ED057093EE0568
:102700001092EF051092F0051092F1051092F2056B
:102710008093F3059093F405A093F505B093F60527
:102720003093F8052093F7050EE00093F9054093E8
:10273000FA055093FB056093FC057093FD0510921C
:10274000FE051092FF05109200061092010680937C
:10275000020690930306A0930406B09305063093F7
:102760000706209306060FE000930806409309062B
:1027700050930A0660930B0670930C0610920D0698
:1027800010920E0610920F061092100680931106FA
:1027900090931206A0931306B0931406F0931606B6
:1027A000E0931506309332062093310600E1009342
:1027B0003306409334065093350660933606709383
:1027C0003706109238061092390610923A06109287
:1027D0003B0680933C0690933D06A0933E06B09343
:1027E0003F06309341062093400601E100934206E4
:1027F0004093430650934406609345067093460603
:1028000010924706109248061092490610924A0606
:1028100080934B0690934C06A0934D06B0934E06C2
:102820003093500620934F0622E1209351064093A7
:1028300052065093530660935406709355061092B7
:102840005606109257061092580610925906809319
:102850005A0690935B06A0935C06B0935D06F093D6
:102860005F06E0935E0682EC94E090937906809395
:1028700078068BE095E090937B0680937A0684E55A
:1028800095E090937D0680937C068DE995E090938A
:102890007F0680937E0686EE95E090938106809376
:1028A00080068FE296E090938306809382068EE204
:1028B00093E09093850480938404109369048AE0E4
:1028C0000E94110B40E452E46FE070E080918404B8
:1028D0009091850469DAA8E7B6E0412C512C86E690
:1028E000682E83E4782E812C912C90E7A92E93E416
:1028F000B92EC12CD12C27E8E22E23E4F22E00E0E1
:1029000010E020EA32E4ED91FD9145825682678223
:102910007086848A958AA68AB78AC3A2D4A2E5A2C1
:10292000F6A2018712872387348740E050E060E7F2
:1029300072E4408F518F628F738F40E050E060EF00
:1029400071E447A350A761A772A756E0A438B50762
:10295000D1F68CE00E94110B60E08CE00E947B04B9
:1029600010928706109286061092890610928806A9
:1029700010928B0610928A068DE00E94110B8CE05B
:102980000E94110B40E855E260E070E08BEC93E0B0
:102990001F910F91FF90EF90DF90CF90BF90AF907D
:1029A0009F908F907F906F905F904F90FDC940D027
:1029B00008F481E00895E89409C097FB3EF49095EF
:1029C0008095709561957F4F8F4F9F4F9923A9F008
:1029D000F92F96E9BB279395F69587957795679597
:1029E000B795F111F8CFFAF4BB0F11F460FF1BC0DB
:1029F0006F5F7F4F8F4F9F4F16C0882311F096E96E
:102A000011C0772321F09EE8872F762F05C066231B
:102A100071F096E8862F70E060E02AF09A95660FD4
:102A2000771F881FDAF7880F9695879597F908958D
:102A3000990F0008550FAA0BE0E8FEEF16161706CF
:102A4000E807F907C0F012161306E407F50798F037
:102A5000621B730B840B950B39F40A2661F0232B50
:102A6000242B252B21F408950A2609F4A140A695CC
:102A70008FEF811D811D08950BD078C069D028F09B
:102A80006ED018F0952309F05AC05FC01124A2C07F
:102A90007ED0A0F3959FD1F3950F50E0551F629F14
:102AA000F001729FBB27F00DB11D639FAA27F00DA7
:102AB000B11DAA1F649F6627B00DA11D661F829FCE
:102AC0002227B00DA11D621F739FB00DA11D621FB3
:102AD000839FA00D611D221F749F3327A00D611DD0
:102AE000231F849F600D211D822F762F6A2F1124B2
:102AF0009F5750408AF0E1F088234AF0EE0FFF1F05
:102B0000BB1F661F771F881F91505040A9F79E3F3B
:102B1000510570F014C05EC05F3FECF3983EDCF3EB
:102B2000869577956795B795F795E7959F5FC1F778
:102B3000FE2B880F911D9695879597F9089597F923
:102B40009F6780E870E060E008959FEF80EC089553
:102B500000240A941616170618060906089500247C
:102B60000A9412161306140605060895092E0394F6
:102B7000000C11F4882352F0BB0F40F4BF2B11F46A
:102B800060FF04C06F5F7F4F8F4F9F4F089557FDC9
:102B90009058440F551F59F05F3F71F04795880FCB
:102BA00097FB991F61F09F3F79F087950895121662
:102BB00013061406551FF2CF4695F1DF08C016160E
:102BC00017061806991FF1CF8695710561050894BF
:102BD0000895E894BB2766277727CB0197F90895D6
:102BE000A1E21A2EAA1BBB1BFD010DC0AA1FBB1F11
:102BF000EE1FFF1FA217B307E407F50720F0A21B83
:102C0000B30BE40BF50B661F771F881F991F1A94EF
:102C100069F760957095809590959B01AC01BD0119
:102C2000CF0108959F939F7782D10F9000203AF4AF
:102C30009058A2EA2AED3FE049E450E413D096CF41
:102C40005058BB27AA270ED091CF82DF30F087DF04
:102C500020F031F49F3F11F41EF477CF0EF4E0958D
:102C6000E7FB6DCFE92F93DF80F3BA176207730795
:102C70008407950718F071F49EF5ABCF0EF4E0953C
:102C80000B2EBA2FA02D0B01B90190010C01CA0126
:102C9000A0011124FF27591B99F0593F50F4503ED1
:102CA00068F11A16F040A22F232F342F4427585FC3
:102CB000F3CF469537952795A795F0405395C9F7DB
:102CC0007EF41F16BA0B620B730B840BBAF0915093
:102CD000A1F0FF0FBB1F661F771F881FC2F70EC032
:102CE000BA0F621F731F841F48F487957795679505
:102CF000B795F7959E3F08F0B3CF9395880F08F0EE
:102D00009927EE0F9795879508959F939F77EEE308
:102D100089379E0720F4E8E0F1E049D109C007D1E6
:102D20009058A2EA2AED3FE049EC5FE39BDF1EDF0B
:102D30000F9007FC905808950BDF58F080E891E061
:102D400009F49EEF0CDF28F040E851E059F45EEF03
:102D500009C0FBCE3ECFE92FE07819DF68F3092EDA
:102D6000052AC1F3261737074807590738F00E2EF2
:102D700007F8E02569F0E025E0640AC0EF6307F892
:102D8000009407FADB01B9019D01DC01CA01AD0124
:102D9000EF9343D0EBDE0AD05F91552331F02BED5A
:102DA0003FE049E450FD49EC4CCF0895DF93DD2727
:102DB000B92FBF7740E85FE31616170648075B0791
:102DC00010F4D92F09D19F938F937F936F934DD197
:102DD000ECE1F1E0C7D0CADE2F913F914F915F91B6
:102DE00057DEDD2349F09058A2EA2AED3FE049EC96
:102DF0005FE3D0785D2736DFDF91B8CE0CD0B6CE5A
:102E0000AEDE40F0A5DE30F021F45F3F19F097CE42
:102E10005111E0CE9ACEBBDE98F39923C9F3552326
:102E2000B1F3951B550BBB27AA27621773078407BD
:102E300038F09F5F5F4F220F331F441FAA1FA9F373
:102E400033D00E2E3AF0E0E830D091505040E69565
:102E5000001CCAF729D0FE2F27D0660F771F881FC6
:102E6000BB1F261737074807AB07B0E809F0BB0BB5
:102E7000802DBF01FF2793585F4F2AF09E3F5105D9
:102E800068F05DCEA7CE5F3FECF3983EDCF386950D
:102E900077956795B795F7959F5FC9F7880F911D4F
:102EA0009695879597F90895E1E0660F771F881F3B
:102EB000BB1F621773078407BA0720F0621B730BEE
:102EC000840BBA0BEE1F88F7E095089504D0689440
:102ED000B11180CE089563DE88F09F5790F0B92F2E
:102EE0009927B751A0F0D1F0660F771F881F991F5F
:102EF0001AF0BA95C9F712C0B13081F06ADEB1E0BC
:102F0000089567CE672F782F8827B85F39F0B93FCB
:102F1000CCF3869577956795B395D9F73EF4909560
:102F20008095709561957F4F8F4F9F4F0895DF93E8
:102F3000CF931F930F938B01EC01E9E4F1E012D0E2
:102F400015DE9801AE018B01EC0160E070E080E8D5
:102F50009FE376DE4CD09801AE010F911F91CF9187
:102F6000DF9196CDDF93CF931F930F93FF92EF9254
:102F7000DF927B018C01689405C0DA2EEF0188DDB9
:102F8000FE01E894A5912591359145915591AEF3B7
:102F9000EF0168DEFE019701A801DA9479F7DF906E
:102FA000EF90FF900F911F91CF91DF9108959F9324
:102FB0008F937F936F93FF93EF939B01AC015CDD45
:102FC000EF91FF91CFDF2F913F914F915F9154CDC2
:102FD0002FDD08F48FEF08959B01AC0160E070E0F5
:102FE00080E89FE30BCF11F40EF4AFCD41C0D7DDE5
:102FF000D0F39923D9F3CEF39F57550B87FF46D0D3
:103000000024A0E640EA900180585695979528F450
:10301000805C660F771F881F20F026173707480748
:1030200030F4621B730B840B202931294A2BA6959F
:1030300017940794202531254A2758F7660F771FE4
:10304000881F20F026173707480730F4620B730BF0
:10305000840B200D311D411DA09581F7B901842FEE
:103060009158880F9695879508959B01AC0104CDE2
:103070009F3F31F0915020F4879577956795B795EC
:10308000880F911D9695879597F908959150504016
:10309000660F771F881FD2F70895EE0FFF1F881F56
:1030A0008BBF0790F691E02D199481E090E0F894A1
:1030B00000C011E0CDE3D1E000E005C0802FFE01AB
:1030C000ECDF2196011DCE33D10780E00807B1F770
:0430D000F894FFCFA2
:1030D400000000000602FC068D014C02BE019C01AA
:1030E400B001564D4450565F317C315F564D4450CB
:1030F400560D0A00564D4450455F003A323A007C62
:08310400005F564D44504500E8
:020000023000CC
:10E000000D9489F10D94B2F10D94B2F10D94B2F129
:10E010000D94B2F10D94B2F10D94B2F10D94B2F1F0
:10E020000D94B2F10D94B2F10D94B2F10D94B2F1E0
:10E030000D94B2F10D94B2F10D94B2F10D94B2F1D0
:10E040000D94B2F10D94B2F10D94B2F10D94B2F1C0
:10E050000D94B2F10D94B2F10D94B2F10D94B2F1B0
:10E060000D94B2F10D94B2F10D94B2F10D94B2F1A0
:10E070000D94B2F10D94B2F10D94B2F10D94B2F190
:10E080000D94B2F10D94B2F10D94B2F10D94B2F180
:10E090000D94B2F10D94B2F10D94B2F10D94B2F170
:10E0A0000D94B2F10D94B2F10D94B2F10D94B2F160
:10E0B0000D94B2F10D94B2F10D94B2F10D94B2F150
:10E0C0000D94B2F10D94B2F10D94B2F10D94B2F140
:10E0D0000D94B2F10D94B2F10D94B2F10D94B2F130
:10E0E0000D94B2F141546D656761323536300041AF
:10E0F000726475696E6F206578706C6F72657220DE
:10E1000073746B3530305632206279204D4C530099
:10E11000426F6F746C6F616465723E004875683F52
:10E1200000436F6D70696C6564206F6E203D200048
:10E130004350552054797065202020203D20005FF9
:10E140005F4156525F415243485F5F3D2000415658
:10E1500052204C696243205665723D20004743437C
:10E160002056657273696F6E203D20004350552024
:10E1700049442020202020203D20004C6F7720663D
:10E18000757365202020203D20004869676820665F
:10E190007573652020203D200045787420667573D6
:10E1A00065202020203D20004C6F636B2066757336
:10E1B000652020203D20004D617220203720323024
:10E1C000313300312E362E3800342E332E350056A2
:10E1D00023202020414444522020206F7020636F70
:10E1E00064652020202020696E73747275637469E1
:10E1F0006F6E2061646472202020496E74657272B3
:10E20000757074006E6F20766563746F7200726A49
:10E210006D702020006A6D70200057686174207056
:10E220006F72743A00506F7274206E6F7420737541
:10E2300070706F72746564004D7573742062652030
:10E2400061206C6574746572002000577269747483
:10E25000696E672045450052656164696E672045B7
:10E26000450045452065727220636E743D00504F35
:10E27000525400303D5A65726F2061646472003FF1
:10E280003D43505520737461747300403D454550C3
:10E29000524F4D207465737400423D426C696E6B41
:10E2A000204C454400453D44756D70204545505215
:10E2B0004F4D00463D44756D7020464C415348001B
:10E2C000483D48656C70004C3D4C69737420492F83
:10E2D0004F20506F72747300513D51756974005234
:10E2E0003D44756D702052414D00563D73686F7707
:10E2F00020696E7465727275707420566563746FF0
:10E30000727300593D506F727420626C696E6B00BD
:10E310002A0011241FBECFEFD1E2DEBFCDBF01E046
:10E320000CBF12E0A0E0B2E0EEE1FDEF03E00BBFB6
:10E3300002C007900D92A030B107D9F712E0A0E01B
:10E34000B2E001C01D92AE30B107E1F70F9460F367
:10E350000D948DFE01E20EBF0FEF0DBF11241FBE05
:10E360000D9460F30D9400F020E030E040ED57E0B4
:10E3700005C0FA013197F1F72F5F3F4F2817390792
:10E38000C0F308959C01260F311DC901A0E0B0E043
:10E390002F5F3F4FABBFFC018791882361F08093D3
:10E3A000C6008091C00086FFFCCF8091C0008064D1
:10E3B0008093C000EACF08958DE08093C6008091DD
:10E3C000C00086FFFCCF8091C00080648093C000B5
:10E3D0008AE08093C6008091C00086FFFCCF8091C8
:10E3E000C00080648093C00008950F94C2F10F9420
:10E3F000DCF10895FC019081992359F09093C600B7
:10E400008091C00086FFFCCF8091C0008064809323
:10E41000C0003196992379F70895282F982F929567
:10E420009F70892F805D8A3308F0895F8093C600D2
:10E430008091C00086FFFCCF8091C00080648093F3
:10E44000C000822F8F70982F905D9A3308F0995FEB
:10E450009093C6008091C00086FFFCCF8091C000E1
:10E4600080648093C00008959C01FB01853691056E
:10E470001CF46330710594F0C90164E670E00F94F8
:10E480002EFE605D7F4F6093C6008091C00086FFC6
:10E49000FCCF8091C00080648093C0002B30310598
:10E4A00014F43297B4F0C90164E670E00F942EFEC4
:10E4B0006AE070E00F942EFE605D7F4F6093C600AF
:10E4C0008091C00086FFFCCF8091C0008064809363
:10E4D000C000C9016AE070E00F942EFEC0968093E0
:10E4E000C6008091C00086FFFCCF8091C000806490
:10E4F0008093C00008951F93182F8EE692EE60E07F
:10E500000F94C2F11093C6008091C00086FFFCCF2B
:10E510008091C00080648093C0000F94DCF11F9153
:10E5200008952F923F924F925F926F927F928F92B7
:10E530009F92AF92BF92CF92DF92EF92FF920F9392
:10E540001F93DF93CF93CDB7DEB762970FB6F894E2
:10E55000DEBF0FBECDBF382E622ECA01DB015C01CB
:10E560006D01772420E2222E2E010894411C511CBB
:10E570008BC081E0A81680E0B80681E0C80680E084
:10E58000D80628F0C601AA27BB270F940DF2BB2797
:10E59000AD2D9C2D8B2D0F940DF28A2D0F940DF225
:10E5A0002092C6008091C00086FFFCCF8091C00001
:10E5B00080648093C0009DE29093C6008091C0006B
:10E5C00086FFFCCF8091C00080648093C0002092C1
:10E5D000C6008091C00086FFFCCF8091C00080649F
:10E5E0008093C00019828601750188249924A1E0D6
:10E5F0003A1651F03A1620F0B2E03B1661F409C029
:10E600000BBFF701779007C0C7010F9477FE782EF4
:10E6100002C0F7017080872D0F940DF22092C60082
:10E620008091C00086FFFCCF8091C0008064809301
:10E63000C000872D8052F401EF70F0708F3520F408
:10E64000E40DF51D708204C0E40DF51D8EE280839B
:10E650000894E11CF11C011D111D0894811C911CE2
:10E6600090E18916910409F0C2CF80E190E0A0E02A
:10E67000B0E0A80EB91ECA1EDB1E198AC2010F9493
:10E68000FAF10F94DCF16A94662009F072CF629679
:10E690000FB6F894DEBF0FBECDBFCF91DF911F91B3
:10E6A0000F91FF90EF90DF90CF90BF90AF909F9031
:10E6B0008F907F906F905F904F903F902F90089534
:10E6C0002F923F924F925F926F927F928F929F9282
:10E6D000AF92BF92CF92DF92EF92FF920F931F9370
:10E6E000DF93CF93CDB7DEB7CD53D1400FB6F894BB
:10E6F000DEBF0FBECDBF01E20EBF0FEF0DBF94B75F
:10E70000F894A89514BE80916000886180936000A1
:10E7100010926000789493FF05C0E0910002F091A0
:10E7200001021995279A2F9A8091C00082608093E8
:10E73000C00080E18093C40088E18093C1000000A4
:10E74000EE24FF24870144E0A42EB12CCC24DD2448
:10E7500024C0C5010197F1F70894E11CF11C011DCB
:10E76000111D21E2E2162EE4F20620E0020720E06D
:10E77000120718F031E0C32ED12CC801B70127ECE5
:10E780003BE140E050E00F9441FE611571058105C9
:10E79000910519F485B1805885B98091C00087FD35
:10E7A00003C0C114D104A9F2A6014F5F5F4FC25E3E
:10E7B000DE4F59834883CE51D140C25EDE4F8881FF
:10E7C0009981CE51D140019711F00D9410FEC05D9A
:10E7D000DE4F19821882C053D14060E0C15DDE4F28
:10E7E0001882CF52D14088249924C35DDE4F19820C
:10E7F0001882CD52D140C05EDE4F188219821A8233
:10E800001B82C052D140CE5CDE4F188219821A8220
:10E810001B82C253D140EE24FF2487010BBFF701B6
:10E8200007911691C45CDE4F19830883CC53D14005
:10E830000D940BFEC25EDE4F28813981CE51D1404E
:10E840002130310509F52091C600C25EDE4F1982E4
:10E850001882CE51D14022C02F5F3F4F4F4F5F4FA4
:10E86000213082E138078AE7480780E0580780F0C6
:10E87000C45CDE4FE881F981CC53D140EF5FFF4F9C
:10E8800019F0EE27FF27099420E030E040E050E047
:10E890008091C00087FFE0CF2091C600C35DDE4FAE
:10E8A00048815981CD52D1404F5F5F4FC35DDE4FEC
:10E8B00059834883CD52D140213209F063C64A3092
:10E8C000510508F05FC60894811C911C53E0851621
:10E8D000910409F059C600E010E018C081E280936D
:10E8E000C6008091C00086FFFCCF8091C00080648C
:10E8F0008093C0002F5F3F4F2931310579F70F9486
:10E90000DCF10F5F1F4F0530110519F020E030E0FA
:10E91000E5CF10920A0210920B0210920C02109294
:10E920000D02109206021092070210920802109235
:10E930000902109202021092030210920402109235
:10E9400005028FEE90EE60E00F94F5F180E191EE1C
:10E9500060E00F94C2F18091C00087FFFCCF9091DE
:10E96000C600903608F09F759032B8F09093C600BC
:10E970008091C00086FFFCCF8091C00080648093AE
:10E98000C000A0E2A093C6008091C00086FFFCCF2B
:10E990008091C00080648093C000983409F4D7C18E
:10E9A0009934B8F4923409F459C1933458F490333B
:10E9B00019F1903308F4E3C59F33A1F1903409F0C5
:10E9C000DEC5BDC0953409F470C1963409F0D7C5D1
:10E9D00098C1923509F42BC2933538F49C3409F46C
:10E9E000F5C1913509F0CBC518C2963509F445C279
:10E9F000993509F0C4C567C483E792EE62E00F94CD
:10EA0000F5F110920602109207021092080210927D
:10EA1000090210920A0210920B0210920C0210923C
:10EA20000D0213C18FE792EE62E00F94F5F18FEEC5
:10EA300090EE60E00F94F5F181E291EE60E00F94CA
:10EA4000C2F187EB91EE60E00F94F5F180E391EE77
:10EA500060E00F94C2F184EE90EE60E00F94F5F167
:10EA60008FE391EE60E00F94C2F186E090E061E008
:10EA700070E00F9434F20F94DCF18DE591EE60E0DC
:10EA80000F94C2F189EC91EE60E00F94F5F18EE401
:10EA900091EE60E00F94C2F183EC91EE60E00F9490
:10EAA000F5F18CE691EE60E00F94C2F18EE10F94E7
:10EAB0000DF288E90F940DF281E00F940DF20F949E
:10EAC000DCF18BE791EE60E00F94C2F119E0E0E039
:10EAD000F0E010935700E4918E2F0F940DF20F94F5
:10EAE000DCF18AE891EE60E00F94C2F1E3E0F0E03F
:10EAF00010935700E4918E2F0F940DF20F94DCF1D8
:10EB000089E991EE60E00F94C2F1E2E0F0E0109349
:10EB10005700E4918E2F0F940DF20F94DCF188EAE8
:10EB200091EE60E00F94C2F1E1E0F0E01093570045
:10EB30001491812F0F940DF20F94DCF107CF8BE825
:10EB400092EE62E00F94F5F18BE492EE60E00F94A8
:10EB5000F5F10F94DCF100E010E019C0C8016F2D51
:10EB60000F947FFEFF2031F489E492EE60E00F9471
:10EB7000C2F10BC0F092C6008091C00086FFFCCFAE
:10EB80008091C00080648093C0000F5F1F4FC80158
:10EB900081519F41A0E0B0E0ABBFFC01F790BAE229
:10EBA000FB1621F0E2E000301E07C1F60F94DCF105
:10EBB0000F94DCF187E592EE60E00F94F5F10F948D
:10EBC000DCF1CC24DD2400E010E01EC0C8010F946D
:10EBD00077FEF82E882331F489E492EE60E00F94FA
:10EBE000C2F10BC08093C6008091C00086FFFCCFAD
:10EBF0008091C00080648093C000FE1419F00894D6
:10EC0000C11CD11C0F5F1F4FC80181519F41A0E063
:10EC1000B0E0ABBFFC01E790FAE2EF1621F022E092
:10EC20000030120799F60F94DCF10F94DCF182E6C4
:10EC300092EE60E00F94C2F1C60161E070E00F94C3
:10EC400034F20F94DCF10F94DCF110920202109276
:10EC50000302109204021092050278CE89E992EE26
:10EC600062E00F94F5F1279A2F9A16C02F9880E052
:10EC700090E0E0EDF7E03197F1F7019684369105E9
:10EC8000C1F72F9A80E090E0E0EDF7E03197F1F7DF
:10EC9000019684369105C1F78091C00087FFE6CFC9
:10ECA0008091C00087FFFCCF64C485EA92EE62E0E9
:10ECB0000F94F5F140910202509103026091040219
:10ECC0007091050281E020E10F9491F2809102029F
:10ECD00090910302A0910402B091050280509F4FD1
:10ECE000AF4FBF4F8093020290930302A0930402A0
:10ECF000B093050280509041A040B04008F426CE69
:10ED0000A4CF83EB92EE62E00F94F5F140910602FE
:10ED100050910702609108027091090280E020E1A1
:10ED20000F9491F28091060290910702A09108023F
:10ED3000B091090280509F4FAF4FBF4F80930602A2
:10ED400090930702A0930802B0930902FFCD80ECD4
:10ED500092EE62E00F94F5F183E792EE60E00F949B
:10ED6000F5F18FE792EE60E00F94F5F18BE892EE0B
:10ED700060E00F94F5F189E992EE60E00F94F5F10F
:10ED800085EA92EE60E00F94F5F183EB92EE60E09D
:10ED90000F94F5F180EC92EE60E00F94F5F187ECC2
:10EDA00092EE60E00F94F5F188ED92EE60E00F9442
:10EDB000F5F18FED92EE60E00F94F5F18AEE92EEB0
:10EDC00060E00F94F5F183E093EEBDCD87EC92EE19
:10EDD00062E00F94F5F181E40F947BF282E40F94EA
:10EDE0007BF283E40F947BF284E40F947BF285E45E
:10EDF0000F947BF286E40F947BF287E40F947BF20E
:10EE000088E40F947BF28AE40F947BF28BE40F94F6
:10EE10007BF28CE40F947BF299CD88ED92EE62E068
:10EE20000F94F5F1772473948824992409C48FED05
:10EE300092EE62E00F94F5F140910A0250910B02BC
:10EE400060910C0270910D0282E020E10F9491F22A
:10EE500080910A0290910B02A0910C02B0910D02D8
:10EE600080509F4FAF4FBF4F80930A0290930B0289
:10EE7000A0930C02B0930D0269CD8AEE92EE62E08F
:10EE80000F94F5F184EE90EE60E00F94F5F18FECC5
:10EE900091EE60E00F94F5F1662477244301CC5D98
:10EEA000DE4F19821882C452D140D401C301B695F5
:10EEB000A79597958795CA5DDE4F88839983AA8326
:10EEC000BB83C652D140CC5DDE4FA881B981C4520C
:10EED000D1401196CC5DDE4FB983A883C452D14096
:10EEE000CD0162E070E00F9434F2B0E2B093C6005E
:10EEF0008091C00086FFFCCF8091C0008064809329
:10EF0000C000EDE2E093C6008091C00086FFFCCF18
:10EF10008091C00080648093C000F0E2F093C6004E
:10EF20008091C00086FFFCCF8091C00080648093F8
:10EF3000C000CA5DDE4FE880F9800A811B81C6529D
:10EF4000D140BB27A12F902F8F2D0F940DF2CA5DBA
:10EF5000DE4F8881C652D1400F940DF2B0E2FB2EF5
:10EF6000F092C6008091C00086FFFCCF8091C00067
:10EF700080648093C0000DE30093C6008091C000C0
:10EF800086FFFCCF8091C00080648093C00010E2B7
:10EF90001093C6008091C00086FFFCCF8091C00016
:10EFA00080648093C0008BBEF3012791C65DDE4F65
:10EFB0002883CA52D140A22EBB24CC24DD2408943D
:10EFC000611C711C811C911C8BBEF3018791282E42
:10EFD0003324442455240894611C711C811C911C09
:10EFE0008BBEF3013791C55DDE4F3883CB52D140E4
:10EFF0000894611C711C811C911C8BBEF30147910C
:10F00000C45DDE4F4883CC52D140ADEFEA2EAFEF66
:10F01000FA2EAFEF0A2FAFEF1A2F6E0C7F1C801E57
:10F02000911E142D032DF22CEE24EA0CFB1C0C1D5A
:10F030001D1D0F940DF220E22093C6008091C000A8
:10F0400086FFFCCF8091C00080648093C000C65DC5
:10F05000DE4F8881CA52D1400F940DF230E23093D6
:10F06000C6008091C00086FFFCCF8091C000806404
:10F070008093C000C45DDE4F8881CC52D1400F9494
:10F080000DF240E24093C6008091C00086FFFCCFA5
:10F090008091C00080648093C000C55DDE4F888190
:10F0A000CB52D1400F940DF250E25093C6008091A4
:10F0B000C00086FFFCCF8091C00080648093C000B8
:10F0C0008FEFE8168FEFF80680E0080780E018075A
:10F0D00031F484E092EE60E00F94C2F1DFC0D80119
:10F0E000C7018070907CA070B0708050904CA040A0
:10F0F000B040D1F52FEF3FE340E050E0E222F322B1
:10F1000004231523CA5DDE4FA880B980CA80DB8046
:10F11000C652D140AE0CBF1CC01ED11EAA0CBB1CD7
:10F12000CC1CDD1C8EE092EE60E00F94C2F1BB2798
:10F13000A12F902F8F2D0F940DF28E2D0F940DF285
:10F1400030E23093C6008091C00086FFFCCF8091F2
:10F15000C00080648093C0004EE34093C60080915D
:10F16000C00086FFFCCF87C08EE09EEFA0E0B0E03D
:10F17000E822F9220A231B239CE0E91694E9F90608
:10F1800090E0090790E0190709F088C0C45DDE4FE0
:10F19000A881CC52D140EA2EFF2400E010E0102FCD
:10F1A0000F2DFE2CEE24C55DDE4FB881CB52D14031
:10F1B000EB0EF11C011D111DD601C501817090706F
:10F1C000A070B070DC0199278827E80EF91E0A1F8D
:10F1D0001B1F20EF30E040E050E0A222B322C42207
:10F1E000D52241E1AA0CBB1CCC1CDD1C4A95D1F7F1
:10F1F000EA0CFB1C0C1D1D1D81E090E0A0E0B0E0BE
:10F20000282239224A225B2235E1220C331C441C7D
:10F21000551C3A95D1F7E20CF31C041D151D57013E
:10F220006801AA0CBB1CCC1CDD1C85E192EE60E0E1
:10F230000F94C2F1C801AA27BB270F940DF2BB2778
:10F24000A12F902F8F2D0F940DF28E2D0F940DF274
:10F2500090E29093C6008091C00086FFFCCF809121
:10F26000C00080648093C000AEE3A093C60080918C
:10F27000C00086FFFCCF8091C00080648093C000F6
:10F28000C601AA27BB270F940DF2BB27AD2D9C2DDD
:10F290008B2D0F940DF28A2D0F940DF20F94DCF14B
:10F2A000CC5DDE4FE881F981C452D140F99709F471
:10F2B0004DCBF4E0EF2EF12C012D112D6E0C7F1CA7
:10F2C000801E911EF2CD83E093EE62E00F94F5F183
:10F2D0008AE192EE60E00F94C2F18091C00087FF56
:10F2E000FCCF1091C6001F751093C6008091C0001E
:10F2F00086FFFCCF8091C00080648093C0000F9493
:10F30000DCF1812F81548A3108F036C1163409F4BA
:10F3100095C0173490F4133409F44EC0143430F40B
:10F320001134F1F0123409F01DC130C0143409F465
:10F3300059C0153409F016C16BC01A3409F4C4C0A1
:10F340001B3438F4173409F48FC0183409F00AC19B
:10F35000A1C01B3409F4D2C01C3409F003C1E8C0B9
:10F360008FEF81B90DC082B1809582B980E090E0C5
:10F37000E0EDF7E03197F1F70196883C9105C1F790
:10F380008091C00087FFEFCF12B8EFC08FEF84B934
:10F390000DC085B1809585B980E090E0E0EDF7E0A3
:10F3A0003197F1F70196883C9105C1F78091C00033
:10F3B00087FFEFCF15B8D9C08FEF87B90DC088B1DF
:10F3C000809588B980E090E0E0EDF7E03197F1F7C3
:10F3D0000196883C9105C1F78091C00087FFEFCF6F
:10F3E00018B8C3C08FEF8AB90DC08BB180958BB9A7
:10F3F00080E090E0E0EDF7E03197F1F70196883C8E
:10F400009105C1F78091C00087FFEFCF1BB8ADC059
:10F410008FEF8DB90DC08EB180958EB980E090E0F0
:10F42000E0EDF7E03197F1F70196883C9105C1F7DF
:10F430008091C00087FFEFCF1EB897C08FEF80BBD1
:10F440000DC081B3809581BB80E090E0E0EDF7E0F6
:10F450003197F1F70196883C9105C1F78091C00082
:10F4600087FFEFCF11BA81C08FEF83BB0DC084B38C
:10F47000809584BB80E090E0E0EDF7E03197F1F714
:10F480000196883C9105C1F78091C00087FFEFCFBE
:10F4900014BA6BC08FEF809301010FC080910201FD
:10F4A00080958093020180E090E0E0EDF7E03197F5
:10F4B000F1F70196883C9105C1F78091C00087FF64
:10F4C000EDCF1092020151C08FEF809304010FC065
:10F4D0008091050180958093050180E090E0E0ED4A
:10F4E000F7E03197F1F70196883C9105C1F78091DB
:10F4F000C00087FFEDCF1092050137C08FEF8093DA
:10F5000007010FC08091080180958093080180E079
:10F5100090E0E0EDF7E03197F1F70196883C910536
:10F52000C1F78091C00087FFEDCF109208011DC088
:10F530008FEF80930A010FC080910B01809580931B
:10F540000B0180E090E0E0EDF7E03197F1F70196F4
:10F55000883C9105C1F78091C00087FFEDCF1092E4
:10F560000B0103C085E292EEEEC98091C00087FFD7
:10F57000FCCF8091C600EAC988E392EEE4C98CE131
:10F5800091EEE1C988249924933011F1943028F444
:10F59000913089F09230B8F408C0953061F195301F
:10F5A000F0F0963009F048C043C02B3109F042C951
:10F5B00091E06BE13FC96227C15DDE4F2883CF52E6
:10F5C000D14092E037C9B22FA0E0622793E032C960
:10F5D000822F90E0A82BB92B622794E02BC92E3004
:10F5E00009F039C3622795E0C05DDE4F19821882A9
:10F5F000C053D1401FC9E1E0F0E0EC0FFD1FC05D3A
:10F60000DE4F08811981C053D140E00FF11F2083E4
:10F610000F5F1F4FC05DDE4F19830883C053D14079
:10F6200062270A171B0709F005C9D80196E002C92D
:10F63000261709F010C303C0973009F0FBC87724E0
:10F640009981933109F412C19431C8F4963009F4C8
:10F65000D8C0973050F4923009F406C1933009F4C1
:10F660006DC0913009F059C253C0913109F477C08F
:10F67000923108F0BBC0903109F04FC2F5C098310B
:10F6800009F487C0993150F4953109F4EFC09531F0
:10F6900008F4C6C1963109F040C2C2C19A3109F4DA
:10F6A0006CC09A3108F491C09B3109F45BC09D3164
:10F6B00009F033C29D81903359F48F81882311F46E
:10F6C0009EE11CC0813011F091E018C098E916C08D
:10F6D000892F807591F0903539F4E0E0F0E089E011
:10F6E0008093570094910AC0983539F4E3E0F0E034
:10F6F00089E080935700949101C090E01A821B82A8
:10F700008D818C831D829E831F8227E030E009C299
:10F710001A8288E08B8381E48C8386E58D8382E581
:10F720008E8389E48F8383E5888780E589878FE5E9
:10F730008A8782E38B872BE030E0F3C18A818139AD
:10F7400041F0823941F0803911F48FE005C080E04A
:10F7500003C082E001C08AE01A828B8344C0772410
:10F76000739482C08D81882311F48EE12CC0813086
:10F7700011F081E028C088E926C01A82E1E0F0E0BB
:10F7800089E08093570084918B831C8224E030E0D1
:10F79000C8C18B81803589F48C81883039F4E2E0EE
:10F7A000F0E089E08093570084910DC0E0E0F0E044
:10F7B00089E080935700849106C0E3E0F0E089E09F
:10F7C0008093570084911A82DFCF8D81836C99E0FA
:10F7D000E1E0F0E0082E90935700E89507B600FCB2
:10F7E000FDCF1A821B8223E030E09BC180EC8A832C
:10F7F000CE5CDE4F188219821A821B82C253D1401E
:10F800008EC18A8190E0A0E0B0E0582F44273327D2
:10F8100022278B8190E0A0E0B0E0DC0199278827C7
:10F82000282B392B4A2B5B2B8D8190E0A0E0B0E098
:10F83000282B392B4A2B5B2B8C8190E0A0E0B0E089
:10F84000BA2FA92F982F8827282B392B4A2B5B2BCF
:10F85000220F331F441F551FC05EDE4F288339839C
:10F860004A835B83C052D1401A8259C13A81C95C34
:10F87000DE4F3883C753D140CA5CDE4F1882C6536F
:10F88000D1408B81C82EDD24CA5CDE4F488159816E
:10F89000C653D140C42AD52A933109F082C0CE5C28
:10F8A000DE4F88819981AA81BB81C253D1408050AB
:10F8B000904CA340B04030F583E0CE5CDE4FE88052
:10F8C000F9800A811B81C253D140F70100935B008C
:10F8D00080935700E89507B600FCFDCFCE5CDE4F65
:10F8E000088119812A813B81C253D14000501F4FAA
:10F8F0002F4F3F4FCE5CDE4F088319832A833B8313
:10F90000C253D140C05EDE4F488159816A817B81FC
:10F91000C052D140DE011B9631E08C9111962C91A2
:10F9200011971296C75CDE4F2883C953D140C85C3B
:10F93000DE4F1882C853D14090E0C85CDE4FE881AA
:10F94000F981C853D1408E2B9F2B0C01FA01609393
:10F950005B0030935700E89511244E5F5F4F6F4F67
:10F960007F4F0EEFE02E0FEFF02ECE0CDF1CC114F8
:10F97000D10499F685E0C05EDE4F088119812A81A5
:10F980003B81C052D140F80120935B008093570027
:10F99000E89507B600FCFDCF81E180935700E8951C
:10F9A00035C0C05EDE4F88819981AA81BB81C0527B
:10F9B000D140B695A795979587957C018601ABE0D8
:10F9C000AA2EB12CAC0EBD1E0BC0D5016D915D01F0
:10F9D000C7010F947FFE0894E11CF11C01501040F8
:10F9E0000115110591F7A60160E070E0440F551F65
:10F9F000661F771FC05EDE4FE880F9800A811B8199
:10FA0000C052D1404E0D5F1D601F711F1A82C05E33
:10FA1000DE4F488359836A837B83C052D1407FC0C5
:10FA2000FA80C55CDE4FF882CB53D140C65CDE4F16
:10FA30001882CA53D1408B81C82EDD24C65CDE4FAC
:10FA400008811981CA53D140C02AD12A1A828981DA
:10FA5000BE016D5F7F4F843121F59601C05EDE4FA0
:10FA6000E880F9800A811B81C052D1400BBFF701A9
:10FA700087919691DB018C9311969C936E5F7F4FDB
:10FA8000D801C7010296A11DB11DC05EDE4F88835B
:10FA90009983AA83BB83C052D14022503040F1F6F3
:10FAA00036C0C05EDE4F288139814A815B81C052F9
:10FAB000D1400894C108D108760100E010E0089414
:10FAC000C11CD11C0894E11CF11C011D111DE20E8A
:10FAD000F31E041F151F21BDBB27A52F942F832FB5
:10FAE00082BD2F5F3F4F4F4F5F4FF89A80B5DB01CC
:10FAF0008D93BD012E153F054007510761F7C05E8C
:10FB0000DE4F288339834A835B83C052D1409601FC
:10FB10002D5F3F4FFB01108204C080EC8A8322E0FE
:10FB200030E08BE18093C6008091C00086FFFCCF5F
:10FB30008091C00080648093C000C15DDE4FF88179
:10FB4000CF52D140F093C6008091C00086FFFCCF19
:10FB50008091C00080648093C000432F3093C60022
:10FB60008091C00086FFFCCF8091C00080648093AC
:10FB7000C000922F2093C6008091C00086FFFCCF6A
:10FB80008091C00080648093C0008EE08093C600A6
:10FB90008091C00086FFFCCF8091C000806480937C
:10FBA000C00065E1C15DDE4FE880CF52D1406E25D7
:10FBB00069276427FE01319610C090819093C6009A
:10FBC0008091C00086FFFCCF31968091C000806498
:10FBD0008093C0006927215030402115310569F715
:10FBE0006093C6008091C00086FFFCCF8091C0006A
:10FBF00080648093C00085B1805885B9772081F4F6
:10FC0000C15DDE4F0881CF52D1400F5FC15DDE4F35
:10FC10000883CF52D14090E0A0E0B0E00D941AF4F8
:10FC200027982F9880E090E020ED37E0F901319798
:10FC3000F1F7019684369105C9F700008091C00064
:10FC40008D7F8093C00081E180935700E895EE2777
:10FC5000FF270994FFCF90E00D941AF497FB092E2B
:10FC600007260AD077FD04D02ED006D000201AF443
:10FC7000709561957F4F0895F6F7909581959F4F08
:10FC80000895A1E21A2EAA1BBB1BFD010DC0AA1FDD
:10FC9000BB1FEE1FFF1FA217B307E407F50720F0F5
:10FCA000A21BB30BE40BF50B661F771F881F991F70
:10FCB0001A9469F760957095809590959B01AC01B9
:10FCC000BD01CF010895AA1BBB1B51E107C0AA1FAC
:10FCD000BB1FA617B70710F0A61BB70B881F991FED
:10FCE0005A95A9F780959095BC01CD010895F99991
:10FCF000FECF92BD81BDF89A992780B50895262F31
:10FD0000F999FECF1FBA92BD81BD20BD0FB6F89400
:0EFD1000FA9AF99A0FBE01960895F894FFCF63
:040000033000E000E9
:00000001FF