:1000000072C00000A0C000009EC000009CC00000A4
:100010009AC0000098C0000096C0000094C0000084
:1000200092C0000090C000008EC000008CC0000094
:100030008AC0000088C0000086C0000084C00000A4
:1000400082C0000080C000007EC000007CC00000B4
:100050007AC0000078C0000076C0000019C400001B
:1000600072C00000DFC30000B4C300006CC0000019
:100070006AC0000068C0000066C0000064C00000E4
:1000800062C0000060C000005EC000005CC00000F4
:100090005AC0000058C0000056C0000054C0000004
:1000A00052C0000050C000004EC000004CC0000014
:1000B0004AC0000048C0000046C0000044C0000024
:1000C00042C0000040C000003EC000003CC0000034
:1000D0003AC0000038C0000036C0000034C0000044
:1000E00032C00000920411241FBECFEFD1E2DEBF68
:1000F000CDBF00E00CBF12E0A0E0B2E0E6E4F2E128
:1001000000E00BBF02C007900D92A432B107D9F7EF
:1001100022E0A4E2B2E001C01D92AA3EB207E1F7DC
:1001200010E0C3E7D0E000E006C021970109802F6E
:10013000FE010E941509C237D10780E00807A9F720
:100140001ED40C9421095CCFCF92DF92EF92FF92E4
:100150000F931F93CF93DF936C017A018B01C0E063
:10016000D0E0CE15DF0589F0D8016D918D01D60163
:10017000ED91FC910190F081E02DC6011995892B3C
:1001800011F47E0102C02196ECCFC701DF91CF911F
:100190001F910F91FF90EF90DF90CF9008950895F9
:1001A00080E090E00895FC01538D448D252F30E0D0
:1001B000842F90E0821B930B541710F0CF96089574
:1001C00001970895FC01918D828D981761F0828DC1
:1001D000DF01A80FB11D5D968C91928D9F5F9F737B
:1001E000928F90E008958FEF9FEF0895FC01918D1D
:1001F000828D981731F0828DE80FF11D858D90E08A
:1002000008958FEF9FEF0895FC01918D228D892F26
:1002100090E0805C9F4F821B91098F73992708950E
:100220008DE492E0F1DF21E0892B09F420E0822FB8
:100230000895FC01848DDF01A80FB11DA35ABF4FA3
:100240002C91848D90E001968F739927848FA689D5
:10025000B7892C93A089B1898C9180648C93938DFC
:10026000848D981306C00288F389E02D80818F7DEC
:1002700080830895EF92FF920F931F93CF93DF93A4
:10028000EC0181E0888F9B8D8C8D981305C0E889E7
:10029000F989808185FD23C0F62E0B8D10E00F5F5C
:1002A0001F4F0F731127E02E8C8DE8120BC00FB675
:1002B00007FCFACFE889F989808185FFF5CFCE0167
:1002C000B8DFF2CF8B8DFE01E80FF11DE35AFF4F2F
:1002D000F0820B8FEA89FB898081806207C0EE89FA
:1002E000FF896083E889F98980818064808381E067
:1002F00090E0DF91CF911F910F91FF90EF900895C3
:10030000CF93DF93EC01888D8823C1F0EA89FB89C4
:10031000808185FD05C0A889B9898C9186FD0EC0B4
:100320000FB607FCF5CF808185FFF2CFA889B98988
:100330008C9185FFEDCFCE017CDFE8CFDF91CF91AF
:10034000089580E090E0892B19F06ADF811125C0C3
:1003500080E090E0892B41F080E090E0892B21F053
:100360000E94000081111CC080E090E0892B41F0C8
:1003700080E090E0892B21F00E940000811113C0E1
:1003800080E090E0892BA1F080E090E0892B81F063
:100390000E94000081110AC008950E940000D8CF79
:1003A0000E940000E1CF0E940000EACF0C94000000
:1003B0000895009761F0FC0101900020E9F7319762
:1003C000AF01481B590BBC018DE492E0BDCE80E02B
:1003D00090E008958F929F92AF92BF920F931F93D8
:1003E000CF93DF93CDB7DEB7A1970FB6F894DEBFFA
:1003F0000FBECDBF19A2423008F44AE08E010F5D56
:100400001F4F842E912CA12CB12CA5019401EBD669
:10041000E62FB901CA0101501109EA3014F4E05D78
:1004200001C0E95CD801EC93232B242B252B69F721
:10043000C801BFDFA1960FB6F894DEBF0FBECDBFD7
:10044000DF91CF911F910F91BF90AF909F908F90B0
:1004500008954F925F926F927F928F929F92AF9288
:10046000BF92CF92DF92EF92FF926B017C01B42E8C
:100470009B01AC019FD6882319F082E192E024C051
:1004800026013701E89477F82FEF3FEF4FE75FE75A
:10049000C301B2018FD681110CC02FEF3FEF4FE7A0
:1004A0005FE7C301B20193D418161CF486E192E011
:1004B0000BC02FEF3FEF4FE75FE4C701B601D1D587
:1004C00018167CF48AE192E0FF90EF90DF90CF90D5
:1004D000BF90AF909F908F907F906F905F904F9064
:1004E00068CF2FEF3FEF4FE75FECC701B6016FD446
:1004F00087FDE8CF20E030E0A901C701B60167D44D
:1005000087FF11C0E0914D02F0914E020190F08101
:10051000E02D6DE28DE492E019954C01F7FAF0942C
:10052000F7F8F09402C0812C912CA12C60E070E0CF
:1005300080E09FE3AB1439F020E030E040E251E48A
:100540004AD4A394F7CF9B01AC01C701B601DBD31A
:100550002B013C01A8D46B017C01D1D49B01AC01DF
:10056000C301B201CFD32B013C014AE0C701B60160
:1005700031DF7C01E80CF91CBB2069F0E0914D02F1
:10058000F0914E020190F081E02D6EE28DE492E058
:100590001995E80EF91EDB2CDD20F9F020E030E0A3
:1005A00040E251E4C301B20160D52B013C017BD490
:1005B0004B01A12CB12C4AE0C501B4010BDFE80EC0
:1005C000F91EC501B4019BD49B01AC01C301B2016A
:1005D00099D32B013C01DA94DFCFC701FF90EF9054
:1005E000DF90CF90BF90AF909F908F907F906F9053
:1005F0005F904F9008952F923F924F925F926F922B
:100600007F928F929F92AF92BF92CF92DF92EF92A2
:10061000FF920F931F93CF93DF93CDB7DEB7609711
:100620000FB6F894DEBF0FBECDBF2B013C015A01BF
:1006300020E030E04FE053E418D57ED56B017C011B
:1006400020E030E040EA50E4C2D387FD06C0C12C70
:10065000D12C80EAE82E80E4F82E20E030E04FE054
:1006600053E4C701B601B7D369837A838B839C8334
:10067000A7019601C301B201AED329813A814B8112
:100680005C8141D32B013C0129813A814B815C8102
:1006900039D36D837E838F83988720E030E040E2FA
:1006A00051E4C301B20197D369877A878B879C870E
:1006B000150100E010E0B801012E000C880B990B29
:1006C00020D49B01AC0169857A858B859C85CDD42E
:1006D0004B015C0129813A814B815C8178D31816EA
:1006E0005CF0A5019401C501B401BFD420E030E065
:1006F0004FE852E4BAD445C02D813E814F815885E0
:10070000C501B40164D3A50194011816CCF0C7014A
:10071000B601ABD44B015C01A7019601C701B6013C
:10072000A4D420E030E04FE053E455D320E030E0A3
:1007300040E05FE39AD49B01AC01C501B40120C045
:10074000C301B201DFD24B015C012D813E814F819B
:100750005885C701B60189D46D877E878F87988BAE
:10076000A5019401C501B40180D420E030E04EE839
:1007700052E47BD49B01AC016D857E858F85988981
:10078000C1D2F10160837183828393830F5F1F4F16
:10079000F4E02F0E311C0A30110509F08CCF609661
:1007A0000FB6F894DEBF0FBECDBFDF91CF911F9182
:1007B0000F91FF90EF90DF90CF90BF90AF909F9000
:1007C0008F907F906F905F904F903F902F90089503
:1007D00034D51F920F920FB60F9211240BB60F92C1
:1007E0002F933F934F935F936F937F938F939F9339
:1007F000AF93BF93EF93FF938DE492E01ADDFF91E7
:10080000EF91BF91AF919F918F917F916F915F9188
:100810004F913F912F910F900BBE0F900FBE0F90F5
:100820001F9018951F920F920FB60F9211240BB6BE
:100830000F922F938F939F93EF93FF93E0915D021D
:10084000F0915E028081E0916302F091640282FD8A
:1008500012C09081809166028F5F8F732091670232
:10086000821751F0E0916602F0E0E35BFD4F958F57
:100870008093660201C08081FF91EF919F918F91DB
:100880002F910F900BBE0F900FBE0F901F901895D9
:100890001F920F920FB60F9211242F933F938F93B5
:1008A0009F93AF93BF938091350290913602A091B0
:1008B0003702B09138023091280223E0230F2D3700
:1008C00020F40196A11DB11D05C026E8230F029654
:1008D000A11DB11D2093280280933502909336020A
:1008E000A0933702B09338028091240290912502A0
:1008F000A0912602B09127020196A11DB11D8093FF
:10090000240290932502A0932602B0932702BF9160
:10091000AF919F918F913F912F910F900FBE0F90AC
:100920001F901895EDE4F2E01382128288EE93E0B6
:10093000A0E0B0E084839583A683B78384E092E04F
:100940009183808385EC90E09587848784EC90E0A8
:100950009787868780EC90E0918B808B81EC90E08C
:10096000938B828B82EC90E0958B848B86EC90E06D
:10097000978B868B118E128E138E148E0895CF93C3
:10098000DF93CDB7DEB7CA57D1090FB6F894DEBFF3
:100990000FBECDBF789484B5826084BD84B581607C
:1009A00084BD85B5826085BD85B5816085BD80913A
:1009B0006E00816080936E001092810080918100B2
:1009C00082608093810080918100816080938100AA
:1009D000809180008160809380008091B10084606C
:1009E0008093B1008091B00081608093B0008091CD
:1009F000910082608093910080919100816080934A
:100A00009100809190008160809390008091A1007E
:100A100082608093A1008091A10081608093A100F9
:100A20008091A00081608093A0008091210182606C
:100A30008093210180912101816080932101809127
:100A4000200181608093200180917A0084608093EE
:100A50007A0080917A00826080937A0080917A0097
:100A6000816080937A0080917A00806880937A0018
:100A70001092C100E0915D02F0915E0282E08083FD
:100A8000E0915902F0915A021082E0915B02F091DC
:100A90005C028FEC808310926502E0916102F0911C
:100AA000620286E08083E0915F02F09160028081C3
:100AB00080618083E0915F02F091600280818860B4
:100AC0008083E0915F02F091600280818068808382
:100AD000E0915F02F091600280818F7D80831092AF
:100AE00031021092320210923302109234021092AC
:100AF0002D0210922E0210922F02109230021092AC
:100B0000290210922A0210922B0210922C022FB767
:100B1000F89460913502709136028091370290917D
:100B200038022FBFECD16093490270934A02809340
:100B30004B0290934C028CE0C82ED12C98EF892E5A
:100B40009CED992E95E9A92E9EEBB92E2BED422E08
:100B50002FE0522E29E4622E2FE3722E8E01075DC4
:100B60001F4F81E590E08C0F9D1F8896EB969FAFFD
:100B70008EAFEB97180198E2290E311C83E898E5B7
:100B8000A9E3B0EC80933D0290933E02A0933F0214
:100B9000B09340028092410290924202A09243029E
:100BA000B09244024092450250924602609247023F
:100BB00070924802AE014F5A5F4F6BED7FE089E4BF
:100BC0009FE319DD609141027091420280914302DE
:100BD00090914402A8010FDD60913D0270913E02A8
:100BE00080913F0290914002AE014F5F5F4F03DD65
:100BF0008EE192E0DEDB60914502709146028091C9
:100C000047029091480242E024DC82E292E0D1DB8C
:100C1000609141027091420280914302909144029E
:100C200042E017DC82E292E0C4DB60913D02709109
:100C30003E0280913F029091400242E00ADC82E253
:100C400092E0B7DBDE01AF5ABF4F7D01F701619142
:100C50007191819191917F0142E0FBDB82E292E010
:100C6000A8DBEB968EAD9FADEB97E816F90671F712
:100C70007801D7016D917D918D919D917D0142E02B
:100C8000E8DB82E292E095DBE214F30491F7FE01E7
:100C900031967F01D7016D917D918D919D917D015F
:100CA00042E0D7DB82E292E084DBE016F10691F7C6
:100CB000B1E0CB1AD10809F061CF2FB7F894609159
:100CC00035027091360280913702909138022FBF21
:100CD00016D16093390270933A0280933B0290934D
:100CE0003C022091490230914A0240914B025091BE
:100CF0004C0208D020E030E04AE754E46CD042E0F7
:100D0000A8DBFFCF5058BB27AA270ED070C161D1F6
:100D100030F066D120F031F49F3F11F41EF456C13B
:100D20000EF4E095E7FB4CC1E92F72D180F3BA17BE
:100D3000620773078407950718F071F49EF58AC15E
:100D40000EF4E0950B2EBA2FA02D0B01B9019001E6
:100D50000C01CA01A0011124FF27591B99F0593F2A
:100D600050F4503E68F11A16F040A22F232F342F72
:100D70004427585FF3CF469537952795A795F040C0
:100D80005395C9F77EF41F16BA0B620B730B840BD5
:100D9000BAF09150A1F0FF0FBB1F661F771F881F8D
:100DA000C2F70EC0BA0F621F731F841F48F48795E5
:100DB00077956795B795F7959E3F08F0B3CF9395D4
:100DC000880F08F09927EE0F979587950895D4D04E
:100DD00008F481E008950CD00AC102D140F0F9D0A6
:100DE00030F021F45F3F19F0EBC0511134C1EEC077
:100DF0000FD198F39923C9F35523B1F3951B550BE4
:100E0000BB27AA2762177307840738F09F5F5F4FDD
:100E1000220F331F441FAA1FA9F333D00E2E3AF01E
:100E2000E0E830D091505040E695001CCAF729D038
:100E3000FE2F27D0660F771F881FBB1F2617370787
:100E40004807AB07B0E809F0BB0B802DBF01FF27B7
:100E500093585F4F2AF09E3F510568F0B1C0FBC028
:100E60005F3FECF3983EDCF3869577956795B795F1
:100E7000F7959F5FC9F7880F911D9695879597F90C
:100E80000895E1E0660F771F881FBB1F6217730785
:100E90008407BA0720F0621B730B840BBA0BEE1F9A
:100EA00088F7E0950895BCD088F09F5790F0B92F4F
:100EB0009927B751A0F0D1F0660F771F881F991FAF
:100EC0001AF0BA95C9F712C0B13081F0C3D0B1E0C1
:100ED0000895C0C0672F782F8827B85F39F0B93FD1
:100EE000CCF3869577956795B395D9F73EF49095B1
:100EF0008095709561957F4F8F4F9F4F0895E8942F
:100F000009C097FB3EF490958095709561957F4F51
:100F10008F4F9F4F9923A9F0F92F96E9BB279395FF
:100F2000F695879577956795B795F111F8CFFAF40F
:100F3000BB0F11F460FF1BC06F5F7F4F8F4F9F4F40
:100F400016C0882311F096E911C0772321F09EE89E
:100F5000872F762F05C0662371F096E8862F70E004
:100F600060E02AF09A95660F771F881FDAF7880FDE
:100F70009695879597F90895990F0008550FAA0B34
:100F8000E0E8FEEF16161706E807F907C0F012169C
:100F90001306E407F50798F0621B730B840B950B9F
:100FA00039F40A2661F0232B242B252B21F40895F4
:100FB0000A2609F4A140A6958FEF811D811D089591
:100FC00097F99F6780E870E060E008959FEF80ECFC
:100FD000089500240A94161617061806090608959F
:100FE00000240A9412161306140605060895092E05
:100FF0000394000C11F4882352F0BB0F40F4BF2B74
:1010000011F460FF04C06F5F7F4F8F4F9F4F0895B3
:1010100057FD9058440F551F59F05F3F71F04795A9
:10102000880F97FB991F61F09F3F79F0879508958E
:10103000121613061406551FF2CF4695F1DF08C0AD
:10104000161617061806991FF1CF869571056105CA
:1010500008940895E894BB2766277727CB0197F972
:1010600008958ADF08F48FEF08950BD0C0CFB1DF69
:1010700028F0B6DF18F0952309F0A2CFA7CF1124EE
:10108000EACFC6DFA0F3959FD1F3950F50E0551F2F
:10109000629FF001729FBB27F00DB11D639FAA27CD
:1010A000F00DB11DAA1F649F6627B00DA11D661F1C
:1010B000829F2227B00DA11D621F739FB00DA11D3D
:1010C000621F839FA00D611D221F749F3327A00DF7
:1010D000611D231F849F600D211D822F762F6A2F93
:1010E00011249F5750408AF0E1F088234AF0EE0F18
:1010F000FF1FBB1F661F771F881F91505040A9F725
:101100009E3F510570F05CCFA6CF5F3FECF3983E59
:10111000DCF3869577956795B795F795E7959F5F8B
:10112000C1F7FE2B880F911D9695879597F9089525
:1011300011F40EF44BCF42C073DFD0F39923D9F3EF
:10114000CEF39F57550B87FF47D00024A0E640EA17
:10115000900180585695979528F4805C660F771F0C
:10116000881F20F026173707480730F4621B730BDF
:10117000840B202931294A2BA69517940794202502
:1011800031254A2758F7660F771F881F20F026174A
:101190003707480730F4620B730B840B200D311DA9
:1011A000411DA09581F7B901842F9158880F96951C
:1011B00087950895E1DE880B990B08959F3F31F0E4
:1011C000915020F4879577956795B795880F911D75
:1011D0009695879597F9089591505040660F771F1F
:1011E000881FD2F70895A1E21A2EAA1BBB1BFD018E
:1011F0000DC0AA1FBB1FEE1FFF1FA217B307E407F6
:10120000F50720F0A21BB30BE40BF50B661F771F4D
:10121000881F991F1A9469F760957095809590952D
:101220009B01AC01BD01CF010895EE0FFF1F881F88
:101230008BBF0790F691E02D199481E090E0F8942F
:0612400000C0F894FFCF8E
:10124600000000003A01A400D30080010401E2007E
:10125600F6006E616E00696E66006F766600446F1A
:041266006E650A00A7
:00000001FF
