:1000000008C1000037C1000035C1000033C1000045
:1000100031C100002FC100002DC100002BC1000024
:1000200029C1000027C1000025C1000023C1000034
:1000300021C100001FC100001DC100001BC1000044
:1000400019C1000017C1000015C1000013C1000054
:1000500011C100000FC100000DC100000C945F0829
:1000600009C10000F7C70000CCC7000003C10000B1
:1000700001C10000FFC00000FDC00000FBC0000087
:10008000F9C00000F7C00000F5C00000F3C0000098
:100090008FC7000064C70000EDC00000EBC0000087
:1000A000E9C00000E7C00000E5C00000E3C00000B8
:1000B000E1C00000DFC00000DDC00000DBC00000C8
:1000C000D9C00000D7C00000D5C000001FC7000085
:1000D000F4C60000CFC00000C7C600009CC60000E8
:1000E000C9C00000C402C702B602BA02BE02FE02C4
:1000F000CB02CF02D502D902DD02E302E702EB0216
:10010000FE02F102F502F90200000A0B02090C0DD1
:100110000E080703040100000000000000000000BA
:1001200000000000000000000000000000000000CF
:10013000000000001211100000000000000000008C
:1001400000000000000000000000000000000000AF
:100150002200250028002B002E003100340002016F
:100160000000050108010B01000021002400270008
:100170002A002D00300033000101000004010701B6
:100180000A0105050505070508080808020202021C
:100190000A0A080804040404010101010101010123
:1001A0000303030303030303040707070C0C0C0CEE
:1001B0000C0C0C0C020202020606060606060606D7
:1001C0000B0B0B0B0B0B0B0B010210202008081064
:1001D00020401020408002010201080402010102B7
:1001E0000408102040808040201008040201800490
:1001F00002018040201008040201080402010102EB
:1002000004081020408001020408102040807A0C6D
:10021000790C11241FBECFEFD1E2DEBFCDBF00E0CD
:100220000CBF26E0ACE7B2E001C01D92A038B207D7
:10023000E1F712E0A0E0B2E0EEE6F3E200E00BBF8F
:1002400002C007900D92AC37B107D9F711E0C8E0B2
:10025000D1E000E006C021970109802FFE010E9435
:100260006D10C730D10780E00807A9F70E94520936
:100270000C94A611C5CECF92DF92EF92FF920F930E
:100280001F93CF93DF936C017A018B01C0E0D0E024
:10029000CE15DF0589F0D8016D918D01D601ED9164
:1002A000FC910190F081E02DC6011995892B11F484
:1002B0007E0102C02196ECCFC701DF91CF911F9143
:1002C0000F91FF90EF90DF90CF900895FC01A089EF
:1002D000B1898C91A689B78982FD0FC09C91818DCF
:1002E0008F5F8F73228D821749F0218DDF01A20F5E
:1002F000B11D5D969C93818F08958C91089508950A
:1003000080E090E00895FC01538D448D252F30E06E
:10031000842F90E0821B930B541710F0CF96089512
:1003200001970895FC01918D828D981761F0828D5F
:10033000DF01A80FB11D5D968C91928D9F5F9F7319
:10034000928F90E008958FEF9FEF0895FC01918DBB
:10035000828D981731F0828DE80FF11D858D90E028
:1003600008958FEF9FEF0895FC01918D228D892FC5
:1003700090E0805C9F4F821B91098F7399270895AD
:100380008CEA94E0F1DF21E0892B09F420E0822F50
:10039000089582E793E0E8DF21E0892B09F420E06B
:1003A000822F08958FE094E0DFDF21E0892B09F4AC
:1003B00020E0822F08958DE892E0D6DF21E0892B9E
:1003C00009F420E0822F0895FC01848DDF01A80F3D
:1003D000B11DA35ABF4F2C91848D90E001968F736D
:1003E0009927848FA689B7892C93A089B1898C918C
:1003F00080648C93938D848D981306C00288F38952
:10040000E02D80818F7D80830895EF92FF920F937E
:100410001F93CF93DF93EC0181E0888F9B8D8C8DB0
:10042000981305C0E889F989808185FD23C0F62EDF
:100430000B8D10E00F5F1F4F0F731127E02E8C8D77
:10044000E8120BC00FB607FCFACFE889F989808162
:1004500085FFF5CFCE01B8DFF2CF8B8DFE01E80F1F
:10046000F11DE35AFF4FF0820B8FEA89FB898081EF
:10047000806207C0EE89FF896083E889F9898081FD
:100480008064808381E090E0DF91CF911F910F9194
:10049000FF90EF900895CF93DF93EC01888D882330
:1004A000C1F0EA89FB89808185FD05C0A889B989E9
:1004B0008C9186FD0EC00FB607FCF5CF808185FFBD
:1004C000F2CFA889B9898C9185FFEDCFCE017CDF71
:1004D000E8CFDF91CF91089580E090E0892B19F06B
:1004E0006ADF811116C080E090E0892B19F05ADF95
:1004F000811112C080E090E0892B19F04ADF811150
:100500000EC080E090E0892B79F03ADF81110AC0BB
:1005100008950E940000E7CF0E940000EBCF0E94E8
:100520000000EFCF0C9400000895362F90E0FC01FE
:10053000E85FFE4F4491FC01E853FE4F2491FC011B
:10054000EE57FE4F9491992309F46BC0442309F4AC
:1005500055C050E0FA013197E231F10508F04EC084
:100560008827EE58FF4F8F4F0C946D1080918000BC
:100570008F7707C0809180008F7D03C080918000BD
:10058000877F809380003AC084B58F7702C084B59E
:100590008F7D84BD33C08091B0008F7703C0809180
:1005A000B0008F7D8093B00029C0809190008F773C
:1005B00007C0809190008F7D03C080919000877F5D
:1005C000809390001BC08091A0008F7707C080911E
:1005D000A0008F7D03C08091A000877F8093A00042
:1005E0000DC0809120018F7707C0809120018F7D01
:1005F00003C080912001877F80932001E92FF0E0E4
:10060000EE0FFF1FE25BFE4FA591B4918FB7F894F8
:10061000EC91311103C020952E2301C02E2B2C9379
:100620008FBF08953FB7F894809181029091820224
:10063000A0918302B091840226B5A89B05C02F3FEC
:1006400019F00196A11DB11D3FBFBA2FA92F982FF8
:100650008827820F911DA11DB11DBC01CD0142E073
:10066000660F771F881F991F4A95D1F70895EF925B
:10067000FF920F931F93CF93DF93CDB7DEB72B97E6
:100680000FB6F894DEBF0FBECDBF8C0188E2860F97
:10069000820F840F830F850F8095D8018C939FEF75
:1006A00099839A836B8397E09C8393E09D839EE17B
:1006B0009E834F83588729873A878B8761E01196FD
:1006C0008C9133DFF801848D958DDC01ED91FC91E7
:1006D0000280F381E02D4BE050E0BE016F5F7F4F61
:1006E0001995F801848D958DDC01ED91FC910680C2
:1006F000F781E02D199560E0F801818116DFD801BE
:1007000012961C928BE9E82E8FE0F82ED8015C96A9
:100710008D919C915D97DC01ED91FC910084F185B8
:10072000E02D1995F8012281059724F52A3010F55E
:100730002F5FF8012283C7010197F1F7E7CFD801B6
:100740005C968D919C915D97DC01ED91FC9102840A
:10075000F385E02D1995F82EF8018383848D958D0E
:10076000DC01ED91FC910484F585E02D1995BFEF36
:10077000FB1681F0D8015C968D919C915D97DC0110
:10078000ED91FC910084F185E02D1995181619065C
:10079000B4F22FC08F3F910569F7F801848D958DD4
:1007A000DC01ED91FC910284F385E02D1995F801AF
:1007B000848D958DDC01ED91FC910284F385E02D13
:1007C0001995F801848D958DDC01ED91FC910284E1
:1007D000F385E02D1995F801848D958DDC01ED915F
:1007E000FC910284F385E02D1995F801918F808F9B
:1007F00002C08FEF9FEF2B960FB6F894DEBF0FBEAF
:10080000CDBFDF91CF911F910F91FF90EF90089591
:100810008F929F92AF92BF92CF92DF92EF92FF9210
:100820000F931F93CF93DF93EC014A015B01C90142
:10083000B8010E9434106B017C0121EE3AE744E9D3
:100840005EE3C501B4010E94CC0F0E9434109601F2
:10085000AB016A81888199810ADFDF91CF911F9175
:100860000F91FF90EF90DF90CF90BF90AF909F904F
:100870008F9008952F923F924F925F926F927F9246
:100880008F929F92AF92BF92CF92DF92EF92FF92A0
:100890000F931F93CF93DF93CDB7DEB76F970FB64C
:1008A000F894DEBF0FBECDBF2B013C012A873B87EA
:1008B0004C875D87ED82FE820F8318871601BF8605
:1008C000AE869B8E8A8EC801B7010E94680F6E8B20
:1008D0007F8B888F998F20E030E0A901C301B2019E
:1008E0000E942C0E87FD03C001E010E002C00FEF54
:1008F0001FEFC301B2019F772D813E814F81588543
:100900000E94CC0F2B013C012A853B854C855D85DF
:100910000E94CC0F69837A838B839C831986C801DC
:10092000110FAA0BBB0B888B998BAA8BBB8BE9850C
:100930000E2F10E08A8D9B8D081719070CF000C14F
:10094000B801012E000C880B990B0E94320E2DEC81
:100950003CEC4CEC5CE30E94910E6B017C012A851F
:100960003B854C855D850E942C0E000F111F000FEA
:10097000111F1816B4F1D101A00FB11FBD8BAC8BA4
:1009800020E030E040E05FE369817A818B819C81E7
:100990000E94910E4B015C01A7019601C701B601AF
:1009A0000E94910E9B01AC01C501B4010E94910E01
:1009B0004B015C01688979898A899B890E94320E82
:1009C0009B01AC01C501B4010E94910EEC89FD8927
:1009D00060837183828393838E859F85080F191F9F
:1009E0009DC02D813E814F815885C701B6010E946F
:1009F0002C0E87FF3FC05101A00EB11EA70196012A
:100A0000C301B2010E94910E6B017C01A30192010E
:100A1000C301B2010E94910E29813A814B815C8110
:100A20000E94CC0F20E030E040E05FE30E94910E96
:100A30009B01AC01C701B6010E94670F6B017C01ED
:100A4000688979898A899B890E94320E9B01AC0151
:100A5000C701B6010E94910EF50160837183828304
:100A60009383EE85FF85E00FF11F40825182628201
:100A7000738262C0A70196016E897F89888D998DE6
:100A80000E94670F6B017C01C101800F911F9D8B3C
:100A90008C8B2D813E814F815885C301B2010E940C
:100AA000910E4B015C0120E030E040E05FE36981A2
:100AB0007A818B819C810E94910E6C8F7D8F8E8FAD
:100AC0009F8FA7019601C701B6010E94910E9B015D
:100AD000AC016C8D7D8D8E8D9F8D0E94910E9B0142
:100AE000AC01C501B4010E94670F4B015C0168892C
:100AF00079898A899B890E94320E9B01AC01C501CC
:100B0000B4010E94910EAC89BD896D937D938D9344
:100B10009C931397EE85FF850E0F1F1FA70196016B
:100B200069817A818B819C810E94910ED8016D939D
:100B30007D938D939C931397B985BF5FB987F7CE4B
:100B40006F960FB6F894DEBF0FBECDBFDF91CF9189
:100B50001F910F91FF90EF90DF90CF90BF90AF90DB
:100B60009F908F907F906F905F904F903F902F90CD
:100B700008950E94A2116115710579F0FB010190A1
:100B80000020E9F73197AF01461B570BDC01ED91CF
:100B9000FC910280F381E02D199480E090E00895AB
:100BA0004F925F926F927F92EF92FF920F931F93FB
:100BB000CF93DF93CDB7DEB7A1970FB6F894DEBF22
:100BC0000FBECDBF7C01FA01CB0119A2223008F47F
:100BD0002AE08E010F5D1F4F422E512C612C712C8B
:100BE000BF01A30192010E94450FF901CA01015002
:100BF00011096A3014F4605D01C0695CD8016C931E
:100C0000232B242B252B61F7B801C701B4DFA19654
:100C10000FB6F894DEBF0FBECDBFDF91CF911F910D
:100C20000F91FF90EF907F906F905F904F9008959D
:100C30004F925F926F927F928F929F92AF92BF92EC
:100C4000CF92DF92EF92FF926B017C01B42E9B0159
:100C5000AC010E946910882319F068E172E026C097
:100C600026013701E89477F82FEF3FEF4FE75FE772
:100C7000C301B2010E94691081110CC02FEF3FEF38
:100C80004FE75FE7C301B201E7D718161CF46CE128
:100C900072E00CC02FEF3FEF4FE75FE4C701B601F2
:100CA0000E94651018168CF460E272E08DE892E004
:100CB000FF90EF90DF90CF90BF90AF909F908F907C
:100CC0007F906F905F904F9056CF2FEF3FEF4FE7A1
:100CD0005FECC701B601C0D787FDE6CF20E030E06A
:100CE000A901C701B601B8D787FF11C0E0918D02F5
:100CF000F0918E020190F081E02D6DE28DE892E09E
:100D000019954C01F7FAF094F7F8F09402C0812C91
:100D1000912CA12C60E070E080E09FE3AB1441F0E7
:100D200020E030E040E251E40E94CC0FA394F6CFE3
:100D30009B01AC01C701B6010E94680F2B013C0169
:100D40000E9439106B017C018BD79B01AC01C30160
:100D5000B2010E94670F2B013C012AE0B701A601F6
:100D60008DE892E01DDF7C01E80CF91CBB2069F0E6
:100D7000E0918D02F0918E020190F081E02D6EE203
:100D80008DE892E01995E80EF91EDB2CDD2019F1B3
:100D900020E030E040E251E4C301B201C2D72B01B0
:100DA0003C010E9439104B01A12CB12C2AE0B50165
:100DB000A4018DE892E0F4DEE80EF91EC501B4014D
:100DC0004FD79B01AC01C301B2010E94670F2B01F9
:100DD0003C01DA94DBCFC701FF90EF90DF90CF901A
:100DE000BF90AF909F908F907F906F905F904F904B
:100DF00008950F931F93CF93DF93EC01BCDE8C011A
:100E000063E372E0CE01B7DE800F911FDF91CF91D7
:100E10001F910F9108951F920F920FB60F921124F8
:100E20000BB60F922F933F934F935F936F937F93E4
:100E30008F939F93AF93BF93EF93FF938CEA94E0CC
:100E4000C3DAFF91EF91BF91AF919F918F917F9105
:100E50006F915F914F913F912F910F900BBE0F902B
:100E60000FBE0F901F9018951F920F920FB60F9202
:100E700011240BB60F922F933F934F935F936F9371
:100E80007F938F939F93AF93BF93EF93FF938CEADE
:100E900094E01CDAFF91EF91BF91AF919F918F91F8
:100EA0007F916F915F914F913F912F910F900BBE6A
:100EB0000F900FBE0F901F9018951F920F920FB6B4
:100EC0000F9211240BB60F922F933F934F935F9382
:100ED0006F937F938F939F93AF93BF93EF93FF9302
:100EE00082E793E071DAFF91EF91BF91AF919F910B
:100EF0008F917F916F915F914F913F912F910F90C3
:100F00000BBE0F900FBE0F901F9018951F920F925F
:100F10000FB60F9211240BB60F922F933F934F935E
:100F20005F936F937F938F939F93AF93BF93EF9351
:100F3000FF9382E793E0CAD9FF91EF91BF91AF9100
:100F40009F918F917F916F915F914F913F912F91E1
:100F50000F900BBE0F900FBE0F901F9018951F9211
:100F60000F920FB60F9211240BB60F922F933F934F
:100F70004F935F936F937F938F939F93AF93BF93A1
:100F8000EF93FF938FE094E01FDAFF91EF91BF9111
:100F9000AF919F918F917F916F915F914F913F9111
:100FA0002F910F900BBE0F900FBE0F901F901895B2
:100FB0001F920F920FB60F9211240BB60F922F9320
:100FC0003F934F935F936F937F938F939F93AF93D1
:100FD000BF93EF93FF938FE094E078D9FF91EF9167
:100FE000BF91AF919F918F917F916F915F914F9141
:100FF0003F912F910F900BBE0F900FBE0F901F903F
:1010000018951F920F920FB60F9211240BB60F92E4
:101010002F933F934F935F936F937F938F939F9300
:10102000AF93BF93EF93FF938DE892E0CDD9FF91FB
:10103000EF91BF91AF919F918F917F916F915F9150
:101040004F913F912F910F900BBE0F900FBE0F90BD
:101050001F9018951F920F920FB60F9211240BB686
:101060000F922F933F934F935F936F937F938F9341
:101070009F93AF93BF93EF93FF938DE892E026D9B0
:10108000FF91EF91BF91AF919F918F917F916F9160
:101090005F914F913F912F910F900BBE0F900FBE1C
:1010A0000F901F9018952FB7F89460917D02709162
:1010B0007E0280917F02909180022FBF08951F923F
:1010C0000F920FB60F9211242F933F938F939F93FC
:1010D000AF93BF9380917D0290917E02A0917F0299
:1010E000B091800230917C0223E0230F2D3720F451
:1010F0000196A11DB11D05C026E8230F0296A11D72
:10110000B11D20937C0280937D0290937E02A09378
:101110007F02B09380028091810290918202A0911F
:101120008302B09184020196A11DB11D80938102BA
:1011300090938202A0938302B0938402BF91AF91F7
:101140009F918F913F912F910F900FBE0F901F9005
:10115000189590E0FC01E853FE4F2491FC01EE57F6
:10116000FE4F8491882399F090E0880F991FFC012D
:10117000E859FE4FA591B491FC01E25BFE4F8591C9
:1011800094918FB7F894EC91E22BEC938FBF089574
:10119000CF92DF92EF92FF920F931F93CF93DF9343
:1011A000EC016A017B01E889F98982E080834115BD
:1011B000514E61057105A9F060E079E08DE390E0A2
:1011C000A701960162D689019A01015011092109EE
:1011D0003109369527951795079598010115104106
:1011E000A0F0E889F989108260E874E88EE190E067
:1011F000A70196014AD6DA01C9010197A109B109EF
:10120000B695A795979587959C01EC85FD853083CC
:10121000EE85FF852083188EEC89FD8986E080832A
:10122000EA89FB89808180618083EA89FB898081EA
:1012300088608083EA89FB89808180688083EA896D
:10124000FB8980818F7D8083DF91CF911F910F91EA
:10125000FF90EF90DF90CF9008958F929F92AF9282
:10126000BF92CF92DF92EF92FF926B017C011BDF66
:101270004B015C01C60ED71EE81EF91E14DF68156F
:1012800079058A059B0528F0C616D706E806F906F3
:10129000A8F7FF90EF90DF90CF90BF90AF909F9016
:1012A0008F900895CF93DF93CDB7DEB764970FB6D5
:1012B000F894DEBF0FBECDBF789484B5826084BD44
:1012C00084B5816084BD85B5826085BD85B581604A
:1012D00085BD80916E00816080936E0010928100C8
:1012E0008091810082608093810080918100816083
:1012F0008093810080918000816080938000809144
:10130000B10084608093B1008091B00081608093CF
:10131000B000809191008260809391008091910053
:101320008160809391008091900081608093900013
:101330008091A10082608093A1008091A1008160D2
:101340008093A1008091A00081608093A000809193
:10135000210182608093210180912101816080932D
:1013600021018091200181608093200180917A0089
:10137000846080937A0080917A00826080937A0002
:1013800080917A00816080937A0080917A008068F1
:1013900080937A001092C10010926E0310926F0336
:1013A000109270031092710310922C0310922D036F
:1013B00010922E0310922F0368EB7BE080E090E008
:1013C0004CDF8DE892E090936D0380936C0340E0D6
:1013D00052EC61E070E0DCDE66DE60932C0370931B
:1013E0002D0380932E0390932F0364E272E080918B
:1013F0006C0390916D03BFDB6AE070E080E090E0E9
:101400002CDF81E08093400324E630E045E052E0A9
:101410006091A7058091A5059091A60528D924E69D
:1014200030E044E251E06091B2058091B0059091C6
:10143000B1051DD924E630E048EB50E06091BD05D0
:101440008091BB059091BC0512D940E855E260E05F
:1014500070E08DE892E09CDE66E372E08DE892E059
:10146000C8DCE0D84B015C0130EDC32E37E0D32E51
:10147000E12CF12CD7D8DC01CB0188199909AA09F4
:10148000BB09883E9340A105B10558F021E0C21A7E
:10149000D108E108F10838EE830E33E0931EA11C59
:1014A000B11CC114D104E104F10421F784E490E0FB
:1014B0001CD69C8B8B8B84E490E017D63C0184E493
:1014C00090E013D62C0184E490E00FD61C0184E454
:1014D00090E00BD69A83898384E490E006D69C83BF
:1014E0008B8391E1892E912C5301CB88DC881DECF4
:1014F000E12E1CECF12E0CE41EE3A801970160E044
:1015000070E080E292E4B6D951016201A80197012E
:1015100060E070E0CB01AED9AB80BC80C980DA80DE
:10152000A801970160E070E0CB01A4D9CB88DC88EA
:10153000D886CF827E826D825A8649863C862B86EB
:10154000E980FA80FE86ED86AB80BC80B88AAF86E3
:1015500096012C5B3F4F3A8B298BEF81F885619187
:10156000719181919191F887EF8320E030E046E11D
:1015700053E4AED46B017C01AD80BE802EE73AEA25
:101580004AE25EE3F5016191719181919191FE834F
:10159000ED83C7D328EF33E543EE5DE3FDD48B0144
:1015A0009C01B701A60185EA95E032D96DE372E0AE
:1015B0008DE892E01EDC42E0C701B60139DB68E548
:1015C00072E08DE892E0D7DAF50160817181828165
:1015D000938142E02DDB63E372E08DE892E0CBDAA9
:1015E00063E372E08DE892E0C6DAE985FA858190DE
:1015F0009190A190B190FA87E987EB85FC85619184
:10160000719181919191FC87EB872EE73AEA4AE24A
:101610005EE387D328EF33E543EE5DE3BDD46B0192
:101620007C012AE939E949EA52E4C501B40150D400
:10163000AB01BC019701860180EB95E0E9D8ED850F
:10164000FE8581909190A190B190FE87ED87EF8506
:10165000F8896191719181919191F88BEF872EE7D3
:101660003AEA4AE25EE35DD328EF33E543EE5DE319
:1016700093D46B017C0126E636E646E552E4C501CB
:10168000B40126D4AB01BC01970186018BEB95E038
:10169000BFD8CF80D884E988FA88CE14DF0409F057
:1016A0005CCF2B893C892115310511F0C901B2D5D8
:1016B0006114710411F0C301ADD54114510411F04E
:1016C000C201A8D52114310411F0C101A3D589812B
:1016D0009A81009709F09ED5EB81FC81309711F03B
:1016E000CF0198D584EF882E99249394A12CB12C06
:1016F000DADC672B682B692B39F4D5DC6230710595
:101700008105910508F4F2C0CEDC609389027093E4
:101710008A0280938B0290938C0200918502109133
:101720008602209187023091880260177107820734
:10173000930740F46093850270938602809387023A
:101740009093880200918502109186022091870271
:10175000309188026B017C01C01AD10AE20AF30AB7
:10176000970186010A3F11052105310508F4BEC025
:10177000609385027093860280938702909388021B
:101780008092380390923903A0923A03B0923B03BF
:1017900010923C0310923D0310923E0310923F03BF
:1017A0008091300390913103A0913203B0913303C3
:1017B0008093340390933503A0933603B09337039B
:1017C00072DC609330037093310380933203909303
:1017D000330369DC60932C0370932D0380932E03F5
:1017E00090932F0360DC6B017C0168E672E08091CE
:1017F0006C0390916D03BFD92AE041E050E060E0B6
:1018000070E080916C0390916D03CAD96FE672E02D
:1018100080916C0390916D03AED92AE0B701A601C7
:1018200080916C0390916D03BBD966E572E0809165
:101830006C0390916D039FD9809130039091310397
:10184000A0913203B0913303B701A601481B590B95
:101850006A0B7B0B2AE080916C0390916D03A0D9F9
:1018600066E572E080916C0390916D0384D940919C
:1018700030035091310360913203709133038091B2
:10188000340390913503A0913603B0913703481B80
:10189000590B6A0B7B0B2AE080916C0390916D03CE
:1018A0007FD963E772E080916C0390916D0363D9F7
:1018B000FADBAB01BC012AE080916C0390916D03CF
:1018C0006FD965E772E080916C0390916D0391DAB6
:1018D00065E070E080E090E0C0DCE5DB6093300321
:1018E0007093310380933203909333030E946C0210
:1018F000FFCE0895DF92EF92FF920F931F93CF9345
:10190000DF93CCEAD4E01B821A8248EE53E060E019
:1019100070E04C835D836E837F838AE092E09983DD
:10192000888325E331E03D872C8724E331E03F873E
:101930002E8720E331E0398B288B21E331E03B8B8C
:101940002A8B22E331E03D8B2C8B26E331E03F8B69
:101950002E8B198E1A8E1B8E1C8E02E713E0D80177
:1019600013961C921E921297F80144835583668346
:1019700077839183808325ED30E03587248724EDBC
:1019800030E03787268720ED30E0318B208B21ED4A
:1019900030E0338B228B22ED30E0358B248B26ED2B
:1019A00030E0378B268B118E128E138E148EEFE063
:1019B000F4E0138212824483558366837783918394
:1019C00080832DEC30E0358724872CEC30E037879E
:1019D000268728EC30E0318B208B29EC30E0338BEC
:1019E000228B2AEC30E0358B248B2EEC30E0378BC9
:1019F000268B118E128E138E148EADE8B2E01396E4
:101A00001C921E92129714964D935D936D937C9346
:101A1000179711969C938E9385EC90E01D969C935E
:101A20008E931C9784EC90E01F969C938E931E9748
:101A300080EC90E051969C938E93509781EC90E0CF
:101A400053969C938E93529782EC90E055969C937C
:101A50008E93549786EC90E057969C938E9356976E
:101A600059961C9259975A961C925A975B961C92BB
:101A70005B975C961C92AAE2B3E016961D921D92AB
:101A80001D921C9219971A961D921D921D921C92DE
:101A90001D971E961D921D921D921C925197529653
:101AA0001D921D921D921C92559789E4E82E85E0A7
:101AB000F82EF092A605E092A50581E08093A70597
:101AC000F092B105E092B00582E08093B205F09209
:101AD000BC05E092BB0583E08093BD05F092C9058B
:101AE000E092C80586E08093CA05F092D405E092A2
:101AF000D30585E08093D505F092DF05E092DE0501
:101B000084E08093E00587E695E09093EC05809370
:101B1000EB0529E02093ED059093F7058093F605FA
:101B200028E02093F805909302068093010627E0B1
:101B30002093030690930F0680930E062CE02093CB
:101B4000100690931A06809319062BE020931B062B
:101B500090932506809324069AE0D92ED0922606EB
:101B600085E895E090933206809331062FE020932C
:101B7000330690933D0680933C062EE020933E066C
:101B800090934806809347062DE020934906909352
:101B900055068093540622E12093560690936006E2
:101BA00080935F0621E12093610690936B068093FA
:101BB0006A0680E180936C06D7015D96FC93EE93F4
:101BC0005C971196DC928AE0C4DA40E452E46FE05C
:101BD00070E0F701848D958DDBDAD701DB961C93DD
:101BE0000E93DA975F96DC928AE0B3DA40E452E42F
:101BF0006FE070E0F70182AD93ADCADA01EA15E05B
:101C0000D801CD93DC93D09286058AE0A2DA40E435
:101C100052E46FE070E0F80180819181B9DA1092AE
:101C20007706109276061092790610927806109236
:101C30007B0610927A068DE08CDA8CE08ADA40E836
:101C400055E260E070E0CE01DF91CF911F910F91DE
:101C5000FF90EF90DF909CCA40D008F481E0089597
:101C6000E89409C097FB3EF4909580957095619536
:101C70007F4F8F4F9F4F9923A9F0F92F96E9BB27EC
:101C80009395F695879577956795B795F111F8CF68
:101C9000FAF4BB0F11F460FF1BC06F5F7F4F8F4FD3
:101CA0009F4F16C0882311F096E911C0772321F0C9
:101CB0009EE8872F762F05C0662371F096E8862F61
:101CC00070E060E02AF09A95660F771F881FDAF7B8
:101CD000880F9695879597F90895990F0008550FE5
:101CE000AA0BE0E8FEEF16161706E807F907C0F0A2
:101CF00012161306E407F50798F0621B730B840BAA
:101D0000950B39F40A2661F0232B242B252B21F483
:101D100008950A2609F4A140A6958FEF811D811D23
:101D200008950BD078C069D028F06ED018F09523B4
:101D300009F05AC05FC01124A2C07ED0A0F3959FC5
:101D4000D1F3950F50E0551F629FF001729FBB27A2
:101D5000F00DB11D639FAA27F00DB11DAA1F649F4E
:101D60006627B00DA11D661F829F2227B00DA11D01
:101D7000621F739FB00DA11D621F839FA00D611D87
:101D8000221F749F3327A00D611D231F849F600DA8
:101D9000211D822F762F6A2F11249F5750408AF0E1
:101DA000E1F088234AF0EE0FFF1FBB1F661F771F6D
:101DB000881F91505040A9F79E3F510570F014C004
:101DC0005EC05F3FECF3983EDCF3869577956795B0
:101DD000B795F795E7959F5FC1F7FE2B880F911D8B
:101DE0009695879597F9089597F99F6780E870E031
:101DF00060E008959FEF80EC089500240A94161681
:101E0000170618060906089500240A9412161306E8
:101E1000140605060895092E0394000C11F4882376
:101E200052F0BB0F40F4BF2B11F460FF04C06F5F92
:101E30007F4F8F4F9F4F089557FD9058440F551F68
:101E400059F05F3F71F04795880F97FB991F61F03C
:101E50009F3F79F087950895121613061406551FB3
:101E6000F2CF4695F1DF08C0161617061806991F1F
:101E7000F1CF86957105610508940895E894BB2714
:101E800066277727CB0197F90895A1E21A2EAA1B9E
:101E9000BB1BFD010DC0AA1FBB1FEE1FFF1FA2171A
:101EA000B307E407F50720F0A21BB30BE40BF50B17
:101EB000661F771F881F991F1A9469F760957095A0
:101EC000809590959B01AC01BD01CF0108955058BC
:101ED000BB27AA270ED09FCF90DF30F095DF20F0F0
:101EE00031F49F3F11F41EF485CF0EF4E095E7FB2B
:101EF0007BCFE92FA1DF80F3BA176207730784074E
:101F0000950718F071F49EF5B9CF0EF4E0950B2EFD
:101F1000BA2FA02D0B01B90190010C01CA01A0013B
:101F20001124FF27591B99F0593F50F4503E68F196
:101F30001A16F040A22F232F342F4427585FF3CFD7
:101F4000469537952795A795F0405395C9F77EF4A8
:101F50001F16BA0B620B730B840BBAF09150A1F0F1
:101F6000FF0FBB1F661F771F881FC2F70EC0BA0F77
:101F7000621F731F841F48F4879577956795B795FF
:101F8000F7959E3F08F0B3CF9395880F08F09927F7
:101F9000EE0F9795879508950CD03DCF35DF40F033
:101FA0002CDF30F021F45F3F19F01ECF511167CFC5
:101FB00021CF42DF98F39923C9F35523B1F3951B41
:101FC000550BBB27AA2762177307840738F09F5F5A
:101FD0005F4F220F331F441FAA1FA9F333D00E2EC9
:101FE0003AF0E0E830D091505040E695001CCAF736
:101FF00029D0FE2F27D0660F771F881FBB1F2617FB
:1020000037074807AB07B0E809F0BB0B802DBF01CD
:10201000FF2793585F4F2AF09E3F510568F0E4CEAA
:102020002ECF5F3FECF3983EDCF38695779567956E
:10203000B795F7959F5FC9F7880F911D969587957E
:1020400097F90895E1E0660F771F881FBB1F62179D
:1020500073078407BA0720F0621B730B840BBA0B5B
:10206000EE1F88F7E095089504D06894B11107CF6A
:102070000895EADE88F09F5790F0B92F9927B7515D
:10208000A0F0D1F0660F771F881F991F1AF0BA953C
:10209000C9F712C0B13081F0F1DEB1E00895EECEA3
:1020A000672F782F8827B85F39F0B93FCCF3869532
:1020B00077956795B395D9F73EF49095809570958F
:1020C00061957F4F8F4F9F4F089507DE08F48FEF84
:1020D000089503DE880B990B0895EE0FFF1F881FEC
:1020E0008BBF0790F691E02D1994CF93DF93823048
:1020F000910510F482E090E0E0917E06F0917F0679
:1021000020E030E0C0E0D0E0309711F14081518113
:1021100048175907C0F04817590761F48281938125
:10212000209719F09B838A832BC090937F0680931E
:102130007E0626C02115310519F04217530718F401
:102140009A01BE01DF01EF010280F381E02DDCCFB7
:102150002115310509F1281B390B2430310590F484
:1021600012968D919C9113976115710521F0FB01D9
:102170009383828304C090937F0680937E06FD0143
:10218000329644C0FD01E20FF31F819391932250D8
:1021900031092D933C933AC020917C0630917D0605
:1021A000232B41F4209102023091030230937D06EB
:1021B00020937C0620910002309101022115310507
:1021C00041F42DB73EB74091040250910502241B03
:1021D000350BE0917C06F0917D06E217F307A0F441
:1021E0002E1B3F0B2817390778F0AC014E5F5F4F6D
:1021F0002417350748F04E0F5F1F50937D0640931C
:102200007C068193919302C0E0E0F0E0CF01DF9182
:10221000CF9108950F931F93CF93DF93009709F405
:102220008CC0FC0132971382128200917E061091BD
:102230007F060115110581F420813181820F931FE2
:1022400020917C0630917D062817390779F5F093A7
:102250007D06E0937C0671C0D80140E050E0AE17E7
:10226000BF0750F412962D913C911397AD012115A3
:10227000310509F1D901F3CF9D01DA0133832283BE
:1022800060817181860F971F8217930769F4EC01B3
:1022900028813981260F371F2E5F3F4F31832083DE
:1022A0008A819B8193838283452B29F4F0937F0657
:1022B000E0937E0642C01396FC93EE931297ED01D5
:1022C000499159919E01240F351FE217F30771F4CC
:1022D00080819181840F951F029611969C938E9315
:1022E0008281938113969C938E931297E0E0F0E0A5
:1022F000D80112968D919C911397009719F0F801CF
:102300008C01F6CF8D919C9198012E5F3F4F820FEB
:10231000931F20917C0630917D062817390769F4B8
:10232000309729F410927F0610927E0602C0138225
:10233000128210937D0600937C06DF91CF911F914E
:102340000F91089581E090E0F89400C011E0C8E09A
:10235000D1E000E005C0802FFE01BFDE2196011D07
:0E236000C930D10780E00807B1F7F894FFCF2D
:10236E000000800680000000000005023B01830192
:10237E004B02B4019201A6016E616E00696E660099
:10238E006F766600564D4450565F317C315F564D28
:10239E004450560D0A0053746172743A00506F73B4
:1023AE006974696F6E2073656E6420746F204C655E
:1023BE006720312051313A00776974682076656C58
:1023CE006F636974793A2000564D4450455F003A68
:0C23DE00323A007C005F564D4450450030
:00000001FF
